:100000000C94201B0C94511B0C94511B0C94511BF1
:100010000C94511B0C94511B0C94511B0C94511BB0
:100020000C94511B0C94511B0C94511B0C94511BA0
:100030000C94511B0C94511B0C94511B0C94511B90
:100040000C94511B0C943AE50C94511B0C94511BCD
:100050000C94511B0C94511B0C94ABDC0C9404C1FC
:100060000C94511B0C9472380C9468380C94511BEE
:100070000C94511B0C94511B0C94511B0C94511B50
:100080000C94511B0C94511B0C94511B0C94511B40
:100090000C94511B0C94511B0C94511B0C94511B30
:1000A0000C94511B0C94511B0C94511B0C94511B20
:1000B0000C94511B0C94511B0C94511B0C94511B10
:1000C0000C94511B0C94511B0C94511B0C94511B00
:1000D0000C94511B0C94511B0C94511B0C94511BF0
:1000E0000C94511B013606360B3615361F369836E2
:1000F00029363136393643364D3657366636703600
:1001000098367A3684368E36EEDEB0DFB5DFC8DF5D
:10011000CDDFE0DFE5DFF8DF04E0DEDE28FB2BFBF0
:100120001AFB1EFB22FB62FB2FFB33FB39FB3DFB63
:1001300041FB47FB4BFB4FFB62FB55FB59FB5DFB58
:10014000E0012801C601E20114011601560108016F
:10015000F801FE006C0140010C949FC60C94A9C2EA
:100160000C947F530C9406FC0C9492510D94321A0B
:100170000C94B7D70D94221A0C94846A0C94C5A2DF
:100180000C94678F0C9473C20C94F6D40C94F8A45E
:100190000C946F900C940B360C941DFC0C9441FB4A
:1001A0000C9457360C9404E00C94A6670C94843697
:1001B0000C940C8E0C9439360C9438C20C9428D5BF
:1001C0000C94B0DF0C9489FD0C9427900C940136AC
:1001D0000C94B9380C9411FC0C94598E0C9429FC95
:1001E0000C941AFB0C94C44F0C9486570C94C3D7F0
:1001F0000C9483D70C9422FB0C9457900D94161BEF
:100200000C94EE8F0C9455FB0C94C8DF0C945DFBA2
:100210000D94091B0C94BE4F0D940C150C94DD8E9F
:100220000C948FD70C9417FC0D94F71A0D94FA1AAE
:100230000C94A6C00C94D5A20C94C24F0C94E5DF8C
:100240000C9428FB0D94121A0C94A2670C946795D9
:100250000D94F11A0C9402FC0C94BAC00C9468A290
:100260000C9462FB0C9494570C94F58E0C94F8DF6C
:100270000C94D3430D945B160C9459FB0D94161AF1
:100280000D94061B0D942A1A0C9434680C946390F8
:100290000C94A2D70C941EFB0C9415360C94F7A169
:1002A0000C945A6C0C94D6430C9461C10D94FD1AB5
:1002B0000C941B900C94488F0D941A1A0D94B20054
:1002C0000C9436900D94AC000C94CD8F0C940FD5FB
:1002D0000D94F1180C94C04F0D94031B0D94F11361
:1002E0000C944B900C94BC530D9499000C9439FBD6
:1002F0000C949E670C9431360C946E5F0C947F8E38
:100300000C94A6570C942FFB0C944D360C945D90D6
:100310000C9409FC0C943AC20C9470360C94CE5F89
:100320000C94FCA10C9416670D9408150C944FFBCB
:100330000C947A360C9456C10D9408070C9436C26E
:100340000C9451900C9481900C943E8E0C946FC040
:100350000C94AB8E0C9429360C9433FB0D943926F7
:100360000C94258E0C94FB920C94CDDF0C9469595F
:100370000C94988E0C9498360C9401FC0C940636D0
:100380000C94D5C00D94A6000C947B900D94F41A97
:100390000D940E1A0D94A0170D94261A0C94E7389C
:1003A0000C94F8FB0C94168F0C94B15D0C944336AE
:1003B0000C9401A20C948E360C94E0DF0C948E67A2
:1003C0000D94181B0D941B1B0C94EE590C947590F6
:1003D0000C944BFB0D9410150C944A670C9406A2D8
:1003E0000C943A680C9469900D941E1A0C94FD8F2D
:1003F0000D94001B0C94823E0C9499C00C946C8E4E
:100400000C94FE380C941F360C942BFB0D94361A6A
:100410000C9449A20D941B260C940BD60C94BCA2F0
:100420000C94B1D70C943DFB0C9408A20C94CDA273
:100430000C94F38D0C9447FB0C94C64F0C941E8FB8
:100440000C9458950C94D0380C94298F0C946636E3
:100450000C9423FC0C9445900D940A150C94DEDE4C
:100460000C94E3D40C94B5DF0D944C180C946F5F8E
:100470000C94BDD70C94C48E0D94A0000D942E1A2C
:100480000C9489A30D940E150C940C900C94EEDE34
:100490000C94E68E4E414E494E495459494E46CD34
:1004A000CCCC3D0AD7233C17B7D13877CC2B32952B
:1004B00095E6241FB14F0A000020410000C8420009
:1004C000401C4620BCBE4CCA1B0E5AAEC59D7400D3
:1004D000407A10F35A00A0724E18090010A5D4E813
:1004E0000000E87648170000E40B54020000CA9AA6
:1004F0003B000000E1F505000080969800000040F8
:10050000420F000000A0860100000010270000003C
:1005100000E803000000006400000000000A000082
:100520000000000100000000002C76D888DC674F36
:100530000823DFC1DFAE59E1B1B796E5E3E453C666
:100540003AE651997696E8E6C28426EB898C9B625E
:10055000ED407C6FFCEFBC9C9F40F2BAA56FA5F408
:1005600090055A2AF75C936B6CF9676DC11BFCE030
:10057000E40D47FEF520E6B500D0ED902E03009483
:100580003577050080841E080000204E0A00000018
:10059000C80C333333330F986E12831141EF8D2122
:1005A00014893BE65516CFFEE6DB18D1844B381B89
:1005B000F77C1D901DA4BBE424203284725E22814E
:1005C00000C9F124ECA1E53D27434F4D4D554E495F
:1005D000434154494F4E0044525952554E004552E2
:1005E000524F525300494E464F004543484F005327
:1005F0006C6565702E2E2E004D65736820706F69D6
:100600006E74206F7574206F662072616E67650A64
:1006100000436C69636B20746F20526573756D6560
:100620002E2E2E004E6F204D6F76652E00456E6487
:100630002066696C65206C6973740A00426567699D
:100640006E2066696C65206C6973740A004E6F20B9
:100650006D656469610A00286E6F2066696C6529A2
:100660000043757272656E742066696C653A20008D
:100670005344207072696E74696E67206279746584
:1006800020004E6F74205344207072696E74696E3E
:10069000670A002569792025696420256968202575
:1006A000696D20256973005072696E742074696DDC
:1006B000653A2000452563202553006F6666004497
:1006C000454255473A004D313132205368757464C4
:1006D0006F776E004D313133205300503830325136
:1006E0005232204F46462E004348414D4245525F0C
:1006F00054454D504552415455524500424142598E
:100700005354455050494E470041524353004D4FBA
:1007100054494F4E5F4D4F44455300544845524D48
:10072000414C5F50524F54454354494F4E004C4F3B
:100730004E475F46494C454E414D45004155544F4B
:100740005245504F52545F53445F53544154555394
:10075000005344434152440050524F4D50545F5354
:100760005550504F525400454D455247454E435900
:100770005F50415253455200434153455F4C4947F6
:1007800048545F4252494748544E45535300544FD2
:1007900047474C455F4C494748545300534F4654D4
:1007A000574152455F504F574552004255494C44BE
:1007B0005F50455243454E54004C4556454C494EBA
:1007C000475F44415441005A5F50524F42450052E6
:1007D000554E4F5554004155544F4C4556454C00CD
:1007E0005052494E545F4A4F420050524F47524573
:1007F0005353004155544F5245504F52545F544546
:100800004D5000564F4C554D4554524943004249B6
:100810004E4152595F46494C455F5452414E5346F2
:1008200045520053455249414C5F584F4E5F584F17
:100830004646004649524D574152455F4E414D454F
:100840003A4D61726C696E206D61726C696E2D3209
:100850002E302E3820284A616E2020392032303246
:10086000312031393A30313A34382920534F5552FA
:1008700043455F434F44455F55524C3A687474702A
:10088000733A2F2F6769746875622E636F6D2F4DF1
:1008900061726C696E4669726D776172652F4D6128
:1008A000726C696E2050524F544F434F4C5F564507
:1008B0005253494F4E3A312E30204D414348494E14
:1008C000455F545950453A503830325152322045E4
:1008D000585452554445525F434F554E543A322076
:1008E000555549443A63656465326132662D343149
:1008F00061322D343734382D396231322D6335353C
:100900006336326633363766660A002F2F20004D75
:1009100031343520533C696E6465783E206F7574C0
:10092000206F662072616E67652028302D31290A9C
:1009300000416363656C65726174696F6E3A205043
:100940000046523A0020466C6F773A200020643A05
:100950000020693A0020703A0046696C616D656E4E
:10096000742072756E6F75742064697374616E6340
:100970006520286D6D293A200046696C616D656EB1
:10098000742072756E6F757420004D343231206999
:100990006E636F727265637420706172616D6574ED
:1009A00065722075736167650A004F6666736574CA
:1009B00073204170706C696564004572723A20540E
:1009C0006F6F206661722100546F6F206661722024
:1009D00066726F6D207265666572656E6365207004
:1009E0006F696E740A00454550524F4D204F4B0AB7
:1009F00000506F7765722D6C6F7373207265636F33
:100A0000766572792000446F6E65207072696E742D
:100A1000696E672066696C650A004D3737004D3393
:100A20003100EA05E505DE05D705C9054572726F97
:100A3000722077726974696E6720746F2045455023
:100A4000524F4D210A004D323930004D34313000C3
:100A50004D313132004D3130380053544F505045F4
:100A6000442E20005072696E7465722073746F702A
:100A70007065642064756520746F206572726F7292
:100A8000732E2046697820746865206572726F72D3
:100A900020616E6420757365204D39393920746F7B
:100AA00020726573746172742E202854656D7065B0
:100AB0007261747572652069732072657365742E36
:100AC00020536574206974206166746572207265B4
:100AD0007374617274696E67290A004E6F204368EF
:100AE00065636B73756D2077697468206C696E65DA
:100AF000206E756D6265722C204C617374204C6998
:100B00006E653A2000636865636B73756D206D696F
:100B1000736D617463682C204C617374204C696E32
:100B2000653A20004C696E65204E756D62657220D5
:100B30006973206E6F74204C617374204C696E650C
:100B4000204E756D6265722B312C204C61737420C0
:100B50004C696E653A20004D3131300053442072AB
:100B6000656164206572726F720A002121204B4911
:100B70004C4C2063617573656420627920746F6FDB
:100B8000206D75636820696E616374697665207491
:100B9000696D65202D2063757272656E7420636FB8
:100BA0006D6D616E643A2000627573793A207061F0
:100BB0007573656420666F7220696E7075740A00C3
:100BC000627573793A2070617573656420666F721F
:100BD00020757365720A00627573793A2070726FBE
:100BE00063657373696E670A004D656469612052BD
:100BF000656D6F766564004D6564696120496E734B
:100C00006572746564004D3130303053004D3630BC
:100C1000302054313700506C656173652052657324
:100C20006574005052494E5445522048414C544539
:100C3000440025533A202553004B494C4C45442E43
:100C400020005072696E7465722068616C7465640E
:100C50002E206B696C6C28292063616C6C656421A3
:100C60000A00456E636C6F737572650052756E6F26
:100C700075742044697374206D6D004C6F6164203D
:100C80006D6D00556E6C6F6164206D6D0046696C12
:100C90002E204469612E202A0046696C2E2044696A
:100CA000612E004520696E206D6DC2B300426564FF
:100CB00020436F6F6C696E672E2E2E004265642094
:100CC00048656174696E672E2E2E0023646566691F
:100CD0006E652044454641554C545F004B642000EE
:100CE0004B6920004B702000504944204175746FBF
:100CF00074756E652066696E69736865642120503D
:100D0000757420746865206C617374204B702C209E
:100D10004B6920616E64204B6420636F6E73746155
:100D20006E74732066726F6D2062656C6F772069D8
:100D30006E746F20436F6E66696775726174696F58
:100D40006E2E680A00504944204175746F74756EA8
:100D500065206661696C6564212074696D656F75D5
:100D6000740A000A20436C6173736963205049441C
:100D7000200A00204B643A2000204B693A200020D2
:100D80004B703A20000A204E6F206F7665727368B0
:100D90006F6F740A002054753A2000204B753A207A
:100DA00000206D61783A2000206D696E3A200020A5
:100DB000643A200020626961733A2000504944205F
:100DC0004175746F74756E652073746172740A0076
:100DD000504944204175746F74756E652066616971
:100DE0006C6564212054656D7065726174757265FF
:100DF00020746F6F20686967680A00504944204179
:100E000075746F74756E6500504944204175746F38
:100E100074756E65206661696C6564212042616449
:100E2000206578747275646572206E756D62657286
:100E30000A00A10000006900A20000006300B000E9
:100E400000000900C10000004100C2000000410094
:100E5000C30000004100C40000004100C5000000C4
:100E60004100C60000004145C70000004300C80023
:100E700000004500C90000004500CD000000490009
:100E8000D10000004E00D50000004F00D600000049
:100E90004F00D70000007800DC0000005500DD00A6
:100EA00000005900E00000006100E1000000610066
:100EB000E20000006100E30000006100E4000000C7
:100EC0006100E50000006100E60000006165E700E8
:100ED00000006300E80000006500E9000000650014
:100EE000EA0000006500EB0000006500EC00000077
:100EF0006900ED0000006900EE0000006900EF00ED
:100F000000006900F10000006E00F20000006F00B8
:100F1000F30000006F00F40000006F00F500000017
:100F20006F00F60000006F00F80000006F00F9008D
:100F300000007500FA0000007500FB00000075005D
:100F4000FC0000007500FD0000007900FF000000BB
:100F50007900040100004100050100006100060164
:100F6000000043000701000063000C010000430083
:100F70000D01000063000E01000044000F0100009D
:100F800064001101000064001901000065001A01ED
:100F9000000045001B01000065001F010000670004
:100FA00030010000490031010000690041010000EA
:100FB0004C00420100006C00430100004E0044015F
:100FC00000006E00480100006E0058010000520051
:100FD0005901000072005A01000053005B0100003B
:100FE00073005F01000073006001000053006101A5
:100FF000000073006501000074006F0100007500BF
:101000007C0100007A007D0100005A007E01000092
:101010007A00920100006600E302000078002220BE
:1010200000002E001E210000507822210000544DA7
:10103000902100003C2D922100002D3EB0210000A7
:101040000300BB21000004003C2200007E00482277
:1010500000007E3D60220000213D612200003D0035
:10106000642200003C3D652200003E3DF12300006B
:101070000700A03000003D0021F301000200C2F48F
:1010800001000500A2000000EC00B0000000DF003D
:10109000E4000000E100F6000000EF00F7000000AF
:1010A000FD00FC000000F500E3020000EB008703F8
:1010B0000000A5008F030000F40098030000F20078
:1010C0009E030000E300A3030000F600A903000054
:1010D000F400AC030000E000AD030000E300B10346
:1010E0000000E000B2030000E200B5030000E300EE
:1010F000B8030000F200BC030000E400BE030000DF
:10110000E300C0030000F700C1030000E600C303D2
:101110000000E500902100007F00922100007E0089
:101120001A220000E8001E220000F30088250000BB
:10113000FF0002300000A1000C300000A2000D30C2
:101140000000A3009B300000DE009C300000DF00A8
:10115000A03000003D00A1300000A700A230000038
:10116000B100A3300000A800A4300000B200A530F8
:101170000000A900A6300000B300A7300000AA00BC
:10118000A8300000B400A9300000AB00AA30000075
:10119000B500AB300000B600AC300000B6DEAD30BC
:1011A0000000B700AE300000B7DEAF300000B8007E
:1011B000B0300000B8DEB1300000B900B23000003D
:1011C000B9DEB3300000BA00B4300000BADEB5308A
:1011D0000000BB00B6300000BBDEB7300000BC0032
:1011E000B8300000BCDEB9300000BD00BA300000ED
:1011F000BDDEBB300000BE00BC300000BEDEBD3036
:101200000000BF00BE300000BFDEBF300000C000E5
:10121000C0300000C0DEC1300000C100C23000009C
:10122000C1DEC3300000AF00C4300000C200C530D2
:101230000000C2DEC6300000C300C7300000C3DEBD
:10124000C8300000C400C9300000C4DECA3000004D
:10125000C500CB300000C600CC300000C700CD3048
:101260000000C800CE300000C900CF300000CA0026
:10127000D0300000CADED1300000CADFD23000001A
:10128000CB00D3300000CBDED4300000CBDFD53034
:101290000000CC00D6300000CCDED7300000CCDF20
:1012A000D8300000CD00D9300000CDDEDA300000AB
:1012B000CDDFDB300000CE00DC300000CEDEDD30E4
:1012C0000000CEDFDE300000CF00DF300000D000B5
:1012D000E0300000D100E1300000D200E230000038
:1012E000D300E3300000AC00E4300000D400E5306F
:1012F0000000AD00E6300000D500E7300000AE0091
:10130000E8300000D600E9300000D700EA300000E5
:10131000D800EB300000D900EC300000DA00ED30EE
:101320000000DB00EF300000DC00F2300000A6001F
:10133000F3300000DD00F4300000B3DEF7300000D1
:10134000DCDEFA300000A6DEFB300000A500FC3039
:101350000000B000FD300000A400074E0000FB00BC
:1013600086510000FC0043530000FA0064FF0000B7
:10137000A40065FF0000A50066FF0000A60067FF4F
:101380000000A70068FF0000A80069FF0000A90096
:101390006AFF0000AA006BFF0000AB006CFF0000BA
:1013A000AC006DFF0000AD006EFF0000AE006FFFEF
:1013B0000000AF0070FF0000B00071FF0000B1003E
:1013C00072FF0000B20073FF0000B30074FF000062
:1013D000B40075FF0000B50076FF0000B60077FF8F
:1013E0000000B70078FF0000B80079FF0000B900E6
:1013F0007AFF0000BA007BFF0000BB007CFF00000A
:10140000BC007DFF0000BD007EFF0000BE007FFF2E
:101410000000BF0080FF0000C00081FF0000C1008D
:1014200082FF0000C20083FF0000C30084FF0000B1
:10143000C40085FF0000C50086FF0000C60087FFCE
:101440000000C70088FF0000C80089FF0000C90035
:101450008AFF0000CA008BFF0000CB008CFF000059
:10146000CC008DFF0000CD008EFF0000CE008FFF6E
:101470000000CF0090FF0000D00091FF0000D100DD
:1014800092FF0000D20093FF0000D30094FF000001
:10149000D40095FF0000D50096FF0000D60097FF0E
:1014A0000000D70098FF0000D80099FF0000D90085
:1014B0009AFF0000DA009BFF0000DB009CFF0000A9
:1014C000DC009DFF0000DD009EFF0000DE009FFFAE
:1014D0000000DF00E5FF00005C00001C1F11111F71
:1014E00000000006191803130C00040E1F041C0052
:1014F0000000000E1315110E00001C101817050631
:101500000500040A0A0A0A11110E0C12120C00003E
:101510000000001F1511151F00004D3330332055FA
:1015200031204525692053256900504944204175E3
:10153000746F74756E65202A005049442D44202A2A
:10154000005049442D49202A005049442D50202A5A
:10155000005654726176204D696E00566D696E00BA
:10156000566D6178204500566D6178205A00566DA1
:101570006178205900566D6178205800416D61787E
:10158000204500416D6178205A00416D61782059F5
:1015900000416D6178205800412D54726176656C70
:1015A00000412D5265747261637400416363656C20
:1015B000005A20526169736500326E64204E6F7A62
:1015C0007A6C65205A00326E64204E6F7A7A6C65B0
:1015D000205900326E64204E6F7A7A6C6520580074
:1015E0005320556E526574205600556E72657472A4
:1015F0006163742056005320556E726574722E20FC
:101600006D6D00486F70206D6D005265747261637E
:1016100074205600537761702052652E6D6D005214
:10162000657472616374206D6D004175746F2D5225
:10163000657472616374004E6F7A7A6C6500205332
:10164000697A653A200043616E6E6F74206F706531
:101650006E207375626469722000534420496E697C
:1016600074204661696C0053442063617264206F8A
:101670006B0A006F70656E526F6F74206661696CE3
:1016800065640A00766F6C756D652E696E697420ED
:101690006661696C65640A004E6F20534420636183
:1016A00072640A004D32332025730046696C652050
:1016B00073656C65637465640A0046696C65206FC8
:1016C00070656E65643A2000454E44205355425281
:1016D0004F5554494E450A002220706F7300222056
:1016E000706172656E743A2200535542524F5554E0
:1016F000494E452043414C4C207461726765743AF1
:10170000220053756263616C6C204F766572666C63
:101710006F77004578636565646564206D61782046
:10172000535542524F5554494E4520646570746874
:101730003A310A0044656C6574696F6E20666169B0
:101740006C65642C2046696C653A200046696C65BE
:101750002064656C657465643A006F70656E206620
:1017600061696C65642C2046696C653A200057728B
:101770006974696E6720746F2066696C653A200031
:10178000667265736800646F696E67004E6F7720DC
:101790000054656D706572617475726500414253E5
:1017A00000504C41004261627973746570205A00A8
:1017B00046616E205370656564004D61696E00502E
:1017C000726568656174202420416C6C00507265FC
:1017D00068656174202420456E64207E0050726527
:1017E00068656174202420426564005072656865F4
:1017F00061742024207E00436F6F6C646F776E00ED
:10180000507265686561742024004E6F7A7A6C6549
:10181000207E00546F74616C00466C6F77207E00F0
:10182000466C6F7700A1179D174F46460A00466128
:101830006465204865696768742000426564204CCF
:101840006576656C696E6720004661696C65642029
:10185000746F20656E61626C6520426564204C6522
:1018600076656C696E670A00496E76616C69642002
:101870006D6573682E0A0050726F62696E67205042
:101880006F696E740025532025692F2569005072F9
:101890006F62696E67206D65736820706F696E7422
:1018A00020004F66667365742063617463686564C5
:1018B0002021006661696C2C206D616E75616C2061
:1018C0006C6576656C004661696C21204D6F7665AC
:1018D00020646F776E2050726F62652E00546F2007
:1018E0006361746368206F666673657400202844C2
:1018F000525952554E2900473239204175746F2094
:10190000426564204C6576656C696E67003F2028EF
:101910004C2C522C462C4229206F7574206F662067
:10192000626F756E64732E0A003F285629657262D5
:101930006F7365206C6576656C20696D706C617580
:101940007369626C652028302D34292E0A004261AB
:1019500064205A2076616C75650A004E6F206269BA
:101960006C696E65617220677269640A00204D3986
:101970003220580020204D61783A200020204D6907
:101980006E3A2000536F667420656E6473746F70D6
:10199000733A20004D32342053256C642054256C5A
:1019A00064004739322E39204525730047312046DF
:1019B0002564004739322E39205A257300473120DB
:1019C0005A30204632303000473120582573205994
:1019D00025732046333030300047312045256420C0
:1019E00046323030004D31303620502569205325A5
:1019F00069004D3130392053256900542569205341
:101A0000004D31393020532569004D32303020549B
:101A10002569204430004D3230302054256920445F
:101A200025730047323852305859004739322E3921
:101A3000204530205A300A47315A2573004D313045
:101A400039205331353020542569004D3134302050
:101A5000532569004D343230205330205A30002055
:101A6000496E76616C69642065787472756465721C
:101A700020006563686F3A004572726F723A0042E7
:101A8000696C696E656172204C6576656C696E671C
:101A900020477269643A0A00507265737320627558
:101AA00074746F6E20746F20726573756D650A00B3
:101AB000507265737320627574746F6E20746F203A
:101AC00068656174206E6F7A7A6C650A00496E6988
:101AD00074004D34323800496E697469616C697AFA
:101AE0006520454550524F4D0050726F6265204F42
:101AF00066667365747300416363656C65726174D7
:101B0000696F6E0056656C6F636974790053657414
:101B100020486F6D65204F666673657473004E656F
:101B2000787420436F726E657200446F6E65004E6C
:101B300065787400486F6D696E672058595A004681
:101B400061646520486569676874004C6576656CFA
:101B500020426564004732380A47323900436174D5
:101B60006368205A204F66667365740047323920D7
:101B70004E004C6576656C20436F726E6572730023
:101B800053657474696E67732053746F7265640073
:101B90002062797465733B2063726320005365741F
:101BA00074696E67732053746F72656420280045F2
:101BB0004550524F4D206461746173697A652065A8
:101BC00072726F722E0A002073746F7265642073D4
:101BD000657474696E677320726574726965766581
:101BE00064202800202863616C63756C61746564EF
:101BF00029210A0020213D2000454550524F4D200B
:101C0000435243206D69736D61746368202D2028F1
:101C100073746F726564292000496E6465783A2098
:101C20000044494749504F5453204C6F61646564E8
:101C30000A0044494749504F5453204C6F6164692E
:101C40006E670A00204D61726C696E3D563833290B
:101C50000A00454550524F4D2076657273696F6E8C
:101C6000206D69736D617463682028454550524F3B
:101C70004D3D00506F776572204F75746167650048
:101C8000436F6E66696775726174696F6E00436158
:101C90006E63656C004D313030300053746F7020CE
:101CA0005072696E743F00526573756D6520507295
:101CB000696E743F004261636B0053746F70004340
:101CC00068616E67652046696C616D656E74004E73
:101CD0006F204D65646961004368616E6765204DE2
:101CE00065646961004D32310054756E6500506164
:101CF000757365205072696E743F0041626F757430
:101D0000205072696E74657200496E666F2053636D
:101D10007265656E005374617274205072696E74DE
:101D20000043616E6E6F7420656E7465722073750A
:101D3000626469723A2000052E2E0020746F6F20B5
:101D40006C6F6E6720657874727573696F6E207042
:101D5000726576656E7465640A00496E76616C69B9
:101D6000642065787472756465720A0020573A00C1
:101D70004163746976652045787472756465723A5A
:101D800020007C3C3E5E2B3D3F2F5B5D3B2C2A229E
:101D90005C00F0004A0110013B0130012C014001C0
:101DA00027015001220170011D0190011801B001AD
:101DB0001301C0010E01F0010901100204013002FB
:101DC000FF006002FA009002F500C002F00000037C
:101DD000EB004003E6008003E100D003DC002004B8
:101DE000D700E004D200C005CD004006C800D006F0
:101DF000C3008007BE00F008B9004009B400C00964
:101E0000AF00B00AAA00B00BA500D00CA000000ED5
:101E10009B00C01096005012910000148C00C01559
:101E20008700B0178200B0197D00D01B7800001E1B
:101E3000730040206E0090226900F0246400402767
:101E40005F0090295A00E02B5500102E50002030E2
:101E50004B0010324600E033410090353C00103713
:101E6000370070383200A0392D00B03A2800A03B6E
:101E70002300603C1E00103D1900903D1700103EED
:101E80001400703E1200C03E0F00003F0C00403FA7
:101E90000800803F0500C03F0000F03FFBFF20200E
:101EA000506C616E6E6572427566666572427974D9
:101EB00065733A20002046726565204D656D6F722E
:101EC000793A2000436F6D70696C65643A204A610D
:101ED0006E20203920323032310A00204C61737478
:101EE00020557064617465643A20323032302D318F
:101EF000322D3137207C20417574686F723A20286A
:101F00005A4F4E45535441522C2048616C6C7929EC
:101F10000A006D61726C696E2D322E302E380A0007
:101F20004D61726C696E0020536F667477617265E3
:101F30002052657365740A00205761746368646F8A
:101F4000672052657365740A002042726F776E20B5
:101F50006F75742052657365740A00204578746546
:101F6000726E616C2052657365740A00506F7765FC
:101F70007255700A006175746F25632E67004732D1
:101F8000385859004D31303031006572726F72200F
:101F900077726974696E6720746F2066696C650A70
:101FA00000446F6E6520736176696E672066696CA8
:101FB000652E0A004D323900456E6473746F70737C
:101FC00000255320256320256320256320256300F9
:101FD00020503A00656E6473746F70732068697482
:101FE0003A20002568753A25303268750025303270
:101FF00068753A2530326875002D2D2D0053440048
:1020000020202020202020006B65797061645F62B1
:102010007574746F6E7320323A20006B657970614D
:10202000645F627574746F6E7320313A20004144AE
:10203000436B657949443A20006164635F6F74685B
:1020400065725F627574746F6E3A200063757272A8
:10205000656E746B7041444356616C75653A20003F
:102060005072696E742041626F72746564004D3203
:102070003520500A4D32340050617573696E672EF9
:102080002E2E00E803000403E803000402E8030026
:1020900004014400760008E7011902059A00CC000B
:1020A000079F02D102042D015F01066F70656E006B
:1020B0005452494747455245440066696C616D6515
:1020C0006E74007A5F70726F6265007A5F6D696E20
:1020D00000795F6D696E00785F6D696E00526570A2
:1020E0006F7274696E6720656E6473746F702073AD
:1020F00074617475730A00000016440000164400F1
:102100000016444C6F61642053657474696E677384
:102110000053746F72652053657474696E67730041
:1021200050726F6265205A204F6666736574004175
:102130006476616E6365642053657474696E677359
:10214000004C6F61642046696C616D656E74202A75
:1021500000556E6C6F61642046696C616D656E74CC
:10216000202A004F6666004F6E00554E4C4F41448A
:102170002046494C414D454E540046494C414D4541
:102180004E54204348414E474500526573746F7268
:10219000652044656661756C74730050726568658E
:1021A0006174202420436F6E660052756E6F7574E3
:1021B0002053656E736F7200546F6F6C20436861BB
:1021C0006E676500546F6F6C204F6666736574733D
:1021D000004D36303020423020542569004D3730D4
:1021E0003120542569004D3730322054256900557F
:1021F0006E6C6F616420416C6C004D37303200436F
:1022000068616E67652046696C616D656E74202A31
:1022100000436F6E74696E75650050757267652056
:102220006D6F726500524553554D45204F505449CE
:102230004F4E533A005052494E5420504155534549
:10224000440020204E6F7A7A6C653A2000453200B7
:10225000453100626564002C2073797374656D20CC
:1022600073746F7070656421204865617465725F76
:1022700049443A2000544845524D414C2052554E55
:102280004157415900546865726D616C2052756EFA
:10229000617761790048656174696E67204661699C
:1022A0006C65640048656174696E67206661696C7D
:1022B0006564004572723A204D415854454D5000B6
:1022C0004D415854454D5020747269676765726579
:1022D00064004572723A204D494E54454D50004DB0
:1022E000494E54454D502074726967676572656444
:1022F00000202F002040002042403A0020403A00B9
:1023000000011000AA038000400100012C01B0016F
:10231000220140021001F00202018003F800400493
:10232000F500E004ED009005E4003006DD00E00675
:10233000D7008007D1003008CC00D008C700700952
:10234000C300100ABE00B00ABB00500BB700900CCF
:10235000B300D00DAA00B00FA5005010A0001014BB
:1023600096009016900010198C00501A8500301CB1
:10237000820070227800B023750040256E0020276F
:102380006900A0296400502A5F00902B5A00D02CCD
:102390005500702D4F00E02E48005031450030337D
:1023A0004100D03539006036370010373300F0383F
:1023B0002D00A0392700803C1C00103D1900903DE5
:1023C0001700103E1400703E1200C03E0F00003F88
:1023D0000C00403F0800803F0500C03F0000F03F78
:1023E000FBFF24F4D43050C38E20C2A24017828B4E
:1023F0007011127A910D816CD90AA861E108C75851
:102400006607615143061E4B5D05C145A7041A418D
:102410001104093D9803713931034036DB026533FD
:102420009102D4305402802E1D02632CEE01752AD5
:10243000C501B028A001102781018F2564012B243C
:102440004B01E0223401AC211F018D200D01801FC2
:10245000FC00841EED00971DDF00B81CD200E61BB7
:10246000C600201BBC00641AB200B219A8000A19E9
:10247000A0006A189900D117910040178B00B5167B
:10248000840031167E00B31579003A157300C71425
:102490006F0058146A00EE1366008813630025135A
:1024A0005E00C7125B006C12570015125400C11178
:1024B000510070114F0021114B00D61049008D10B2
:1024C00047004610440002104200C00F4000800F39
:1024D0003E00420F3C00060F3B00CB0E3800930E2F
:1024E00037005C0E3500270E3400F30D3200C10DAD
:1024F0003100900D3000600D2E00320D2D00050DC5
:102500002C00D90C2B00AE0C2900850C29005C0C8A
:102510002700350C27000E0C2600E80B2400C40B06
:102520002400A00B23007D0B23005A0B2100390B44
:102530002100180B2000F80A1F00D90A1E00BB0A50
:102540001E009D0A1D00800A1D00630A1C00470A28
:102550001B002C0A1B00110A1A00F7091A00DD09DA
:102560001900C4091900AB091900920917007B0969
:102570001800630917004C091600360916002009D7
:1025800016000A091500F5081500E0081400CC082B
:102590001400B8081400A4081400900813007D0863
:1025A00012006B0813005808120046081200340885
:1025B0001100230811001208110001081100F00792
:1025C0001000E0071000D0071000C0071000B0078F
:1025D0000F00A107100091070E0083070F0074077A
:1025E0000F0065070E0057070E0049070E003B0756
:1025F0000D002E070E0020070D0013070D00060723
:102600000D00F9060C00ED060D00E0060C00D406E6
:102610000C00C8060C00BC060C00B0060C00A4069A
:102620000B0099060C008D060B0082060B00770646
:102630000B006C060B0061060A0057060B004C06E7
:102640000A0042060A0038060A002E060A0024067E
:102650000A001A060A001006090007060A00FD050E
:102660000900F4050900EB050900E2050900D90598
:102670000900D0050900C7050900BE050900B50518
:102680000800AD050800A50509009C050800940593
:1026900008008C050800840508007C050800740506
:1026A00008006C050700650508005D050700560574
:1026B00008004E05070047050700400508003805DB
:1026C0000700310507002A050700230507001C0540
:1026D0000600160507000F0507000805060002059D
:1026E0000700FB040600F5040700EE040600E804FA
:1026F0000600E2040700DB040600D5040600CF0450
:102700000600C9040600C3040600BD040600B704A1
:102710000600B1040500AC040600A6040600A004EF
:1027200005009B04060095040500900406008A0439
:10273000050085040500800406007A040500750480
:102740000500700405006B040500660405006104C3
:1027500005005C04050057040500520405004D0403
:10276000050048040500430405003E0404003A0443
:10277000050035040500300404002C04050027047E
:102780000400230405001E0404001A0404001604B7
:102790000500110404000D040400090405000404EC
:1027A000040000040400FC030400F8030400F40324
:1027B0000400F0030400EC030400E8030400E40355
:1027C0000400E0030400DC030400D8030400D40385
:1027D0000400D0030400CC030400C8030300C503B5
:1027E000030024F404D9201BC40C5C0E9804C40913
:1027F0005F0265077101F405F900FB04B3004804AA
:102800008700C10369005803550003034500BE0259
:102810003A008402310053022A00290225000402F2
:102820002000E4011C00C8011900AF011700980145
:1028300014008401130071011000610110005101A6
:102840000E0043010D0036010B002B010B0020018F
:102850000B00150109000C01090003010800FB0031
:102860000800F3000800EB000700E4000600DE00AB
:102870000600D8000600D2000600CC000500C70004
:102880000500C2000500BD000400B9000400B50049
:102890000400B1000400AD000400A9000400A5007C
:1028A0000300A20003009F0004009B0003009800A7
:1028B00003009500020093000300900003008D00C8
:1028C00002008B00030088000200860002008400E2
:1028D0000300810002007F0002007D0002007B00F7
:1028E0000200790002007700010076000200740007
:1028F000020072000100710002006F0002006D0012
:1029000001006C0002006A0001006900020067001B
:102910000100660001006500010064000200620021
:10292000010061000100600001005F0002005D0025
:1029300001005C0001005B0001005A000100590029
:102940000100580001005700010056000100550029
:102950000100540001005300000053000100520028
:10296000010051000100500001004F0001004E0025
:1029700000004E0001004D0001004C0001004B0022
:1029800000004B0001004A0001004900010048001E
:10299000000048000100470001004600000046001A
:1029A0000100450000004500010044000100430013
:1029B000000043000100420000004200010041000D
:1029C000000041000100400001003F0000003F0006
:1029D00001003E0000003E0001003D0000003D00FF
:1029E00001003C0000003C0000003C0001003B00F6
:1029F00000003B0001003A0000003A0001003900ED
:102A000000003900010038000000380000003800E4
:102A100001003700000037000100360000003600DA
:102A200000003600010035000000350000003500D0
:102A300001003400000034000000340001003300C5
:102A400000003300000033000100320000003200BB
:102A500000003200010031000000310000003100B0
:102A600001003000000030000000300001002F00A5
:102A700000002F0000002F0000002F0001002E009A
:102A800000002E0000002E0001002D0000002D008F
:102A900000002D0000002D0001002C0000002C0083
:102AA00000002C0000002C0001002B0000002B0077
:102AB00000002B0000002B0001002A0000002A006B
:102AC00000002A0000002A0001002900000029005F
:102AD0000000290000002900000029000100280052
:102AE0000000280000002800000028000000280046
:102AF0000100270000002700000027000000270039
:102B0000000027000100260000002600000026002B
:102B1000000026000000260001002500000025001E
:102B20000000250000002500000025000000250011
:102B30000100240000002400000024000000240004
:102B400000002400010023000000230000002300F7
:102B500000002300000023000000230000002300E9
:102B600001002200000022000000220000002200DC
:102B700000002200000022000100210000002100CE
:102B800000002100000021000000210000002100C1
:102B900000002100010020000000200000002000B3
:102BA00000002000000020000000200000002000A5
:102BB0000000200001001F0000001F0000001F0097
:102BC00000001F0000001F0000001F0000001F0089
:102BD00001001E0000001E0000001E0000001E007C
:102BE0000000043700001E290000511B000058108F
:102BF000000010090000CC04000078020000410130
:102C0000000020436F756E7420583A0000002200C7
:102C1000250028002B002E003100340002010000A6
:102C2000050108010B0100002100240027002A00F3
:102C30002D003000330001010000040107010A01EA
:102C400005050505070508080808020202020A0A28
:102C50000808040404040101010101010101030346
:102C6000030303030303040707070C0C0C0C0C0CF1
:102C70000C0C0202020206060606060606060B0BEE
:102C80000B0B0B0B0B0B010210202008081020402F
:102C90001020408002010201080402010102040820
:102CA00010204080804020100804020180040201AE
:102CB00080402010080402010804020101020408F7
:102CC00010204080010204081020408020453A0076
:102CD000205A3A0020593A005072696E7420667288
:102CE0006F6D204D6564696100205A3A20002059BB
:102CF0003A200042656420583A20005072696E7490
:102D0000205061757365640050726F62696E672050
:102D10004661696C65640A0050726F62696E672073
:102D20004661696C656400486F6D65202573257385
:102D3000257320466972737400496E73657274203E
:102D400066696C616D656E7420616E642070726579
:102D5000737320627574746F6E0A0050383032518C
:102D600052322052656164792E005072696E746926
:102D70006E672E2E2E00220A00556E6B6E6F776ED8
:102D800020636F6D6D616E643A20220000000A0BB3
:102D900002090C0D0E0807030401000000000000EA
:102DA0000000000000000000000000000000000023
:102DB00000000000000000001211100000000000E0
:102DC0000000000000000000000000000000000003
:102DD00000004D6F74696F6E004D3834004175749A
:102DE0006F20486F6D65004D6F76652025736D6DA2
:102DF000004D6F766520302E316D6D004D6F76651C
:102E000020316D6D004D6F76652031306D6D004560
:102E100078747275646572202A00457874727564DE
:102E20006572004D6F7665205A004D6F76652059AA
:102E3000004D6F766520580044697361626C6520AF
:102E4000537465707065727300486F6D65205A0029
:102E50004732385A00486F6D65205900473238595B
:102E600000486F6D652058004732385800473238A7
:102E7000004D6F7665204178697300486F74656E08
:102E800064206F6666736574733A0020520045458E
:102E900050524F4D20496E697469616C697A65645E
:102EA0000A0048617264636F64656420446566610A
:102EB000756C742053657474696E6773204C6F6110
:102EC0006465640A003B200020204D36303320002A
:102ED00020204D34313220530046696C616D656E9F
:102EE000742072756E6F75742073656E736F723AAD
:102EF00000546F6F6C2D6368616E67696E673A008E
:102F00005431204C002055005430204C0046696C50
:102F1000616D656E74206C6F61642F756E6C6F618E
:102F200064206C656E677468733A0020204D3835F4
:102F3000312058005A2D50726F6265204F666673BB
:102F400065740020204D3230392053004175746F74
:102F50002D526574726163743A20533D3020746F52
:102F60002064697361626C652C203120746F206964
:102F70006E7465727072657420452D6F6E6C792069
:102F80006D6F76657320617320726574726163740E
:102F90002F7265636F7665720020204D32303820C5
:102FA00053005265636F7665723A20533C6C656ED0
:102FB0006774683E20463C756E6974732F6D3E00E1
:102FC00020570020204D3230372053005265747254
:102FD0006163743A20533C6C656E6774683E2046AA
:102FE0003C756E6974732F6D3E205A3C6C69667433
:102FF0003E0020204D343133205300506F776572EE
:103000002D4C6F7373205265636F766572793A0049
:1030100020204D33303120500050494420736574D6
:1030200074696E67733A0020460020480020204DE6
:103030003134352053004D6174657269616C2068CC
:10304000656174757020706172616D65746572730D
:103050003A00204A002020473239205720490020DA
:10306000204D3432302053004175746F2042656426
:10307000204C6576656C696E673A0020204D3231D0
:103080003820540020204D323036205800486F6DD3
:1030900065206F66667365743A0020204D323035C6
:1030A000204200416476616E6365643A20423C6D63
:1030B000696E5F7365676D656E745F74696D655F7A
:1030C00075733E20533C6D696E5F66656564726121
:1030D00074653E20543C6D696E5F74726176656CF8
:1030E0005F66656564726174653E20583C6D617809
:1030F0005F785F6A65726B3E20593C6D61785F79DD
:103100005F6A65726B3E205A3C6D61785F7A5F6AD8
:1031100065726B3E20453C6D61785F655F6A6572E4
:103120006B3E0020204D32303420500041636365F7
:103130006C65726174696F6E2028756E6974732F87
:103140007332293A20503C7072696E745F61636318
:10315000656C3E20523C726574726163745F61639A
:1031600063656C3E20543C74726176656C5F61638C
:1031700063656C3E0020204D3230312058004D6197
:1031800078696D756D20416363656C657261746902
:103190006F6E2028756E6974732F7332293A002080
:1031A000204D3230332058004D6178696D756D20A7
:1031B0006665656472617465732028756E697473E1
:1031C0002F73293A005374657073207065722075EF
:1031D0006E69743A0020204D323030205300204474
:1031E0000020204D32303020540020446973616249
:1031F0006C65640A0046696C616D656E7420736568
:103200007474696E67733A0020204D31343920435D
:10321000203B20556E69747320696E2043656C7382
:103220006975730A0020286D6D290020204732310E
:10323000202020203B20556E69747320696E206D1C
:103240006D000000FA430000FA430000A0400000B7
:10325000C8420000A0420000A0420000C843000095
:10326000B042B80B0000B80B00006400000010274B
:103270000000000020C2000020C10000000000008B
:10328000484200004842000080400202040000A0C2
:10329000400000A0400000004000002044008018D2
:1032A0004400001644FFFFFF5761726E696E673A73
:1032B00020486F6D696E672042756D702044697695
:1032C00069736F72203C20310A00206C696D69744B
:1032D000656420746F2000204D6178200056652DB4
:1032E0004A65726B00565A2D4A65726B0056592D0D
:1032F0004A65726B0056582D4A65726B0050726FAA
:1033000062652059204F66667365740050726F6263
:10331000652058204F666673657400452073746598
:1033200070732F6D6D005A2053746570732F6D6D1F
:1033300000592053746570732F6D6D0058205374BD
:103340006570732F6D6D005061726B696E672E2E04
:103350002E0000005761697420666F720066696C08
:10336000616D656E74206368616E676500746F20BF
:103370007374617274005761697420666F720066BD
:10338000696C616D656E7420756E6C6F61640000B0
:103390004E6F7A7A6C652068656174696E6700505B
:1033A0006C6561736520776169742E2E2E00005064
:1033B0007265737320627574746F6E00746F206829
:1033C000656174206E6F7A7A6C650000496E736572
:1033D00072742066696C616D656E7400616E642044
:1033E000707265737320627574746F6E00746F20F1
:1033F000636F6E74696E7565005761697420666FDE
:10340000720066696C616D656E74206C6F6164003A
:1034100000507265737320427574746F6E00746F20
:1034200020726573756D65207072696E7400005747
:1034300061697420666F72207072696E7400746FB7
:1034400020726573756D652E2E2E000057616974AC
:1034500020666F720066696C616D656E74207075B0
:10346000726765000052756E6177617920576174EB
:1034700063683A204F464600313330004245443AB3
:10348000203130306B207769746820342E376B2000
:1034900070756C6C2D75700052756E617761792056
:1034A00057617463683A204F4E0045323A203130FC
:1034B000306B207769746820342E376B2070756C00
:1034C0006C2D7570004D61782054656D7000323739
:1034D00035004D696E2054656D700045313A2031DC
:1034E00030306B207769746820342E376B2070750C
:1034F0006C6C2D7570005053550047656E65726990
:10350000630050726F746F636F6C00312E30004235
:103510006175640031313532303000687474707315
:103520003A2F2F7777772E616C69657870726573A3
:10353000732E636F6D2F6974656D2F333239363595
:103540003430363339362E68746D6C005A4F4E4520
:1035500053544152205A5249425F56360042696CD8
:10356000696E656172204C6576656C696E670045B1
:103570007874727564657273007777772E7A6F6EE0
:10358000657374617233642E636F6D00503830322E
:1035900051523200323032302D31322D3137006D00
:1035A00061726C696E2D322E302E380056332E34F7
:1035B0002E3000546865726D6973746F72730042C7
:1035C0006F61726420496E666F005072696E746537
:1035D0007220496E666F004361703A003F5A206F57
:1035E0007574206F662072616E67652028003F59F0
:1035F000206F7574206F662072616E676520282DBC
:10360000003F58206F7574206F662072616E676589
:1036100020282D0050726F6265204F6666736574B6
:10362000205800656E7175657565696E67202200AA
:103630006F6B00526573656E643A2000AE010A023A
:1036400011241FBECFEFD1E2DEBFCDBF00E00CBF23
:1036500013E0A0E0B2E0EAE5FFE602E00BBF02C043
:1036600007900D92A633B107D9F725E1A6E3B3E0A1
:1036700001C01D92A231B207E1F71BE1CFE1DBE10E
:1036800000E006C021970109802FFE010F9402354A
:10369000CE31D10780E00807A9F70F94AF1F0D9432
:1036A0009B370C9400002F923F924F925F926F9243
:1036B0007F928F929F92AF92BF92CF92DF92EF92C2
:1036C000FF920F931F93CF93DF93CDB7DEB7A797EA
:1036D0000FB6F894DEBF0FBECDBF8FA320917A1333
:1036E0002EA311E010937A13809181148D3409F484
:1036F000DCC3843511F40C94F22C873411F00C9453
:10370000132D80917F14909180148B31910509F4D1
:103710006AC124F58830910509F43FC04CF497FD47
:10372000C0C382309105CCF1049709F417C1B9C325
:103730008B30910509F451C18531910511F40C9438
:10374000152D0A9709F0ADC360E083E50E945D7214
:10375000682F81E00E94BE830C94152D8A3291055A
:1037600009F4BFC254F48D31910509F46BC10CF416
:1037700059C14E9709F484C194C38B35910509F45E
:10378000FAC18C35910509F4FBC18A35910509F020
:1037900088C310926E0D0C94152D8091160C8130FB
:1037A00011F00C94152D19821A821B821C82CE01F5
:1037B00001965C0134EAE32E33E1F32E01E512E0D9
:1037C0004BEBC42E40E1D42E912C88E5890D0E944C
:1037D0003572F50181935F01882311F10E94E16F39
:1037E0002B013C01892D0E94CF78882351F0F801EC
:1037F0002081318142815381C301B2010F9413357D
:1038000009C0F6012081318142815381C301B20197
:103810000F941235F70160837183828393830AC00A
:10382000F80180819181A281B381F7018083918326
:10383000A283B3839394F4E0EF0EF11C0C5F1F4F4F
:1038400024E0C20ED11C33E09312BFCF85E40E9466
:1038500035728C83882301F10E94E16F6B017C013A
:1038600083E00E94CF78882371F020915D0230912F
:103870005E0240915F0250916002C701B6010F9451
:1038800013356B017C01C092B013D092B113E0925A
:10389000B213F092B31310C080915D0290915E025A
:1038A000A0915F02B09160028093B0139093B11326
:1038B000A093B213B093B3138091FC13882381F0CB
:1038C00080914D1182FF0CC08C81882349F0898141
:1038D000811103C08A81882319F080E00E94D7F209
:1038E00040E050E0BA0186E40E94694820E030E000
:1038F000A9010F949636181684F40E94E16F20E017
:1039000030E040E752E40F9496356093480270939C
:10391000490280934A0290934B028091DB138823E3
:1039200011F40C94502D85E40E941470882311F436
:103930000C94502D88E50E94147081110C94502D28
:1039400089E50E94147081110C94502D8AE50E9423
:10395000147081110C94502D0C941E2D80E50E9442
:103960003572882329F00E94E86D6B017C0103C049
:10397000C12CD12C760183E50E943572882361F039
:103980000E94E16F20E030E04AE754E40F94752E86
:103990000F940F366B017C010F94BB088091230CB0
:1039A000811105C060E08FEE95E00E943CC20E944C
:1039B000ECFBC60ED71EE81EF91E0E94ECFBDC01D4
:1039C000CB018C199D09AE09BF09B7FD02C00C944B
:1039D000152D80E00E94D132F0CF60E080E00E949F
:1039E000BE830C94152D0E9442F681110C94152D66
:1039F0008CE0E9E8F2E0DE01119601900D928A95E3
:103A0000E1F780E50E943572882321F00E94A96FBA
:103A1000862F01C080E0BE016F5F7F4F0E9477C19B
:103A20000C94152D8091B4138770873011F00C948D
:103A3000822D60E08FE40E945D7281110C94152D3F
:103A40000C94822D0E94ECFB6093A10E7093A20E49
:103A50008093A30E9093A40E0E9442F681110C94C1
:103A6000152D8091730D882311F40C94FC2D60E0CA
:103A70008FE40E945D7281110C94152D0C94FC2D25
:103A80002091241330912513409126135091271330
:103A900060915102709152028091530290915402B0
:103AA0000F941335AB01BC0188E50E946948698316
:103AB0007A838B839C832091281330912913409122
:103AC0002A1350912B1360915502709156028091E8
:103AD0005702909158020F941335AB01BC0189E550
:103AE0000E9469486D837E838F839887BE016B5FD8
:103AF0007F4FCE0101960E94F86D882311F40C943B
:103B0000152D80E00E948A870E9436CE61E085E410
:103B10000E945D7201E021E0482FBE016B5F7F4F84
:103B2000CE0101960E94FAF66B017C019B01AC016B
:103B30000F941437811119C049815A816B817C819E
:103B400083EF9CE20E94018D4D815E816F817885BB
:103B50008EEE9CE20E94018DB701A60189EE9CE2E7
:103B60000E94018D8AE00E94A5310E941DCE0E9414
:103B7000CAD00C94152D8FE080936E0D0C94152DEA
:103B800080917E14882349F1893009F0A6C09CE118
:103B9000A92E93E0B92E21E5E22E22E0F22ED12CBF
:103BA00000E010E0F50181915F010E9435728823E9
:103BB00069F00E94E16FF7016083718382839383D0
:103BC000133011F401E002C0DD24D3941F5FF4E050
:103BD000EF0EF11C143031F775C01CE1212E13E0FB
:103BE000312E07EBE02E0DE0F02E21E532E03DA373
:103BF0002CA38BEBC82E80E1D82E00E010E0F10161
:103C000081911F010E943572882309F44AC00E94E5
:103C1000E16F2B013C01133049F0F6012081318125
:103C2000428153810F9412352B013C01ECA1FDA17F
:103C30002081318142815381C301B2010F94123539
:103C40004B015C012DEB37E346E855EB0F949636BC
:103C500087FD0AC02DEB37E346E855E3C501B40103
:103C60000F940F2E1816ECF4133051F440925D02AD
:103C700050925E0260925F027092600201E011C099
:103C8000A5019401F70160817181828193810F9474
:103C90001335F7016083718382839383812F0F949F
:103CA000730D1F5FF4E0EF0EF11C2CA13DA12C5F02
:103CB0003F4F3DA32CA334E0C30ED11C143009F0B8
:103CC0009ECF05C0DD2019F00E94C8D006C0002399
:103CD00021F08DE592E00F94DC0B0E94CAD00C9489
:103CE000152D8091160C813011F00C94152D89E45E
:103CF0000E943572E82E882321F00E94DD6F082F84
:103D000001C000E08AE40E943572F82E882321F079
:103D10000E94DD6F182F01C010E0EE2011F004307A
:103D200020F4FF2041F0143030F088EF95E00E943D
:103D30003D8C0C94152D80E1E1E5F2E0A4EAB3E1BD
:103D400001900D928A95E1F7EE2019F1602F000F96
:103D5000770B880B990B0F94162E2091C31330917B
:103D6000C4134091C5135091C6130F94752E209122
:103D7000E9043091EA044091EB045091EC040F9473
:103D800013356093A4137093A5138093A613909397
:103D9000A713FF2019F1612F110F770B880B990BD7
:103DA0000F94162E2091C7133091C8134091C91358
:103DB0005091CA130F94752E2091ED043091EE04AA
:103DC0004091EF045091F0040F9413356093A813C1
:103DD0007093A9138093AA139093AB1360E080E5CE
:103DE0000E945D728823C1F1EE20D1F0209124134E
:103DF0003091251340912613509127136091A413FD
:103E00007091A5138091A6139091A7130F9412356A
:103E10006093A4137093A5138093A6139093A71394
:103E2000FF20D1F0209128133091291340912A13BB
:103E300050912B136091A8137091A9138091AA132C
:103E40009091AB130F9412356093A8137093A9133C
:103E50008093AA139093AB1340E050E0BA0186E43C
:103E60000E9469486B017C0120E030E0A9010F94B9
:103E7000963618164CF420E030E040E752E4C701D3
:103E8000B6010F94963503C060E070E0CB01698302
:103E90007A838B839C83CE0101960E9455CE0C942D
:103EA000152D0E941AF40C94152D80917F14909179
:103EB00080148C38910509F431C60CF081C182352B
:103EC000910509F473C60CF082C08A31910509F49A
:103ED00095C3BCF58431910509F4E8C27CF48131C5
:103EE000910509F4CFC22CF4029708F493C20C9404
:103EF000EF2C429709F468C60C94EF2C873191059A
:103F000009F409C394F48531910509F400C3469777
:103F100011F00C94EF2C0E94F26080914D11877F7C
:103F2000806280934D110C94152D8831910509F410
:103F300007C3499711F00C94EF2C0E94977F0C94C3
:103F4000152D8F31910509F402C47CF48C31910553
:103F500009F4B5C30CF460C38D31910509F4B7C3FE
:103F60004E9709F4BBC30C94EF2C8C34910509F4E3
:103F700099C46CF48032910509F4C0C38B34910567
:103F800011F00C94EF2C0E9407D20C94152D8D3457
:103F9000910509F48BC48135910511F00C94EF2C37
:103FA0000E9403DD0E9440D20F94CC080E94A430EE
:103FB00068EE73E080E090E00E94EA8A0E94A730F9
:103FC00060E08BED96E00E943CC20C94152D8E367D
:103FD000910509F421C574F58836910509F46AC480
:103FE00084F48435910509F4EFC50CF4E6C58535F4
:103FF000910509F41FC68C35910509F43EC60C9451
:10400000EF2C8B36910509F4FCC454F489369105E4
:1040100009F4A1C48A36910509F4B1C40C94EF2CBB
:104020008C36910509F450C58D36910509F46AC4A2
:104030000C94EF2C8537910509F4C4C60CF0A1C08F
:104040008137910509F448C584F48F36910509F448
:10405000F6C48037910511F00C94EF2C41E060E03C
:1040600070E086EC96E00E94AA308237910509F450
:10407000A2C68337910511F00C94EF2C83E398E0EE
:104080000E943D8C60E083E298E00F94811E60E026
:104090008EE098E00F94811E61E082EE9AE10F9429
:1040A000811E61E083E098E00F94811E61E083EF60
:1040B00097E00F94811E60E08AEE97E00F94811ED6
:1040C00061E080EE97E00F94811E61E086ED97E05D
:1040D0000F94811E61E08FEC97E00F94811E61E0E8
:1040E00087EC97E00F94811E61E089EB97E00F94D5
:1040F000811E60E08BEA97E00F94811E60E08CE9FE
:1041000097E00F94811E60E08EE897E00F94811E87
:1041100060E088E797E00F94811E60E087E697E013
:104120000F94811E60E088E597E00F94811E61E0A6
:1041300081E597E00F94811E60E08CE397E00F9497
:10414000811E60E08EE297E00F94811E60E08BE1BB
:1041500097E00F94811E60E08EE097E00F94811E3F
:1041600060E089E097E00F94811E61E08CEF96E0BB
:104170000F94811E60E088EE96E00F94811E0C94EF
:10418000152D8837910509F468C66CF486379105BA
:1041900009F428C68737910511F00C94EF2C0E9482
:1041A00077D10C94152D8937910509F45EC68D37AA
:1041B000910511F00C94EF2C0E94977F0C94152D13
:1041C0008139E1E09E0711F40C94002B0CF07AC0C9
:1041D000803D910511F40C940A299CF5893C9105C8
:1041E00009F41FC7ACF48B39910509F4B9C434F450
:1041F0008139910509F440C60C94EF2C8E3B910552
:1042000009F4ABC4883C910509F4AAC60C94EF2CC0
:104210008D3C910509F499C754F48B3C910509F440
:1042200041C78C3C910509F45FC70C94EF2C8E3C80
:10423000910509F48DC78F3C910509F4A7C70C942B
:10424000EF2C8C3D910511F40C94B929CCF4833DED
:10425000910511F40C9461293CF4813D910511F410
:104260000C9454290C94EF2C893D910511F40C9475
:1042700064298A3D910511F40C9477290C94EF2C54
:104280008D3221E0920711F40C947C2A64F48D3D68
:10429000910511F40C94E0298232914011F40C94B0
:1042A000352A0C94EF2C8F32F1E09F0711F40C9417
:1042B000FD2A8039914011F00C94EF2C0F94BB082B
:1042C0000C94152D873F31E0930711F40C94022CC8
:1042D0000CF049C0843AF1E09F0711F40C94292BAB
:1042E000FCF48A3931E0930709F4F3C364F48239AA
:1042F000914011F00C94EF2C80E00E94A1A80E9444
:10430000CAD00C94152D8C3921E0920711F40C942D
:10431000062B8D39914011F40C94B72C0C94EF2C92
:10432000843FE1E09E0711F40C94FC2B6CF4853A79
:1043300021E0920711F40C942C2B8C3A914011F44B
:104340000C949F2B0C94EF2C853FE1E09E0711F419
:104350000C94FF2B863F914011F00C94EF2C0F949E
:10436000D4000C94152D8E3B22E0920711F40C948E
:10437000A32C1CF58835E2E09E0711F40C94282C40
:104380006CF4883F21E0920711F40C940A2C8C30D5
:10439000924011F40C941B2C0C94EF2C8B35E2E022
:1043A0009E0711F40C942B2C8D3B924011F00C9431
:1043B000EF2C0E94E57C0C94152D873E23E092079C
:1043C00011F40C94A92CCCF48335E3E09E0711F48E
:1043D0000C94A62C803A934011F00C94EF2C209171
:1043E0007C1430917D1490914D11926090934D11F9
:1043F000C9010E9457620C94152D883E23E0920754
:1044000011F40C94CE2C893E934011F40C94D12CD1
:104410000C94EF2C80E50E943572882329F00E94CD
:10442000E86D6B017C0103C0C12CD12C760183E5C2
:104430000E943572882361F00E94E16F20E030E035
:104440004AE754E40F94752E0F940F366B017C01EC
:104450000F94BB0880917C1490917D14009721F0FB
:1044600061E00E94D4C205C060E081E196E00E9454
:104470003CC240E0C701B6010E942A380E94EFF416
:104480000C94152D8091821484FF02C00C94FF2D92
:104490008091841487FF02C00C94FF2D80918514B5
:1044A000837011F00C94FF2D0C941C2E80914D11F3
:1044B00083FF25C08CE396E00E943D8C80914D11D6
:1044C00083FF17C08CE691E10E948EB88BE1ECE689
:1044D000F1E1DE01119601900D928A95E1F760E01D
:1044E00070E0CE0101960E942266CE0101960E94E4
:1044F00049788DE296E00E943D8C0C94152D0E9427
:10450000368D8DE496E00E943D8C0C94152D0E9412
:10451000F2640C94152DE0917C14F0917D1480814F
:10452000882329F0803209F410823196F8CF60E0B8
:1045300080917C1490917D140E949F620C94152DA3
:1045400083E50E943572882321F00E94A96F0E94A2
:10455000464F84E50E9435728823A9F00E94A96F16
:104560006B017C010E94ECD1C092720CD092730C52
:10457000E092740CF092750CCD28CE28CF2819F05B
:1045800081E08093A313809101048823F9F080E0F7
:1045900090E0A8E4B2E488A399A3AAA3BBA31C8ECD
:1045A0001D8E1E8E1F8E19821A821B821C8200E0B5
:1045B00010E020E0AE01405E5F4FBE01645E7F4FC1
:1045C000CE0101960E9466820C94152D0E948030C7
:1045D000882381F00E9403610E9407D281E29EE05D
:1045E0000E94A8601092861410928714109288146A
:1045F000109289140E94EFF40C94152D80914D11A6
:1046000083FD02C00C94152D83E50E943572811143
:104610000C942B2E0C94152D83E40E941470882387
:1046200019F181E696E00E943D8C8091B3128823B7
:1046300091F0BE016F5F7F4F80EB92E10E9455B712
:104640008E010F5F1F4FF80181918F01882339F090
:104650000E94A531F8CF87E596E00E943D8C8AE064
:104660000E94A5310C94152D80914D1182FF21C01F
:1046700080E796E00E943D8C6091491170914A114B
:1046800080914B1190914C114AE00E94AC318FE225
:104690000E94A5316091451170914611809147119A
:1046A000909148114AE00E94AC310E94AA320C94C9
:1046B000152D82E896E00E943D8C0C94152D80917A
:1046C0007C1490917D140E9457620C94152D80915A
:1046D0004D118E7F80934D110C94152D80914D11AD
:1046E00083FD02C00C94152D0E94DEF380917C1492
:1046F00090917D140E947C640C94152D80914D1135
:1047000082FD0F94BB0880914D1183FD02C00C9473
:10471000152D60E080E50E945D72182F682F809152
:104720007C1490917D140E949F6283E50E943572F3
:10473000882321F00E94A96F0E94464F0E940361C6
:1047400011110C94152D0E9407D20C94152D0E9466
:10475000B8D17B018C0120E831E541E050E00F94B5
:104760006534C9016DE671E00F94BB344B015C0107
:10477000C801B70120E13EE040E050E00F9465340D
:10478000CA01B90128E130E040E050E00F946534FF
:10479000762E672EC62ED72EBCE32B2E312C412C25
:1047A000512CC801B701A20191010F946534F62E76
:1047B000E72ECA01B901A20191010F946534CB0122
:1047C0008E010F5F1F4F8114910499F0EF92FF92B9
:1047D0007F936F936F927F92BF92AF929F928F92CF
:1047E00083E996E09F938F931F930F930F94A72DC8
:1047F00013C0A114B104B1F0EF92FF927F936F93B5
:104800006F927F92BF92AF9287E996E09F938F93CA
:104810001F930F930F94A72D0FB6F894DEBF0FBE12
:10482000CDBF30C0CD2879F0EF92FF927F936F9388
:104830006F927F928BE996E09F938F931F930F93D4
:104840000F94A72DE9CF892B69F0EF92FF927F9308
:104850006F938FE996E09F938F931F930F930F941D
:10486000A72DDACFEF92FF9283EA96E09F938F9382
:104870001F930F930F94A72D0F900F900F900F90F1
:104880000F900F9060E0C8010E94D4C20E94368D44
:10489000B80187EA96E00E941F8D8AE00E94A53148
:1048A0000C94152D0E942BD20C94152D0E9440D2F1
:1048B0000C94152D80916D0D83FF02C00C94152D65
:1048C0000E94A578182F87FF02C00C94152D89E44B
:1048D0000E943572882311F40C94302E0E94B96F17
:1048E00090E01816190614F481E090E026E0289F65
:1048F000F001299FF00D1124E350FC4E808191813D
:104900000C943B2E80916D0D83FF02C00C94152DED
:104910000E94A578182F87FF02C00C94152D89E4FA
:104920000E943572882311F40C94432E0E94B96FB3
:1049300090E01816190614F481E090E026E0289F14
:10494000F001299FF00D1124E350FC4E80819181EC
:1049500000E00C94542E0E94A578182F87FD0AC001
:1049600080E396E30E943D8C812F0E94E7DB8AE082
:104970000E94A5319EA190937A130C94FC2F60E0C5
:1049800080E50E94517281110C94152D81E40E94E2
:104990001470882349F0E0919C0EF0E0EC58F24F3F
:1049A0006081062F10E002C00FEF10E089E40E9442
:1049B0003572882399F00E94B96F90E01816190695
:1049C00014F481E090E026E0289FF001299FF00D8B
:1049D0001124E350FC4E0481158108C083E50E9438
:1049E0003572882319F00E94A96F8B01B8010F3F1F
:1049F000110519F010F06FEF70E06093740D0C94D6
:104A0000152D60E080E50E94517281110C94152DE6
:104A10001092740D0C94152D8EE40E94357288232B
:104A200011F40C94152D0E94A96F6093F5037093F7
:104A3000F6038093F7039093F8030C94152D83E508
:104A40000E941470882331F060E083E50E94517267
:104A500080936D0D0E94368D8FEB96E00E943D8C09
:104A600080916D0D882369F1A2E2EA2EAAE0FA2E68
:104A700000E010E020E080916D0D90E0A0E0B0E05B
:104A8000002E04C0B695A795979587950A94D2F7FE
:104A900080FF0EC0DD24D394D20E222319F08CE2C5
:104AA0000E94A531F701859194910E943D8C2D2D96
:104AB0000F5F1F4FE2E0EE0EF11C05301105D9F635
:104AC000CECD8BEB96E0C9CD109279131092650292
:104AD000ACC70E945B30A9C783E50E94357288236A
:104AE00071F00E94B96F282F30E02D3331051CF48E
:104AF000809300029AC78CE38093000296C70E94BD
:104B0000368D4091000250E060E070E084ED96E068
:104B10000E94E38C8AE00E94A53187C780916D0DC9
:104B200083FD83C789E40E943572882311F40C94B5
:104B3000A32E0E94B96F90E01816190614F481E0B4
:104B400090E026E0289FF001299FF00D1124E3500A
:104B5000FC4E628173810C94AD2E0E944F4D65C74F
:104B600083E50E943572882309F45FC70E94B96FFC
:104B7000182F90E0CD970CF01CE310933C030E949B
:104B8000ECFB6B017C01212F30E0A8EEB3E00F9429
:104B90009234C60ED71EE81EF91EC0923803D0927A
:104BA0003903E0923A03F0923B033FC780916E0DC8
:104BB0008F7D806180936E0D38C780916E0D8F7EE2
:104BC000806280936E0D31C783E50E943572882321
:104BD000E9F00E94ECFB6093A10E7093A20E80930B
:104BE000A30E9093A40E0E94E16F20E030E04AE70C
:104BF00054E40F94752E0F940F3660930102709356
:104C0000020280930302909304020FC780918214E2
:104C100084FF02C00C94BE2E8091841487FF02C0D2
:104C20000C94BE2E80918514837011F00C94BE2ECE
:104C30000C94EF2E83E50E941470882309F4F5C6C6
:104C40000E94ECFB6093A10E7093A20E8093A30EC2
:104C50009093A40E0E94E16F20E030E04AE754E414
:104C60000F94752E0F940F3660933D0370933E039F
:104C700080933F0390934003D8C60E94A57887FD98
:104C8000D4C69091821494FD04C09091841497FF2F
:104C90000AC0ECE1CE2EE3E0DE2EF1E3EF2EF3E1ED
:104CA000FF2E10E009C090918514937091F7682F42
:104CB00081E00E949681B9C6F60181916F010E9440
:104CC0003572882309F46DC0133009F063C00E9467
:104CD000E16F4B015C0120E030E040EA51E40F94C9
:104CE0000F2E87FF4EC0A501940160915113709162
:104CF000521380915313909154130F9496352B01B6
:104D00003C019B01AC016091551470915614809147
:104D10005714909158140F94752E609355147093F6
:104D200056148093571490935814A30192016091E4
:104D300061137091621380916313909164130F94C7
:104D4000752E609361137093621380936313909335
:104D5000641360911B0570911C0580911D05909155
:104D60001E050F94142EA30192010F94752E0F941B
:104D70000F3660931B0570931C0580931D0590935F
:104D80001E058092511390925213A0925313B09229
:104D9000541307C00E94E16FF701648B758B868BFB
:104DA000978B1F5FF4E0EF0EF11C143009F084CFF5
:104DB0000F9497083AC60E9403EE85E191E10E94A4
:104DC000D2E433C680917C1490917D14009709F44D
:104DD00011CCFC012081222309F40CCC60E00E945C
:104DE000D4C223C600917C1410917D1494E0F12C60
:104DF00040E0915029F1F8018081282F2B7F213448
:104E000021F421812133E1F408C08035C9F4F8018F
:104E1000818180538A3048F013C0813421F0853479
:104E200021F441E002C0FF24F39498012E5F3F4F2C
:104E300089012F5F3F4FF80180818032C9F3D9CFBC
:104E400041110E94368DFF2021F08BE099E00E94F5
:104E50003D8CC8010E94B032E8C581E080934E0AC3
:104E600080934D0A0E94A9D1E0C510924E0A10927B
:104E70004D0A0E94A9D1D9C560E070E083E50E9487
:104E80004272823038F00E94328D8FE099E00E94A9
:104E90003D8CCBC58C01112788E40E943572882394
:104EA000E1F00E94DD6F8A3A910544F00E94DD6FC7
:104EB0008530914034F40E94DD6F05C08AEA90E0AD
:104EC00002C084E091E026E0209FF001219FF00DD8
:104ED0001124E350FC4E9183808382E40E9435725A
:104EE0008823D9F00E94DD6F97FD08C00E94DD6F16
:104EF0008937910534F40E94DD6F05C080E090E0B1
:104F000002C088E790E026E0209FF001219FF00D8D
:104F10001124E350FC4E9383828386E40E94357211
:104F2000882309F482C50E94DD6F97FD09C00E94A5
:104F3000DD6F8F3F910509F034F40E94DD6F05C0ED
:104F400080E090E002C08FEF90E026E0209FF0012B
:104F5000219FF00D1124E350FC4E9583848365C599
:104F60000E94A578182F87FD60C50091B60D84E4D6
:104F70000E943572882309F435C70E94E16F6B01E6
:104F80007C0120E030E0A9010F940F2E882309F462
:104F900042C024E01202F0011124E255F24FC08217
:104FA000D182E282F38220E030E0A9016091AE0D6F
:104FB0007091AF0D8091B00D9091B10D0F940F2EA7
:104FC00081110CC080E090E0A0EEBFE38093AE0DB5
:104FD0009093AF0DA093B00DB093B10D20E030E0F1
:104FE000A9016091B20D7091B30D8091B40D9091B3
:104FF000B50D0F940F2E81110CC080E090E0A0EE53
:10500000BFE38093B20D9093B30DA093B40DB09312
:10501000B50D01E0E7C680E08093B60D0F94080758
:1050200004C50E94A57887FD00C56CE1C62E63E02B
:10503000D62E71E3E72E73E1F72E10E0F601819191
:105040006F010E941470882331F10E94E16F6C8F10
:105050007D8F8E8F9F8F80E1E5E9F2E0DE01119672
:1050600001900D928A95E1F79E012F5F3F4F47EF28
:105070005AE1612FCE014C960F94C2076C8D7D8D45
:105080008E8D9F8D0F940F36F7016083718382831D
:1050900093830F9450081F5FF4E0EF0EF11C14305F
:1050A00069F6C3C40E94A57887FDBFC44CE1E42E15
:1050B00043E0F42E01E313E151E4C52E53E1D52E74
:1050C000F70181917F010E941470882339F00E94BA
:1050D000E16FF80164A375A386A397A30C5F1F4F2C
:1050E000C016D10669F7A1C48091831487FD7FC6DD
:1050F000809184148E7009F07AC6409165135091A6
:105100006613609167137091681381E399E00E94C0
:10511000018D4091691350916A1360916B137091E6
:105120006C138BE89EE20E94018D40916D135091AB
:105130006E1360916F137091701387EE91E30E946C
:10514000018D8AE00E94A53170C40E94E0816DC487
:1051500033ECE32E3DE0F32E10E088E5810F0E9452
:105160001470882351F00E94E16FF701608371830E
:1051700082839383812F0F94730D1F5FF4E0EF0EF2
:10518000F11C133051F70E94CAD04FC483E50E942E
:105190001470882351F00E94E16F6093DC137093C8
:1051A000DD138093DE139093DF1386E40E94147066
:1051B000882381F00E94E16F20E030E040E752E474
:1051C0000F9496356093E0137093E1138093E2138C
:1051D0009093E3138AE50E941470882351F00E9493
:1051E000E16F6093E4137093E5138093E61390935B
:1051F000E71387E50E941470882309F416C40E94FF
:10520000E16F6093F0137093F1138093F213909316
:10521000F3130BC483E50E941470882351F00E949D
:10522000E16F6093E8137093E9138093EA1390930E
:10523000EB1386E40E941470882381F00E94E16FD2
:1052400020E030E040E752E40F9496356093EC1391
:105250007093ED138093EE139093EF1382E50E9409
:105260001470882381F00E94E16F20E030E040E775
:1052700052E40F9496356093F8137093F91380936A
:10528000FA139093FB1387E50E941470882309F4A6
:10529000CCC30E94E16F6093F4137093F513809375
:1052A000F6139093F713C1C383E50E94147088230B
:1052B00009F4BBC30E94CD6F8093DB130E94A078DA
:1052C000B4C30E94A780B1C38AE50E9435728823C7
:1052D00051F00E94E16F6093450A7093460A8093F3
:1052E000470A9093480A80E00E94D1819EC30E94A1
:1052F000A578182F87FD99C388E50E943572882309
:1053000061F00E94E16F2CE01202F0011124E35DD4
:10531000F54F608371838283938389E50E943572A0
:10532000882361F00E94E16F3CE01302F001112438
:10533000E35DF54F64837583868397838AE50E94D6
:105340003572882361F00E94E16F2CE01202F001B7
:105350001124E35DF54F6087718782879387809181
:10536000841487FD62C380918514837009F05DC346
:1053700084C583E50E943572882331F00E94DD6F79
:1053800090933A0280933902809182149091831411
:10539000A0918414B0918514892B8A2B8B2B09F052
:1053A00044C36091390270913A0281E499E00E940D
:1053B000128D85E20E94A5318AE00E94A53135C395
:1053C0000E94A578F82E87FD30C383E50E943572D0
:1053D0000F2D0F2C000C110B882361F10E94DD6F43
:1053E000F801EE0FFF1FEC57FD4F91838083000FF4
:1053F000111F000F111F9801285E3D4F7901BC015C
:10540000990F880B990B0F94162E2AE037ED43E283
:105410005CE30F94752EF801E75AFB4E2081318131
:10542000428153810F94752EF701608371838283CB
:105430009383FBC20E94368D85E40E94A53180E3F0
:105440008F0D0E94A531000F111FF801EC57FD4F81
:105450006081718185E499E00E94128D85E20E944D
:10546000A5318AE00E94A531E0C28AE50E9435722A
:10547000811105C083E50E943572882331F10E94B5
:10548000E16F20E030E040E050EC0F940F2E87FDFC
:105490002EC50E94E16F20E030E040E050E40F9420
:1054A000963618160CF41EC50E94E16F20914D131C
:1054B00030914E1340914F13509150130F94752E0D
:1054C0000F940836CB010E9425F28091841487FD49
:1054D00013C580918514837009F00EC50E94368D26
:1054E0006091A50E7091A60E85EA97E10E94128D3B
:1054F0008AE00E94A53199C260E085E40E94517261
:10550000823008F073C080E50E941470882351F047
:105510000E94E16F60938B0D70938C0D80938D0DC5
:1055200090938E0D89E40E941470882381F00E946C
:10553000E16F2CEA35EC47E25EE30F94752E609341
:105540008F0D7093900D8093910D9093920D84E444
:105550000E941470882381F00E94E16F2CEA35ECE0
:1055600047E25EE30F9496356093930D7093940D2C
:105570008093950D9093960D0E94368D40918B0DE2
:1055800050918C0D60918D0D70918E0D85E599E097
:105590000E94018D2CEA35EC47E25EE360918F0DAD
:1055A0007091900D8091910D9091920D0F94963580
:1055B000AB01BC0181E599E00E94018D2CEA35EC3C
:1055C00047E25EE36091930D7091940D8091950D8B
:1055D0009091960D0F94752EAB01BC018DE499E06E
:1055E0000E94018D8AE00E94A5311FC20E94328D67
:1055F0008AE59DE10E943D8C18C20E94804815C238
:1056000081E00E94A1A80E94CAD00FC2809182149A
:1056100083FD78C480918414867009F073C40E945D
:10562000368D89E799E00E943D8C809142020E946C
:10563000D78C4091800250918102609182027091DA
:10564000830289E599E00E94018D8AE00E94A531DC
:10565000ECC10E946270E9C16FEF7FEF89E40E94A4
:105660004272082F6FEF7FEF8AE40E944272182F78
:105670008AE50E943572811108C081E50E94357269
:10568000D82E882309F463C401C0D12CC02E81E038
:10569000800F853008F04CC0912E81E0810F85305D
:1056A00008F046C00E94E16F2B013C01F02E07FD7F
:1056B000F12C07FF02C0F3E0CF2E812E17FD812CC5
:1056C00017FF02C0E3E09E2ECF1408F4AEC1E82C11
:1056D000F4E0FF9E500111249E1440F10E2D10E0C5
:1056E000DD2071F0F501E00FF11FEE0FFF1FEE0F4F
:1056F000FF1FE75FFB4E208131814281538103C050
:1057000020E030E0A9010A0D1B1D000F111F000F42
:10571000111F075F1B4EC301B2010F941335F8012F
:105720006083718382839383E394D6CFF394CCCF49
:105730000E94328D88EF95E00E943D8C76C10E94D8
:1057400042F6811172C102E712E321E532E03DA386
:105750002CA3CE0101961C0145EAC42E42E3D42EAF
:105760007C01F8016591759185919491ECA1FDA161
:1057700081909190A190B190FDA3ECA3A50194011B
:105780000F9412352B013C01F701608371838283F2
:10579000938320E030E040EA51EC0F94963687FD89
:1057A0000AC020E030E040EA51E4C301B2010F94A6
:1057B0000F2E18162CF4F601849118160CF4CEC393
:1057C000F70181909190A190B1907F0120E030E0AD
:1057D00040EA51ECC501B4010F94963687FDC8C369
:1057E00020E030E040EA51E4C501B4010F940F2EEF
:1057F00018160CF0CBC3BCC30E94A39B16C10F9418
:10580000B00213C161E083E50E945D7281270F94AD
:10581000C6020BC181E08093BE130E947095109266
:10582000BE13882309F401C10E94368D86EE99E0EB
:105830000E943D8CFAC080914D1182FF04C08064AB
:1058400080934D11F2C083FFF0C00E94DEF3EDC0E3
:105850000E94377EEAC00E94A578082F87FDE5C028
:1058600085E50E9414708823A9F1E02E002E000C1B
:10587000FF080E94E16F4B015C0120E030E0A901CC
:105880000F94963687FF04C0B7FAB094B7F8B09477
:10589000C70123E0880F991F2A95E1F79C01255342
:1058A0003C4E7901F90180829182A282B38220E08C
:1058B00030E048E453E4C501B4010F94963618165D
:1058C0004CF480E090E0A8E4B3E4F7018083918396
:1058D000A283B3838CE40E941470882309F4A5C0CA
:1058E000002E000C110B0E94E16F6B017C0120E087
:1058F00030E0A9010F94963687FF04C0F7FAF094C0
:10590000F7F8F09493E0000F111F9A95E1F7055313
:105910001C4EF801C482D582E682F78220E030E096
:1059200048E453E4C701B6010F94963618160CF0FC
:105930007CC080E090E0A8E4B3E4F8018483958320
:10594000A683B78372C00E94B07B6FC00F94B41B54
:105950006CC081E08093160C10924C0C60E083E5E3
:105960000E945D72811161C00F942E1B5EC083E5A1
:105970000E941470882339F00E94CD6F8093FC132D
:105980000E94397852C00E94368D81EF99E00E94C2
:105990003D8C8091FC130E94D78C47C00E94E87810
:1059A00044C00E94B8D16D3371058105910520F086
:1059B0008EE19AE00F94CB1E8AE19AE00F94CB1E01
:1059C0000E9431780E94E76486E09AE00E943D8C54
:1059D00089ED9DE29093530A8093520A26C00E945B
:1059E0001AF423C010917F140E94ECFB6093A10E67
:1059F0007093A20E8093A30E9093A40E212F012EDC
:105A0000000C330B80919C0E90E02817390729F089
:105A100060E083E50E945D7201C081E0682F812F04
:105A20000E94A1BB02C00E941AF4FFA1F11102C0A2
:105A30000F941E1B2EA120937A13DEC28090B01308
:105A40009090B113A090B213B090B31320915D0267
:105A500030915E0240915F0250916002C501B40135
:105A60000F9412356B017C0120E030E0A9010F9406
:105A7000963687FFB4C22DEC3CEC4CEC5DEBC701D5
:105A8000B6010F940F2E18165CF0C701B60190589E
:105A900020E030E040E251E40F940F2E18161CF481
:105AA0000E94E2CAC2CF00919C0E10E00A5C1C4F1B
:105AB0007724739420E030E0A901C701B6010F9468
:105AC000963618160CF0712CF80180818711E8CFFA
:105AD00080925D0290925E02A0925F02B09260029C
