:100000000C94EC1A0C941D1B0C941D1B0C941D1BC2
:100010000C941D1B0C941D1B0C941D1B0C941D1B80
:100020000C941D1B0C941D1B0C941D1B0C941D1B70
:100030000C941D1B0C94758F0C941D1B0C941D1B94
:100040000C941D1B0C9433CD0C941D1B0C941D1B88
:100050000C941D1B0C941D1B0C941B750C942B8F66
:100060000C941D1B0C94443A0C943A3A0C941D1BAE
:100070000C941D1B0C941D1B0C941D1B0C941D1B20
:100080000C941D1B0C941D1B0C941D1B0C941D1B10
:100090000C941D1B0C941D1B0C941D1B0C941D1B00
:1000A0000C941D1B0C941D1B0C941D1B0C941D1BF0
:1000B0000C941D1B0C941D1B0C941D1B0C941D1BE0
:1000C0000C941D1B0C941D1B0C941D1B0C941D1BD0
:1000D0000C941D1B0C941D1B0C941D1B0C941D1BC0
:1000E0000C941D1BB937BE37C337CD37D7375038BF
:1000F000E137E937F137FB3705380F381E38283834
:10010000503832383C3846381368EC67EF67166869
:10011000F267F567F8670468FB671168FE670168B6
:1001200078773A783F78527857786A78767868772F
:100130002202D2018C01E0002C01BA010801200248
:1001400058018801AC01A401E001CA00BA01AA016A
:10015000D000E4000C9496890C94A0E30C94AFEBCF
:100160000C94BB640C94CADD0C94B7EB0C944EDF7A
:100170000D945E020C94CC870C94B7910C94D08EA5
:100180000C946C890D94611E0C9415900D9463046D
:100190000C94D5890D94A0010C94FC8E0C94767867
:1001A0000D94AA010C94A7640C94D9E90D94A404AD
:1001B0000D944E0F0C949E910C9482DF0C94B764B6
:1001C0000D946F010C94FB370D94AE010C94F5D592
:1001D0000C9471530C9464400C94BEF00D949207EF
:1001E0000C949E870C94C78E0C943F780C94D73750
:1001F0000C94B9370C94F8670C94C3890C94B364CD
:100200000C9485590C949D510C94E1890C949B5548
:100210000D9480010C94C3640C9498910D94C42A9D
:100220000C9465590C9455880C94A2DC0D945904D7
:100230000D9470020C946C610C94B5450C946CE3B5
:100240000D940E1D0D9464020C94B9870C94A36454
:100250000C945B8C0C94A23A0D9473010C949191C4
:100260000C94EF670C94B4910C94F4E30C94B5DC0B
:100270000C94108F0C941E900C940B880C94BF64FB
:100280000C947CDF0C94B8450C94CD5B0C94B0912D
:100290000C94E4D50C94B1940C9487890C94B93ADD
:1002A0000C9446380C948B3A0C9428900C944E89FC
:1002B0000D948A010C94A5510D94141D0C9442DFE9
:1002C0000C943A780C9416680C94CF890C94149082
:1002D0000C94485B0C94C8EB0C94DB890D94101DB6
:1002E0000C94FE670C944D610C947D610C943D88D8
:1002F0000C943C380C9475610C94BEE40C94AF647F
:100300000C9401680C94E1370C94B1890C94AB64A3
:100310000D948E010C94E7DC0D946B010C942488F1
:100320000D94A62A0C94F2D50C94A8880C949F6482
:100330000C945D890C9461DF0C942D890C94B78921
:100340000C9424900C9476DF0D9498010C94D4E3D3
:100350000C94C7880D94A6010D9492010C946877B3
:100360000C94BE370C94A5890C941E380D946A0227
:100370000C94FB670D94B3010C946C870C94735927
:100380000C947E880C9485870C946A780C94F8877A
:100390000C9453870C9446880D94F8040C940F38F1
:1003A0000C94D03A0D947C010C9482630C94F1D59A
:1003B0000C9457780C94E9370C9404680C945E55AF
:1003C0000D949C010C94EC670C9450380C94F8E359
:1003D0000C947B890C9470DF0C9431670C94A151C0
:1003E0000C94AB890C94C3370C94DF870C94BD89B3
:1003F0000C94CD370D94161D0C949F510C94BF9105
:100400000C9428380C9489880C94905F0C94F4F028
:100410000C94A4910C9413680C94CEDC0D945E049F
:100420000C9405380C9451930C94F5670C944B6123
:100430000C94AA910D94F71B0C9431620C94C98909
:100440000D9484010D9479010C9476880C94B3EB8F
:100450000C9432380C9411680D9454040C9488D682
:100460000C94CCEB0C9452780C94B88E0C94A35151
:100470000C94F2670C94C7640D94121D0C94787759
:100480000C94F1370C94DD624E414E494E4954595B
:10049000494E46CDCCCC3D0AD7233C17B7D138774F
:1004A000CC2B329595E6241FB14F0A000020410065
:1004B00000C84200401C4620BCBE4CCA1B0E5AAEAF
:1004C000C59D7400407A10F35A00A0724E180900BE
:1004D00010A5D4E80000E87648170000E40B5402A9
:1004E0000000CA9A3B000000E1F5050000809698E4
:1004F00000000040420F000000A086010000001034
:100500002700000000E80300000000640000000075
:10051000000A00000000000100000000002C76D856
:1005200088DC674F0823DFC1DFAE59E1B1B796E53C
:10053000E3E453C63AE651997696E8E6C28426EBA0
:10054000898C9B62ED407C6FFCEFBC9C9F40F2BAB3
:10055000A56FA5F490055A2AF75C936B6CF9676D4B
:10056000C11BFCE0E40D47FEF520E6B500D0ED90A0
:100570002E0300943577050080841E080000204E6D
:100580000A000000C80C333333330F986E12831106
:1005900041EF8D2114893BE65516CFFEE6DB18D1DD
:1005A000844B381BF77C1D901DA4BBE424203284AF
:1005B000725E228100C9F124ECA1E53D27434F4D35
:1005C0004D554E49434154494F4E0044525952559E
:1005D0004E004552524F525300494E464F0045433C
:1005E000484F00536C6565702E2E2E004D65736864
:1005F00020706F696E74206F7574206F6620726151
:100600006E67650A00436C69636B20746F205265E6
:1006100073756D652E2E2E004E6F204D6F76652EF4
:1006200000456E642066696C65206C6973740A000D
:10063000426567696E2066696C65206C6973740A2F
:10064000004E6F206D656469610A00286E6F206638
:10065000696C65290043757272656E742066696CF9
:10066000653A20005344207072696E74696E672089
:100670006279746520004E6F742053442070726953
:100680006E74696E670A00256979202569642025E2
:1006900069682025696D20256973005072696E7440
:1006A0002074696D653A2000452563202553006F4D
:1006B00066660044454255473A004D313132205379
:1006C000687574646F776E004D313133205300507C
:1006D000383032515232204F46462E004348414D69
:1006E0004245525F54454D50455241545552450084
:1006F000424142595354455050494E47004152439C
:1007000053004D4F54494F4E5F4D4F444553005495
:100710004845524D414C5F50524F54454354494F08
:100720004E004C4F4E475F46494C454E414D4500AB
:100730004155544F5245504F52545F53445F5354A8
:1007400041545553005344434152440050524F4D7D
:1007500050545F535550504F525400454D455247E9
:10076000454E43595F504152534552004341534512
:100770005F4C494748545F4252494748544E45539D
:100780005300544F47474C455F4C4947485453002A
:10079000534F4654574152455F504F5745520042C0
:1007A00055494C445F50455243454E54004C4556C4
:1007B000454C494E475F44415441005A5F50524FA7
:1007C00042450052554E4F5554004155544F4C45EB
:1007D00056454C005052494E545F4A4F42005052C9
:1007E0004F4752455353004155544F5245504F5275
:1007F000545F54454D5000564F4C554D4554524949
:10080000430042494E4152595F46494C455F54525C
:10081000414E534645520053455249414C5F584F53
:100820004E5F584F4646004649524D574152455F2C
:100830004E414D453A4D61726C696E206D61726C2E
:10084000696E2D322E302E3820284A616E202039D4
:1008500020323032312031383A34353A3438292098
:10086000534F555243455F434F44455F55524C3AB1
:1008700068747470733A2F2F6769746875622E6399
:100880006F6D2F4D61726C696E4669726D77617222
:10089000652F4D61726C696E2050524F544F434F1B
:1008A0004C5F56455253494F4E3A312E30204D4100
:1008B0004348494E455F545950453A5038303251BB
:1008C00052322045585452554445525F434F554E7D
:1008D000543A3220555549443A6365646532613271
:1008E000662D343161322D343734382D396231324E
:1008F0002D6335356336326633363766660A002F28
:100900002F20004D31343520533C696E6465783EAC
:10091000206F7574206F662072616E6765202830C5
:100920002D31290A00416363656C65726174696FDA
:100930006E3A20500046523A0020466C6F773A20BB
:100940000020643A0020693A0020703A0046696C41
:10095000616D656E742072756E6F75742064697355
:1009600074616E636520286D6D293A200046696CBC
:10097000616D656E742072756E6F757420004D34F4
:10098000323120696E636F727265637420706172B8
:10099000616D657465722075736167650A004F66E5
:1009A0006673657473204170706C6965640045728C
:1009B000723A20546F6F206661722100546F6F206D
:1009C0006661722066726F6D207265666572656E13
:1009D000636520706F696E740A00454550524F4D33
:1009E000204F4B0A00506F7765722D6C6F73732028
:1009F0007265636F766572792000446F6E65207052
:100A000072696E74696E672066696C650A004D379D
:100A100037004D333100DE05D905D205CB05BD05C4
:100A20004572726F722077726974696E6720746F95
:100A300020454550524F4D210A004D323930004D6E
:100A4000343130004D313132004D313038005354A3
:100A50004F505045442E20005072696E74657220CC
:100A600073746F707065642064756520746F2065A1
:100A700072726F72732E20466978207468652065E3
:100A800072726F7220616E6420757365204D393902
:100A90003920746F20726573746172742E2028542B
:100AA000656D706572617475726520697320726519
:100AB0007365742E205365742069742061667465B3
:100AC000722072657374617274696E67290A004ED0
:100AD0006F20436865636B73756D20776974682058
:100AE0006C696E65206E756D6265722C204C617349
:100AF00074204C696E653A2000636865636B73759A
:100B00006D206D69736D617463682C204C61737422
:100B1000204C696E653A20004C696E65204E756DFB
:100B2000626572206973206E6F74204C617374204B
:100B30004C696E65204E756D6265722B312C204CB0
:100B4000617374204C696E653A20004D313130007C
:100B500053442072656164206572726F720A0021CD
:100B600021204B494C4C2063617573656420627988
:100B7000204B494C4C20627574746F6E2F70696EF7
:100B80000A002121204B494C4C2063617573656438
:100B900020627920746F6F206D75636820696E61C3
:100BA00063746976652074696D65202D20637572A4
:100BB00072656E7420636F6D6D616E643A200062C1
:100BC0007573793A2070617573656420666F722061
:100BD000696E7075740A00627573793A2070617578
:100BE00073656420666F7220757365720A006275A2
:100BF00073793A2070726F63657373696E670A0068
:100C00004D656469612052656D6F766564004D6560
:100C100064696120496E736572746564004D31309A
:100C2000303053004D3630302054313700506C6531
:100C3000617365205265736574005052494E544586
:100C4000522048414C5445440025533A2025530036
:100C50004B494C4C45442E20005072696E746572AD
:100C60002068616C7465642E206B696C6C28292087
:100C700063616C6C6564210A006563686F3A0045C6
:100C800072726F723A00456E636C6F7375726500B5
:100C900052756E6F75742044697374206D6D004CCD
:100CA0006F6164206D6D00556E6C6F6164206D6DB9
:100CB0000046696C2E204469612E202A0046696C2A
:100CC0002E204469612E004520696E206D6DC2B3EF
:100CD0000042656420436F6F6C696E672E2E2E0094
:100CE0004265642048656174696E672E2E2E00236C
:100CF000646566696E652044454641554C545F0005
:100D00004B6420004B6920004B7020005049442068
:100D10004175746F74756E652066696E6973686578
:100D200064212050757420746865206C6173742090
:100D30004B702C204B6920616E64204B6420636FE4
:100D40006E7374616E74732066726F6D2062656C71
:100D50006F7720696E746F20436F6E666967757276
:100D60006174696F6E2E680A0050494420417574A1
:100D70006F74756E65206661696C656421207469A5
:100D80006D656F75740A000A20436C617373696343
:100D900020504944200A00204B643A2000204B692F
:100DA0003A2000204B703A20000A204E6F206F76C8
:100DB000657273686F6F740A002054753A200020C2
:100DC0004B753A2000206D61783A2000206D696EE5
:100DD0003A200020643A200020626961733A2000C2
:100DE000504944204175746F74756E652073746149
:100DF00072740A00504944204175746F74756E65B1
:100E0000206661696C6564212054656D706572614E
:100E10007475726520746F6F20686967680A005086
:100E20004944204175746F74756E650050494420C3
:100E30004175746F74756E65206661696C656421B7
:100E400020426164206578747275646572206E75E5
:100E50006D6265720A00A10000006900A200000036
:100E60006300B00000000900C10000004100C200A2
:100E700000004100C30000004100C4000000410028
:100E8000C50000004100C60000004145C700000049
:100E90004300C80000004500C90000004500CD0027
:100EA00000004900D10000004E00D50000004F00B6
:100EB000D60000004F00D70000007800DC000000E2
:100EC0005500DD0000005900E00000006100E10075
:100ED00000006100E20000006100E300000061002A
:100EE000E40000006100E50000006100E600000091
:100EF0006165E70000006300E80000006500E900AC
:100F000000006500EA0000006500EB0000006500DD
:100F1000EC0000006900ED0000006900EE00000038
:100F20006900EF0000006900F10000006E00F200AF
:100F300000006F00F30000006F00F40000006F007D
:100F4000F50000006F00F60000006F00F8000000E0
:100F50006F00F90000007500FA0000007500FB004A
:100F600000007500FC0000007500FD000000790025
:100F7000FF000000790004010000410005010000AD
:100F800061000601000043000701000063000C013E
:100F9000000043000D01000063000E01000044004A
:100FA0000F0100006400110100006400190100003D
:100FB00065001A01000045001B01000065001F01CB
:100FC00000006700300100004900310100006900A5
:100FD000410100004C00420100006C004301000090
:100FE0004E00440100006E00480100006E005801F0
:100FF000000052005901000072005A010000530025
:101000005B01000073005F010000730060010000DD
:1010100053006101000073006501000074006F015E
:10102000000075007C0100007A007D0100005A007C
:101030007E0100007A00920100006600E3020000D9
:101040007800222000002E001E210000507822216E
:101050000000544D902100003C2D922100002D3EB7
:10106000B02100000300BB21000004003C2200006E
:101070007E00482200007E3D60220000213D61226A
:1010800000003D00642200003C3D652200003E3D22
:10109000F12300000700A03000003D0021F3010013
:1010A0000200C2F401000500A2000000EC00B00044
:1010B0000000DF00E4000000E100F6000000EF00A7
:1010C000F7000000FD00FC000000F500E302000056
:1010D000EB0087030000A5008F030000F4009803D5
:1010E0000000F2009E030000E300A3030000F600EE
:1010F000A9030000F400AC030000E000AD03000011
:10110000E300B1030000E000B2030000E200B50319
:101110000000E300B8030000F200BC030000E4009C
:10112000BE030000E300C0030000F700C10300009D
:10113000E600C3030000E500902100007F0092213B
:1011400000007E001A220000E8001E220000F300CA
:1011500088250000FF0002300000A1000C300000D4
:10116000A2000D300000A3009B300000DE009C3088
:101170000000DF00A03000003D00A1300000A7000B
:10118000A2300000B100A3300000A800A43000008D
:10119000B200A5300000A900A6300000B300A730BF
:1011A0000000AA00A8300000B400A9300000AB0085
:1011B000AA300000B500AB300000B600AC30000033
:1011C000B6DEAD300000B700AE300000B7DEAF30A5
:1011D0000000B800B0300000B8DEB1300000B90047
:1011E000B2300000B9DEB3300000BA00B430000005
:1011F000BADEB5300000BB00B6300000BBDEB73051
:101200000000BC00B8300000BCDEB9300000BD00FA
:10121000BA300000BDDEBB300000BE00BC300000B4
:10122000BEDEBD300000BF00BE300000BFDEBF30FC
:101230000000C000C0300000C0DEC1300000C100AE
:10124000C2300000C1DEC3300000AF00C430000077
:10125000C200C5300000C2DEC6300000C300C73087
:101260000000C3DEC8300000C400C9300000C4DE86
:10127000CA300000C500CB300000C600CC300000F2
:10128000C700CD300000C800CE300000C900CF300C
:101290000000CA00D0300000CADED1300000CADF32
:1012A000D2300000CB00D3300000CBDED4300000C1
:1012B000CBDFD5300000CC00D6300000CCDED730FC
:1012C0000000CCDFD8300000CD00D9300000CDDEEA
:1012D000DA300000CDDFDB300000CE00DC30000073
:1012E000CEDEDD300000CEDFDE300000CF00DF30AC
:1012F0000000D000E0300000D100E1300000D2005A
:10130000E2300000D300E3300000AC00E430000025
:10131000D400E5300000AD00E6300000D500E73035
:101320000000AE00E8300000D600E9300000D70031
:10133000EA300000D800EB300000D900EC300000AB
:10134000DA00ED300000DB00EF300000DC00F230AE
:101350000000A600F3300000DD00F4300000B3DE32
:10136000F7300000DCDEFA300000A6DEFB300000C3
:10137000A500FC300000B000FD300000A400074EC6
:101380000000FB0086510000FC0043530000FA00FF
:1013900064FF0000A40065FF0000A50066FF0000D8
:1013A000A60067FF0000A70068FF0000A80069FF13
:1013B0000000A9006AFF0000AA006BFF0000AB005C
:1013C0006CFF0000AC006DFF0000AD006EFF000080
:1013D000AE006FFF0000AF0070FF0000B00071FFB3
:1013E0000000B10072FF0000B20073FF0000B30004
:1013F00074FF0000B40075FF0000B50076FF000028
:10140000B60077FF0000B70078FF0000B80079FF52
:101410000000B9007AFF0000BA007BFF0000BB00AB
:101420007CFF0000BC007DFF0000BD007EFF0000CF
:10143000BE007FFF0000BF0080FF0000C00081FFF2
:101440000000C10082FF0000C20083FF0000C30053
:1014500084FF0000C40085FF0000C50086FF000077
:10146000C60087FF0000C70088FF0000C80089FF92
:101470000000C9008AFF0000CA008BFF0000CB00FB
:101480008CFF0000CC008DFF0000CD008EFF00001F
:10149000CE008FFF0000CF0090FF0000D00091FF32
:1014A0000000D10092FF0000D20093FF0000D300A3
:1014B00094FF0000D40095FF0000D50096FF0000C7
:1014C000D60097FF0000D70098FF0000D80099FFD2
:1014D0000000D9009AFF0000DA009BFF0000DB004B
:1014E0009CFF0000DC009DFF0000DD009EFF00006F
:1014F000DE009FFF0000DF00E5FF00005C00001C35
:101500001F11111F00000006191803130C00040E10
:101510001F041C000000000E1315110E00001C100B
:10152000181705060500040A0A0A0A11110E0C1202
:10153000120C00000000001F1511151F00004D3394
:101540003033205531204525692053256900504905
:1015500044204175746F74756E65202A00504944AB
:101560002D44202A005049442D49202A0050494446
:101570002D50202A005654726176204D696E005617
:101580006D696E00566D6178204500566D6178205A
:101590005A00566D6178205900566D6178205800C8
:1015A000416D6178204500416D6178205A00416DA0
:1015B0006178205900416D6178205800412D5472A6
:1015C0006176656C00412D526574726163740041EF
:1015D0006363656C005A20526169736500326E6402
:1015E000204E6F7A7A6C65205A00326E64204E6FFE
:1015F0007A7A6C65205900326E64204E6F7A7A6C6C
:10160000652058005320556E526574205600556E63
:10161000726574726163742056005320556E726552
:1016200074722E206D6D00486F70206D6D005265D4
:101630007472616374205600537761702052652E76
:101640006D6D0052657472616374206D6D0041753B
:10165000746F2D52657472616374004E6F7A7A6C88
:101660006500506F776572204F7574616765004340
:101670006F6E66696775726174696F6E0052756E20
:10168000617761792057617463683A204F4646005C
:10169000313330004245443A203130306B20776995
:1016A000746820342E376B2070756C6C2D7570004B
:1016B00052756E617761792057617463683A204F83
:1016C0004E0045323A203130306B20776974682003
:1016D000342E376B2070756C6C2D7570004D6178F1
:1016E0002054656D7000323735004D696E205465A9
:1016F0006D700045313A203130306B207769746865
:1017000020342E376B2070756C6C2D757000505323
:10171000550047656E657269630050726F746F6340
:101720006F6C00312E30004261756400313135320A
:1017300030300068747470733A2F2F7777772E618A
:101740006C69657870726573732E636F6D2F697441
:10175000656D2F33323936353430363339362E68AD
:10176000746D6C005A4F4E4553544152205A5249A1
:10177000425F56360042696C696E656172204C6545
:1017800076656C696E67004578747275646572730E
:10179000007777772E7A6F6E657374617233642E7B
:1017A000636F6D0050383032515232003230323077
:1017B0002D31322D3137006D61726C696E2D322EF4
:1017C000302E380056332E342E3000546865726D3A
:1017D0006973746F727300426F61726420496E6640
:1017E0006F005072696E74657220496E666F004DAD
:1017F000313030300053746F70205072696E743F16
:1018000000526573756D65205072696E743F0042B9
:1018100061636B0053746F70004E6F204D65646997
:1018200061004368616E6765204D65646961004DC4
:101830003231004368616E67652046696C616D6591
:101840006E740041626F7574205072696E746572B7
:101850000054756E65005061757365205072696E35
:10186000743F00496E666F2053637265656E005069
:1018700061726B696E672E2E2E00000057616974CD
:1018800020666F720066696C616D656E74206368B6
:10189000616E676500746F207374617274005761C4
:1018A000697420666F720066696C616D656E742084
:1018B000756E6C6F616400004E6F7A7A6C6520689B
:1018C000656174696E6700506C656173652077614E
:1018D00069742E2E2E000050726573732062757429
:1018E000746F6E00746F2068656174206E6F7A7A11
:1018F0006C650000496E736572742066696C616D79
:10190000656E7400616E6420707265737320627519
:1019100074746F6E00746F20636F6E74696E75659A
:10192000005761697420666F720066696C616D654D
:101930006E74206C6F616400005072657373204296
:101940007574746F6E00746F20726573756D6520A9
:101950007072696E7400005761697420666F72203E
:101960007072696E7400746F20726573756D652E88
:101970002E2E00005761697420666F720066696CD4
:10198000616D656E742070757267650000204D3959
:101990003220580020204D61783A200020204D69E7
:1019A0006E3A2000536F667420656E6473746F70B6
:1019B000733A20004D32342053256C642054256C3A
:1019C00064004739322E39204525730047312046BF
:1019D0002564004739322E39205A257300473120BB
:1019E0005A30204632303000473120582573205974
:1019F00025732046333030300047312045256420A0
:101A000046323030004D3130362050256920532584
:101A100069004D3130392053256900542569205320
:101A2000004D31393020532569004D32303020547B
:101A30002569204430004D3230302054256920443F
:101A400025730047323852305859004739322E3901
:101A5000204530205A300A47315A2573004D313025
:101A600039205331353020542569004D3134302030
:101A7000532569004D343230205330205A30002035
:101A8000496E76616C6964206578747275646572FC
:101A90002000453200453100626564002C207379D6
:101AA0007374656D2073746F707065642120486570
:101AB000617465725F49443A2000544845524D4173
:101AC0004C2052554E4157415900546865726D6122
:101AD0006C2052756E617761790048656174696E3A
:101AE00067204661696C65640048656174696E676A
:101AF000206661696C6564004572723A204D4158F8
:101B000054454D50004D415854454D502074726914
:101B1000676765726564004572723A204D494E549C
:101B2000454D50004D494E54454D502074726967E3
:101B3000676572656400202F002040002042403A13
:101B40000020403A0020573A001000AA03800040CD
:101B50000100012C01B001220140021001F002023B
:101B6000018003F8004004F500E004ED009005E476
:101B7000003006DD00E006D7008007D1003008CC39
:101B800000D008C7007009C300100ABE00B00ABB2D
:101B900000500BB700900CB300D00DAA00B00FA5F9
:101BA000005010A000101496009016900010198C90
:101BB00000501A8500301C820070227800B0237516
:101BC0000040256E0020276900A0296400502A5F8C
:101BD00000902B5A00D02C5500702D4F00E02E485D
:101BE000005031450030334100D035390060363780
:101BF0000010373300F0382D00A0392700803C1C3E
:101C000000103D1900903D1700103E1400703E1268
:101C100000C03E0F00003F0C00403F0800803F0521
:101C200000C03F0000F03FFBFF53657474696E67AE
:101C3000732053746F726564002062797465733B1E
:101C400020637263200053657474696E6773205358
:101C5000746F726564202800454550524F4D2064D2
:101C600061746173697A65206572726F722E0A0001
:101C70002073746F7265642073657474696E677322
:101C80002072657472696576656420280020286377
:101C9000616C63756C6174656429210A0020213DC3
:101CA0002000454550524F4D20435243206D6973EB
:101CB0006D61746368202D202873746F72656429C8
:101CC0002000496E6465783A200044494749504FE6
:101CD0005453204C6F616465640A0044494749507D
:101CE0004F5453204C6F6164696E670A00204D6148
:101CF000726C696E3D563833290A00454550524F83
:101D00004D2076657273696F6E206D69736D6174B5
:101D100063682028454550524F4D3D00496E697417
:101D2000004D34323800496E697469616C697A65B6
:101D300020454550524F4D0050726F6265204F66EE
:101D4000667365747300416363656C657261746981
:101D50006F6E0056656C6F6369747900536574200B
:101D6000486F6D65204F666673657473004E6578C5
:101D70007420436F726E657200446F6E65004E652D
:101D8000787400486F6D696E672058595A00466133
:101D9000646520486569676874004C6576656C20E9
:101DA000426564004732380A473239004361746340
:101DB00068205A204F666673657400473239204E9A
:101DC000004C6576656C20436F726E65727300021D
:101DD000F0004A0110013B0130012C0140012701B4
:101DE0005001220170011D0190011801B001130181
:101DF000C0010E01F0010901100204013002FF00D0
:101E00006002FA009002F500C002F0000003EB004F
:101E10004003E6008003E100D003DC002004D7008B
:101E2000E004D200C005CD004006C800D006C300C3
:101E30008007BE00F008B9004009B400C009AF0037
:101E4000B00AAA00B00BA500D00CA000000E9B00A9
:101E5000C01096005012910000148C00C01587002D
:101E6000B0178200B0197D00D01B7800001E7300EF
:101E700040206E0090226900F024640040275F003B
:101E800090295A00E02B5500102E500020304B00B6
:101E900010324600E033410090353C0010373700E7
:101EA00070383200A0392D00B03A2800A03B230042
:101EB000603C1E00103D1900903D1700103E1400BC
:101EC000703E1200C03E0F00003F0C00403F080073
:101ED000803F0500C03F0000F03FFBFF2020506C1A
:101EE000616E6E657242756666657242797465737D
:101EF0003A20002046726565204D656D6F72793A13
:101F00002000436F6D70696C65643A204A616E20F1
:101F1000203920323032310A00204C617374205550
:101F20007064617465643A20323032302D31322D64
:101F30003137207C20417574686F723A20285A4FDF
:101F40004E45535441522C2048616C6C79290A004B
:101F50006D61726C696E2D322E302E380A004D6123
:101F6000726C696E0020536F6674776172652052DF
:101F7000657365740A00205761746368646F672035
:101F800052657365740A002042726F776E206F7518
:101F9000742052657365740A002045787465726E0A
:101FA000616C2052657365740A00506F77657255D5
:101FB000700A006175746F25632E670047323858C8
:101FC00059004D31303031006572726F7220777276
:101FD0006974696E6720746F2066696C650A0044D5
:101FE0006F6E6520736176696E672066696C652E19
:101FF0000A004D323900456E6473746F70730025AA
:10200000532025632025632025632025630020506D
:102010003A00656E6473746F7073206869743A2057
:10202000004D6F74696F6E004D3834004175746FE8
:1020300020486F6D650054656D70657261747572CE
:10204000650041425300504C4100457874727564FC
:102050006572202A004578747275646572004D6F50
:102060007665205A004D6F76652059004D6F766574
:1020700020580044697361626C6520537465707008
:1020800065727300486F6D65205A004732385A00F8
:10209000486F6D652059004732385900486F6D65AB
:1020A0002058004732385800473238004D6F766567
:1020B000204178697300507265686561742024203E
:1020C000416C6C0050726568656174202420456E17
:1020D00064207E005072656865617420242042652A
:1020E0006400507265686561742024207E00436F2F
:1020F0006F6C646F776E0050726568656174202440
:10210000004620422042696C696E656172204C6510
:1021100076656C696E6720477269643A0A0050728E
:1021200065737320627574746F6E20746F207265AE
:1021300073756D650A0050726573732062757474EF
:102140006F6E20746F2068656174206E6F7A7A6C90
:10215000650A00496E76616C6964206578747275F1
:102160006465720A0041637469766520457874720B
:10217000756465723A20007C3C3E5E2B3D3F2F5BD0
:102180005D3B2C2A225C0020746F6F206C6F6E67A1
:1021900020657874727573696F6E207072657665EC
:1021A0006E7465640A004F46460A00466164652005
:1021B0004865696768742000426564204C657665EF
:1021C0006C696E6720004661696C656420746F20DD
:1021D000656E61626C6520426564204C6576656C55
:1021E000696E670A00496E76616C6964206D65737B
:1021F000682E0A0050726F62696E6720506F696EB8
:10220000740025532025692F25690050726F62697B
:102210006E67206D65736820706F696E7420004F63
:102220006666736574206361746368656420210069
:102230006661696C2C206D616E75616C206C6576D1
:10224000656C004661696C21204D6F766520646F76
:10225000776E2050726F62652E00546F2063617438
:102260006368206F66667365740020284452595273
:10227000554E2900473239204175746F20426564FC
:10228000204C6576656C696E67003F20284C2C52A7
:102290002C462C4229206F7574206F6620626F7562
:1022A0006E64732E0A003F2856296572626F73654B
:1022B000206C6576656C20696D706C617573696200
:1022C0006C652028302D34292E0A00426164205A82
:1022D0002076616C75650A004E6F2062696C696ECC
:1022E00065617220677269640A006F70656E0054E0
:1022F00052494747455245440066696C616D656EB9
:1023000074007A5F70726F6265007A5F6D696E004B
:10231000795F6D696E00785F6D696E005265706FF0
:102320007274696E6720656E6473746F7020737465
:10233000617475730A000000164400001644000022
:10234000164424F4D43050C38E20C2A24017828B8E
:102350007011127A910D816CD90AA861E108C758F1
:102360006607615143061E4B5D05C145A7041A412E
:102370001104093D9803713931034036DB0265339E
:102380009102D4305402802E1D02632CEE01752A76
:10239000C501B028A001102781018F2564012B24DD
:1023A0004B01E0223401AC211F018D200D01801F63
:1023B000FC00841EED00971DDF00B81CD200E61B58
:1023C000C600201BBC00641AB200B219A8000A198A
:1023D000A0006A189900D117910040178B00B5161C
:1023E000840031167E00B31579003A157300C714C6
:1023F0006F0058146A00EE136600881363002513FB
:102400005E00C7125B006C12570015125400C11118
:10241000510070114F0021114B00D61049008D1052
:1024200047004610440002104200C00F4000800FD9
:102430003E00420F3C00060F3B00CB0E3800930ECF
:1024400037005C0E3500270E3400F30D3200C10D4D
:102450003100900D3000600D2E00320D2D00050D65
:102460002C00D90C2B00AE0C2900850C29005C0C2B
:102470002700350C27000E0C2600E80B2400C40BA7
:102480002400A00B23007D0B23005A0B2100390BE5
:102490002100180B2000F80A1F00D90A1E00BB0AF1
:1024A0001E009D0A1D00800A1D00630A1C00470AC9
:1024B0001B002C0A1B00110A1A00F7091A00DD097B
:1024C0001900C4091900AB091900920917007B090A
:1024D0001800630917004C09160036091600200978
:1024E00016000A091500F5081500E0081400CC08CC
:1024F0001400B8081400A4081400900813007D0804
:1025000012006B0813005808120046081200340825
:102510001100230811001208110001081100F00732
:102520001000E0071000D0071000C0071000B0072F
:102530000F00A107100091070E0083070F0074071A
:102540000F0065070E0057070E0049070E003B07F6
:102550000D002E070E0020070D0013070D000607C3
:102560000D00F9060C00ED060D00E0060C00D40687
:102570000C00C8060C00BC060C00B0060C00A4063B
:102580000B0099060C008D060B0082060B007706E7
:102590000B006C060B0061060A0057060B004C0688
:1025A0000A0042060A0038060A002E060A0024061F
:1025B0000A001A060A001006090007060A00FD05AF
:1025C0000900F4050900EB050900E2050900D90539
:1025D0000900D0050900C7050900BE050900B505B9
:1025E0000800AD050800A50509009C050800940534
:1025F00008008C050800840508007C0508007405A7
:1026000008006C050700650508005D050700560514
:1026100008004E050700470507004005080038057B
:102620000700310507002A050700230507001C05E0
:102630000600160507000F0507000805060002053D
:102640000700FB040600F5040700EE040600E8049A
:102650000600E2040700DB040600D5040600CF04F0
:102660000600C9040600C3040600BD040600B70442
:102670000600B1040500AC040600A6040600A00490
:1026800005009B04060095040500900406008A04DA
:10269000050085040500800406007A040500750421
:1026A0000500700405006B04050066040500610464
:1026B00005005C04050057040500520405004D04A4
:1026C000050048040500430405003E0404003A04E4
:1026D000050035040500300404002C04050027041F
:1026E0000400230405001E0404001A040400160458
:1026F0000500110404000D0404000904050004048D
:10270000040000040400FC030400F8030400F403C4
:102710000400F0030400EC030400E8030400E403F5
:102720000400E0030400DC030400D8030400D40325
:102730000400D0030400CC030400C8030300C50355
:10274000030024F404D9201BC40C5C0E9804C409B3
:102750005F0265077101F405F900FB04B30048044A
:102760008700C10369005803550003034500BE02FA
:102770003A008402310053022A0029022500040293
:102780002000E4011C00C8011900AF0117009801E6
:102790001400840113007101100061011000510147
:1027A0000E0043010D0036010B002B010B00200130
:1027B0000B00150109000C01090003010800FB00D2
:1027C0000800F3000800EB000700E4000600DE004C
:1027D0000600D8000600D2000600CC000500C700A5
:1027E0000500C2000500BD000400B9000400B500EA
:1027F0000400B1000400AD000400A9000400A5001D
:102800000300A20003009F0004009B000300980047
:1028100003009500020093000300900003008D0068
:1028200002008B0003008800020086000200840082
:102830000300810002007F0002007D0002007B0097
:1028400002007900020077000100760002007400A7
:10285000020072000100710002006F0002006D00B2
:1028600001006C0002006A000100690002006700BC
:1028700001006600010065000100640002006200C2
:10288000010061000100600001005F0002005D00C6
:1028900001005C0001005B0001005A0001005900CA
:1028A00001005800010057000100560001005500CA
:1028B00001005400010053000000530001005200C9
:1028C000010051000100500001004F0001004E00C6
:1028D00000004E0001004D0001004C0001004B00C3
:1028E00000004B0001004A000100490001004800BF
:1028F00000004800010047000100460000004600BB
:1029000001004500000045000100440001004300B3
:1029100000004300010042000000420001004100AD
:10292000000041000100400001003F0000003F00A6
:1029300001003E0000003E0001003D0000003D009F
:1029400001003C0000003C0000003C0001003B0096
:1029500000003B0001003A0000003A00010039008D
:102960000000390001003800000038000000380085
:10297000010037000000370001003600000036007B
:102980000000360001003500000035000000350071
:102990000100340000003400000034000100330066
:1029A000000033000000330001003200000032005C
:1029B0000000320001003100000031000000310051
:1029C00001003000000030000000300001002F0046
:1029D00000002F0000002F0000002F0001002E003B
:1029E00000002E0000002E0001002D0000002D0030
:1029F00000002D0000002D0001002C0000002C0024
:102A000000002C0000002C0001002B0000002B0017
:102A100000002B0000002B0001002A0000002A000B
:102A200000002A0000002A000100290000002900FF
:102A300000002900000029000000290001002800F2
:102A400000002800000028000000280000002800E6
:102A500001002700000027000000270000002700D9
:102A600000002700010026000000260000002600CC
:102A700000002600000026000100250000002500BF
:102A800000002500000025000000250000002500B2
:102A900001002400000024000000240000002400A5
:102AA0000000240001002300000023000000230098
:102AB000000023000000230000002300000023008A
:102AC000010022000000220000002200000022007D
:102AD000000022000000220001002100000021006F
:102AE0000000210000002100000021000000210062
:102AF0000000210001002000000020000000200054
:102B00000000200000002000000020000000200045
:102B10000000200001001F0000001F0000001F0037
:102B200000001F0000001F0000001F0000001F0029
:102B300001001E0000001E0000001E0000001E001C
:102B40000000043700001E290000511B000058102F
:102B5000000010090000CC040000780200004101D0
:102B60000000000120436F756E7420583A00205316
:102B7000697A653A2000534420496E6974204661A1
:102B8000696C0053442063617264206F6B0A006FAC
:102B900070656E526F6F74206661696C65640A00BF
:102BA000766F6C756D652E696E6974206661696CEF
:102BB00065640A004E6F20534420636172640A000A
:102BC0004D32332025730046696C652073656C6552
:102BD000637465640A0046696C65206F70656E6594
:102BE000643A2000454E4420535542524F555449B3
:102BF0004E450A002220706F7300222070617265BA
:102C00006E743A2200535542524F5554494E452056
:102C100043414C4C207461726765743A22005375CD
:102C20006263616C6C204F766572666C6F770045ED
:102C300078636565646564206D6178205355425200
:102C40004F5554494E452064657074683A310A0006
:102C500044656C6574696F6E206661696C65642C8F
:102C60002046696C653A200046696C652064656C95
:102C7000657465643A006F70656E206661696C65A5
:102C8000642C2046696C653A200057726974696E3D
:102C90006720746F2066696C653A20006672657300
:102CA0006800646F696E67004E6F7720004C6F613B
:102CB000642053657474696E67730053746F726532
:102CC0002053657474696E67730050726F6265207B
:102CD0005A204F666673657400416476616E636561
:102CE000642053657474696E6773004C6F6164206F
:102CF00046696C616D656E74202A00556E6C6F615B
:102D0000642046696C616D656E74202A004F6666AA
:102D1000004F6E00554E4C4F41442046494C414DAA
:102D2000454E540046494C414D454E542043484180
:102D30004E474500526573746F7265204465666145
:102D4000756C74730050726568656174202420434B
:102D50006F6E660052756E6F75742053656E736F7B
:102D60007200546F6F6C204368616E676500546F2A
:102D70006F6C204F666673657473004D363030207B
:102D8000423020542569004D3730312054256900E8
:102D90004D3730322054256900556E6C6F616420C8
:102DA000416C6C004D373032004368616E676520BE
:102DB00046696C616D656E74202A00436F6E74699C
:102DC0006E7565005075726765206D6F7265005293
:102DD0004553554D45204F5054494F4E533A00509E
:102DE00052494E54205041555345440020204E6FC7
:102DF0007A7A6C653A20004261627973746570205A
:102E00005A0046616E205370656564004E6F7A7A91
:102E10006C65207E004D61696E00546F74616C00BA
:102E2000466C6F77207E00466C6F77002568753A98
:102E300025303268750025303268753A25303268A1
:102E400075002D2D2D00534400202020202020200F
:102E5000005072696E742041626F72746564004D37
:102E6000323520500A4D32340050617573696E67F7
:102E70002E2E2E0000002200250028002B002E0000
:102E80003100340002010000050108010B010000BF
:102E90002100240027002A002D003000330001010A
:102EA0000000040107010A010505050507050808DA
:102EB0000808020202020A0A0808040404040101C4
:102EC00001010101010103030303030303030407D9
:102ED00007070C0C0C0C0C0C0C0C02020202060670
:102EE0000606060606060B0B0B0B0B0B0B0B010263
:102EF000102020080810204010204080020102010C
:102F000008040201010204081020408080402010C3
:102F1000080402018004020180402010080402011C
:102F20000804020101020408102040800102040884
:102F30001020408020453A00205A3A0020593A009B
:102F40005072696E742066726F6D204D65646961A0
:102F500000205A3A200020593A2000426564205847
:102F60003A20005072696E74205061757365640078
:102F700050726F62696E67204661696C65640A0011
:102F800050726F62696E67204661696C65640048C3
:102F90006F6D6520257325732573204669727374E0
:102FA00000496E736572742066696C616D656E743C
:102FB00020616E6420707265737320627574746F23
:102FC0006E0A0050383032515232205265616479B5
:102FD0002E005072696E74696E672E2E2E00220AC2
:102FE00000556E6B6E6F776E20636F6D6D616E64F2
:102FF0003A20220000000A0B02090C0D0E080703FC
:1030000004010000000000000000000000000000BB
:1030100000000000000000000000000000000000B0
:10302000121110000000000000000000000000006D
:103030000000000000000000000043616E63656C4A
:10304000005374617274205072696E740043616E33
:103050006E6F7420656E7465722073756264697238
:103060003A2000052E2E004D6F76652025736D6D7C
:10307000004D6F766520302E316D6D004D6F766599
:1030800020316D6D004D6F76652031306D6D0048DB
:103090006F74656E64206F6666736574733A0020A2
:1030A0005200454550524F4D20496E697469616C1C
:1030B000697A65640A0048617264636F64656420BC
:1030C00044656661756C742053657474696E6773CA
:1030D000204C6F616465640A003B200020204D365F
:1030E0003033200020204D34313220530046696CAB
:1030F000616D656E742072756E6F75742073656E88
:10310000736F723A00546F6F6C2D6368616E6769FC
:103110006E673A005431204C002055005430204C4A
:103120000046696C616D656E74206C6F61642F750B
:103130006E6C6F6164206C656E677468733A002012
:10314000204D3835312058005A2D50726F6265205D
:103150004F66667365740020204D3230392053006D
:103160004175746F2D526574726163743A20533DDA
:103170003020746F2064697361626C652C2031208B
:10318000746F20696E7465727072657420452D6F5E
:103190006E6C79206D6F7665732061732072657433
:1031A000726163742F7265636F7665720020204DC3
:1031B0003230382053005265636F7665723A20537F
:1031C0003C6C656E6774683E20463C756E6974732E
:1031D0002F6D3E0020570020204D32303720530005
:1031E000526574726163743A20533C6C656E677407
:1031F000683E20463C756E6974732F6D3E205A3CC4
:103200006C6966743E0020204D34313320530050E9
:103210006F7765722D4C6F7373205265636F76659F
:1032200072793A0020204D3330312050005049440B
:103230002073657474696E67733A002046002048F5
:103240000020204D3134352053004D617465726982
:10325000616C2068656174757020706172616D6564
:10326000746572733A00204A002020473239205793
:1032700020490020204D3432302053004175746FB6
:1032800020426564204C6576656C696E673A002063
:10329000204D32313820540020204D323036205815
:1032A00000486F6D65206F66667365743A00202074
:1032B0004D323035204200416476616E6365643A78
:1032C00020423C6D696E5F7365676D656E745F74F7
:1032D000696D655F75733E20533C6D696E5F666511
:1032E0006564726174653E20543C6D696E5F7472F2
:1032F0006176656C5F66656564726174653E2058D1
:103300003C6D61785F785F6A65726B3E20593C6DF9
:1033100061785F795F6A65726B3E205A3C6D6178B7
:103320005F7A5F6A65726B3E20453C6D61785F65D0
:103330005F6A65726B3E0020204D323034205000B1
:10334000416363656C65726174696F6E2028756E88
:103350006974732F7332293A20503C7072696E740D
:103360005F616363656C3E20523C72657472616399
:10337000745F616363656C3E20543C747261766572
:103380006C5F616363656C3E0020204D32303120FC
:1033900058004D6178696D756D20416363656C659A
:1033A000726174696F6E2028756E6974732F733241
:1033B000293A0020204D3230332058004D61786981
:1033C0006D756D206665656472617465732028751E
:1033D0006E6974732F73293A00537465707320708B
:1033E000657220756E69743A0020204D32303020AD
:1033F000530020440020204D32303020540020441F
:10340000697361626C65640A0046696C616D656E22
:10341000742073657474696E67733A0020204D31AF
:1034200034392043203B20556E69747320696E2027
:1034300043656C736975730A0020286D6D2900203F
:1034400020473231202020203B20556E69747320A4
:10345000696E206D6D000000FA430000FA43000021
:10346000A0400000C8420000A0420000A0420000AE
:10347000C8430000B042B80B0000B80B0000640065
:10348000000010270000000020C2000020C1000042
:103490000000000048420000484200008040020254
:1034A000040000A0400000A04000000040000020F8
:1034B000440080184400001644FFFFFF5761726EFD
:1034C000696E673A20486F6D696E672042756D704E
:1034D0002044697669736F72203C20310A00206CA9
:1034E000696D6974656420746F2000204D617820D7
:1034F0000043616E6E6F74206F70656E207375622D
:10350000646972200056652D4A65726B00565A2D0B
:103510004A65726B0056592D4A65726B0056582DDC
:103520004A65726B0050726F62652059204F666663
:103530007365740050726F62652058204F66667321
:10354000657400452073746570732F6D6D005A208B
:1035500053746570732F6D6D0059205374657073CB
:103560002F6D6D00582053746570732F6D6D00437F
:1035700061703A003F5A206F7574206F6620726147
:103580006E67652028003F59206F7574206F662094
:1035900072616E676520282D003F58206F7574207A
:1035A0006F662072616E676520282D0050726F6211
:1035B00065204F6666736574205800656E71756589
:1035C0007565696E672022006F6B00526573656ECA
:1035D000643A20000E01900111241FBECFEFD1E20A
:1035E000DEBFCDBF00E00CBF13E0A0E0B2E0E2E838
:1035F000F8E702E00BBF02C007900D92A233B107BB
:10360000D9F725E1A2E3B3E001C01D92AF34B207C0
:10361000E1F71AE1CBEEDAE100E006C021970109FB
:10362000802FFE010F949639CA3ED10780E008072B
:10363000A9F70F94E3230D942F3C0C9400002F92D4
:103640003F924F925F926F927F928F929F92AF9232
:10365000BF92CF92DF92EF92FF920F931F93CF937F
:10366000DF93CDB7DEB7A7970FB6F894DEBF0FBED6
:10367000CDBF8FA32091B8132EA311E01093B813E0
:103680008091BE148D3409F4D7C3843511F40C94A1
:10369000752C873411F00C94962C8091BC14909169
:1036A000BD148B31910509F46AC124F58830910568
:1036B00009F43FC04CF497FDBBC382309105CCF1B7
:1036C000049709F417C1B4C38B30910509F451C1B3
:1036D0008531910511F40C94982C0A9709F0A8C330
:1036E00060E083E50E948CBC682F81E00E94489ACC
:1036F0000C94982C8A32910509F4BAC254F48D3195
:10370000910509F466C10CF454C14E9709F47FC1C8
:103710008FC38B35910509F4F5C18C35910509F4FA
:10372000F6C18A35910509F083C310929D0D0C9462
:10373000982C80914906813011F00C94982C1982B4
:103740001A821B821C82CE0101965C0122EEE22EBF
:1037500023E1F22E0EE412E035EEC32E30E1D32E3B
:10376000912C88E5890D0E9464BCF50181935F016D
:10377000882311F10E94EFB92B013C01892D0E9491
:103780004868882351F0F8012081318142815381BA
:10379000C301B2010F94A73909C0F601208131811C
:1037A00042815381C301B2010F94A639F7016083AE
:1037B0007183828393830AC0F80180819181A28101
:1037C000B381F70180839183A283B3839394F4E060
:1037D000EF0EF11C0C5F1F4F24E0C20ED11C33E032
:1037E0009312BFCF85E40E9464BC8C83882301F1CF
:1037F0000E94EFB96B017C0183E00E944868882336
:1038000071F020915A0230915B0240915C0250911C
:103810005D02C701B6010F94A7396B017C01C0920C
:10382000EE13D092EF13E092F013F092F11310C068
:1038300080915A0290915B02A0915C02B0915D026E
:103840008093EE139093EF13A093F013B093F113C2
:1038500080913A14882381F080918B1182FF0CC0F3
:103860008C81882349F08981811103C08A81882352
:1038700019F080E00E940AF940E050E0BA0186E4C5
:103880000E94484A20E030E0A9010F942A3B181614
:1038900084F40E94EFB920E030E040E752E40F9456
:1038A0002A3A6093460270934702809348029093AD
:1038B000490280911914882311F40C94D32C85E4C7
:1038C0000E94CA95882311F40C94D32C88E50E9499
:1038D000CA9581110C94D32C89E50E94CA95811157
:1038E0000C94D32C8AE50E94CA9581110C94D32C98
:1038F0000C94A12C80E50E9464BC882329F00E94CE
:10390000F6B76B017C0103C0C12CD12C760183E595
:103910000E9464BC882361F00E94EFB920E030E08F
:103920004AE754E40F9409330F94A33A6B017C01E6
:103930000F94011180913B0D811105C060E083EE71
:1039400095E00E9487F00F943D02C60ED71EE81E38
:10395000F91E0F943D02DC01CB018C199D09AE09C3
:10396000BF09B7FD02C00C94982C80E00E947C3403
:10397000F0CF60E080E00E94489A0C94982C0E945E
:1039800093FC81110C94982C8CE0E5E8F2E0DE01C8
:10399000119601900D928A95E1F760E070E080E564
:1039A0000E941570BE016F5F7F4F0E94E2EB0C9486
:1039B000982C8091F2138770873011F00C94052DAC
:1039C00060E08FE40E948CBC81110C94982C0C94C4
:1039D000052D0F943D026093D00E7093D10E80930D
:1039E000D20E9093D30E0E9493FC81110C94982CCC
:1039F0008091A20D882311F40C947F2D60E08FE458
:103A00000E948CBC81110C94982C0C947F2D2091D9
:103A10006213309163134091641350916513609168
:103A20004E0270914F0280915002909151020F947A
:103A3000A739AB01BC0188E50E94484A69837A83B3
:103A40008B839C8320916613309167134091681398
:103A50005091691360915202709153028091540207
:103A6000909155020F94A739AB01BC0189E50E94E2
:103A7000484A6D837E838F839887BE016B5F7F4F3B
:103A8000CE0101960E9406B8882311F40C94982C5C
:103A900080E00E94149E0E94CCC561E085E40E94F3
:103AA0008CBC01E021E0482FBE016B5F7F4FCE014F
:103AB00001960E944BFD6B017C019B01AC010F94B0
:103AC000A83B811119C049815A816B817C818BE5AA
:103AD0009FE20E9444344D815E816F81788586E546
:103AE0009FE20E944434B701A60181E59FE20E9453
:103AF00044348AE00E9411320E94B3C50E9460C81B
:103B00000C94982C8FE080939D0D0C94982C8091B0
:103B1000BB14882349F1893009F0A6C088E1A82E9A
:103B200083E0B82E9EE4E92E92E0F92ED12C00E03D
:103B300010E0F50181915F010E9464BC882369F067
:103B40000E94EFB9F70160837183828393831330FE
:103B500011F401E002C0DD24D3941F5FF4E0EF0E06
:103B6000F11C143031F775C0B8E12B2EB3E03B2EB9
:103B700016EEE12E1DE0F12E2EE432E03DA32CA343
:103B800005EEC02E00E1D02E00E010E0F1018191A1
:103B90001F010E9464BC882309F44AC00E94EFB947
:103BA0002B013C01133049F0F60120813181428123
:103BB00053810F94A6392B013C01ECA1FDA120817A
:103BC000318142815381C301B2010F94A6394B0167
:103BD0005C012DEB37E346E855EB0F942A3B87FD5C
:103BE0000AC02DEB37E346E855E3C501B4010F9455
:103BF000A3321816ECF4133051F440925A0250924A
:103C00005B0260925C0270925D0201E011C0A5014E
:103C10009401F70160817181828193810F94A739AA
:103C2000F7016083718382839383812F0F94B91589
:103C30001F5FF4E0EF0EF11C2CA13DA12C5F3F4F64
:103C40003DA32CA334E0C30ED11C143009F09ECF49
:103C500005C0DD2019F00E945EC806C0002321F0D7
:103C60008AE592E00F9422140E9460C80C94982C6C
:103C700080914906813011F00C94982C89E40E94BF
:103C800064BCE82E882321F00E94EBB9082F01C004
:103C900000E08AE40E9464BCF82E882321F00E9490
:103CA000EBB9182F01C010E0EE2011F0043020F421
:103CB000FF2041F0143030F08CEE95E00E94183275
:103CC0000C94982C80E1EEE4F2E0A2EEB3E10190D6
:103CD0000D928A95E1F7EE2019F1602F000F770B16
:103CE000880B990B0F94AA32209101143091021481
:103CF00040910314509104140F94093320915604F9
:103D00003091570440915804509159040F94A739A9
:103D10006093E2137093E3138093E4139093E5139D
:103D2000FF2019F1612F110F770B880B990B0F945E
:103D3000AA32209105143091061440910714509135
:103D400008140F94093320915A0430915B04409178
:103D50005C0450915D040F94A7396093E61370934F
:103D6000E7138093E8139093E91360E080E50E94E5
:103D70008CBC8823C1F1EE20D1F0209162133091E8
:103D8000631340916413509165136091E213709135
:103D9000E3138091E4139091E5130F94A639609397
:103DA000E2137093E3138093E4139093E513FF20E1
:103DB000D1F02091661330916713409168135091B0
:103DC00069136091E6137091E7138091E813909165
:103DD000E9130F94A6396093E6137093E713809369
:103DE000E8139093E91340E050E0BA0186E40E94A2
:103DF000484A6B017C0120E030E0A9010F942A3B86
:103E000018164CF420E030E040E752E4C701B60158
:103E10000F942A3A03C060E070E0CB0169837A8393
:103E20008B839C83CE0101960E94EBC50C94982C49
:103E30000E944DFA0C94982C8091BC149091BD1462
:103E40008C38910509F436C60CF083C18235910592
:103E500009F478C60CF082C08A31910509F49FC339
:103E6000BCF58431910509F4F2C27CF481319105ED
:103E700009F4D9C22CF4029708F49DC20C94722C58
:103E8000429709F46DC60C94722C8731910509F4A0
:103E900013C394F48531910509F40AC3469711F0D0
:103EA0000C94722C0E94ACD780918B11877F80621A
:103EB00080938B110C94982C8831910509F411C3CF
:103EC000499711F00C94722C0E94056F0C94982C59
:103ED0008F31910509F40CC47CF48C31910509F4FF
:103EE000BFC30CF46AC38D31910509F4C1C34E9769
:103EF00009F4C5C30C94722C8C34910509F4A3C445
:103F00006CF48032910509F4CAC38B34910511F029
:103F10000C94722C0E949DC90C94982C8D349105A0
:103F200009F495C48135910511F00C94722C0E940E
:103F300073750E94D6C90F9412110E94CE3168EE9B
:103F400073E080E090E00E9430310E94D13160E067
:103F50008FEC96E00E9487F00C94982C8E36910599
:103F600009F428C574F58836910509F474C484F4FD
:103F70008435910509F4F4C50CF4EBC5853591053C
:103F800009F424C68C35910509F443C60C94722CAF
:103F90008B36910509F405C554F48936910509F469
:103FA000ABC48A36910509F4BBC40C94722C8C36D0
:103FB000910509F455C58D36910509F474C40C9426
:103FC000722C8537910509F4C9C60CF0A3C081375E
:103FD000910509F44DC594F48F36910509F4FBC49D
:103FE0008037910511F00C94722C41E060E070E094
:103FF0008AEB96E00E944E320C94982C8237910501
:1040000009F4A5C68337910511F00C94722C87E250
:1040100098E00E94183260E087E198E00F9409234D
:1040200060E082E098E00F94092361E081E39DE184
:104030000F94092361E087EF97E00F94092361E073
:1040400087EE97E00F94092360E08EED97E00F94E0
:10405000092361E084ED97E00F94092361E08AEC85
:1040600097E00F94092361E083EC97E00F94092314
:1040700061E08BEB97E00F94092361E08DEA97E014
:104080000F94092360E08FE997E00F94092360E023
:1040900080E997E00F94092360E082E897E00F94AD
:1040A000092360E08CE697E00F94092360E08BE53C
:1040B00097E00F94092360E08CE497E00F940923C4
:1040C00061E085E497E00F94092360E080E397E0E6
:1040D0000F94092360E082E297E00F94092360E0E7
:1040E0008FE097E00F94092360E082E097E00F945F
:1040F000092360E08DEF96E00F94092361E080EFE3
:1041000096E00F94092360E08CED96E00F9409236C
:104110000C94982C8837910509F46BC66CF486379B
:10412000910509F42BC68737910511F00C94722C78
:104130000E940DC90C94982C8937910509F461C629
:104140008D37910511F00C94722C0E94056F0C9420
:10415000982C8139E1E09E0711F40C949C2A0CF014
:1041600082C0803D910511F40C94D3289CF5893CC4
:10417000910509F422C7ACF48B39910509F4BCC44C
:1041800034F48139910509F443C60C94722C8E3BAA
:10419000910509F4AEC4883C910509F4ADC60C94B0
:1041A000722C8D3C910509F499C754F48B3C910510
:1041B00009F444C78C3C910509F45FC70C94722C38
:1041C0008E3C910509F48DC78F3C910509F4A7C772
:1041D0000C94722C8D3D910511F40C94672904F513
:1041E000893D910511F40C942A2974F4813D9105BF
:1041F00011F40C941D29833D910511F00C94722C3F
:104200000E9428700C94982C8A3D910511F40C940E
:104210003D298C3D910511F40C9440290C94722C8D
:104220008D3221E0920711F40C94182A6CF482323A
:10423000E1E09E0711F40C94BC298C32914011F4FA
:104240000C94032A0C94722C8F3221E0920711F403
:104250000C94992A8039914011F00C94722C0F948F
:1042600001110C94982C873FE1E09E0711F40C9407
:10427000852B0CF049C0843A21E0920711F40C948C
:10428000AC2AFCF48A39E1E09E0709F4EEC364F439
:104290008239914011F00C94722C80E00E9467A941
:1042A0000E9460C80C94982C8C3931E0930711F46B
:1042B0000C94A22A8D39914011F40C943A2C0C9450
:1042C000722C843FF1E09F0711F40C947F2B6CF467
:1042D000853A31E0930711F40C94AF2A8C3A91405F
:1042E00011F40C94222B0C94722C853FF1E09F0763
:1042F00011F40C94822B863F914011F00C94722C97
:104300000F941A090C94982C8E3B32E0930711F409
:104310000C94262C1CF58835F2E09F0711F40C94C0
:10432000AB2B6CF4883F31E0930711F40C948D2B88
:104330008C30924011F40C949E2B0C94722C8B3583
:10434000F2E09F0711F40C94AE2B8D3B924011F0DC
:104350000C94722C0E945E6C0C94982C873E33E077
:10436000930711F40C942C2CCCF48335F3E09F07C5
:1043700011F40C94292C803A934011F00C94722C77
:104380002091B9143091BA1490918B11926090934E
:104390008B11C9010E94D6D80C94982C883E33E02A
:1043A000930711F40C94512C893E934011F40C9412
:1043B000542C0C94722C80E50E9464BC882329F054
:1043C0000E94F6B76B017C0103C0C12CD12C760191
:1043D00083E50E9464BC882361F00E94EFB920E06D
:1043E00030E04AE754E40F9409330F94A33A6B0189
:1043F0007C010F9401118091B9149091BA14009727
:1044000021F061E00E941FF105C060E085E096E0C8
:104410000E9487F040E0C701B6010E94FC390E946B
:1044200022FB0C94982C8091BF1484FF02C00C9442
:10443000822D8091C11487FF02C00C94822D80913F
:10444000C214837011F00C94822D0C949F2D8091D6
:104450008B1183FF25C080E396E00E941832809183
:104460008B1183FF17C08AEA91E10E9424A28BE19D
:10447000EAEAF1E1DE01119601900D928A95E1F7E9
:1044800060E070E0CE0101960F94C81ACE0101964B
:104490000E94309681E296E00E9418320C94982C8B
:1044A0000E944A3281E496E00E9418320C94982CC3
:1044B0000E9472DB0C94982CE091B914F091BA141C
:1044C0008081882329F0803209F410823196F8CF58
:1044D00060E08091B9149091BA140E941ED90C9496
:1044E000982C83E50E9464BC882321F00E94B7B910
:1044F0000E94255184E50E9464BC8823A9F00E9493
:10450000B7B96B017C010E9482C9C092EF0BD092B7
:10451000F00BE092F10BF092F20BCD28CE28CF28D1
:1045200019F081E08093E1138091900C8823F9F0D9
:1045300080E090E0A8E4B2E488A399A3AAA3BBA377
:104540001C8E1D8E1E8E1F8E19821A821B821C824B
:1045500000E010E020E0AE01405E5F4FBE01645E0F
:104560007F4FCE0101960E94F7980C94982C0E94E0
:10457000AA31882381F00E94BDD70E949DC980E5A1
:104580009EE00E9462D71092C3141092C41410923D
:10459000C5141092C6140E9422FB0C94982C809192
:1045A0008B1183FD02C00C94982C83E50E9464BC9F
:1045B00081110C94AE2D0C94982C83E40E94CA9522
:1045C000882319F185E596E00E9418328091F11256
:1045D000882391F0BE016F5F7F4F8EEE92E10E94C3
:1045E000EBA08E010F5F1F4FF80181918F0188238F
:1045F00039F00E941132F8CF8BE496E00E94183215
:104600008AE00E9411320C94982C80918B1182FFC9
:1046100021C084E696E00E94183260918711709163
:1046200088118091891190918A114AE00E941B3370
:104630008FE20E94113260918311709184118091F8
:104640008511909186114AE00E941B330E945534D7
:104650000C94982C86E796E00E9418320C94982CC3
:104660008091B9149091BA140E94D6D80C94982CC9
:1046700080918B118E7F80938B110C94982C80915C
:104680008B1183FD02C00C94982C0E9411FA80912A
:10469000B9149091BA140E94FCDA0C94982C809171
:1046A0008B1182FD0F94011180918B1183FD02C04B
:1046B0000C94982C60E080E50E948CBC182F682F29
:1046C0008091B9149091BA140E941ED983E50E947A
:1046D00064BC882321F00E94B7B90E9425510E9432
:1046E000BDD711110C94982C0E949DC90C94982C44
:1046F0000E944EC97B018C0120E831E541E050E089
:104700000F94F938C9016DE671E00F944F394B01F0
:104710005C01C801B70120E13EE040E050E00F94A9
:10472000F938CA01B90128E130E040E050E00F94C7
:10473000F938762E672EC62ED72EACE32A2E312CD2
:10474000412C512CC801B701A20191010F94F938F5
:10475000F62EE72ECA01B901A20191010F94F93892
:10476000CB018E010F5F1F4F8114910499F0EF92DE
:10477000FF927F936F936F927F92BF92AF929F92BF
:104780008F9287E896E09F938F931F930F930F94D8
:104790003B3213C0A114B104B1F0EF92FF927F93AA
:1047A0006F936F927F92BF92AF928BE896E09F9348
:1047B0008F931F930F930F943B320FB6F894DEBF85
:1047C0000FBECDBF30C0CD2879F0EF92FF927F931E
:1047D0006F936F927F928FE896E09F938F931F93D2
:1047E0000F930F943B32E9CF892B69F0EF92FF9240
:1047F0007F936F9383E996E09F938F931F930F931B
:104800000F943B32DACFEF92FF9287E996E09F93C5
:104810008F931F930F930F943B320F900F900F9035
:104820000F900F900F9060E0C8010E941FF10E944E
:104830004A32B8018BE996E00E9433328AE00E9446
:1048400011320C94982C0E94C1C90C94982C0E948F
:10485000D6C90C94982C80919C0D83FF02C00C94B7
:10486000982C0E941E68182F87FF02C00C94982C69
:1048700089E40E9464BC882311F40C94B32D0E9437
:10488000C7B990E01816190614F481E090E026E00C
:10489000289FF001299FF00D1124E55CFB4E8081DB
:1048A00091810C94BE2D80919C0D83FF02C00C94CD
:1048B000982C0E941E68182F87FF02C00C94982C19
:1048C00089E40E9464BC882311F40C94C62D0E94D4
:1048D000C7B990E01816190614F481E090E026E0BC
:1048E000289FF001299FF00D1124E55CFB4E80818B
:1048F000918100E00C94D72D0E941E68182F87FD2F
:104900000AC088EC95E30E941832812F0E94BB7286
:104910008AE00E9411329EA19093B8130C94762FD6
:1049200060E080E50E9480BC81110C94982C81E4A9
:104930000E94CA95882349F0E091CB0EF0E0ED5536
:10494000F24F6081062F10E002C00FEF10E089E403
:104950000E9464BC882399F00E94C7B990E01816A1
:10496000190614F481E090E026E0289FF001299FC9
:10497000F00D1124E55CFB4E0481158108C083E530
:104980000E9464BC882319F00E94B7B98B01B8015A
:104990000F3F110519F010F06FEF70E06093A30D59
:1049A000C7C760E080E50E9480BC8111C1C710923A
:1049B000A30DBEC78EE40E9464BC882309F4B8C767
:1049C0000E94B7B96093F3037093F4038093F503E7
:1049D0009093F603ADC783E50E94CA95882331F012
:1049E00060E083E50E9480BC80939C0D0E944A3267
:1049F00083EB96E00E94183280919C0D882369F128
:104A0000F6E1EF2EFAE0FF2E00E010E020E08091CA
:104A10009C0D90E0A0E0B0E0002E04C0B695A795F4
:104A2000979587950A94D2F780FF0EC0DD24D39422
:104A3000D20E222319F08CE20E941132F7018591E7
:104A400094910E9418322D2D0F5F1F4FE2E0EE0E61
:104A5000F11C05301105D9F6D3CD8FEA96E0CECD05
:104A60001092B7131092620263C70E94853160C72B
:104A700083E50E9464BC882371F00E94C7B9282F87
:104A800030E02D3331051CF48093000251C78CE3D4
:104A9000809300024DC70E944A324091000250E0CC
:104AA00060E070E088EC96E00E9488338AE00E9423
:104AB00011323EC780919C0D83FD3AC789E40E9464
:104AC00064BC882311F40C94262E0E94C7B990E090
:104AD0001816190614F481E090E026E0289FF001F2
:104AE000299FF00D1124E55CFB4E628173810C94CB
:104AF000302E0E942E4F1CC783E50E9464BC882381
:104B000009F416C70E94C7B9182F90E0CD970CF092
:104B10001CE3109338030F943D026B017C01212F9D
:104B200030E0A8EEB3E00F942639C60ED71EE81E7B
:104B3000F91EC0923403D0923503E0923603F0920E
:104B40003703F6C680919D0D8F7D806180939D0D0A
:104B5000EFC680919D0D8F7E806280939D0DE8C68B
:104B600083E50E9464BC8823E9F00F943D026093C2
:104B7000D00E7093D10E8093D20E9093D30E0E94DC
:104B8000EFB920E030E04AE754E40F9409330F9482
:104B9000A33A609301027093020280930302909300
:104BA0000402C6C68091BF1484FF02C00C94412E3B
:104BB0008091C11487FF02C00C94412E8091C214D1
:104BC000837011F00C94412E0C94722E83E50E9498
:104BD000CA95882309F4ACC60F943D026093D00EA9
:104BE0007093D10E8093D20E9093D30E0E94EFB9A2
:104BF00020E030E04AE754E40F9409330F94A33ADD
:104C00006093390370933A0380933B0390933C0382
:104C10008FC60E941E6887FD8BC69091BF1494FDBD
:104C200004C09091C11497FF0AC078E1C72E73E0C9
:104C3000D72EEFE6EE2EE3E1FE2E10E009C09091B4
:104C4000C214937091F7682F81E00E94177170C6AB
:104C5000F60181916F010E9464BC882309F46DC044
:104C6000133009F063C00E94EFB94B015C0120E0F2
:104C700030E040EA51E40F94A33287FF4EC0A50113
:104C8000940160918F137091901380919113909182
:104C900092130F942A3A2B013C019B01AC016091C5
:104CA00093147091941480919514909196140F948C
:104CB0000933609393147093941480939514909394
:104CC0009614A301920160919F137091A01380919B
:104CD000A1139091A2130F94093360939F137093C3
:104CE000A0138093A1139093A2136091CB067091AF
:104CF000CC068091CD069091CE060F94A832A301E8
:104D000092010F9409330F94A33A6093CB067093EA
:104D1000CC068093CD069093CE0680928F1390920E
:104D20009013A0929113B092921307C00E94EFB912
:104D3000F701648B758B868B978B1F5FF4E0EF0E0A
:104D4000F11C143009F084CF0F94DD10F1C50E94DE
:104D50004CF48FE391E10E94CBCCEAC58091B91469
:104D60009091BA14009709F416CCFC0120812223FB
:104D700009F411CC60E00E941FF1DAC50091B9146A
:104D80001091BA1494E0F12C40E0915029F1F8010F
:104D90008081282F2B7F213421F421812133E1F4DC
:104DA00008C08035C9F4F801818180538A3048F009
:104DB00013C0813421F0853421F441E002C0FF2486
:104DC000F39498012E5F3F4F89012F5F3F4FF80109
:104DD00080818032C9F3D9CF41110E944A32FF202D
:104DE00021F08FEF98E00E941832C8010E945B34D6
:104DF0009FC581E080938104809380040E943FC915
:104E000097C510928104109280040E943FC990C5FA
:104E100060E070E083E50E9471BC823038F00E944F
:104E2000463283E099E00E94183282C58C01112736
:104E300088E40E9464BC8823E1F00E94EBB98A3ABE
:104E4000910544F00E94EBB98530914034F40E9402
:104E5000EBB905C08AEA90E002C084E091E026E068
:104E6000209FF001219FF00D1124E55CFB4E918302
:104E7000808382E40E9464BC8823D9F00E94EBB94D
:104E800097FD08C00E94EBB98937910534F40E9460
:104E9000EBB905C080E090E002C088E790E026E032
:104EA000209FF001219FF00D1124E55CFB4E9383C0
:104EB000828386E40E9464BC882309F439C50E9479
:104EC000EBB997FD09C00E94EBB98F3F910509F03E
:104ED00034F40E94EBB905C080E090E002C08FEF8F
:104EE00090E026E0209FF001219FF00D1124E55C69
:104EF000FB4E958384831CC50E941E68182F87FD76
:104F000017C50091E50D84E40E9464BC882309F470
:104F1000ECC60E94EFB96B017C0120E030E0A901F2
:104F20000F94A332882309F442C024E01202F00156
:104F30001124E352F24FC082D182E282F38220E058
:104F400030E0A9016091DD0D7091DE0D8091DF0DE3
:104F50009091E00D0F94A33281110CC080E090E09D
:104F6000A0EEBFE38093DD0D9093DE0DA093DF0DE7
:104F7000B093E00D20E030E0A9016091E10D709167
:104F8000E20D8091E30D9091E40D0F94A332811115
:104F90000CC080E090E0A0EEBFE38093E10D909321
:104FA000E20DA093E30DB093E40D01E09EC680E016
:104FB0008093E50D0F944E0FBBC40E941E6887FDC1
:104FC000B7C458E1C52E53E0D52E6FE6E62E63E157
:104FD000F62E10E0F60181916F010E94CA95882398
:104FE00031F10E94EFB96C8F7D8F8E8F9F8F80E1A2
:104FF000E1E9F2E0DE01119601900D928A95E1F768
:105000009E012F5F3F4F46E45DE1612FCE014C963C
:105010000F9408106C8D7D8D8E8D9F8D0F94A33A0B
:10502000F70160837183828393830F9496101F5FCF
:10503000F4E0EF0EF11C143069F67AC40E941E6889
:1050400087FD76C448E1E42E43E0F42E0FE613E139
:10505000F70181917F010E94CA95882339F00E944F
:10506000EFB9F80164A375A386A397A30C5F1F4F44
:10507000F3E10F371F0761F75BC48091C01487FD10
:1050800039C68091C1148E7009F034C64091A313C3
:105090005091A4136091A5137091A61385E299E035
:1050A0000E9444344091A7135091A8136091A91312
:1050B0007091AA138FE990E30E9444344091AB139E
:1050C0005091AC136091AD137091AE138BEF93E3DD
:1050D0000E9444348AE00E9411322AC40E9426BAF7
:1050E00027C432EFE32E3DE0F32E10E088E5810F78
:1050F0000E94CA95882351F00E94EFB9F70160839E
:10510000718382839383812F0F94B9151F5FF4E01D
:10511000EF0EF11C133051F70E9460C809C483E5FB
:105120000E94CA95882351F00E94EFB960931A1427
:1051300070931B1480931C1490931D1486E40E949A
:10514000CA95882381F00E94EFB920E030E040E763
:1051500052E40F942A3A60931E1470931F148093A4
:105160002014909321148AE50E94CA95882351F057
:105170000E94EFB960932214709323148093241437
:105180009093251487E50E94CA95882309F4D0C31B
:105190000E94EFB960932E1470932F1480933014F3
:1051A00090933114C5C383E50E94CA95882351F0BA
:1051B0000E94EFB9609326147093271480932814EB
:1051C0009093291486E40E94CA95882381F00E9456
:1051D000EFB920E030E040E752E40F942A3A6093C0
:1051E0002A1470932B1480932C1490932D1482E521
:1051F0000E94CA95882381F00E94EFB920E030E038
:1052000040E752E40F942A3A6093361470933714AF
:10521000809338149093391487E50E94CA958823A7
:1052200009F486C30E94EFB960933214709333146B
:1052300080933414909335147BC383E50E94CA9500
:10524000882309F475C30E94DBB9809319140E9466
:1052500019686EC38AE50E9464BC882351F00E94DD
:10526000EFB96093AA067093AB068093AC06909357
:10527000AD0680E00E94C7715BC30E94527158C3A3
:1052800083E50E9464BC882331F00E94EBB99093BF
:105290003802809337028091BF149091C014A0917E
:1052A000C114B091C214892B8A2B8B2B09F040C3F7
:1052B000609137027091380285E399E00E94C23311
:1052C00085E20E9411328AE00E94113231C30E94AD
:1052D0001E68F82E87FD2CC383E50E9464BC0F2D49
:1052E0000F2C000C110B882361F10E94EBB9F8011F
:1052F000EE0FFF1FEF57FD4F91838083000F111FAB
:10530000000F111F9801255D3D4F7901BC01990FD8
:10531000880B990B0F94AA322AE037ED43E25CE345
:105320000F940933F801E956FB4E20813181428107
:1053300053810F940933F7016083718382839383D0
:10534000F7C20E944A3285E40E94113280E38F0D39
:105350000E941132000F111FF801EF57FD4F6081BD
:10536000718189E399E00E94C23385E20E94113283
:105370008AE00E941132DCC28AE50E9464BC81117D
:1053800005C083E50E9464BC882331F10E94EFB917
:1053900020E030E040E050EC0F94A33287FDF5C4EC
:1053A0000E94EFB920E030E040E050E40F942A3B47
:1053B00018160CF4E5C40E94EFB920918B133091BC
:1053C0008C1340918D1350918E130F9409330F94C9
:1053D0009C3ACB010E9458F88091C11487FDDAC431
:1053E0008091C214837009F0D5C40E944A32609142
:1053F000D40E7091D50E87EF9DE20E94C2338AE0F1
:105400000E94113295C264E071E083E50E9415703C
:105410008C0168EE73E080E50E9415708938F3E135
:105420009F0710F088E893E1B8010E945AF080C20B
:1054300060E085E40E9480BC823008F073C080E5A3
:105440000E94CA95882351F00E94EFB96093BA0D6B
:105450007093BB0D8093BC0D9093BD0D89E40E94A9
:10546000CA95882381F00E94EFB92CEA35EC47E217
:105470005EE30F9409336093BE0D7093BF0D80936C
:10548000C00D9093C10D84E40E94CA95882381F0D9
:105490000E94EFB92CEA35EC47E25EE30F942A3A1A
:1054A0006093C20D7093C30D8093C40D9093C50D8E
:1054B0000E944A324091BA0D5091BB0D6091BC0DD3
:1054C0007091BD0D89E499E00E9444342CEA35ECDA
:1054D00047E25EE36091BE0D7091BF0D8091C00DFB
:1054E0009091C10D0F942A3AAB01BC0185E499E07B
:1054F0000E9444342CEA35EC47E25EE36091C20D31
:105500007091C30D8091C40D9091C50D0F94093316
:10551000AB01BC0181E499E00E9444348AE00E941E
:10552000113206C20E94463283E591E20E9418328F
:10553000FFC10E945F4AFCC181E00E9467A90E94EE
:1055400060C8F6C18091BF1483FD2AC48091C11444
:10555000867009F025C449C40E9491BAE9C16FEF71
:105560007FEF89E40E9471BC082F6FEF7FEF8AE420
:105570000E9471BC182F8AE50E9464BC811108C08A
:1055800081E50E9464BCD82E882309F448C401C078
:10559000D12CC02E81E0800F853008F04CC0912EB8
:1055A00081E0810F853008F046C00E94EFB92B01E1
:1055B0003C01F02E07FDF12C07FF02C0F3E0CF2ED7
:1055C000812E17FD812C17FF02C0E3E09E2ECF1421
:1055D00008F4AEC1E82C24E0F29E500111249E1480
:1055E00040F10E2D10E0DD2071F0F501E00FF11F0C
:1055F000EE0FFF1FEE0FFF1FE95BFB4E2081318195
:105600004281538103C020E030E0A9010A0D1B1D37
:10561000000F111F000F111F095B1B4EC301B201C8
:105620000F94A739F8016083718382839383E39495
:10563000D6CFF394CCCF0E9446328CEE95E00E94F8
:10564000183276C10E9493FC811172C106E814E3FE
:105650002EE432E03DA32CA3CE0101961C0149EBC0
:10566000C42E44E3D42E7C01F80165917591859197
:105670009491ECA1FDA181909190A190B190FDA396
:10568000ECA3A50194010F94A6392B013C01F7016D
:10569000608371838283938320E030E040EA51ECA1
:1056A0000F942A3B87FD0AC020E030E040EA51E435
:1056B000C301B2010F94A33218162CF4F6018491A1
:1056C00018160CF4B3C3F70181909190A190B1909A
:1056D0007F0120E030E040EA51ECC501B4010F94B5
:1056E0002A3B87FDADC320E030E040EA51E4C5012C
:1056F000B4010F94A33218160CF0B6C3A1C30E94D4
:10570000DD8216C10F94F60A13C161E083E50E94A1
:105710008CBC81270F940C0B0BC181E08093FC1390
:105720000E94AA7C1092FC13882309F401C10E94F4
:105730004A328AED99E00E941832FAC080918B11AA
:1057400082FF04C0806480938B11F2C083FFF0C09D
:105750000E9411FAEDC00E94A56DEAC00E941E6869
:10576000082F87FDE5C085E50E94CA958823A9F129
:10577000E02E002E000CFF080E94EFB94B015C01E7
:1057800020E030E0A9010F942A3B87FF04C0B7FA5C
:10579000B094B7F8B094C70123E0880F991F2A95F9
:1057A000E1F79C01275F3B4E7901F90180829182EC
:1057B000A282B38220E030E048E453E4C501B401A2
:1057C0000F942A3B18164CF480E090E0A8E4B3E470
:1057D000F70180839183A283B3838CE40E94CA95EE
:1057E000882309F4A5C0002E000C110B0E94EFB90C
:1057F0006B017C0120E030E0A9010F942A3B87FF78
:1058000004C0F7FAF094F7F8F09483E0000F111F4A
:105810008A95E1F7075F1B4EF801C482D582E682C4
:10582000F78220E030E048E453E4C701B6010F946A
:105830002A3B18160CF07CC080E090E0A8E4B3E4AA
:10584000F80184839583A683B78372C00E94296B75
:105850006FC00F943C206CC081E080934906109289
:10586000640D60E083E50E948CBC811161C00F94DF
:10587000B61F5EC083E50E94CA95882339F00E9456
:10588000DBB980933A140E94209652C00E944A329B
:1058900085EE99E00E94183280913A140E942732D6
:1058A00047C00E94616844C00E944EC96D337105B3
:1058B0008105910520F082E19AE00F9453238EE058
:1058C0009AE00F9453230E9418960E9467DB8AEF98
:1058D00099E00E94183288E290E2909386048093C7
:1058E000850426C00E944DFA23C01091BC140F9469
:1058F0003D026093D00E7093D10E8093D20E9093A0
:10590000D30E212F012E000C330B8091CB0E90E093
:105910002817390729F060E083E50E948CBC01C09C
:1059200081E0682F812F0E9453A602C00E944DFA89
:10593000FFA1F11102C00F94A61F2EA12093B8134E
:10594000D5C28090EE139090EF13A090F013B0901A
:10595000F11320915A0230915B0240915C02509108
:105960005D02C501B4010F94A6396B017C0120E0F2
:1059700030E0A9010F942A3B87FFABC22DEC3CEC31
:105980004CEC5DEBC701B6010F94A33218165CF026
:10599000C701B601905820E030E040E251E40F9496
:1059A000A33218161CF40E9478C2C2CF0091CB0E0D
:1059B00010E00E5C1C4F7724739420E030E0A901C6
:1059C000C701B6010F942A3B18160CF0712CF80190
:1059D00080818711E8CF80925A0290925B02A09258
:1059E0005C02B0925D028AE592E00F94221420E0FE
:1059F00030E0A901C701B6010F94A33260E0881F0F
:105A00008827881F0E94489A93CF0F940111109203
:105A10006402E090A20D80E00E94149E0F943D026B
:105A20006093D00E7093D10E8093D20E9093D30ECC
:105A3000D090CB0E61E080E00E9453A60E94CCC5BE
:105A400081E0809381040E943FC98AE50E94CA9543
:105A5000F82E88E50E94CA95182F89E50E94CA95FC
:105A600018134BC0F11611F0012F04C001E011E032
:105A7000FF24F39482E50E9464BC882319F00E94FD
:105A8000EFB904C060E070E080E291E469837A835A
:105A90008B839C8320E030E0A9010F94A3328823FC
:105AA00041F0111102C0002371F0CE0101960E9455
:105AB000E9FC112319F080E00F94342D002319F034
:105AC00081E00F94342DFF2019F082E00F94342DE3
:105AD0000E945EC880918004809381048E2D0E9474
