:100000000C94AB1B0C94DC1B0C94DC1B0C94DC1BC5
:100010000C94DC1B0C94DC1B0C94DC1B0C94DC1B84
:100020000C94DC1B0C94DC1B0C94DC1B0C94DC1B74
:100030000C94DC1B0C9434900C94DC1B0C94DC1B97
:100040000C94DC1B0C94F2CD0C94DC1B0C94DC1B8C
:100050000C94DC1B0C94DC1B0C94DA750C94EA8F6A
:100060000C94DC1B0C94033B0C94F93A0C94DC1BB1
:100070000C94DC1B0C94DC1B0C94DC1B0C94DC1B24
:100080000C94DC1B0C94DC1B0C94DC1B0C94DC1B14
:100090000C94DC1B0C94DC1B0C94DC1B0C94DC1B04
:1000A0000C94DC1B0C94DC1B0C94DC1B0C94DC1BF4
:1000B0000C94DC1B0C94DC1B0C94DC1B0C94DC1BE4
:1000C0000C94DC1B0C94DC1B0C94DC1B0C94DC1BD4
:1000D0000C94DC1B0C94DC1B0C94DC1B0C94DC1BC4
:1000E0000C94DC1B78387D3882388C3896380F3980
:1000F000A038A838B038BA38C438CE38DD38E73838
:100100000F39F138FB380539D268AB68AE68D5686D
:10011000B168B468B768C368BA68D068BD68C068B9
:100120003778F978FE781179167929793579277831
:100130002202D2018C01E0002C01BA010801200248
:1001400058018801AC01A401E001CA00BA01AA016A
:10015000D000E4000C94558A0C945FE40C946EEC8F
:100160000C947A650C9489DE0C9476EC0C940DE07A
:100170000D941D030C948B880C9476920C948F8FA5
:100180000C942B8A0D94201F0C94D4900D9422056E
:100190000C94948A0D945F020C94BB8F0C94357967
:1001A0000D9469020C9466650C9498EA0D946305AD
:1001B0000D940D100C945D920C9441E00C947665B6
:1001C0000D942E020C94BA380D946D020C94B4D692
:1001D0000C9430540C9423410C947DF10D945108EF
:1001E0000C945D880C94868F0C94FE780C94963851
:1001F0000C9478380C94B7680C94828A0C947265CD
:100200000C94445A0C945C520C94A08A0C945A5648
:100210000D943F020C9482650C9457920D94832B9D
:100220000C94245A0C9414890C9461DD0D941805D7
:100230000D942F030C942B620C9474460C942BE4B5
:100240000D94CD1D0D9423030C9478880C94626555
:100250000C941A8D0C94613B0D9432020C945092C4
:100260000C94AE680C9473920C94B3E40C9474DD0B
:100270000C94CF8F0C94DD900C94CA880C947E65FE
:100280000C943BE00C9477460C948C5C0C946F922D
:100290000C94A3D60C9470950C94468A0C94783BDD
:1002A0000C9405390C944A3B0C94E7900C940D8AFD
:1002B0000D9449020C9464520D94D31D0C9401E0EA
:1002C0000C94F9780C94D5680C948E8A0C94D39085
:1002D0000C94075C0C9487EC0C949A8A0D94CF1DB7
:1002E0000C94BD680C940C620C943C620C94FC88D9
:1002F0000C94FB380C9434620C947DE50C946E6580
:100300000C94C0680C94A0380C94708A0C946A65A4
:100310000D944D020C94A6DD0D942A020C94E388F2
:100320000D94652B0C94B1D60C9467890C945E6582
:100330000C941C8A0C9420E00C94EC890C94768A22
:100340000C94E3900C9435E00D9457020C9493E4D4
:100350000C9486890D9465020D9451020C942778B3
:100360000C947D380C94648A0C94DD380D94290328
:100370000C94BA680D9472020C942B880C94325A27
:100380000C943D890C9444880C9429790C94B7887A
:100390000C9412880C9405890D94B7050C94CE38F2
:1003A0000C948F3B0D943B020C9441640C94B0D69A
:1003B0000C9416790C94A8380C94C3680C941D56B0
:1003C0000D945B020C94AB680C940F390C94B7E459
:1003D0000C943A8A0C942FE00C94F0670C946052C1
:1003E0000C946A8A0C9482380C949E880C947C8AB3
:1003F0000C948C380D94D51D0C945E520C947E9206
:100400000C94E7380C9448890C944F600C94B3F129
:100410000C9463920C94D2680C948DDD0D941D05A0
:100420000C94C4380C9410940C94B4680C940A6224
:100430000C9469920D94B61C0C94F0620C94888A0A
:100440000D9443020D9438020C9435890C9472EC8F
:100450000C94F1380C94D0680D9413050C9447D784
:100460000C948BEC0C9411790C94778F0C94625251
:100470000C94B1680C9486650D94D11D0C9437785A
:100480000C94B0380C949C634E414E494E495459DB
:10049000494E46CDCCCC3D0AD7233C17B7D138774F
:1004A000CC2B329595E6241FB14F0A000020410065
:1004B00000C84200401C4620BCBE4CCA1B0E5AAEAF
:1004C000C59D7400407A10F35A00A0724E180900BE
:1004D00010A5D4E80000E87648170000E40B5402A9
:1004E0000000CA9A3B000000E1F5050000809698E4
:1004F00000000040420F000000A086010000001034
:100500002700000000E80300000000640000000075
:10051000000A00000000000100000000002C76D856
:1005200088DC674F0823DFC1DFAE59E1B1B796E53C
:10053000E3E453C63AE651997696E8E6C28426EBA0
:10054000898C9B62ED407C6FFCEFBC9C9F40F2BAB3
:10055000A56FA5F490055A2AF75C936B6CF9676D4B
:10056000C11BFCE0E40D47FEF520E6B500D0ED90A0
:100570002E0300943577050080841E080000204E6D
:100580000A000000C80C333333330F986E12831106
:1005900041EF8D2114893BE65516CFFEE6DB18D1DD
:1005A000844B381BF77C1D901DA4BBE424203284AF
:1005B000725E228100C9F124ECA1E53D27434F4D35
:1005C0004D554E49434154494F4E0044525952559E
:1005D0004E004552524F525300494E464F0045433C
:1005E000484F005265706F732E2E2E004D65736854
:1005F00020706F696E74206F7574206F6620726151
:100600006E67650A00417474656E7465207574695F
:100610006C69732E004D6F746575727320626C6F18
:100620007175C3A97300456E642066696C65206CA2
:100630006973740A00426567696E2066696C65209B
:100640006C6973740A004E6F206D656469610A00FD
:10065000286E6F2066696C65290043757272656E3D
:10066000742066696C653A20005344207072696E8C
:1006700074696E67206279746520004E6F74205330
:1006800044207072696E74696E670A00256979206A
:10069000256964202569682025696D202569730016
:1006A0005072696E742074696D653A2000526566F7
:1006B000726F6964697373656D656E740045256357
:1006C000202553006F66660044454255473A004D69
:1006D0003131322053687574646F776E004D31315B
:1006E0003320530050383032515232204F46462E7C
:1006F000004348414D4245525F54454D504552419B
:100700005455524500424142595354455050494E68
:10071000470041524353004D4F54494F4E5F4D4F98
:1007200044455300544845524D414C5F50524F543C
:10073000454354494F4E004C4F4E475F46494C4548
:100740004E414D45004155544F5245504F52545F14
:1007500053445F535441545553005344434152440E
:100760000050524F4D50545F535550504F5254000B
:10077000454D455247454E43595F504152534552AE
:1007800000434153455F4C494748545F42524947F3
:1007900048544E45535300544F47474C455F4C49CE
:1007A0004748545300534F4654574152455F504FAA
:1007B000574552004255494C445F50455243454EBF
:1007C00054004C4556454C494E475F444154410006
:1007D0005A5F50524F42450052554E4F55540041BA
:1007E00055544F4C4556454C005052494E545F4A63
:1007F0004F420050524F4752455353004155544FBA
:100800005245504F52545F54454D5000564F4C5531
:100810004D45545249430042494E4152595F464961
:100820004C455F5452414E53464552005345524940
:10083000414C5F584F4E5F584F4646004649524D17
:10084000574152455F4E414D453A4D61726C696E5C
:10085000206D61726C696E2D322E302E3820284446
:10086000656320323920323032302031313A35352B
:100870003A32362920534F555243455F434F444542
:100880005F55524C3A68747470733A2F2F676974CD
:100890006875622E636F6D2F4D61726C696E46696B
:1008A000726D776172652F4D61726C696E20505266
:1008B0004F544F434F4C5F56455253494F4E3A3178
:1008C0002E30204D414348494E455F545950453ADA
:1008D00050383032515232204558545255444552C6
:1008E0005F434F554E543A3220555549443A63655B
:1008F0006465326132662D343161322D34373438DB
:100900002D396231322D63353563363266333637F1
:1009100066660A002F2F20004D31343520533C6984
:100920006E6465783E206F7574206F662072616E0C
:1009300067652028302D31290A00416363656C65A5
:10094000726174696F6E00416363656C6572617496
:10095000696F6E3A20500046523A0020466C6F771D
:100960003A200020643A0020693A0020703A00469C
:10097000696C616D656E742072756E6F757420643C
:10098000697374616E636520286D6D293A20004695
:10099000696C616D656E742072756E6F7574200080
:1009A0004D34323120696E636F72726563742070EA
:1009B0006172616D657465722075736167650A00A7
:1009C00044C3A963616C61676573206170706C6971
:1009D0007175C3A973004572723A20546F6F206617
:1009E00061722100546F6F206661722066726F6DB4
:1009F000207265666572656E636520706F696E74DE
:100A00000A00454550524F4D204F4B0A00506F771A
:100A100065722D6C6F7373207265636F7665727982
:100A20002000446F6E65207072696E74696E672075
:100A300066696C650A004D3737004D333100DE05BD
:100A4000D905D205CB05BD054572726F722077724C
:100A50006974696E6720746F20454550524F4D216F
:100A60000A004D323930004D343130004D313132D1
:100A7000004D3130380053544F5050C389005072EC
:100A8000696E7465722073746F707065642064752C
:100A90006520746F206572726F72732E20466978BC
:100AA00020746865206572726F7220616E642075B3
:100AB0007365204D39393920746F20726573746104
:100AC00072742E202854656D70657261747572653C
:100AD0002069732072657365742E205365742069D4
:100AE00074206166746572207265737461727469D2
:100AF0006E67290A004E6F20436865636B73756DDE
:100B00002077697468206C696E65206E756D62650A
:100B1000722C204C617374204C696E653A2000631E
:100B20006865636B73756D206D69736D617463685F
:100B30002C204C617374204C696E653A20004C691E
:100B40006E65204E756D626572206973206E6F74DC
:100B5000204C617374204C696E65204E756D626522
:100B6000722B312C204C617374204C696E653A20D5
:100B7000004D31313000534420726561642065724C
:100B8000726F720A002121204B494C4C2063617521
:100B9000736564206279204B494C4C2062757474F3
:100BA0006F6E2F70696E0A002121204B494C4C203A
:100BB00063617573656420627920746F6F206D7551
:100BC000636820696E6163746976652074696D6518
:100BD000202D2063757272656E7420636F6D6D6178
:100BE0006E643A2000627573793A2070617573659E
:100BF0006420666F7220696E7075740A0062757386
:100C0000793A2070617573656420666F7220757320
:100C100065720A00627573793A2070726F6365734A
:100C200073696E670A004DC3A964696120726574B7
:100C30006972C3A9004DC3A964696120696E73C359
:100C4000A972C3A9004D3130303053004D363030D9
:100C50002054313700526564C3A96D6172726572A8
:100C60002053565000494D50522E2053544F50504F
:100C7000C389450025533A202553004B494C4C4528
:100C800044005072696E7465722068616C746564AA
:100C90002E206B696C6C28292063616C6C65642163
:100CA0000A006563686F3A004572726F723A0043DA
:100CB000616973736F6E0052756E6F75742044694D
:100CC0007374206D6D0043686172676572206D6D8D
:100CD0000052657472616974206D6D004469616DC4
:100CE000C3A87472652066696C2E202A004469616D
:100CF0006DC3A87472652066696C2E004520656E10
:100D0000206D6DC2B300526566726F69642E2064F7
:100D100075206C69742E2E2E004C697420656E202F
:100D2000636861756666652E2E2E002364656669AC
:100D30006E652044454641554C545F004B6420008D
:100D40004B6920004B702000504944204175746F5E
:100D500074756E652066696E6973686564212050DC
:100D6000757420746865206C617374204B702C203E
:100D70004B6920616E64204B6420636F6E737461F5
:100D80006E74732066726F6D2062656C6F77206978
:100D90006E746F20436F6E66696775726174696FF8
:100DA0006E2E680A00504944204175746F74756E48
:100DB00065206661696C6564212074696D656F7575
:100DC000740A000A20436C617373696320504944BC
:100DD000200A00204B643A2000204B693A20002072
:100DE0004B703A20000A204E6F206F766572736850
:100DF0006F6F740A002054753A2000204B753A201A
:100E000000206D61783A2000206D696E3A20002044
:100E1000643A200020626961733A200050494420FE
:100E20004175746F74756E652073746172740A0015
:100E3000504944204175746F74756E652066616910
:100E40006C6564212054656D70657261747572659E
:100E500020746F6F20686967680A00504944204118
:100E600075746F74756E6500504944204175746FD8
:100E700074756E65206661696C65642120426164E9
:100E8000206578747275646572206E756D62657226
:100E90000A00A10000006900A20000006300B00089
:100EA00000000900C10000004100C2000000410034
:100EB000C30000004100C40000004100C500000064
:100EC0004100C60000004145C70000004300C800C3
:100ED00000004500C90000004500CD0000004900A9
:100EE000D10000004E00D50000004F00D6000000E9
:100EF0004F00D70000007800DC0000005500DD0046
:100F000000005900E00000006100E1000000610005
:100F1000E20000006100E30000006100E400000066
:100F20006100E50000006100E60000006165E70087
:100F300000006300E80000006500E90000006500B3
:100F4000EA0000006500EB0000006500EC00000016
:100F50006900ED0000006900EE0000006900EF008C
:100F600000006900F10000006E00F20000006F0058
:100F7000F30000006F00F40000006F00F5000000B7
:100F80006F00F60000006F00F80000006F00F9002D
:100F900000007500FA0000007500FB0000007500FD
:100FA000FC0000007500FD0000007900FF0000005B
:100FB0007900040100004100050100006100060104
:100FC000000043000701000063000C010000430023
:100FD0000D01000063000E01000044000F0100003D
:100FE00064001101000064001901000065001A018D
:100FF000000045001B01000065001F0100006700A4
:101000003001000049003101000069004101000089
:101010004C00420100006C00430100004E004401FE
:1010200000006E00480100006E00580100005200F0
:101030005901000072005A01000053005B010000DA
:1010400073005F0100007300600100005300610144
:10105000000073006501000074006F01000075005E
:101060007C0100007A007D0100005A007E01000032
:101070007A00920100006600E3020000780022205E
:1010800000002E001E210000507822210000544D47
:10109000902100003C2D922100002D3EB021000047
:1010A0000300BB21000004003C2200007E00482217
:1010B00000007E3D60220000213D612200003D00D5
:1010C000642200003C3D652200003E3DF12300000B
:1010D0000700A03000003D0021F301000200C2F42F
:1010E00001000500A2000000EC00B0000000DF00DD
:1010F000E4000000E100F6000000EF00F70000004F
:10110000FD00FC000000F500E3020000EB00870397
:101110000000A5008F030000F40098030000F20017
:101120009E030000E300A3030000F600A9030000F3
:10113000F400AC030000E000AD030000E300B103E5
:101140000000E000B2030000E200B5030000E3008D
:10115000B8030000F200BC030000E400BE0300007E
:10116000E300C0030000F700C1030000E600C30372
:101170000000E500902100007F00922100007E0029
:101180001A220000E8001E220000F300882500005B
:10119000FF0002300000A1000C300000A2000D3062
:1011A0000000A3009B300000DE009C300000DF0048
:1011B000A03000003D00A1300000A700A2300000D8
:1011C000B100A3300000A800A4300000B200A53098
:1011D0000000A900A6300000B300A7300000AA005C
:1011E000A8300000B400A9300000AB00AA30000015
:1011F000B500AB300000B600AC300000B6DEAD305C
:101200000000B700AE300000B7DEAF300000B8001D
:10121000B0300000B8DEB1300000B900B2300000DC
:10122000B9DEB3300000BA00B4300000BADEB53029
:101230000000BB00B6300000BBDEB7300000BC00D1
:10124000B8300000BCDEB9300000BD00BA3000008C
:10125000BDDEBB300000BE00BC300000BEDEBD30D5
:101260000000BF00BE300000BFDEBF300000C00085
:10127000C0300000C0DEC1300000C100C23000003C
:10128000C1DEC3300000AF00C4300000C200C53072
:101290000000C2DEC6300000C300C7300000C3DE5D
:1012A000C8300000C400C9300000C4DECA300000ED
:1012B000C500CB300000C600CC300000C700CD30E8
:1012C0000000C800CE300000C900CF300000CA00C6
:1012D000D0300000CADED1300000CADFD2300000BA
:1012E000CB00D3300000CBDED4300000CBDFD530D4
:1012F0000000CC00D6300000CCDED7300000CCDFC0
:10130000D8300000CD00D9300000CDDEDA3000004A
:10131000CDDFDB300000CE00DC300000CEDEDD3083
:101320000000CEDFDE300000CF00DF300000D00054
:10133000E0300000D100E1300000D200E2300000D7
:10134000D300E3300000AC00E4300000D400E5300E
:101350000000AD00E6300000D500E7300000AE0030
:10136000E8300000D600E9300000D700EA30000085
:10137000D800EB300000D900EC300000DA00ED308E
:101380000000DB00EF300000DC00F2300000A600BF
:10139000F3300000DD00F4300000B3DEF730000071
:1013A000DCDEFA300000A6DEFB300000A500FC30D9
:1013B0000000B000FD300000A400074E0000FB005C
:1013C00086510000FC0043530000FA0064FF000057
:1013D000A40065FF0000A50066FF0000A60067FFEF
:1013E0000000A70068FF0000A80069FF0000A90036
:1013F0006AFF0000AA006BFF0000AB006CFF00005A
:10140000AC006DFF0000AD006EFF0000AE006FFF8E
:101410000000AF0070FF0000B00071FF0000B100DD
:1014200072FF0000B20073FF0000B30074FF000001
:10143000B40075FF0000B50076FF0000B60077FF2E
:101440000000B70078FF0000B80079FF0000B90085
:101450007AFF0000BA007BFF0000BB007CFF0000A9
:10146000BC007DFF0000BD007EFF0000BE007FFFCE
:101470000000BF0080FF0000C00081FF0000C1002D
:1014800082FF0000C20083FF0000C30084FF000051
:10149000C40085FF0000C50086FF0000C60087FF6E
:1014A0000000C70088FF0000C80089FF0000C900D5
:1014B0008AFF0000CA008BFF0000CB008CFF0000F9
:1014C000CC008DFF0000CD008EFF0000CE008FFF0E
:1014D0000000CF0090FF0000D00091FF0000D1007D
:1014E00092FF0000D20093FF0000D30094FF0000A1
:1014F000D40095FF0000D50096FF0000D60097FFAE
:101500000000D70098FF0000D80099FF0000D90024
:101510009AFF0000DA009BFF0000DB009CFF000048
:10152000DC009DFF0000DD009EFF0000DE009FFF4D
:101530000000DF00E5FF00005C00001C1F11111F10
:1015400000000006191803130C00040E1F041C00F1
:101550000000000E1315110E00001C1018170506D0
:101560000500040A0A0A0A11110E0C12120C0000DE
:101570000000001F1511151F00004D33303320559A
:101580003120452569205325690050494420417583
:10159000746F74756E65202A005049442D44202ACA
:1015A000005049442D49202A005049442D50202AFA
:1015B00000566D696E20636F7572736500566D69B4
:1015C0006E00566D6178204500566D6178205A0096
:1015D000566D6178205900566D6178205800416D34
:1015E0006178204500416D6178205A00416D617835
:1015F000205900416D61782058004163632E636F6C
:1016000075727365004163632E72C3A9747261635E
:1016100074696F6E004175676D656E746572205AEE
:1016200000427573652032205A004275736520327E
:10163000205900427573652032205800562EC3A9E8
:1016400063682E207265707269736500562E72C3CE
:10165000A9742E2072657072697365004563682EE7
:1016600072657072697365206D6D0052C3A9742E26
:1016700072657072697365206D6D005361757420B9
:101680005A206D6D005669742E2072C3A974726160
:101690006374C2B0004563682E2072C3A974722EB1
:1016A000206D6D0052C3A974726163746174696FB7
:1016B0006E206D6D0052C3A97472616374696F6EA0
:1016C000206175746F00427573650052C3A963751C
:1016D000702E20636F75702E00436F6E666967759C
:1016E000726174696F6E0052657072656E647265C6
:1016F00020696D70722E0050726F74656374696F2B
:101700006E20696E61637469766500313330004222
:1017100045443A203130306B207769746820342E8C
:10172000376B2070756C6C2D75700050726F74651E
:101730006374696F6E206163746976650045323A3F
:10174000203130306B207769746820342E376B205D
:1017500070756C6C2D75700054656D70204D6178DE
:10176000003237350054656D70204D696E0045318B
:101770003A203130306B207769746820342E376B13
:101780002070756C6C2D757000416C696D2E004772
:10179000656E657269630050726F746F636F6C651C
:1017A00000312E30004261756473003131353230C2
:1017B000300068747470733A2F2F7777772E616CCE
:1017C00069657870726573732E636F6D2F697465C8
:1017D0006D2F33323936353430363339362E68741E
:1017E0006D6C005A4F4E4553544152205A52494253
:1017F0005F5636004E69766561752062696C696E68
:10180000C3A9616972650045787472756465757203
:1018100073007777772E7A6F6E65737461723364B5
:101820002E636F6D005038303251523200323032F8
:10183000302D31322D3137006D61726C696E2D3271
:101840002E302E380056332E322E300054686572FA
:101850006D697374616E63657300496E666F7320A2
:10186000636172746500496E666F7320696D707292
:10187000696D616E7465004D3130303000417272B7
:10188000C3AA74657220696D70722E005265746F00
:1018900075720053746F7000506173206465206D21
:1018A000C3A96469610041637475616C6973657291
:1018B000206DC3A9646961004D3231004368616ED7
:1018C0006765722066696C616D656E740052C3A9AC
:1018D000676C657200506175736520696D70726523
:1018E0007373696F6E005375727665696C6C65729F
:1018F000005061726B696E672E2E2E0000004174DD
:1019000074656E74652066696C616D656E740070D7
:101910006F75722064C3A96D6172726572000041B7
:101920007474656E746500726574726169742064A4
:10193000752066696C616D656E7400004275736533
:1019400020656E2063686175666665005061746924
:10195000656E746572205356502E2E2E0000507204
:101960006573736572206C6520626F75746F6E00AD
:10197000706F75722063686175666665722E2E2EB3
:101980000000496E73C3A97265722066696C616D4F
:10199000656E74006574206170702E20626F7574BE
:1019A0006F6E00706F757220636F6E74696E75650F
:1019B000722E2E2E00417474656E7465006368612A
:1019C0007267656D656E742066696C616D656E74B5
:1019D00000005072657373657220626F75746F6E6C
:1019E00000706F75722072657072656E647265004A
:1019F00000417474656E74652072657072697365F8
:101A000000696D7072657373696F6E000041747464
:101A1000656E74650050757267652066696C616DEE
:101A2000656E740000204D393220580020204D6131
:101A3000783A200020204D696E3A2000536F66747A
:101A400020656E6473746F70733A20004D323420D9
:101A500053256C642054256C64004739322E39209C
:101A600045257300473120462564004739322E3919
:101A7000205A2573004731205A302046323030003A
:101A80004731205825732059257320463330303094
:101A9000004731204525642046323030004D31303A
:101AA000362050256920532569004D3130392053A7
:101AB0002569005425692053004D313930205325C4
:101AC00069004D32303020542569204430004D32B9
:101AD0003030205425692044257300473238523075
:101AE0005859004739322E39204530205A300A479C
:101AF000315A2573004D313039205331353020545F
:101B00002569004D31343020532569004D34323081
:101B1000205330205A300020496E76616C69642071
:101B2000657874727564657220004C697400453282
:101B300000453100626564002C2073797374656D13
:101B40002073746F707065642120486561746572DC
:101B50005F49443A200045727220544845524D492D
:101B600051554500546865726D616C2052756E6107
:101B700077617900457272206465206368617566DB
:101B800066650048656174696E67206661696C65A9
:101B900064004572722054454D502E204D4158002E
:101BA0004D415854454D50207472696767657265A0
:101BB00064004572722054454D502E204D494E0010
:101BC0004D494E54454D5020747269676765726582
:101BD0006400202F002040002042403A0020403A7C
:101BE0000020573A001000AA038000400100012C99
:101BF00001B001220140021001F00202018003F84D
:101C0000004004F500E004ED009005E4003006DD3E
:101C100000E006D7008007D1003008CC00D008C70C
:101C2000007009C300100ABE00B00ABB00500BB719
:101C300000900CB300D00DAA00B00FA5005010A06A
:101C400000101496009016900010198C00501A8500
:101C500000301C820070227800B023750040256E91
:101C60000020276900A0296400502A5F00902B5AA9
:101C700000D02C5500702D4F00E02E48005031450B
:101C80000030334100D0353900603637001037332B
:101C900000F0382D00A0392700803C1C00103D19B1
:101CA00000903D1700103E1400703E1200C03E0F21
:101CB00000003F0C00403F0800803F0500C03F008F
:101CC00000F03FFBFF436F6E6669672E20656E7202
:101CD000656769737472C3A965002062797465735E
:101CE0003B20637263200053657474696E677320D0
:101CF00053746F726564202800454550524F4D2043
:101D00006461746173697A65206572726F722E0AFC
:101D1000002073746F7265642073657474696E67F4
:101D200073207265747269657665642028002028C6
:101D300063616C63756C6174656429210A002021FC
:101D40003D2000454550524F4D20435243206D6980
:101D5000736D61746368202D202873746F726564DD
:101D6000292000496E6465783A200044494749506B
:101D70004F5453204C6F616465640A0044494749DD
:101D8000504F5453204C6F6164696E670A00204DB8
:101D900061726C696E3D563833290A0045455052D0
:101DA0004F4D2076657273696F6E206D69736D613A
:101DB0007463682028454550524F4D3D00496E6977
:101DC000742E004D34323800496E697469616C6953
:101DD00073657220454550524F4D0046696C616DE8
:101DE000656E74005061732F6D6D00506F73697470
:101DF000696F6E20736F6E6465205A00416363C320
:101E0000A96CC3A9726174696F6E0056C3A96C6F27
:101E1000636974C3A90052C3A9676C2E2064C3A967
:101E200063616C206F726967696E6500436F696EEC
:101E30002073756976616E74005465726D696EC346
:101E4000A90053756976616E74004F726967696E97
:101E5000652058595A2E2E2E00486175746575728A
:101E6000206C697373C3A965004E6976656175203E
:101E70006475206C6974004732380A473239004370
:101E800061746368205A204F666673657400473238
:101E900039204E004E697665617520646573206354
:101EA0006F696E730002F0004A0110013B013001BE
:101EB0002C01400127015001220170011D019001F8
:101EC0001801B0011301C0010E01F0010901100257
:101ED00004013002FF006002FA009002F500C00227
:101EE000F0000003EB004003E6008003E100D003B4
:101EF000DC002004D700E004D200C005CD0040067D
:101F0000C800D006C3008007BE00F008B900400931
:101F1000B400C009AF00B00AAA00B00BA500D00CF5
:101F2000A000000E9B00C0109600501291000014FB
:101F30008C00C0158700B0178200B0197D00D01B3F
:101F40007800001E730040206E0090226900F0248B
:101F5000640040275F0090295A00E02B5500102EA6
:101F6000500020304B0010324600E03341009035E5
:101F70003C001037370070383200A0392D00B03ADD
:101F80002800A03B2300603C1E00103D1900903D3E
:101F90001700103E1400703E1200C03E0F00003FBC
:101FA0000C00403F0800803F0500C03F0000F03FAC
:101FB000FBFF2020506C616E6E657242756666652F
:101FC0007242797465733A20002046726565204D2F
:101FD000656D6F72793A2000436F6D70696C65644E
:101FE0003A2044656320323920323032300A0020F2
:101FF0004C61737420557064617465643A203230AA
:1020000032302D31322D3137207C20417574686F8C
:10201000723A20285A4F4E45535441522C20486161
:102020006C6C79290A006D61726C696E2D322E30EC
:102030002E380A004D61726C696E0020536F667411
:10204000776172652052657365740A002057617468
:102050006368646F672052657365740A002042727A
:102060006F776E206F75742052657365740A002057
:1020700045787465726E616C2052657365740A00F0
:10208000506F77657255700A006175746F25632E05
:1020900067004732385859004D3130303100657291
:1020A000726F722077726974696E6720746F206630
:1020B000696C650A00446F6E6520736176696E67AE
:1020C0002066696C652E0A004D323900427574C372
:1020D000A9657300255320256320256320256320EF
:1020E00025630020503A00656E6473746F7073202E
:1020F0006869743A20004D6F7576656D656E740081
:102100004D38340052C3A9676C6572204E69762E33
:10211000206C6974004F726967696E65206175741F
:102120006F0054656D70C3A972617475726500416A
:10213000425300504C410045787472756465757265
:10214000202A004578747275646575720044C3A9CD
:10215000706C61636572205A0044C3A9706C61633E
:10216000657220590044C3A9706C61636572205880
:1021700000417272C3AA746572206D6F74657572C6
:1021800073004F726967696E65205A206175746FBC
:10219000004732385A004F726967696E65205920CE
:1021A0006175746F0047323859004F726967696E04
:1021B000652058206175746F0047323858004732E7
:1021C000380044C3A9706C6163657220756E20612C
:1021D0007865005072C3A963682E202420546F755F
:1021E00074005072C3A963682E2024206275736541
:1021F000207E005072C3A963682E2024206C69746D
:10220000005072C3A96368617566666167652024C2
:10221000207E00526566726F69646972005072C3F5
:10222000A963686175666661676520240033212FA4
:102230002142696C696E656172204C6576656C69D6
:102240006E6720477269643A0A00507265737320A2
:10225000627574746F6E20746F20726573756D652E
:102260000A00507265737320627574746F6E207407
:102270006F2068656174206E6F7A7A6C650A004918
:102280006E76616C69642065787472756465720A33
:10229000004163746976652045787472756465726F
:1022A0003A20007C3C3E5E2B3D3F2F5B5D3B2C2A61
:1022B000225C004A65726B0020746F6F206C6F6E39
:1022C0006720657874727573696F6E2070726576B9
:1022D000656E7465640A004F46460A00466164658F
:1022E000204865696768742000426564204C657603
:1022F000656C696E6720004661696C656420746F67
:1023000020656E61626C6520426564204C6576656F
:102310006C696E670A00496E76616C6964206D6550
:1023200073682E0A004D657375726520706F696E53
:10233000740025532025692F25690050726F62694A
:102340006E67206D65736820706F696E7420004F32
:102350006666736574206361746368656420210038
:102360006661696C2C206D616E75616C206C6576A0
:10237000656C004661696C21204D6F766520646F45
:10238000776E2050726F62652E00546F2063617407
:102390006368206F66667365740020284452595242
:1023A000554E2900473239204175746F20426564CB
:1023B000204C6576656C696E67003F20284C2C5276
:1023C0002C462C4229206F7574206F6620626F7531
:1023D0006E64732E0A003F2856296572626F73651A
:1023E000206C6576656C20696D706C6175736962CF
:1023F0006C652028302D34292E0A00426164205A51
:102400002076616C75650A004E6F2062696C696E9A
:1024100065617220677269640A006F70656E0054AE
:102420005249474745524544007A5F70726F626572
:10243000007A5F6D696E00795F6D696E00785F6D1F
:10244000696E005265706F7274696E6720656E64A4
:1024500073746F70207374617475730A00000016D2
:1024600044000016440000164424F4D43050C38EB7
:1024700020C2A24017828B7011127A910D816CD903
:102480000AA861E108C7586607615143061E4B5D03
:1024900005C145A7041A411104093D98037139315A
:1024A000034036DB0265339102D4305402802E1D86
:1024B00002632CEE01752AC501B028A00110278106
:1024C000018F2564012B244B01E0223401AC211F34
:1024D000018D200D01801FFC00841EED00971DDF83
:1024E00000B81CD200E61BC600201BBC00641AB258
:1024F00000B219A8000A19A0006A189900D1179112
:102500000040178B00B516840031167E00B3157994
:10251000003A157300C7146F0058146A00EE136672
:10252000008813630025135E00C7125B006C12570E
:102530000015125400C111510070114F0021114BB0
:1025400000D61049008D104700461044000210428A
:1025500000C00F4000800F3E00420F3C00060F3BC2
:1025600000CB0E3800930E37005C0E3500270E347A
:1025700000F30D3200C10D3100900D3000600D2EC2
:1025800000320D2D00050D2C00D90C2B00AE0C29AE
:1025900000850C29005C0C2700350C27000E0C264A
:1025A00000E80B2400C40B2400A00B23007D0B23A8
:1025B000005A0B2100390B2100180B2000F80A1FCC
:1025C00000D90A1E00BB0A1E009D0A1D00800A1DBC
:1025D00000630A1C00470A1B002C0A1B00110A1A80
:1025E00000F7091A00DD091900C4091900AB09191F
:1025F00000920917007B091800630917004C09169F
:102600000036091600200916000A091500F50815FC
:1026100000E0081400CC081400B8081400A4081442
:1026200000900813007D0812006B08130058081270
:102630000046081200340811002308110012081186
:102640000001081100F0071000E0071000D007108B
:1026500000C0071000B0070F00A107100091070E7F
:102660000083070F0074070F0065070E0057070E61
:102670000049070E003B070D002E070E0020070D36
:102680000013070D0006070D00F9060C00ED060DFE
:1026900000E0060C00D4060C00C8060C00BC060CBA
:1026A00000B0060C00A4060B0099060C008D060B6A
:1026B0000082060B0077060B006C060B0061060A11
:1026C0000057060B004C060A0042060A0038060AAC
:1026D000002E060A0024060A001A060A001006093F
:1026E0000007060A00FD050900F4050900EB0509CD
:1026F00000E2050900D9050900D0050900C7050950
:1027000000BE050900B5050800AD050800A50509CE
:10271000009C050800940508008C05080084050845
:10272000007C050800740508006C050700650508B5
:10273000005D050700560508004E05070047050720
:10274000004005080038050700310507002A050785
:1027500000230507001C050600160507000F0507E6
:10276000000805060002050700FB040600F5040743
:1027700000EE040600E8040600E2040700DB04069D
:1027800000D5040600CF040600C9040600C30406F1
:1027900000BD040600B7040600B1040500AC040641
:1027A00000A6040600A00405009B0406009504058D
:1027B00000900406008A04050085040500800406D4
:1027C000007A04050075040500700405006B04051B
:1027D0000066040500610405005C0405005704055B
:1027E00000520405004D040500480405004304059B
:1027F000003E0404003A04050035040500300404DA
:10280000002C04050027040400230405001E040412
:10281000001A04040016040500110404000D040449
:1028200000090405000404040000040400FC03047F
:1028300000F8030400F4030400F0030400EC0304B4
:1028400000E8030400E4030400E0030400DC0304E4
:1028500000D8030400D4030400D0030400CC030414
:1028600000C8030300C503030024F404D9201BC4DB
:102870000C5C0E9804C4095F0265077101F405F948
:1028800000FB04B30048048700C1036900580355E6
:102890000003034500BE023A008402310053022ABD
:1028A000002902250004022000E4011C00C80119CF
:1028B00000AF01170098011400840113007101108A
:1028C000006101100051010E0043010D0036010BA3
:1028D000002B010B0020010B00150109000C010960
:1028E0000003010800FB000800F3000800EB0007EC
:1028F00000E4000600DE000600D8000600D2000654
:1029000000CC000500C7000500C2000500BD0004A2
:1029100000B9000400B5000400B1000400AD0004DB
:1029200000A9000400A5000300A20003009F00040A
:10293000009B000300980003009500020093000331
:1029400000900003008D0002008B0003008800024D
:10295000008600020084000300810002007F000264
:10296000007D0002007B0002007900020077000178
:102970000076000200740002007200010071000283
:10298000006F0002006D0001006C0002006A00018F
:102990000069000200670001006600010065000197
:1029A000006400020062000100610001006000019B
:1029B000005F0002005D0001005C0001005B00019F
:1029C000005A0001005900010058000100570001A1
:1029D00000560001005500010054000100530000A2
:1029E000005300010052000100510001005000019D
:1029F000004F0001004E0000004E0001004D00019C
:102A0000004C0001004B0000004B0001004A000197
:102A10000049000100480000004800010047000193
:102A2000004600000046000100450000004500018E
:102A30000044000100430000004300010042000088
:102A4000004200010041000000410001004000017F
:102A5000003F0000003F0001003E0000003E00017A
:102A6000003D0000003D0001003C0000003C000073
:102A7000003C0001003B0000003B0001003A000068
:102A8000003A000100390000003900010038000060
:102A90000038000000380001003700000037000156
:102AA000003600000036000000360001003500004E
:102AB0000035000000350001003400000034000043
:102AC0000034000100330000003300000033000137
:102AD000003200000032000000320001003100002E
:102AE0000031000000310001003000000030000023
:102AF00000300001002F0000002F0000002F000018
:102B0000002F0001002E0000002E0000002E00010A
:102B1000002D0000002D0000002D0000002D000100
:102B2000002C0000002C0000002C0000002C0001F4
:102B3000002B0000002B0000002B0000002B0001E8
:102B4000002A0000002A0000002A0000002A0001DC
:102B500000290000002900000029000000290000D1
:102B600000290001002800000028000000280000C3
:102B700000280000002800010027000000270000B6
:102B800000270000002700000027000100260000A9
:102B9000002600000026000000260000002600019C
:102BA0000025000000250000002500000025000091
:102BB0000025000000250001002400000024000082
:102BC0000024000000240000002400010023000075
:102BD0000023000000230000002300000023000069
:102BE000002300000023000100220000002200005A
:102BF000002200000022000000220000002200014C
:102C00000021000000210000002100000021000040
:102C10000021000000210000002100010020000030
:102C20000020000000200000002000000020000024
:102C3000002000000020000000200001001F000014
:102C4000001F0000001F0000001F0000001F000008
:102C5000001F0000001F0001001E0000001E0000F9
:102C6000001E0000001E000000043700001E2900A6
:102C700000511B00005810000010090000CC040097
:102C8000007802000041010000000120436F756ED2
:102C90007420583A002053697A653A200053442042
:102CA000496E6974204661696C0053442063617207
:102CB00064206F6B0A006F70656E526F6F742066D0
:102CC00061696C65640A00766F6C756D652E696E5E
:102CD0006974206661696C65640A004E6F20534414
:102CE00020636172640A004D323320257300466907
:102CF0006C652073656C65637465640A0046696C75
:102D000065206F70656E65643A2000454E4420531F
:102D10005542524F5554494E450A002220706F7358
:102D2000002220706172656E743A2200535542523F
:102D30004F5554494E452043414C4C2074617267B5
:102D400065743A220053756263616C6C204F76653E
:102D500072666C6F77004578636565646564206DA5
:102D6000617820535542524F5554494E4520646571
:102D70007074683A310A0044656C6574696F6E203E
:102D80006661696C65642C2046696C653A20004672
:102D9000696C652064656C657465643A006F706584
:102DA0006E206661696C65642C2046696C653A200A
:102DB0000057726974696E6720746F2066696C656C
:102DC0003A2000667265736800646F696E67004E32
:102DD0006F7720004368617267657220636F6E666B
:102DE00069672E00456E726567697374726572203B
:102DF000636F6E6669672E0044C3A963616C616787
:102E000065205A00436F6E6669672E206176616E99
:102E100063C3A96500436861726765722066696C67
:102E2000616D656E74202A00526574726169742048
:102E300066696C616D656E74202A00417272C3AA66
:102E400074004D61726368650044454348415247D0
:102E500045522046494C004348414E474552204682
:102E6000494C414D454E540052657374617572650D
:102E7000722064C3A966617574730052C3A9676C3C
:102E80006572207072C3A963682E202400436170AC
:102E9000746575722066696C2E0052C3A9747261E4
:102EA00063746174696F6E004368616E67656D6518
:102EB0006E74206F7574696C004F66667365747309
:102EC000204F7574696C004D3630302042302054EC
:102ED0002569004D37303120542569004D37303297
:102EE00020542569005265746972657220746F758B
:102EF00074004D373032004368616E67657220663A
:102F0000696C616D656E74202A0050757267657218
:102F100020656E636F7265004F5054494F4E5320C9
:102F2000524550524953453A00494D50522E205077
:102F300041555345002020427573653A2000426197
:102F4000627973746570205A005669742E20207659
:102F5000656E74696C2E20200042757365207E00BA
:102F60004D656E75207072696E636970616C005496
:102F70006F74616C00466C7578207E00466C7578C5
:102F80000056697465737365002568753A2530329B
:102F900068750025303268753A2530326875002D25
:102FA0002D2D002020202020202000496D70722E21
:102FB00020616E6E756CC3A965004D323520500AD4
:102FC0004D3234004D69736520656E2070617573F4
:102FD000652E2E2E0000002200250028002B002E3A
:102FE000003100340002010000050108010B01005E
:102FF000002100240027002A002D003000330001AA
:10300000010000040107010A01050505050705087F
:10301000080808020202020A0A080804040404015B
:10302000010101010101010303030303030303047D
:103030000707070C0C0C0C0C0C0C0C02020202060D
:10304000060606060606060B0B0B0B0B0B0B0B01FD
:1030500002102020080810204010204080020102A9
:103060000108040201010204081020408080402071
:1030700010080402018004020180402010080402AC
:10308000010804020101020408102040800102042A
:10309000081020408020453A00205A3A0020593A32
:1030A00000496D7072657373696F6E205344002020
:1030B0005A3A200020593A200042656420583A20AC
:1030C00000496D70722E20656E2070617573650009
:1030D00050726F62696E67204661696C65640A00B0
:1030E000456368656320736F6E6465004F7269673E
:1030F000696E6520257325732573205072656D698F
:10310000657200496E736572742066696C616D65E5
:103110006E7420616E6420707265737320627574C2
:10312000746F6E0A0050383032515232207072C3C0
:10313000AA74652E00496D7072657373696F6E00B5
:10314000220A00556E6B6E6F776E20636F6D6D6136
:103150006E643A20220000000A0B02090C0D0E08D2
:103160000703040100000000000000000000000050
:10317000000000000000000000000000000000004F
:10318000000012111000000000000000000000000C
:103190000000000000000000000000003F00416E41
:1031A0006E756C65720044C3A96D617272657220A0
:1031B000696D7072657373696F6E00496D707269C5
:1031C0006D65720043616E6E6F7420656E7465721A
:1031D000207375626469723A2000052E2E0044C384
:1031E000A9706C616365722025736D6D0044C3A97D
:1031F000706C6163657220302E316D6D0044C3A91F
:10320000706C6163657220316D6D0044C3A9706C90
:10321000616365722031306D6D00486F74656E6456
:10322000206F6666736574733A00205200454550FE
:10323000524F4D20496E697469616C697A65640A00
:103240000048617264636F646564204465666175FB
:103250006C742053657474696E6773204C6F61647D
:1032600065640A003B200020204D363033200020CA
:10327000204D34313220530046696C616D656E74A7
:103280002072756E6F75742073656E736F723A007D
:10329000546F6F6C2D6368616E67696E673A005496
:1032A00031204C002055005430204C0046696C61A0
:1032B0006D656E74206C6F61642F756E6C6F6164E8
:1032C000206C656E677468733A0020204D38353184
:1032D0002058005A2D50726F6265204F66667365E4
:1032E000740020204D3230392053004175746F2D09
:1032F000526574726163743A20533D3020746F20BC
:1033000064697361626C652C203120746F20696E72
:103310007465727072657420452D6F6E6C79206DC6
:103320006F76657320617320726574726163742FA8
:103330007265636F7665720020204D3230382053FD
:10334000005265636F7665723A20533C6C656E6718
:1033500074683E20463C756E6974732F6D3E002084
:10336000570020204D32303720530052657472616F
:1033700063743A20533C6C656E6774683E20463C2B
:10338000756E6974732F6D3E205A3C6C6966743E8D
:103390000020204D343133205300506F7765722D5B
:1033A0004C6F7373205265636F766572793A0020B3
:1033B000204D3330312050005049442073657474DF
:1033C000696E67733A0020460020480020204D3186
:1033D00034352053004D6174657269616C206865F5
:1033E0006174757020706172616D65746572733A95
:1033F00000204A0020204732392057204900202051
:103400004D3432302053004175746F204265642082
:103410004C6576656C696E673A0020204D32313814
:1034200020540020204D323036205800486F6D6502
:10343000206F66667365743A0020204D3230352067
:103440004200416476616E6365643A20423C6D6976
:103450006E5F7365676D656E745F74696D655F75CA
:10346000733E20533C6D696E5F666565647261747E
:10347000653E20543C6D696E5F74726176656C5F69
:1034800066656564726174653E20583C6D61785F65
:10349000785F6A65726B3E20593C6D61785F795F39
:1034A0006A65726B3E205A3C6D61785F7A5F6A652F
:1034B000726B3E20453C6D61785F655F6A65726B3B
:1034C0003E0020204D323034205000416363656C53
:1034D00065726174696F6E2028756E6974732F73DD
:1034E00032293A20503C7072696E745F6163636583
:1034F0006C3E20523C726574726163745F616363F9
:10350000656C3E20543C74726176656C5F616363E8
:10351000656C3E0020204D3230312058004D6178DE
:10352000696D756D20416363656C65726174696F67
:103530006E2028756E6974732F7332293A0020202B
:103540004D3230332058004D6178696D756D2066BD
:1035500065656472617465732028756E6974732F74
:1035600073293A0053746570732070657220756E0C
:1035700069743A0020204D3230302053002044003E
:1035800020204D3230302054002044697361626C39
:1035900065640A0046696C616D656E7420736574BC
:1035A00074696E67733A0020204D3134392043200E
:1035B0003B20556E69747320696E2043656C736996
:1035C00075730A0020286D6D2900202047323120B4
:1035D0002020203B20556E69747320696E206D6D2C
:1035E000000000FA430000FA430000A0400000C8B9
:1035F000420000A0420000A0420000C8430000B00A
:1036000042B80B0000B80B00006400000010270057
:1036100000000020C2000020C1000000000000489F
:103620004200004842000080400202040000A04026
:103630000000A0400000004000002044008018442A
:1036400000001644FFFFFF5761726E696E673A20F3
:10365000486F6D696E672042756D702044697669A8
:10366000736F72203C20310A00206C696D697465AB
:103670006420746F2000204D6178200043616E6EDD
:103680006F74206F70656E207375626469722000BC
:103690005665206A65726B00565A206A65726B0027
:1036A0005659206A65726B005658206A65726B0025
:1036B00044C3A963616C61676520590044C3A96371
:1036C000616C61676520580045207061732F6D6DD6
:1036D000005A207061732F6D6D0059207061732F37
:1036E0006D6D0058207061732F6D6D004361703AED
:1036F000003F5A206F7574206F662072616E676597
:103700002028003F59206F7574206F662072616E0B
:10371000676520282D003F58206F7574206F662044
:1037200072616E676520282D0050726F6265204FB0
:103730006666736574205800656E71756575656998
:103740006E672022006F6B00526573656E643A20CD
:1037500000000E01900111241FBECFEFD1E2DEBFA9
:10376000CDBF00E00CBF13E0A0E0B2E0E0E0FAE77C
:1037700002E00BBF02C007900D92A233B107D9F748
:1037800025E1A2E3B3E001C01D92AF34B207E1F737
:103790001BE1CAEADBE100E006C021970109802FA6
:1037A000FE010F94553AC93AD10780E00807A9F7FE
:1037B0000F94A2240D94EE3C0C9400002F923F92A3
:1037C0004F925F926F927F928F929F92AF92BF9231
:1037D000CF92DF92EF92FF920F931F93CF93DF93DD
:1037E000CDB7DEB7A7970FB6F894DEBF0FBECDBF3B
:1037F0008FA32091B8132EA311E01093B8138091DA
:10380000BE148D3409F4D7C3843511F40C94342DCF
:10381000873411F00C94552D8091BC149091BD14F7
:103820008B31910509F46AC124F58830910509F4BA
:103830003FC04CF497FDBBC382309105CCF1049797
:1038400009F417C1B4C38B30910509F451C1853116
:10385000910511F40C94572D0A9709F0A8C360E064
:1038600083E50E944BBD682F81E00E94079B0C946A
:10387000572D8A32910509F4BAC254F48D3191055D
:1038800009F466C10CF454C14E9709F47FC18FC38B
:103890008B35910509F4F5C18C35910509F4F6C114
:1038A0008A35910509F083C310929D0D0C94572D14
:1038B00080914906813011F00C94572D19821A829B
:1038C0001B821C82CE0101965C0122EEE22E23E1D6
:1038D000F22E0EE412E035EEC32E30E1D32E912C01
:1038E00088E5890D0E9423BDF50181935F0188233E
:1038F00011F10E94AEBA2B013C01892D0E9407698B
:10390000882351F0F8012081318142815381C30124
:10391000B2010F94663A09C0F601208131814281DB
:103920005381C301B2010F94653AF701608371833B
:10393000828393830AC0F80180819181A281B3813F
:10394000F70180839183A283B3839394F4E0EF0E15
:10395000F11C0C5F1F4F24E0C20ED11C33E0931208
:10396000BFCF85E40E9423BD8C83882301F10E9490
:10397000AEBA6B017C0183E00E940769882371F075
:1039800020915A0230915B0240915C0250915D029D
:10399000C701B6010F94663A6B017C01C092EE1329
:1039A000D092EF13E092F013F092F11310C08091D7
:1039B0005A0290915B02A0915C02B0915D028093EB
:1039C000EE139093EF13A093F013B093F113809143
:1039D0003A14882381F080918B1182FF0CC08C8176
:1039E000882349F08981811103C08A81882319F0D5
:1039F00080E00E94C9F940E050E0BA0186E40E94EC
:103A0000074B20E030E0A9010F94E93B181684F43D
:103A10000E94AEBA20E030E040E752E40F94E93A69
:103A20006093460270934702809348029093490244
:103A300080911914882311F40C94922D85E40E942E
:103A40008996882311F40C94922D88E50E9489961A
:103A500081110C94922D89E50E94899681110C9414
:103A6000922D8AE50E94899681110C94922D0C94D6
:103A7000602D80E50E9423BD882329F00E94B5B8FF
:103A80006B017C0103C0C12CD12C760183E50E941F
:103A900023BD882361F00E94AEBA20E030E04AE7FF
:103AA00054E40F94C8330F94623B6B017C010F9474
:103AB000C01180913B0D811105C060E083EE95E05F
:103AC0000E9446F10F94FC02C60ED71EE81EF91E96
:103AD0000F94FC02DC01CB018C199D09AE09BF09D2
:103AE000B7FD02C00C94572D80E00E943B35F0CF0B
:103AF00060E080E00E94079B0C94572D0E9452FDCD
:103B000081110C94572D8CE0E5E8F2E0DE0111966E
:103B100001900D928A95E1F760E070E080E50E94E7
:103B2000D470BE016F5F7F4F0E94A1EC0C94572DA3
:103B30008091F2138770873011F00C94C42D60E0EF
:103B40008FE40E944BBD81110C94572D0C94C42D11
:103B50000F94FC026093D00E7093D10E8093D20E1E
:103B60009093D30E0E9452FD81110C94572D809199
:103B7000A20D882311F40C943E2E60E08FE40E9485
:103B80004BBD81110C94572D0C943E2E2091621345
:103B900030916313409164135091651360914E020C
:103BA00070914F0280915002909151020F94663AA9
:103BB000AB01BC0188E50E94074B69837A838B8344
:103BC0009C83209166133091671340916813509144
:103BD0006913609152027091530280915402909146
:103BE00055020F94663AAB01BC0189E50E94074B70
:103BF0006D837E838F839887BE016B5F7F4FCE017D
:103C000001960E94C5B8882311F40C94572D80E0CA
:103C10000E94D39E0E948BC661E085E40E944BBD4A
:103C200001E021E0482FBE016B5F7F4FCE0101967E
:103C30000E940AFE6B017C019B01AC010F94673C62
:103C4000811119C049815A816B817C8189EB90E394
:103C50000E9403354D815E816F81788584EB90E30E
:103C60000E940335B701A6018FEA90E30E94033555
:103C70008AE00E94D0320E9472C60E941FC90C9432
:103C8000572D8FE080939D0D0C94572D8091BB1480
:103C9000882349F1893009F0A6C088E1A82E83E085
:103CA000B82E9EE4E92E92E0F92ED12C00E010E02F
:103CB000F50181915F010E9423BD882369F00E9474
:103CC000AEBAF7016083718382839383133011F45A
:103CD00001E002C0DD24D3941F5FF4E0EF0EF11C7D
:103CE000143031F775C0B8E12B2EB3E03B2E16EE41
:103CF000E12E1DE0F12E2EE432E03DA32CA305EED3
:103D0000C02E00E1D02E00E010E0F10181911F01F2
:103D10000E9423BD882309F44AC00E94AEBA2B0139
:103D20003C01133049F0F6012081318142815381F9
:103D30000F94653A2B013C01ECA1FDA1208131815A
:103D400042815381C301B2010F94653A4B015C017A
:103D50002DEB37E346E855EB0F94E93B87FD0AC0AE
:103D60002DEB37E346E855E3C501B4010F94623308
:103D70001816ECF4133051F440925A0250925B0240
:103D800060925C0270925D0201E011C0A501940195
:103D9000F70160817181828193810F94663AF70106
:103DA0006083718382839383812F0F9478161F5FC2
:103DB000F4E0EF0EF11C2CA13DA12C5F3F4F3DA381
:103DC0002CA334E0C30ED11C143009F09ECF05C0E3
:103DD000DD2019F00E941DC906C0002321F08AE5EC
:103DE00092E00F94E1140E941FC90C94572D80910A
:103DF0004906813011F00C94572D89E40E9423BDAF
:103E0000E82E882321F00E94AABA082F01C000E002
:103E10008AE40E9423BDF82E882321F00E94AABACA
:103E2000182F01C010E0EE2011F0043020F4FF2024
:103E300041F0143030F08CEE95E00E94D7320C94B3
:103E4000572D80E1EEE4F2E0A2EEB3E101900D9295
:103E50008A95E1F7EE2019F1602F000F770B880BA0
:103E6000990B0F9469332091011430910214409101
:103E70000314509104140F94C833209156043091C8
:103E8000570440915804509159040F94663A609336
:103E9000E2137093E3138093E4139093E513FF20F0
:103EA00019F1612F110F770B880B990B0F94693360
:103EB0002091051430910614409107145091081474
:103EC0000F94C83320915A0430915B0440915C04F4
:103ED00050915D040F94663A6093E6137093E71374
:103EE0008093E8139093E91360E080E50E944BBD56
:103EF0008823C1F1EE20D1F0209162133091631339
:103F000040916413509165136091E2137091E31333
:103F10008091E4139091E5130F94653A6093E21356
:103F20007093E3138093E4139093E513FF20D1F093
:103F30002091661330916713409168135091691373
:103F40006091E6137091E7138091E8139091E91363
:103F50000F94653A6093E6137093E7138093E81328
:103F60009093E91340E050E0BA0186E40E94074BC9
:103F70006B017C0120E030E0A9010F94E93B1816A9
:103F80004CF420E030E040E752E4C701B6010F9462
:103F9000E93A03C060E070E0CB0169837A838B83E8
:103FA0009C83CE0101960E94AAC60C94572D0E94B4
:103FB0000CFB0C94572D8091BC149091BD148C383F
:103FC000910509F436C60CF083C18235910509F4D8
:103FD00078C60CF082C08A31910509F49FC3BCF504
:103FE0008431910509F4F2C27CF48131910509F420
:103FF000D9C22CF4029708F49DC20C94312D42973B
:1040000009F46DC60C94312D8731910509F413C361
:1040100094F48531910509F40AC3469711F00C9484
:10402000312D0E946BD880918B11877F80628093A5
:104030008B110C94572D8831910509F411C34997C0
:1040400011F00C94312D0E94C46F0C94572D8F31B8
:10405000910509F40CC47CF48C31910509F4BFC3BB
:104060000CF46AC38D31910509F4C1C34E9709F46C
:10407000C5C30C94312D8C34910509F4A3C46CF4A0
:104080008032910509F4CAC38B34910511F00C9468
:10409000312D0E945CCA0C94572D8D34910509F482
:1040A00095C48135910511F00C94312D0E94327622
:1040B0000E9495CA0F94D1110E948D3268EE73E070
:1040C00080E090E00E94EF310E94903260E084EE48
:1040D00096E00E9446F10C94572D8E36910509F416
:1040E00028C574F58836910509F474C484F48435C0
:1040F000910509F4F4C50CF4EBC58535910509F477
:1041000024C68C35910509F443C60C94312D8B36A9
:10411000910509F405C554F48936910509F4ABC439
:104120008A36910509F4BBC40C94312D8C36910567
:1041300009F455C58D36910509F474C40C94312DDC
:104140008537910509F4C9C60CF0A3C081379105E4
:1041500009F44DC594F48F36910509F4FBC48037FA
:10416000910511F00C94312D41E060E070E08FEC8E
:1041700096E00E940D330C94572D8237910509F477
:10418000A5C68337910511F00C94312D8CE398E08E
:104190000E94D73260E08CE298E00F94C82360E080
:1041A00087E198E00F94C82361E084ED9DE10F94CE
:1041B000C82361E08CE098E00F94C82361E08CEFA5
:1041C00097E00F94C82360E083EF97E00F94C82333
:1041D00061E089EE97E00F94C82361E08FED97E0EE
:1041E0000F94C82361E088ED97E00F94C82361E045
:1041F00080ED97E00F94C82361E082EC97E00F9484
:10420000C82360E084EB97E00F94C82360E085EA60
:1042100097E00F94C82360E087E997E00F94C823E4
:1042200060E081E897E00F94C82360E080E797E0C2
:104230000F94C82360E081E697E00F94C82361E003
:104240008AE597E00F94C82360E085E497E00F9437
:10425000C82360E087E397E00F94C82360E084E21E
:1042600097E00F94C82360E087E197E00F94C8239C
:1042700060E082E197E00F94C82361E085E097E079
:104280000F94C82360E081EF96E00F94C8230C944C
:10429000572D8837910509F46BC66CF48637910564
:1042A00009F42BC68737910511F00C94312D0E942B
:1042B000CCC90C94572D8937910509F461C68D3707
:1042C000910511F00C94312D0E94C46F0C94572D60
:1042D0008139E1E09E0711F40C945B2B0CF082C055
:1042E000803D910511F40C9492299CF5893C91052F
:1042F00009F422C7ACF48B39910509F4BCC434F439
:104300008139910509F443C60C94312D8E3B9105FA
:1043100009F4AEC4883C910509F4ADC60C94312D66
:104320008D3C910509F499C754F48B3C910509F42F
:1043300044C78C3C910509F45FC70C94312D8E3C29
:10434000910509F48DC78F3C910509F4A7C70C941A
:10435000312D8D3D910511F40C94262A04F5893DEB
:10436000910511F40C94E92974F4813D910511F43F
:104370000C94DC29833D910511F00C94312D0E94A1
:10438000E7700C94572D8A3D910511F40C94FC298B
:104390008C3D910511F40C94FF290C94312D8D3234
:1043A00021E0920711F40C94D72A6CF48232E1E0F8
:1043B0009E0711F40C947B2A8C32914011F40C94DA
:1043C000C22A0C94312D8F3221E0920711F40C9403
:1043D000582B8039914011F00C94312D0F94C0115D
:1043E0000C94572D873FE1E09E0711F40C94442C68
:1043F0000CF049C0843A21E0920711F40C946B2B25
:10440000FCF48A39E1E09E0709F4EEC364F48239D2
:10441000914011F00C94312D80E00E9426AA0E9458
:104420001FC90C94572D8C3931E0930711F40C946B
:10443000612B8D39914011F40C94F92C0C94312D91
:10444000843FF1E09F0711F40C943E2C6CF4853A04
:1044500031E0930711F40C946E2B8C3A914011F4D7
:104460000C94E12B0C94312D853FF1E09F0711F462
:104470000C94412C863F914011F00C94312D0F94F7
:10448000D9090C94572D8E3B32E0930711F40C940C
:10449000E52C1CF58835F2E09F0711F40C946A2C8A
:1044A0006CF4883F31E0930711F40C944C2C8C3061
:1044B000924011F40C945D2C0C94312D8B35F2E06C
:1044C0009F0711F40C946D2C8D3B924011F00C94CD
:1044D000312D0E941D6D0C94572D873E33E09307BC
:1044E00011F40C94EB2CCCF48335F3E09F0711F41A
:1044F0000C94E82C803A934011F00C94312D2091CB
:10450000B9143091BA1490918B11926090938B11E1
:10451000C9010E9495D90C94572D883E33E093072A
:1045200011F40C94102D893E934011F40C94132D2A
:104530000C94312D80E50E9423BD882329F00E9430
:10454000B5B86B017C0103C0C12CD12C760183E589
:104550000E9423BD882361F00E94AEBA20E030E0C3
:104560004AE754E40F94C8330F94623B6B017C011B
:104570000F94C0118091B9149091BA14009721F052
:1045800061E00E94DEF105C060E085E096E00E94F7
:1045900046F140E0C701B6010E94BB3A0E94E1FB30
:1045A0000C94572D8091BF1484FF02C00C94412EAF
:1045B0008091C11487FF02C00C94412E8091C214D7
:1045C000837011F00C94412E0C945E2E80918B110F
:1045D00083FF25C085E396E00E94D73280918B113E
:1045E00083FF17C08AEA91E10E94E3A28BE1EAEA25
:1045F000F1E1DE01119601900D928A95E1F760E0FC
:1046000070E0CE0101960F94871BCE0101960E94A7
:10461000EF9686E296E00E94D7320C94572D0E94C6
:10462000093386E496E00E94D7320C94572D0E94FD
:1046300031DC0C94572DE091B914F091BA148081BB
:10464000882329F0803209F410823196F8CF60E097
:104650008091B9149091BA140E94DDD90C94572D11
:1046600083E50E9423BD882321F00E9476BA0E9430
:10467000E45184E50E9423BD8823A9F00E9476BA04
:104680006B017C010E9441CAC092EF0BD092F00BEB
:10469000E092F10BF092F20BCD28CE28CF2819F042
:1046A00081E08093E1138091900C8823F9F080E001
:1046B00090E0A8E4B2E488A399A3AAA3BBA31C8EAC
:1046C0001D8E1E8E1F8E19821A821B821C8200E094
:1046D00010E020E0AE01405E5F4FBE01645E7F4FA0
:1046E000CE0101960E94B6990C94572D0E94693212
:1046F000882381F00E947CD80E945CCA80E59EE0FD
:104700000E9421D81092C3141092C4141092C514A0
:104710001092C6140E94E1FB0C94572D80918B11CE
:1047200083FD02C00C94572D83E50E9423BD8111A7
:104730000C946D2E0C94572D83E40E948996882347
:1047400019F18AE596E00E94D7328091F112882310
:1047500091F0BE016F5F7F4F8EEE92E10E94AAA1A1
:104760008E010F5F1F4FF80181918F01882339F06F
:104770000E94D032F8CF80E596E00E94D7328AE0DE
:104780000E94D0320C94572D80918B1182FF21C052
:1047900089E696E00E94D732609187117091881166
:1047A0008091891190918A114AE00E94DA338FE258
:1047B0000E94D03260918311709184118091851193
:1047C000909186114AE00E94DA330E9414350C94CD
:1047D000572D8BE796E00E94D7320C94572D80918D
:1047E000B9149091BA140E9495D90C94572D8091C8
:1047F0008B118E7F80938B110C94572D80918B1190
:1048000083FD02C00C94572D0E94D0FA8091B914F8
:104810009091BA140E94BBDB0C94572D80918B11A0
:1048200082FD0F94C01180918B1183FD02C00C9406
:10483000572D60E080E50E944BBD182F682F8091B6
:10484000B9149091BA140E94DDD983E50E9423BD6A
:10485000882321F00E9476BA0E94E4510E947CD8FD
:1048600011110C94572D0E945CCA0C94572D0E9474
:104870000DCA7B018C0120E831E541E050E00F9446
:10488000B839C9016DE671E00F940E3A4B015C0135
:10489000C801B70120E13EE040E050E00F94B83994
:1048A000CA01B90128E130E040E050E00F94B83986
:1048B000762E672EC62ED72EACE32A2E312C412C15
:1048C000512CC801B701A20191010F94B839F62EFD
:1048D000E72ECA01B901A20191010F94B839CB01A9
:1048E0008E010F5F1F4F8114910499F0EF92FF9298
:1048F0007F936F936F927F92BF92AF929F928F92AE
:104900008CE896E09F938F931F930F930F94FA3246
:1049100013C0A114B104B1F0EF92FF927F936F9393
:104920006F927F92BF92AF9280E996E09F938F93B0
:104930001F930F930F94FA320FB6F894DEBF0FBE99
:10494000CDBF30C0CD2879F0EF92FF927F936F9367
:104950006F927F9284E996E09F938F931F930F93BA
:104960000F94FA32E9CF892B69F0EF92FF927F938F
:104970006F9388E996E09F938F931F930F930F9403
:10498000FA32DACFEF92FF928CE996E09F938F9301
:104990001F930F930F94FA320F900F900F900F9078
:1049A0000F900F9060E0C8010E94DEF10E94093371
:1049B000B80180EA96E00E94F2328AE00E94D0328A
:1049C0000C94572D0E9480CA0C94572D0E9495CAB2
:1049D0000C94572D80919C0D83FF02C00C94572D91
:1049E0000E94DD68182F87FF02C00C94572D89E4C0
:1049F0000E9423BD882311F40C94722E0E9486BA63
:104A000090E01816190614F481E090E026E0289F43
:104A1000F001299FF00D1124E55CFB4E808191810E
:104A20000C947D2E80919C0D83FF02C00C94572D19
:104A30000E94DD68182F87FF02C00C94572D89E46F
:104A40000E9423BD882311F40C94852E0E9486BAFF
:104A500090E01816190614F481E090E026E0289FF3
:104A6000F001299FF00D1124E55CFB4E80819181BE
:104A700000E00C94962E0E94DD68182F87FD0AC076
:104A800085E497E30E94D732812F0E947A738AE0EF
:104A90000E94D0329EA19093B8130C94353060E000
:104AA00080E50E943FBD81110C94572D81E40E9446
:104AB0008996882349F0E091CB0EF0E0ED55F24F56
:104AC0006081062F10E002C00FEF10E089E40E9421
:104AD00023BD882399F00E9486BA90E01816190623
:104AE00014F481E090E026E0289FF001299FF00D6A
:104AF0001124E55CFB4E0481158108C083E50E940A
:104B000023BD882319F00E9476BA8B01B8010F3FAC
:104B1000110519F010F06FEF70E06093A30DC7C797
:104B200060E080E50E943FBD8111C1C71092A30DD6
:104B3000BEC78EE40E9423BD882309F4B8C70E9433
:104B400076BA6093F3037093F4038093F503909324
:104B5000F603ADC783E50E948996882331F060E0B3
:104B600083E50E943FBD80939C0D0E94093388EC31
:104B700096E00E94D73280919C0D882369F1FEE374
:104B8000EF2EFAE0FF2E00E010E020E080919C0D77
:104B900090E0A0E0B0E0002E04C0B695A7959795F0
:104BA00087950A94D2F780FF0EC0DD24D394D20EED
:104BB000222319F08CE20E94D032F7018591949162
:104BC0000E94D7322D2D0F5F1F4FE2E0EE0EF11C39
:104BD00005301105D9F6D3CD84EC96E0CECD1092F8
:104BE000B7131092620263C70E94443260C783E524
:104BF0000E9423BD882371F00E9486BA282F30E0DE
:104C00002D3331051CF48093000251C78CE380934F
:104C100000024DC70E9409334091000250E060E05D
:104C200070E08DED96E00E9447348AE00E94D03219
:104C30003EC780919C0D83FD3AC789E40E9423BD45
:104C4000882311F40C94E52E0E9486BA90E0181681
:104C5000190614F481E090E026E0289FF001299FD6
:104C6000F00D1124E55CFB4E628173810C94EF2EF4
:104C70000E94ED4F1CC783E50E9423BD882309F4E1
:104C800016C70E9486BA182F90E0CD970CF01CE34F
:104C9000109338030F94FC026B017C01212F30E04C
:104CA000A8EEB3E00F94E539C60ED71EE81EF91E34
:104CB000C0923403D0923503E0923603F09237036A
:104CC000F6C680919D0D8F7D806180939D0DEFC60E
:104CD00080919D0D8F7E806280939D0DE8C683E557
:104CE0000E9423BD8823E9F00F94FC026093D00E4C
:104CF0007093D10E8093D20E9093D30E0E94AEBAD1
:104D000020E030E04AE754E40F94C8330F94623B4C
:104D10006093010270930202809303029093040255
:104D2000C6C68091BF1484FF02C00C94002F8091EE
:104D3000C11487FF02C00C94002F8091C2148370AD
:104D400011F00C94002F0C94312F83E50E9489966A
:104D5000882309F4ACC60F94FC026093D00E7093C4
:104D6000D10E8093D20E9093D30E0E94AEBA20E063
:104D700030E04AE754E40F94C8330F94623B6093E9
:104D8000390370933A0380933B0390933C038FC69F
:104D90000E94DD6887FD8BC69091BF1494FD04C00E
:104DA0009091C11497FF0AC078E1C72E73E0D72E07
:104DB000EFE6EE2EE3E1FE2E10E009C09091C21462
:104DC000937091F7682F81E00E94D67170C6F6014A
:104DD00081916F010E9423BD882309F46DC01330B7
:104DE00009F063C00E94AEBA4B015C0120E030E0E4
:104DF00040EA51E40F94623387FF4EC0A50194014D
:104E000060918F13709190138091911390919213F0
:104E10000F94E93A2B013C019B01AC016091931482
:104E20007091941480919514909196140F94C833B6
:104E300060939314709394148093951490939614A4
:104E4000A301920160919F137091A0138091A1130F
:104E50009091A2130F94C83360939F137093A01383
:104E60008093A1139093A2136091CB067091CC060E
:104E70008091CD069091CE060F946733A3019201E5
:104E80000F94C8330F94623B6093CB067093CC06AB
:104E90008093CD069093CE0680928F1390929013BC
:104EA000A0929113B092921307C00E94AEBAF7017C
:104EB000648B758B868B978B1F5FF4E0EF0EF11C74
:104EC000143009F084CF0F949C11F1C50E940BF5AA
:104ED0008FE391E10E948ACDEAC58091B914909147
:104EE000BA14009709F416CCFC012081222309F49E
:104EF00011CC60E00E94DEF1DAC50091B914109186
:104F0000BA1494E0F12C40E0915029F1F80180812D
:104F1000282F2B7F213421F421812133E1F408C093
:104F20008035C9F4F801818180538A3048F013C07C
:104F3000813421F0853421F441E002C0FF24F39450
:104F400098012E5F3F4F89012F5F3F4FF80180810D
:104F50008032C9F3D9CF41110E940933FF2021F0DB
:104F600084E199E00E94D732C8010E941A359FC59A
:104F700081E080938104809380040E94FEC997C5DC
:104F800010928104109280040E94FEC990C560E0D6
:104F900070E083E50E9430BD823038F00E94053316
:104FA00088E199E00E94D73282C58C01112788E4FC
:104FB0000E9423BD8823E1F00E94AABA8A3A910593
:104FC00044F00E94AABA8530914034F40E94AABAF3
:104FD00005C08AEA90E002C084E091E026E0209FCC
:104FE000F001219FF00D1124E55CFB4E918380833D
:104FF00082E40E9423BD8823D9F00E94AABA97FDBB
:1050000008C00E94AABA8937910534F40E94AABA4E
:1050100005C080E090E002C088E790E026E0209F95
:10502000F001219FF00D1124E55CFB4E93838283F8
:1050300086E40E9423BD882309F439C50E94AABAD8
:1050400097FD09C00E94AABA8F3F910509F034F478
:105050000E94AABA05C080E090E002C08FEF90E005
:1050600026E0209FF001219FF00D1124E55CFB4E0E
:10507000958384831CC50E94DD68182F87FD17C5A2
:105080000091E50D84E40E9423BD882309F4ECC659
:105090000E94AEBA6B017C0120E030E0A9010F94C0
:1050A0006233882309F442C024E01202F001112483
:1050B000E352F24FC082D182E282F38220E030E0FC
:1050C000A9016091DD0D7091DE0D8091DF0D909151
:1050D000E00D0F94623381110CC080E090E0A0EEEF
:1050E000BFE38093DD0D9093DE0DA093DF0DB093B1
:1050F000E00D20E030E0A9016091E10D7091E20D3A
:105100008091E30D9091E40D0F94623381110CC0F6
:1051100080E090E0A0EEBFE38093E10D9093E20D7C
:10512000A093E30DB093E40D01E09EC680E0809370
:10513000E50D0F940D10BBC40E94DD6887FDB7C458
:1051400058E1C52E53E0D52E6FE6E62E63E1F62E2C
:1051500010E0F60181916F010E948996882331F158
:105160000E94AEBA6C8F7D8F8E8F9F8F80E1E1E9B8
:10517000F2E0DE01119601900D928A95E1F79E0111
:105180002F5F3F4F4AE359E0612FCE014C960F94B9
:10519000C7106C8D7D8D8E8D9F8D0F94623BF701B6
:1051A00060837183828393830F9455111F5FF4E0B2
:1051B000EF0EF11C143069F67AC40E94DD6887FD99
:1051C00076C448E1E42E43E0F42E0FE613E1F70144
:1051D00081917F010E948996882339F00E94AEBA9E
:1051E000F80164A375A386A397A30C5F1F4FF3E197
:1051F0000F371F0761F75BC48091C01487FD39C664
:105200008091C1148E7009F034C64091A31350915F
:10521000A4136091A5137091A61387E499E00E94EE
:1052200003354091A7135091A8136091A913709171
:10523000AA138AE292E30E9403354091AB13509186
:10524000AC136091AD137091AE1386E895E30E94A4
:1052500003358AE00E94D0322AC40E94E5BA27C4EE
:1052600032EFE32E3DE0F32E10E088E5810F0E943F
:105270008996882351F00E94AEBAF701608371834A
:1052800082839383812F0F9478161F5FF4E0EF0ED3
:10529000F11C133051F70E941FC909C483E50E9415
:1052A0008996882351F00E94AEBA60931A147093C5
:1052B0001B1480931C1490931D1486E40E948996FD
:1052C000882381F00E94AEBA20E030E040E752E44B
:1052D0000F94E93A60931E1470931F148093201466
:1052E000909321148AE50E948996882351F00E94A8
:1052F000AEBA609322147093231480932414909375
:10530000251487E50E948996882309F4D0C30E945A
:10531000AEBA60932E1470932F1480933014909330
:105320003114C5C383E50E948996882351F00E94F9
:10533000AEBA609326147093271480932814909328
:10534000291486E40E948996882381F00E94AEBACF
:1053500020E030E040E752E40F94E93A60932A14E9
:1053600070932B1480932C1490932D1482E50E943B
:105370008996882381F00E94AEBA20E030E040E7B1
:1053800052E40F94E93A6093361470933714809383
:1053900038149093391487E50E948996882309F47C
:1053A00086C30E94AEBA6093321470933314809314
:1053B0003414909335147BC383E50E948996882327
:1053C00009F475C30E949ABA809319140E94D86890
:1053D0006EC38AE50E9423BD882351F00E94AEBAB5
:1053E0006093AA067093AB068093AC069093AD06CB
:1053F00080E00E9486725BC30E94117258C383E5ED
:105400000E9423BD882331F00E94AABA90933802EB
:10541000809337028091BF149091C014A091C11461
:10542000B091C214892B8A2B8B2B09F040C3609159
:1054300037027091380287E599E00E94813485E255
:105440000E94D0328AE00E94D03231C30E94DD68CF
:10545000F82E87FD2CC383E50E9423BD0F2D0F2C52
:10546000000C110B882361F10E94AABAF801EE0F1B
:10547000FF1FEF57FD4F91838083000F111F000F17
:10548000111F9801255D3D4F7901BC01990F880BD3
:10549000990B0F9469332AE037ED43E25CE30F94F4
:1054A000C833F801E956FB4E208131814281538196
:1054B0000F94C833F7016083718382839383F7C2AB
:1054C0000E94093385E40E94D03280E38F0D0E9450
:1054D000D032000F111FF801EF57FD4F608171812D
:1054E0008BE599E00E94813485E20E94D0328AE007
:1054F0000E94D032DCC28AE50E9423BD811105C022
:1055000083E50E9423BD882331F10E94AEBA20E0DA
:1055100030E040E050EC0F94623387FDF5C40E9408
:10552000AEBA20E030E040E050E40F94E93B1816BA
:105530000CF4E5C40E94AEBA20918B1330918C1309
:1055400040918D1350918E130F94C8330F945B3B91
:10555000CB010E9417F98091C11487FDDAC48091B4
:10556000C214837009F0D5C40E9409336091D40E2F
:105570007091D50E8EE39FE20E9481348AE00E94F2
:10558000D03295C264E071E083E50E94D4708C0152
:1055900068EE73E080E50E94D4708938F3E19F07DC
:1055A00010F088E893E1B8010E9419F180C260E030
:1055B00085E40E943FBD823008F073C080E50E9400
:1055C0008996882351F00E94AEBA6093BA0D709309
:1055D000BB0D8093BC0D9093BD0D89E40E9489960C
:1055E000882381F00E94AEBA2CEA35EC47E25EE3F4
:1055F0000F94C8336093BE0D7093BF0D8093C00DA0
:105600009093C10D84E40E948996882381F00E94C2
:10561000AEBA2CEA35EC47E25EE30F94E93A6093C8
:10562000C20D7093C30D8093C40D9093C50D0E945D
:1056300009334091BA0D5091BB0D6091BC0D709132
:10564000BD0D8BE699E00E9403352CEA35EC47E26C
:105650005EE36091BE0D7091BF0D8091C00D909181
:10566000C10D0F94E93AAB01BC0187E699E00E94B5
:1056700003352CEA35EC47E25EE36091C20D709190
:10568000C30D8091C40D9091C50D0F94C833AB012B
:10569000BC0183E699E00E9403358AE00E94D03283
:1056A00006C20E9405338FE792E20E94D732FFC103
:1056B0000E941E4BFCC181E00E9426AA0E941FC9C5
:1056C000F6C18091BF1483FD2AC48091C1148670F5
:1056D00009F025C449C40E9450BBE9C16FEF7FEFB8
:1056E00089E40E9430BD082F6FEF7FEF8AE40E94AB
:1056F00030BD182F8AE50E9423BD811108C081E5C5
:105700000E9423BDD82E882309F448C401C0D12C9F
:10571000C02E81E0800F853008F04CC0912E81E0D2
:10572000810F853008F046C00E94AEBA2B013C01C3
:10573000F02E07FDF12C07FF02C0F3E0CF2E812EE3
:1057400017FD812C17FF02C0E3E09E2ECF1408F452
:10575000AEC1E82C24E0F29E500111249E1440F1C9
:105760000E2D10E0DD2071F0F501E00FF11FEE0FBE
:10577000FF1FEE0FFF1FE95BFB4E2081318142814D
:10578000538103C020E030E0A9010A0D1B1D000F6A
:10579000111F000F111F095B1B4EC301B2010F94B3
:1057A000663AF8016083718382839383E394D6CF52
:1057B000F394CCCF0E9405338CEE95E00E94D73253
:1057C00076C10E9452FD811172C101E116E32EE4FF
:1057D00032E03DA32CA3CE0101961C0144E4C42E6B
:1057E00046E3D42E7C01F8016591759185919491E1
:1057F000ECA1FDA181909190A190B190FDA3ECA3AB
:10580000A50194010F94653A2B013C01F7016083D7
:1058100071838283938320E030E040EA51EC0F945F
:10582000E93B87FD0AC020E030E040EA51E4C301D3
:10583000B2010F94623318162CF4F60184911816F5
:105840000CF4B3C3F70181909190A190B1907F01C6
:1058500020E030E040EA51ECC501B4010F94E93B8F
:1058600087FDADC320E030E040EA51E4C501B4015A
:105870000F94623318160CF0B6C3A1C30E949C8328
:1058800016C10F94B50B13C161E083E50E944BBDB7
:1058900081270F94CB0B0BC181E08093FC130E94F6
:1058A000697D1092FC13882309F401C10E94093319
:1058B00082E09AE00E94D732FAC080918B1182FF79
:1058C00004C0806480938B11F2C083FFF0C00E94FB
:1058D000D0FAEDC00E94646EEAC00E94DD68082F15
:1058E00087FDE5C085E50E9489968823A9F1E02E11
:1058F000002E000CFF080E94AEBA4B015C0120E0B4
:1059000030E0A9010F94E93B87FF04C0B7FAB094D7
:10591000B7F8B094C70123E0880F991F2A95E1F7E3
:105920009C01275F3B4E7901F90180829182A2821E
:10593000B38220E030E048E453E4C501B4010F94A1
:10594000E93B18164CF480E090E0A8E4B3E4F701DA
:1059500080839183A283B3838CE40E9489968823F9
:1059600009F4A5C0002E000C110B0E94AEBA6B0109
:105970007C0120E030E0A9010F94E93B87FF04C0DF
:10598000F7FAF094F7F8F09483E0000F111F8A956E
:10599000E1F7075F1B4EF801C482D582E682F782E9
:1059A00020E030E048E453E4C701B6010F94E93B3E
:1059B00018160CF07CC080E090E0A8E4B3E4F80195
:1059C00084839583A683B78372C00E94E86B6FC0FF
:1059D0000F94FB206CC081E0809349061092640D07
:1059E00060E083E50E944BBD811161C00F9475207A
:1059F0005EC083E50E948996882339F00E949ABA96
:105A000080933A140E94DF9652C00E9409338DE0C1
:105A10009AE00E94D73280913A140E94E63247C041
:105A20000E94206944C00E940DCA6D337105810532
:105A3000910520F08AE39AE00F94122486E39AE01D
:105A40000F9412240E94D7960E9426DC82E29AE0EC
:105A50000E94D73280E091E290938604809385047F
:105A600026C00E940CFB23C01091BC140F94FC02B2
:105A70006093D00E7093D10E8093D20E9093D30E7C
:105A8000212F012E000C330B8091CB0E90E02817B4
:105A9000390729F060E083E50E944BBD01C081E039
:105AA000682F812F0E9412A702C00E940CFBFFA149
:105AB000F11102C00F9465202EA12093B813D5C216
:105AC0008090EE139090EF13A090F013B090F1132C
:105AD00020915A0230915B0240915C0250915D022C
