:100000000C94EA1B0C941B1C0C941B1C0C941B1CC6
:100010000C941B1C0C941B1C0C941B1C0C941B1C84
:100020000C941B1C0C941B1C0C941B1C0C941B1C74
:100030000C941B1C0C9473900C941B1C0C941B1C98
:100040000C941B1C0C9431CE0C941B1C0C941B1C8C
:100050000C941B1C0C941B1C0C9419760C9429906A
:100060000C941B1C0C94423B0C94383B0C941B1CB2
:100070000C941B1C0C941B1C0C941B1C0C941B1C24
:100080000C941B1C0C941B1C0C941B1C0C941B1C14
:100090000C941B1C0C941B1C0C941B1C0C941B1C04
:1000A0000C941B1C0C941B1C0C941B1C0C941B1CF4
:1000B0000C941B1C0C941B1C0C941B1C0C941B1CE4
:1000C0000C941B1C0C941B1C0C941B1C0C941B1CD4
:1000D0000C941B1C0C941B1C0C941B1C0C941B1CC4
:1000E0000C941B1CB738BC38C138CB38D5384E39C6
:1000F000DF38E738EF38F93803390D391C3926393C
:100100004E3930393A3944391169EA68ED68146971
:10011000F068F368F6680269F9680F69FC68FF68BF
:10012000767838793D795079557968797479667837
:100130002202D2018C01E0002C01BA010801200248
:1001400058018801AC01A401E001CA00BA01AA016A
:10015000D000E4000C94948A0C949EE40C94ADECD2
:100160000C94B9650C94C8DE0C94B5EC0C944CE07E
:100170000D945C030C94CA880C94B5920C94CE8FA9
:100180000C946A8A0D945F1F0C9413910D94610571
:100190000C94D38A0D949E020C94FA8F0C9474796B
:1001A0000D94A8020C94A5650C94D7EA0D94A205B1
:1001B0000D944C100C949C920C9480E00C94B565BA
:1001C0000D946D020C94F9380D94AC020C94F3D696
:1001D0000C946F540C9462410C94BCF10D949008F3
:1001E0000C949C880C94C58F0C943D790C94D53854
:1001F0000C94B7380C94F6680C94C18A0C94B165D1
:100200000C94835A0C949B520C94DF8A0C9499564C
:100210000D947E020C94C1650C9496920D94C22BA1
:100220000C94635A0C9453890C94A0DD0D945705DB
:100230000D946E030C946A620C94B3460C946AE4B9
:100240000D940C1E0D9462030C94B7880C94A16558
:100250000C94598D0C94A03B0D9471020C948F92C8
:100260000C94ED680C94B2920C94F2E40C94B3DD0F
:100270000C940E900C941C910C9409890C94BD65FF
:100280000C947AE00C94B6460C94CB5C0C94AE9231
:100290000C94E2D60C94AF950C94858A0C94B73BE1
:1002A0000C9444390C94893B0C9426910C944C8A00
:1002B0000D9488020C94A3520D94121E0C9440E0ED
:1002C0000C9438790C9414690C94CD8A0C94129186
:1002D0000C94465C0C94C6EC0C94D98A0D940E1EBA
:1002E0000C94FC680C944B620C947B620C943B89DC
:1002F0000C943A390C9473620C94BCE50C94AD6583
:100300000C94FF680C94DF380C94AF8A0C94A965A8
:100310000D948C020C94E5DD0D9469020C942289F5
:100320000D94A42B0C94F0D60C94A6890C949D6586
:100330000C945B8A0C945FE00C942B8A0C94B58A25
:100340000C9422910C9474E00D9496020C94D2E4D7
:100350000C94C5890D94A4020D9490020C946678B7
:100360000C94BC380C94A38A0C941C390D9468032B
:100370000C94F9680D94B1020C946A880C94715A2B
:100380000C947C890C9483880C9468790C94F6887E
:100390000C9451880C9444890D94F6050C940D39F5
:1003A0000C94CE3B0D947A020C9480640C94EFD69E
:1003B0000C9455790C94E7380C9402690C945C56B3
:1003C0000D949A020C94EA680C944E390C94F6E45D
:1003D0000C94798A0C946EE00C942F680C949F52C4
:1003E0000C94A98A0C94C1380C94DD880C94BB8AB7
:1003F0000C94CB380D94141E0C949D520C94BD9209
:100400000C9426390C9487890C948E600C94F2F12C
:100410000C94A2920C9411690C94CCDD0D945C05A3
:100420000C9403390C944F940C94F3680C94496227
:100430000C94A8920D94F51C0C942F630C94C78A0D
:100440000D9482020D9477020C9474890C94B1EC93
:100450000C9430390C940F690D9452050C9486D786
:100460000C94CAEC0C9450790C94B68F0C94A15255
:100470000C94F0680C94C5650D94101E0C9476785D
:100480000C94EF380C94DB634E414E494E4954595D
:10049000494E46CDCCCC3D0AD7233C17B7D138774F
:1004A000CC2B329595E6241FB14F0A000020410065
:1004B00000C84200401C4620BCBE4CCA1B0E5AAEAF
:1004C000C59D7400407A10F35A00A0724E180900BE
:1004D00010A5D4E80000E87648170000E40B5402A9
:1004E0000000CA9A3B000000E1F5050000809698E4
:1004F00000000040420F000000A086010000001034
:100500002700000000E80300000000640000000075
:10051000000A00000000000100000000002C76D856
:1005200088DC674F0823DFC1DFAE59E1B1B796E53C
:10053000E3E453C63AE651997696E8E6C28426EBA0
:10054000898C9B62ED407C6FFCEFBC9C9F40F2BAB3
:10055000A56FA5F490055A2AF75C936B6CF9676D4B
:10056000C11BFCE0E40D47FEF520E6B500D0ED90A0
:100570002E0300943577050080841E080000204E6D
:100580000A000000C80C333333330F986E12831106
:1005900041EF8D2114893BE65516CFFEE6DB18D1DD
:1005A000844B381BF77C1D901DA4BBE424203284AF
:1005B000725E228100C9F124ECA1E53D27434F4D35
:1005C0004D554E49434154494F4E0044525952559E
:1005D0004E004552524F525300494E464F0045433C
:1005E000484F005265706F736F2E2E2E004D65734D
:1005F0006820706F696E74206F7574206F6620724A
:10060000616E67650A0050756C736172207061726B
:1006100061205265616E756461720053696E206D70
:100620006F76696D69656E746F00456E64206669EA
:100630006C65206C6973740A00426567696E206698
:10064000696C65206C6973740A004E6F206D656477
:1006500069610A00286E6F2066696C652900437520
:100660007272656E742066696C653A20005344208E
:100670007072696E74696E67206279746520004ECD
:100680006F74205344207072696E74696E670A003B
:1006900025697920256964202569682025696D20F0
:1006A000256973005072696E742074696D653A2013
:1006B00000456E667269616E646F2E2E2E00436176
:1006C0006C656E74616E646F2E2E2E00452563205E
:1006D0002553006F66660044454255473A004D3148
:1006E00031322053687574646F776E004D31313349
:1006F00020530050383032515232204F46462E009F
:100700004348414D4245525F54454D504552415436
:1007100055524500424142595354455050494E4765
:100720000041524353004D4F54494F4E5F4D4F448B
:10073000455300544845524D414C5F50524F54452B
:100740004354494F4E004C4F4E475F46494C454E2F
:10075000414D45004155544F5245504F52545F53FF
:10076000445F535441545553005344434152440051
:1007700050524F4D50545F535550504F52540045B6
:100780004D455247454E43595F50415253455200E3
:10079000434153455F4C494748545F42524947489B
:1007A000544E45535300544F47474C455F4C4947BF
:1007B00048545300534F4654574152455F504F578A
:1007C0004552004255494C445F50455243454E54B2
:1007D000004C4556454C494E475F44415441005AF0
:1007E0005F50524F42450052554E4F5554004155AF
:1007F000544F4C4556454C005052494E545F4A4F59
:10080000420050524F4752455353004155544F52A6
:1008100045504F52545F54454D5000564F4C554D26
:1008200045545249430042494E4152595F46494C52
:10083000455F5452414E534645520053455249413B
:100840004C5F584F4E5F584F4646004649524D57F1
:100850004152455F4E414D453A4D61726C696E2083
:100860006D61726C696E2D322E302E3820284465F1
:100870006320323920323032302031313A33333A4A
:1008800031392920534F555243455F434F44455F0B
:1008900055524C3A68747470733A2F2F67697468B4
:1008A00075622E636F6D2F4D61726C696E46697251
:1008B0006D776172652F4D61726C696E2050524F79
:1008C000544F434F4C5F56455253494F4E3A312E89
:1008D00030204D414348494E455F545950453A50A8
:1008E0003830325152322045585452554445525FA7
:1008F000434F554E543A3220555549443A63656446
:1009000065326132662D343161322D343734382D01
:10091000396231322D6335356336326633363766A8
:10092000660A002F2F20004D31343520533C696E6C
:100930006465783E206F7574206F662072616E6703
:10094000652028302D31290A00416363656C65728A
:100950006174696F6E00416363656C65726174698F
:100960006F6E3A20500046523A0020466C6F773A3C
:1009700020004261627973746570205A0020643AE5
:100980000020693A0020703A0046696C616D656E1E
:10099000742072756E6F75742064697374616E6310
:1009A0006520286D6D293A200046696C616D656E81
:1009B000742072756E6F757420004D343231206969
:1009C0006E636F727265637420706172616D6574BD
:1009D00065722075736167650A00446573666173AB
:1009E000652061706C6963616461004572723A20D0
:1009F000546F6F206661722100546F6F20666172C0
:100A00002066726F6D207265666572656E63652023
:100A1000706F696E740A00454550524F4D204F4B20
:100A20000A00506F7765722D6C6F73732072656367
:100A30006F766572792000446F6E65207072696E02
:100A400074696E672066696C650A004D3737004D22
:100A5000333100DE05D905D205CB05BD05457272DF
:100A60006F722077726974696E6720746F204545D4
:100A700050524F4D210A004D323930004D34313043
:100A8000004D313132004D313038005072696E7492
:100A900065722073746F707065642064756520746E
:100AA0006F206572726F72732E20466978207468A9
:100AB00065206572726F7220616E642075736520A7
:100AC0004D39393920746F20726573746172742ED8
:100AD000202854656D706572617475726520697344
:100AE0002072657365742E205365742069742061CB
:100AF000667465722072657374617274696E6729B9
:100B00000A004E6F20436865636B73756D207769CB
:100B10007468206C696E65206E756D6265722C203C
:100B20004C617374204C696E653A2000636865639C
:100B30006B73756D206D69736D617463682C204CE7
:100B4000617374204C696E653A20004C696E6520B3
:100B50004E756D626572206973206E6F74204C61F2
:100B60007374204C696E65204E756D6265722B3111
:100B70002C204C617374204C696E653A20004D3115
:100B800031300053442072656164206572726F7267
:100B90000A002121204B494C4C2063617573656428
:100BA000206279204B494C4C20627574746F6E2F13
:100BB00070696E0A002121204B494C4C20636175FD
:100BC00073656420627920746F6F206D756368208F
:100BD000696E6163746976652074696D65202D2086
:100BE00063757272656E7420636F6D6D616E643AC9
:100BF0002000627573793A207061757365642066B0
:100C00006F7220696E7075740A00627573793A208C
:100C100070617573656420666F7220757365720A02
:100C200000627573793A2070726F63657373696ED1
:100C3000670A0053442F55534220726574697261EC
:100C4000646F0053442F55534220696E736572746C
:100C500061646F004D3130303053004D36303020FC
:100C600054313700506F72206661766F722C20729B
:100C700065696E6963696500494D505245534F522D
:100C80004120444554454E4944410025533A2025CE
:100C900053004D5545525441005072696E7465724F
:100CA0002068616C7465642E206B696C6C28292047
:100CB00063616C6C6564210A006563686F3A004586
:100CC00072726F723A00526563696E746F004469A4
:100CD00073742E2066696C616D656E746F206D6D26
:100CE000004361726761206D6D00446573636172DA
:100CF0006761206D6D004469C3A16D6574726F20DA
:100D000046696C2E202A004469C3A16D6574726F18
:100D10002046696C2E004520656E206D6DC2B300C3
:100D2000456E667269616E646F2043616D612E2E3F
:100D30002E0043616C656E74616E646F2043616D5B
:100D4000612E2E2E0023646566696E65204445463B
:100D500041554C545F004B6420004B6920004B70A0
:100D60002000504944204175746F74756E6520668B
:100D7000696E6973686564212050757420746865B4
:100D8000206C617374204B702C204B6920616E6461
:100D9000204B6420636F6E7374616E74732066728F
:100DA0006F6D2062656C6F7720696E746F20436F82
:100DB0006E66696775726174696F6E2E680A00509D
:100DC0004944204175746F74756E65206661696C65
:100DD0006564212074696D656F75740A000A20438B
:100DE0006C617373696320504944200A00204B648E
:100DF0003A2000204B693A2000204B703A20000A2C
:100E0000204E6F206F76657273686F6F740A0020D2
:100E100054753A2000204B753A2000206D61783AD5
:100E20002000206D696E3A200020643A2000206284
:100E30006961733A2000504944204175746F74759C
:100E40006E652073746172740A00504944204175C4
:100E5000746F74756E65206661696C6564212054D9
:100E6000656D706572617475726520746F6F20684E
:100E70006967680A00504944204175746F2D616AA2
:100E80007573746500504944204175746F74756EB4
:100E900065206661696C6564212042616420657823
:100EA000747275646572206E756D6265720A00A158
:100EB0000000006900A20000006300B0000000090B
:100EC00000C10000004100C20000004100C300005A
:100ED000004100C40000004100C50000004100C600
:100EE0000000004145C70000004300C80000004565
:100EF00000C90000004500CD0000004900D10000FD
:100F0000004E00D50000004F00D60000004F00D773
:100F10000000007800DC0000005500DD00000059F2
:100F200000E00000006100E10000006100E200005C
:100F3000006100E30000006100E40000006100E5E2
:100F40000000006100E60000006165E7000000634A
:100F500000E80000006500E90000006500EA00000C
:100F6000006500EB0000006500EC0000006900ED8A
:100F70000000006900EE0000006900EF0000006959
:100F800000F10000006E00F20000006F00F30000AE
:100F9000006F00F40000006F00F50000006F00F625
:100FA0000000006F00F80000006F00F900000075FD
:100FB00000FA0000007500FB0000007500FC000056
:100FC000007500FD0000007900FF000000790004BA
:100FD000010000410005010000610006010000431E
:100FE000000701000063000C01000043000D010038
:100FF0000063000E01000044000F010000640011B6
:1010000001000064001901000065001A010000459C
:10101000001B01000065001F010000670030010097
:10102000004900310100006900410100004C00420C
:101030000100006C00430100004E00440100006EFE
:1010400000480100006E00580100005200590100E4
:101050000072005A01000053005B01000073005F42
:101060000100007300600100005300610100007383
:10107000006501000074006F01000075007C010034
:10108000007A007D0100005A007E0100007A009283
:101090000100006600E30200007800222000002E1C
:1010A000001E210000507822210000544D902100A4
:1010B000003C2D922100002D3EB02100000300BB1A
:1010C00021000004003C2200007E00482200007E37
:1010D0003D60220000213D612200003D00642200AD
:1010E000003C3D652200003E3DF12300000700A0CA
:1010F0003000003D0021F301000200C2F4010005B0
:1011000000A2000000EC00B0000000DF00E40000DE
:1011100000E100F6000000EF00F7000000FD00FC19
:10112000000000F500E3020000EB0087030000A5CB
:10113000008F030000F40098030000F2009E0300FB
:1011400000E300A3030000F600A9030000F400ACD4
:10115000030000E000AD030000E300B1030000E085
:1011600000B2030000E200B5030000E300B8030092
:1011700000F200BC030000E400BE030000E300C076
:10118000030000F700C1030000E600C3030000E510
:1011900000902100007F00922100007E001A2200B2
:1011A00000E8001E220000F30088250000FF000276
:1011B000300000A1000C300000A2000D300000A3A0
:1011C000009B300000DE009C300000DF00A03000FB
:1011D000003D00A1300000A700A2300000B100A334
:1011E000300000A800A4300000B200A5300000A923
:1011F00000A6300000B300A7300000AA00A830000D
:1012000000B400A9300000AB00AA300000B500AB6C
:10121000300000B600AC300000B6DEAD300000B7E4
:1012200000AE300000B7DEAF300000B800B03000D4
:1012300000B8DEB1300000B900B2300000B9DEB352
:10124000300000BA00B4300000BADEB5300000BB98
:1012500000B6300000BBDEB7300000BC00B8300084
:1012600000BCDEB9300000BD00BA300000BDDEBBFE
:10127000300000BE00BC300000BEDEBD300000BF4C
:1012800000BE300000BFDEBF300000C000C0300034
:1012900000C0DEC1300000C100C2300000C1DEC3AA
:1012A000300000AF00C4300000C200C5300000C2F2
:1012B000DEC6300000C300C7300000C3DEC8300007
:1012C00000C400C9300000C4DECA300000C500CB35
:1012D000300000C600CC300000C700CD300000C890
:1012E00000CE300000C900CF300000CA00D030006E
:1012F00000CADED1300000CADFD2300000CB00D3FC
:10130000300000CBDED4300000CBDFD5300000CC85
:1013100000D6300000CCDED7300000CCDFD8300063
:1013200000CD00D9300000CDDEDA300000CDDFDBAB
:10133000300000CE00DC300000CEDEDD300000CE1C
:10134000DFDE300000CF00DF300000D000E03000F2
:1013500000D100E1300000D200E2300000D300E311
:10136000300000AC00E4300000D400E5300000ADF7
:1013700000E6300000D500E7300000AE00E83000A5
:1013800000D600E9300000D700EA300000D800EBBA
:10139000300000D900EC300000DA00ED300000DB56
:1013A00000EF300000DC00F2300000A600F3300057
:1013B00000DD00F4300000B3DEF7300000DCDEFAC0
:1013C000300000A6DEFB300000A500FC300000B0BD
:1013D00000FD300000A400074E0000FB0086510015
:1013E00000FC0043530000FA0064FF0000A4006505
:1013F000FF0000A50066FF0000A60067FF0000A731
:101400000068FF0000A80069FF0000A9006AFF0053
:1014100000AA006BFF0000AB006CFF0000AC006D89
:10142000FF0000AD006EFF0000AE006FFF0000AFD8
:101430000070FF0000B00071FF0000B10072FF00FB
:1014400000B20073FF0000B30074FF0000B4007529
:10145000FF0000B50076FF0000B60077FF0000B780
:101460000078FF0000B80079FF0000B9007AFF00A3
:1014700000BA007BFF0000BB007CFF0000BC007DC9
:10148000FF0000BD007EFF0000BE007FFF0000BF28
:101490000080FF0000C00081FF0000C10082FF004B
:1014A00000C20083FF0000C30084FF0000C4008569
:1014B000FF0000C50086FF0000C60087FF0000C7D0
:1014C0000088FF0000C80089FF0000C9008AFF00F3
:1014D00000CA008BFF0000CB008CFF0000CC008D09
:1014E000FF0000CD008EFF0000CE008FFF0000CF78
:1014F0000090FF0000D00091FF0000D10092FF009B
:1015000000D20093FF0000D30094FF0000D40095A8
:10151000FF0000D50096FF0000D60097FF0000D71F
:101520000098FF0000D80099FF0000D9009AFF0042
:1015300000DA009BFF0000DB009CFF0000DC009D48
:10154000FF0000DD009EFF0000DE009FFF0000DFC7
:1015500000E5FF00005C00001C1F11111F000000CF
:1015600006191803130C00040E1F041C00000000D1
:101570000E1315110E00001C1018170506050004A7
:101580000A0A0A0A11110E0C12120C0000000000C7
:101590001F1511151F00004D3330332055312045E4
:1015A00025692053256900504944204175746F2DE9
:1015B000616A75737465202A005049442D44202ABD
:1015C000005049442D49202A005049442D50202ADA
:1015D0000056656C2E207669616A65206D696E0023
:1015E000566D696E00566D6178204500566D6178C4
:1015F000205A00566D6178205900566D6178205848
:10160000004163656C2E206D617845004163656C17
:101610002E206D61785A004163656C2E206D6178D3
:1016200059004163656C2E206D61785800416365F7
:101630006C2E205669616A65004163656C2E2072CC
:1016400065747261632E004163656C6572616369E4
:10165000C3B36E0041756D656E746172205A0032BD
:10166000C2AA204675736F72205A0032C2AA204661
:1016700075736F7220590032C2AA204675736F725B
:101680002058005320556E526574205600446573EF
:10169000526574205600496E746572632E2044654D
:1016A00073526574206D6D004C6576616E74617265
:1016B000206D6D005265747261657220205600497C
:1016C0006E746572632E2052657472616572206D4E
:1016D0006D005265747261636369C3B36E204175B6
:1016E000746F2E00426F7175696C6C610052656396
:1016F0002E2046616C6C6F20656C65637472696343
:101700006F00436F6E6669677572616369C3B36E1C
:10171000005669672E20467567612054C3A9726D13
:101720002E3A204F464600313330004245443A209D
:101730003130306B207769746820342E376B20701D
:10174000756C6C2D7570005669672E204675676143
:101750002054C3A9726D2E3A204F4E0045323A20D4
:101760003130306B207769746820342E376B2070ED
:10177000756C6C2D75700054656D702E204DC3A175
:1017800078696D61003237350054656D702E204DDB
:10179000C3AD6E696D610045313A203130306B2048
:1017A0007769746820342E376B2070756C6C2D75DA
:1017B0007000462E20416C696D656E742E00476581
:1017C0006E657269630050726F746F636F6C6F0047
:1017D000312E300042617564696F730031313532EA
:1017E00030300068747470733A2F2F7777772E61DA
:1017F0006C69657870726573732E636F6D2F697491
:10180000656D2F33323936353430363339362E68FC
:10181000746D6C005A4F4E4553544152205A5249F0
:10182000425F5636004E6976656C616E646F204289
:10183000696C696E65616C004578747275736F725E
:101840006573007777772E7A6F6E65737461723384
:10185000642E636F6D005038303251523200323096
:1018600032302D31322D3137006D61726C696E2D41
:10187000322E302E380056332E322E300054657200
:101880006D6973746F72657300496E666F2E2043C5
:101890006F6E74726F6C61646F7200496E666F2E4A
:1018A00020496D707265736F7261004D3130303058
:1018B00000446574656E657220696D707265736948
:1018C000C3B36E005265616E7564617220696D709C
:1018D00072657369C3B36E00417472C3A173005023
:1018E000617261720053442F555342206E6F207015
:1018F000726573656E74650043616D626961722023
:1019000053442F555342004D32310043616D62699B
:1019100061722066696C616D656E746F00416A75F5
:10192000737461720050617573617220696D7072B9
:10193000657369C3B36E0050616E74616C6C612035
:10194000646520496E662E004170617263616E6449
:101950006F2E2E2E0000004573706572616E646FED
:10196000207061726100696E696369617220656CE3
:101970002063616D62696F0064652066696C616DEA
:10198000656E746F00457370657265207061726179
:10199000006C69626572617220656C2066696C61B9
:1019A0006D656E746F000043616C656E74616E648A
:1019B0006F20626F7175696C6C6100457370657240
:1019C0006520706F72206661766F722E2E2E000079
:1019D00050756C736520656C20626F74C3B36E20A4
:1019E000706172610063616C656E746172206C611C
:1019F00020626F7175696C6C610000496E7365726D
:101A0000746520656C2066696C616D656E746F002D
:101A1000792070756C736520656C20626F74C3B338
:101A20006E007061726120636F6E74696E756172B1
:101A30002E2E2E00457370657265207061726100F4
:101A400063617267617220656C2066696C616D65A7
:101A50006E746F000050756C73617220656C20624B
:101A60006F74C3B36E2070617261007265616E75D0
:101A700064617220696D7072657369C3B36E000032
:101A80004573706572616E646F20696D7072657305
:101A90006F72610070617261207265616E75646160
:101AA000722E2E2E00004573706572652070617273
:101AB000610070757267617220656C2066696C6187
:101AC0006D656E746F0000204D3932205800202063
:101AD0004D61783A200020204D696E3A2000536F06
:101AE000667420656E6473746F70733A20004D32B3
:101AF000342053256C642054256C64004739322E01
:101B00003920452573004731204625640047393286
:101B10002E39205A2573004731205A302046323062
:101B20003000473120582573205925732046333023
:101B30003030004731204525642046323030004D9A
:101B40003130362050256920532569004D31303918
:101B500020532569005425692053004D3139302028
:101B6000532569004D32303020542569204430001F
:101B70004D323030205425692044257300473238D7
:101B800052305859004739322E39204530205A30CA
:101B90000A47315A2573004D3130392053313530E1
:101BA00020542569004D31343020532569004D34CF
:101BB0003230205330205A300020496E76616C69F3
:101BC0006420657874727564657220004532004542
:101BD0003100626564002C2073797374656D207325
:101BE000746F7070656421204865617465725F4927
:101BF000443A2000465547412054C389524D494339
:101C00004100546865726D616C2052756E61776138
:101C1000790043616C656E742E2066616C6C69643A
:101C20006F0048656174696E67206661696C656400
:101C3000004572723A54454D502E204DC3815800D4
:101C40004D415854454D50207472696767657265FF
:101C500064004572723A54454D502E204D494E0055
:101C60004D494E54454D50207472696767657265E1
:101C70006400202F002040002042403A0020403ADB
:101C80000020573A001000AA038000400100012CF8
:101C900001B001220140021001F00202018003F8AC
:101CA000004004F500E004ED009005E4003006DD9E
:101CB00000E006D7008007D1003008CC00D008C76C
:101CC000007009C300100ABE00B00ABB00500BB779
:101CD00000900CB300D00DAA00B00FA5005010A0CA
:101CE00000101496009016900010198C00501A8560
:101CF00000301C820070227800B023750040256EF1
:101D00000020276900A0296400502A5F00902B5A08
:101D100000D02C5500702D4F00E02E48005031456A
:101D20000030334100D0353900603637001037338A
:101D300000F0382D00A0392700803C1C00103D1910
:101D400000903D1700103E1400703E1200C03E0F80
:101D500000003F0C00403F0800803F0500C03F00EE
:101D600000F03FFBFF53657474696E677320537412
:101D70006F726564002062797465733B20637263DF
:101D8000200053657474696E67732053746F7265B5
:101D900064202800454550524F4D206461746173A2
:101DA000697A65206572726F722E0A002073746FF3
:101DB0007265642073657474696E677320726574EC
:101DC000726965766564202800202863616C6375FC
:101DD0006C6174656429210A0020213D200045457D
:101DE00050524F4D20435243206D69736D617463AF
:101DF00068202D202873746F726564292000496E55
:101E00006465783A200044494749504F5453204C68
:101E10006F616465640A0044494749504F54532038
:101E20004C6F6164696E670A00204D61726C696E67
:101E30003D563833290A00454550524F4D207665AE
:101E40007273696F6E206D69736D617463682028A9
:101E5000454550524F4D3D00496E696369617200BE
:101E60004D34323800496E696369616C697A617218
:101E700020454550524F4D0046696C616D656E744A
:101E80006F005061736F732F6D6D00446573662E24
:101E900020536F6E646100416363656C65726163BA
:101EA00069C3B36E00416A757374617220646573AF
:101EB00066617365730053696775656E7465204567
:101EC000737175696E61004C6973746F0053696753
:101ED00075696E7465004F726967656E2058595A4E
:101EE00000436F6D70656E2E20416C7475726100D9
:101EF0004E6976656C61722043616D6100473238CE
:101F00000A473239004361746368205A204F66667D
:101F100073657400473239204E004E6976656C61F6
:101F2000722045737175696E61730002F0004A0199
:101F300010013B0130012C01400127015001220119
:101F400070011D0190011801B0011301C0010E01C3
:101F5000F0010901100204013002FF006002FA00E2
:101F60009002F500C002F0000003EB004003E60021
:101F70008003E100D003DC002004D700E004D2009D
:101F8000C005CD004006C800D006C3008007BE00D3
:101F9000F008B9004009B400C009AF00B00AAA00B7
:101FA000B00BA500D00CA000000E9B00C010960046
:101FB0005012910000148C00C0158700B0178200E9
:101FC000B0197D00D01B7800001E730040206E0009
:101FD00090226900F024640040275F0090295A0095
:101FE000E02B5500102E500020304B0010324600E0
:101FF000E033410090353C00103737007038320034
:10200000A0392D00B03A2800A03B2300603C1E0000
:10201000103D1900903D1700103E1400703E120054
:10202000C03E0F00003F0C00403F0800803F05000D
:10203000C03F0000F03FFBFF2020506C616E6E65DA
:102040007242756666657242797465733A20002043
:1020500046726565204D656D6F72793A2000436F59
:102060006D70696C65643A204465632032392032B2
:102070003032300A00204C617374205570646174F2
:1020800065643A20323032302D31322D3137207CA8
:1020900020417574686F723A20285A4F4E45535448
:1020A00041522C2048616C6C79290A006D61726C78
:1020B000696E2D322E302E380A004D61726C696EB9
:1020C0000020536F66747761726520526573657482
:1020D0000A00205761746368646F672052657365F6
:1020E000740A002042726F776E206F7574205265FB
:1020F0007365740A002045787465726E616C2052B5
:10210000657365740A00506F77657255700A0061D7
:1021100075746F25632E67004732385859004D316A
:10212000303031006572726F722077726974696E37
:102130006720746F2066696C650A00446F6E6520C5
:10214000736176696E672066696C652E0A004D3290
:102150003900456E6473746F7073002553202563D6
:102160002025632025632025630020503A00656EFA
:102170006473746F7073206869743A20004D6F76D1
:10218000696D69656E746F004D3834004E6976650F
:102190006C616E646F2043616D61004C6C657661AB
:1021A0007220616C206F726967656E0054656D7096
:1021B000657261747572610041425300504C410078
:1021C0004578747275736F72202A00457874727541
:1021D000736F72004D6F766572205A004D6F766591
:1021E000722059004D6F766572205800417061670A
:1021F0006172206D6F746F726573004F72696765ED
:102200006E205A004732385A004F726967656E2057
:10221000590047323859004F726967656E2058007F
:102220004732385800473238004D6F766572206566
:102230006A65730050726563616C2E202420546FB0
:10224000646F0050726563616C2E202420467573A4
:102250006F72207E0050726563616C2E20242043D3
:10226000616D610050726563616C2E2024207E00D8
:10227000456E66726961720050726563616C2E20F2
:102280002400BC21B82142696C696E656172204CE2
:102290006576656C696E6720477269643A0A00501A
:1022A0007265737320627574746F6E20746F207220
:1022B0006573756D650A005072657373206275747D
:1022C000746F6E20746F2068656174206E6F7A7A07
:1022D0006C650A00496E76616C6964206578747279
:1022E000756465720A004163746976652045787487
:1022F00072756465723A20007C3C3E5E2B3D3F2F38
:102300005B5D3B2C2A225C0020746F6F206C6F6E2B
:102310006720657874727573696F6E207072657668
:10232000656E7465640A004F46460A00466164653E
:10233000204865696768742000426564204C6576B2
:10234000656C696E6720004661696C656420746F16
:1023500020656E61626C6520426564204C6576651F
:102360006C696E670A00496E76616C6964206D6500
:1023700073682E0A00536F6E646561722050756E2B
:10238000746F0025532025692F25690050726F62F4
:10239000696E67206D65736820706F696E742000C8
:1023A0004F66667365742063617463686564202199
:1023B000006661696C2C206D616E75616C206C65C6
:1023C00076656C004661696C21204D6F76652064EE
:1023D0006F776E2050726F62652E00546F206361BC
:1023E000746368206F6666736574002028445259D0
:1023F00052554E2900473239204175746F2042658D
:1024000064204C6576656C696E67003F20284C2C13
:10241000522C462C4229206F7574206F6620626F03
:10242000756E64732E0A003F2856296572626F73B9
:1024300065206C6576656C20696D706C617573697B
:10244000626C652028302D34292E0A0042616420F8
:102450005A2076616C75650A004E6F2062696C695E
:102460006E65617220677269640A006F70656E0044
:102470005452494747455245440066696C616D6551
:102480006E74007A5F70726F6265007A5F6D696E5C
:1024900000795F6D696E00785F6D696E00526570DE
:1024A0006F7274696E6720656E6473746F702073E9
:1024B00074617475730A000000164400001644002D
:1024C00000164424F4D43050C38E20C2A240178298
:1024D0008B7011127A910D816CD90AA861E108C73D
:1024E000586607615143061E4B5D05C145A7041A96
:1024F000411104093D9803713931034036DB02650F
:10250000339102D4305402802E1D02632CEE0175EB
:102510002AC501B028A001102781018F2564012B55
:10252000244B01E0223401AC211F018D200D0180DC
:102530001FFC00841EED00971DDF00B81CD200E6D2
:102540001BC600201BBC00641AB200B219A8000A06
:1025500019A0006A189900D117910040178B00B597
:1025600016840031167E00B31579003A157300C742
:10257000146F0058146A00EE136600881363002578
:10258000135E00C7125B006C12570015125400C195
:1025900011510070114F0021114B00D61049008DD0
:1025A0001047004610440002104200C00F40008057
:1025B0000F3E00420F3C00060F3B00CB0E3800934D
:1025C0000E37005C0E3500270E3400F30D3200C1CB
:1025D0000D3100900D3000600D2E00320D2D0005E4
:1025E0000D2C00D90C2B00AE0C2900850C29005CA9
:1025F0000C2700350C27000E0C2600E80B2400C425
:102600000B2400A00B23007D0B23005A0B21003963
:102610000B2100180B2000F80A1F00D90A1E00BB6E
:102620000A1E009D0A1D00800A1D00630A1C004747
:102630000A1B002C0A1B00110A1A00F7091A00DDF8
:10264000091900C4091900AB091900920917007B88
:10265000091800630917004C0916003609160020F6
:102660000916000A091500F5081500E0081400CC49
:10267000081400B8081400A4081400900813007D82
:102680000812006B081300580812004608120034A4
:10269000081100230811001208110001081100F0B0
:1026A000071000E0071000D0071000C0071000B0AE
:1026B000070F00A107100091070E0083070F007499
:1026C000070F0065070E0057070E0049070E003B75
:1026D000070D002E070E0020070D0013070D000642
:1026E000070D00F9060C00ED060D00E0060C00D405
:1026F000060C00C8060C00BC060C00B0060C00A4BA
:10270000060B0099060C008D060B0082060B007765
:10271000060B006C060B0061060A0057060B004C06
:10272000060A0042060A0038060A002E060A00249D
:10273000060A001A060A001006090007060A00FD2C
:10274000050900F4050900EB050900E2050900D9B7
:10275000050900D0050900C7050900BE050900B537
:10276000050800AD050800A50509009C05080094B2
:102770000508008C050800840508007C0508007425
:102780000508006C050700650508005D0507005693
:102790000508004E050700470507004005080038FA
:1027A000050700310507002A050700230507001C5F
:1027B000050600160507000F0507000805060002BC
:1027C000050700FB040600F5040700EE040600E818
:1027D000040600E2040700DB040600D5040600CF6F
:1027E000040600C9040600C3040600BD040600B7C1
:1027F000040600B1040500AC040600A6040600A00F
:102800000405009B04060095040500900406008A58
:1028100004050085040500800406007A040500759F
:10282000040500700405006B0405006604050061E2
:102830000405005C04050057040500520405004D22
:1028400004050048040500430405003E0404003A62
:1028500004050035040500300404002C040500279D
:10286000040400230405001E0404001A04040016D6
:10287000040500110404000D04040009040500040B
:1028800004040000040400FC030400F8030400F442
:10289000030400F0030400EC030400E8030400E474
:1028A000030400E0030400DC030400D8030400D4A4
:1028B000030400D0030400CC030400C8030300C5D4
:1028C00003030024F404D9201BC40C5C0E9804C438
:1028D000095F0265077101F405F900FB04B30048C4
:1028E000048700C10369005803550003034500BE77
:1028F000023A008402310053022A00290225000412
:10290000022000E4011C00C8011900AF0117009863
:1029100001140084011300710110006101100051C5
:10292000010E0043010D0036010B002B010B0020AE
:10293000010B00150109000C01090003010800FB4F
:10294000000800F3000800EB000700E4000600DECA
:10295000000600D8000600D2000600CC000500C723
:10296000000500C2000500BD000400B9000400B568
:10297000000400B1000400AD000400A9000400A59B
:10298000000300A20003009F0004009B00030098C6
:102990000003009500020093000300900003008DE7
:1029A0000002008B00030088000200860002008401
:1029B000000300810002007F0002007D0002007B16
:1029C0000002007900020077000100760002007426
:1029D00000020072000100710002006F0002006D31
:1029E0000001006C0002006A00010069000200673B
:1029F0000001006600010065000100640002006241
:102A000000010061000100600001005F0002005D44
:102A10000001005C0001005B0001005A0001005948
:102A20000001005800010057000100560001005548
:102A30000001005400010053000000530001005247
:102A400000010051000100500001004F0001004E44
:102A50000000004E0001004D0001004C0001004B41
:102A60000000004B0001004A00010049000100483D
:102A70000000004800010047000100460000004639
:102A80000001004500000045000100440001004332
:102A9000000000430001004200000042000100412C
:102AA00000000041000100400001003F0000003F25
:102AB0000001003E0000003E0001003D0000003D1E
:102AC0000001003C0000003C0000003C0001003B15
:102AD0000000003B0001003A0000003A000100390C
:102AE0000000003900010038000000380000003804
:102AF00000010037000000370001003600000036FA
:102B000000000036000100350000003500000035EF
:102B100000010034000000340000003400010033E4
:102B200000000033000000330001003200000032DA
:102B300000000032000100310000003100000031CF
:102B40000001003000000030000000300001002FC4
:102B50000000002F0000002F0000002F0001002EB9
:102B60000000002E0000002E0001002D0000002DAE
:102B70000000002D0000002D0001002C0000002CA2
:102B80000000002C0000002C0001002B0000002B96
:102B90000000002B0000002B0001002A0000002A8A
:102BA0000000002A0000002A00010029000000297E
:102BB0000000002900000029000000290001002871
:102BC0000000002800000028000000280000002865
:102BD0000001002700000027000000270000002758
:102BE000000000270001002600000026000000264B
:102BF000000000260000002600010025000000253E
:102C00000000002500000025000000250000002530
:102C10000001002400000024000000240000002423
:102C20000000002400010023000000230000002316
:102C30000000002300000023000000230000002308
:102C400000010022000000220000002200000022FB
:102C500000000022000000220001002100000021ED
:102C600000000021000000210000002100000021E0
:102C700000000021000100200000002000000020D2
:102C800000000020000000200000002000000020C4
:102C9000000000200001001F0000001F0000001FB6
:102CA0000000001F0000001F0000001F0000001FA8
:102CB0000001001E0000001E0000001E0000001E9B
:102CC000000000043700001E290000511B000058BE
:102CD00010000010090000CC040000780200004140
:102CE000010000000120436F756E7420583A0020E7
:102CF00053697A653A2000534420496E697420462E
:102D000061696C0053442063617264206F6B0A0038
:102D10006F70656E526F6F74206661696C65640ACE
:102D200000766F6C756D652E696E697420666169D9
:102D30006C65640A004E6F20534420636172640A1C
:102D4000004D32332025730046696C652073656C35
:102D500065637465640A0046696C65206F70656E12
:102D600065643A2000454E4420535542524F555415
:102D7000494E450A002220706F7300222070617254
:102D8000656E743A2200535542524F5554494E4590
:102D90002043414C4C207461726765743A220053A1
:102DA000756263616C6C204F766572666C6F77003C
:102DB0004578636565646564206D6178205355428C
:102DC000524F5554494E452064657074683A310A33
:102DD0000044656C6574696F6E206661696C65643A
:102DE0002C2046696C653A200046696C6520646554
:102DF0006C657465643A006F70656E206661696C1D
:102E000065642C2046696C653A20005772697469C4
:102E10006E6720746F2066696C653A200066726583
:102E2000736800646F696E67004E6F7720004361BE
:102E30007267617220454550524F4D00477561726F
:102E400064617220454550524F4D00446573662EB3
:102E500020536F6E6461205A00416A757374657304
:102E6000206176616E7A61646F730043617267619D
:102E7000722066696C616D656E746F202A0044650E
:102E8000736361726761722066696C2E202A00414B
:102E9000706700456E6300444553434152474152B9
:102EA0002046494C414D454E544F0043414D424907
:102EB00041522046494C414D454E544F0052657396
:102EC000742E2066C3A162726963610050726563EB
:102ED000616C2E202420416A757374650053656E01
:102EE000732E2066696C616D656E746F0052657437
:102EF000726165720043616D62696172204865723A
:102F000072616D69656E74610044657366617365B5
:102F10002048657272616D69656E7461004D36306E
:102F20003020423020542569004D3730312054255F
:102F300069004D3730322054256900446573636160
:102F40007267617220746F646F004D3730320043D6
:102F5000616D626961722066696C616D656E746F26
:102F6000202A00436F6E74696E75617220696D70FE
:102F70002E00507572676172206DC3A173004F50AF
:102F8000432E205245494E4943494F3A00494D503E
:102F900052455349C3934E2050415553414441003B
:102FA0002020426F7175696C6C613A200056656E25
:102FB00074696C61646F7200426F7175696C6C61E9
:102FC000207E0056656C6F6369646164004D656EB8
:102FD000C3BA207072696E636970616C00546F745B
:102FE000616C004D6963726F7061736F205A0046A7
:102FF0006C756A6F207E00466C756A6F0025687577
:103000003A25303268750025303268753A253032FD
:103010006875002D2D2D00534400202020202020F5
:103020002000496D7072657369C3B36E2063616E71
:1030300063656C616461004D323520500A4D323455
:103040000050617573696E672E2E2E0000002200FD
:10305000250028002B002E00310034000201000062
:10306000050108010B0100002100240027002A00AF
:103070002D003000330001010000040107010A01A6
:1030800005050505070508080808020202020A0AE4
:103090000808040404040101010101010101030302
:1030A000030303030303040707070C0C0C0C0C0CAD
:1030B0000C0C0202020206060606060606060B0BAA
:1030C0000B0B0B0B0B0B01021020200808102040EB
:1030D00010204080020102010804020101020408DC
:1030E000102040808040201008040201800402016A
:1030F00080402010080402010804020101020408B3
:1031000010204080010204081020408020453A0031
:10311000205A3A0020593A00496D7072696D2E208C
:1031200064657364652053442F55534200205A3A16
:10313000200020593A200042656420583A20004976
:103140006D7072657369C3B36E205061757361648D
:10315000610050726F62696E67204661696C6564D8
:103160000A00536F6E64656F2046616C6C61646F1A
:10317000004F726967656E20257325732573205093
:1031800072696D2E00496E736572742066696C6198
:103190006D656E7420616E64207072657373206259
:1031A0007574746F6E0A0050383032515232204CB0
:1031B0006973746100496D7072696D69656E646FE1
:1031C0002E2E2E00220A00556E6B6E6F776E2063D6
:1031D0006F6D6D616E643A20220000000A0B0209D7
:1031E0000C0D0E08070304010000000000000000A1
:1031F00000000000000000000000000000000000CF
:10320000000000000000121110000000000000008B
:1032100000000000000000000000000000000000AE
:103220003F0043616E63656C617200496E6963695A
:10323000617220696D7072657369C3B36E00496D08
:103240007072696D69720043616E6E6F7420656E95
:10325000746572207375626469723A2000052E2EBF
:10326000004D6F7665722025736D6D004D6F76652C
:103270007220302E316D6D004D6F76657220316D8C
:103280006D004D6F7665722031306D6D00486F7442
:10329000656E64206F6666736574733A0020520031
:1032A000454550524F4D20496E697469616C697A89
:1032B00065640A0048617264636F646564204465F4
:1032C0006661756C742053657474696E6773204C05
:1032D0006F616465640A003B200020204D36303366
:1032E000200020204D34313220530046696C616D3E
:1032F000656E742072756E6F75742073656E736F72
:10330000723A00546F6F6C2D6368616E67696E6707
:103310003A005431204C002055005430204C0046D7
:10332000696C616D656E74206C6F61642F756E6C75
:103330006F6164206C656E677468733A0020204D7D
:103340003835312058005A2D50726F6265204F6613
:10335000667365740020204D32303920530041756A
:10336000746F2D526574726163743A20533D30203E
:10337000746F2064697361626C652C203120746FF6
:1033800020696E7465727072657420452D6F6E6C65
:1033900079206D6F76657320617320726574726138
:1033A00063742F7265636F7665720020204D323032
:1033B000382053005265636F7665723A20533C6C37
:1033C000656E6774683E20463C756E6974732F6D38
:1033D0003E0020570020204D3230372053005265E8
:1033E00074726163743A20533C6C656E6774683E16
:1033F00020463C756E6974732F6D3E205A3C6C6993
:1034000066743E0020204D343133205300506F77D6
:1034100065722D4C6F7373205265636F7665727998
:103420003A0020204D333031205000504944207361
:10343000657474696E67733A002046002048002066
:10344000204D3134352053004D6174657269616CD3
:103450002068656174757020706172616D65746556
:1034600072733A00204A0020204732392057204901
:103470000020204D3432302053004175746F2042BB
:103480006564204C6576656C696E673A0020204D56
:1034900032313820540020204D3230362058004838
:1034A0006F6D65206F66667365743A0020204D323B
:1034B0003035204200416476616E6365643A204293
:1034C0003C6D696E5F7365676D656E745F74696D81
:1034D000655F75733E20533C6D696E5F666565641C
:1034E000726174653E20543C6D696E5F74726176E2
:1034F000656C5F66656564726174653E20583C6DFD
:1035000061785F785F6A65726B3E20593C6D6178C7
:103510005F795F6A65726B3E205A3C6D61785F7AB5
:103520005F6A65726B3E20453C6D61785F655F6ADE
:1035300065726B3E0020204D3230342050004163D4
:1035400063656C65726174696F6E2028756E69744D
:10355000732F7332293A20503C7072696E745F6128
:103560006363656C3E20523C726574726163745F84
:10357000616363656C3E20543C74726176656C5F78
:10358000616363656C3E0020204D3230312058006D
:103590004D6178696D756D20416363656C6572611D
:1035A00074696F6E2028756E6974732F7332293AAF
:1035B0000020204D3230332058004D6178696D7500
:1035C0006D206665656472617465732028756E6927
:1035D00074732F73293A0053746570732070657289
:1035E00020756E69743A0020204D3230302053002F
:1035F00020440020204D3230302054002044697394
:1036000061626C65640A0046696C616D656E742068
:1036100073657474696E67733A0020204D313439D4
:103620002043203B20556E69747320696E204365EA
:103630006C736975730A0020286D6D29002020477E
:103640003231202020203B20556E69747320696E32
:10365000206D6D000000FA430000FA430000A04016
:103660000000C8420000A0420000A0420000C84381
:103670000000B042B80B0000B80B0000640000006E
:1036800010270000000020C2000020C10000000040
:10369000000048420000484200008040020204004E
:1036A00000A0400000A040000000400000204400B6
:1036B00080184400001644FFFFFF5761726E696E68
:1036C000673A20486F6D696E672042756D702044BF
:1036D000697669736F72203C20310A00206C696D35
:1036E0006974656420746F2000204D617820004368
:1036F000616E6E6F74206F70656E207375626469A1
:1037000072200056652D4A65726B00565A2D4A6527
:10371000726B0056592D4A65726B0056582D4A65DA
:10372000726B00446573662E20536F6E646120597E
:1037300000446573662E20536F6E64612058004507
:10374000207061736F732F6D6D005A207061736FFD
:10375000732F6D6D0059207061736F732F6D6D0045
:1037600058207061736F732F6D6D004361703A0064
:103770003F5A206F7574206F662072616E676520F6
:1037800028003F59206F7574206F662072616E6744
:103790006520282D003F58206F7574206F662072B9
:1037A000616E676520282D0050726F6265204F663C
:1037B00066736574205800656E7175657565696E10
:1037C000672022006F6B00526573656E643A2000BB
:1037D0000E01900111241FBECFEFD1E2DEBFCDBF9D
:1037E00000E00CBF13E0A0E0B2E0EEE7FAE702E091
:1037F0000BBF02C007900D92A233B107D9F725E1A4
:10380000A2E3B3E001C01D92AF34B207E1F71BE1C0
:10381000C9EEDBE100E006C021970109802FFE011F
:103820000F94943AC83ED10780E00807A9F70F9497
:10383000E1240D942D3D0C9400002F923F924F9265
:103840005F926F927F928F929F92AF92BF92CF9230
:10385000DF92EF92FF920F931F93CF93DF93CDB739
:10386000DEB7A7970FB6F894DEBF0FBECDBF8FA30C
:103870002091B8132EA311E01093B8138091BE14B9
:103880008D3409F4D7C3843511F40C94732D873427
:1038900011F00C94942D8091BC149091BD148B3137
:1038A000910509F46AC124F58830910509F43FC0F7
:1038B0004CF497FDBBC382309105CCF1049709F419
:1038C00017C1B4C38B30910509F451C185319105FD
:1038D00011F40C94962D0A9709F0A8C360E083E5D3
:1038E0000E948ABD682F81E00E94469B0C94962D11
:1038F0008A32910509F4BAC254F48D31910509F464
:1039000066C10CF454C14E9709F47FC18FC38B3547
:10391000910509F4F5C18C35910509F4F6C18A3594
:10392000910509F083C310929D0D0C94962D809102
:103930004906813011F00C94962D19821A821B824F
:103940001C82CE0101965C0122EEE22E23E1F22ED2
:103950000EE412E035EEC32E30E1D32E912C88E533
:10396000890D0E9462BDF50181935F01882311F1E9
:103970000E94EDBA2B013C01892D0E9446698823E3
:1039800051F0F8012081318142815381C301B2019C
:103990000F94A53A09C0F6012081318142815381FB
:1039A000C301B2010F94A43AF7016083718382834B
:1039B00093830AC0F80180819181A281B381F701CC
:1039C00080839183A283B3839394F4E0EF0EF11C80
:1039D0000C5F1F4F24E0C20ED11C33E09312BFCF07
:1039E00085E40E9462BD8C83882301F10E94EDBAB8
:1039F0006B017C0183E00E944669882371F020916D
:103A00005A0230915B0240915C0250915D02C70105
:103A1000B6010F94A53A6B017C01C092EE13D092CF
:103A2000EF13E092F013F092F11310C080915A025C
:103A300090915B02A0915C02B0915D028093EE13C5
:103A40009093EF13A093F013B093F11380913A1475
:103A5000882381F080918B1182FF0CC08C81882398
:103A600049F08981811103C08A81882319F080E09F
:103A70000E9408FA40E050E0BA0186E40E94464BFA
:103A800020E030E0A9010F94283C181684F40E942D
:103A9000EDBA20E030E040E752E40F94283B609319
:103AA00046027093470280934802909349028091A6
:103AB0001914882311F40C94D12D85E40E94C89622
:103AC000882311F40C94D12D88E50E94C8968111A9
:103AD0000C94D12D89E50E94C89681110C94D12DAA
:103AE0008AE50E94C89681110C94D12D0C949F2DCB
:103AF00080E50E9462BD882329F00E94F4B86B0122
:103B00007C0103C0C12CD12C760183E50E9462BDEB
:103B1000882361F00E94EDBA20E030E04AE754E4E7
:103B20000F9407340F94A13B6B017C010F94FF119C
:103B300080913B0D811105C060E083EE95E00E940D
:103B400085F10F943B03C60ED71EE81EF91E0F9495
:103B50003B03DC01CB018C199D09AE09BF09B7FD00
:103B600002C00C94962D80E00E947A35F0CF60E080
:103B700080E00E94469B0C94962D0E9491FD81113D
:103B80000C94962D8CE0E5E8F2E0DE0111960190B0
:103B90000D928A95E1F760E070E080E50E94137174
:103BA000BE016F5F7F4F0E94E0EC0C94962D8091D8
:103BB000F2138770873011F00C94032E60E08FE4CD
:103BC0000E948ABD81110C94962D0C94032E0F94A3
:103BD0003B036093D00E7093D10E8093D20E9093DE
:103BE000D30E0E9491FD81110C94962D8091A20D0F
:103BF000882311F40C947D2E60E08FE40E948ABD2E
:103C000081110C94962D0C947D2E2091621330918D
:103C10006313409164135091651360914E0270914B
:103C20004F0280915002909151020F94A53AAB013E
:103C3000BC0188E50E94464B69837A838B839C8311
:103C40002091661330916713409168135091691366
:103C500060915202709153028091540290915502EA
:103C60000F94A53AAB01BC0189E50E94464B6D83D8
:103C70007E838F839887BE016B5F7F4FCE01019655
:103C80000E9404B9882311F40C94962D80E00E94C0
:103C9000129F0E94CAC661E085E40E948ABD01E0CD
:103CA00021E0482FBE016B5F7F4FCE0101960E943D
:103CB00049FE6B017C019B01AC010F94A63C811174
:103CC00019C049815A816B817C8187E391E30E940D
:103CD00042354D815E816F81788582E391E30E9458
:103CE0004235B701A6018DE291E30E9442358AE098
:103CF0000E940F330E94B1C60E945EC90C94962D9B
:103D00008FE080939D0D0C94962D8091BB14882399
:103D100049F1893009F0A6C088E1A82E83E0B82EC9
:103D20009EE4E92E92E0F92ED12C00E010E0F5019E
:103D300081915F010E9462BD882369F00E94EDBA03
:103D4000F7016083718382839383133011F401E060
:103D500002C0DD24D3941F5FF4E0EF0EF11C143099
:103D600031F775C0B8E12B2EB3E03B2E16EEE12EF5
:103D70001DE0F12E2EE432E03DA32CA305EEC02E73
:103D800000E1D02E00E010E0F10181911F010E94BE
:103D900062BD882309F44AC00E94EDBA2B013C01A0
:103DA000133049F0F60120813181428153810F9413
:103DB000A43A2B013C01ECA1FDA12081318142817B
:103DC0005381C301B2010F94A43A4B015C012DEB66
:103DD00037E346E855EB0F94283C87FD0AC02DEBEE
:103DE00037E346E855E3C501B4010F94A133181633
:103DF000ECF4133051F440925A0250925B026092FC
:103E00005C0270925D0201E011C0A5019401F7010E
:103E100060817181828193810F94A53AF70160835B
:103E2000718382839383812F0F94B7161F5FF4E011
:103E3000EF0EF11C2CA13DA12C5F3F4F3DA32CA305
:103E400034E0C30ED11C143009F09ECF05C0DD2034
:103E500019F00E945CC906C0002321F08AE592E0B7
:103E60000F9420150E945EC90C94962D80914906EE
:103E7000813011F00C94962D89E40E9462BDE82EE9
:103E8000882321F00E94E9BA082F01C000E08AE4EB
:103E90000E9462BDF82E882321F00E94E9BA182FF3
:103EA00001C010E0EE2011F0043020F4FF2041F0BA
:103EB000143030F08DEE95E00E9416330C94962D60
:103EC00080E1EEE4F2E0A2EEB3E101900D928A957A
:103ED000E1F7EE2019F1602F000F770B880B990B9B
:103EE0000F94A833209101143091021440910314CF
:103EF000509104140F9407342091560430915704C4
:103F000040915804509159040F94A53A6093E213DC
:103F10007093E3138093E4139093E513FF2019F15A
:103F2000612F110F770B880B990B0F94A8332091F9
:103F300005143091061440910714509108140F9401
:103F4000073420915A0430915B0440915C045091F5
:103F50005D040F94A53A6093E6137093E713809382
:103F6000E8139093E91360E080E50E948ABD8823FE
:103F7000C1F1EE20D1F02091621330916313409192
:103F80006413509165136091E2137091E313809173
:103F9000E4139091E5130F94A43A6093E2137093A5
:103FA000E3138093E4139093E513FF20D1F0209165
:103FB00066133091671340916813509169136091B3
:103FC000E6137091E7138091E8139091E9130F9431
:103FD000A43A6093E6137093E7138093E8139093E9
:103FE000E91340E050E0BA0186E40E94464B6B01C1
:103FF0007C0120E030E0A9010F94283C18164CF415
:1040000020E030E040E752E4C701B6010F94283BBE
:1040100003C060E070E0CB0169837A838B839C836B
:10402000CE0101960E94E9C60C94962D0E944BFB8E
:104030000C94962D8091BC149091BD148C389105F0
:1040400009F436C60CF083C18235910509F478C6AF
:104050000CF082C08A31910509F49FC3BCF584310C
:10406000910509F4F2C27CF48131910509F4D9C2B9
:104070002CF4029708F49DC20C94702D429709F419
:104080006DC60C94702D8731910509F413C394F417
:104090008531910509F40AC3469711F00C94702DEF
:1040A0000E94AAD880918B11877F806280938B11A8
:1040B0000C94962D8831910509F411C3499711F09C
:1040C0000C94702D0E9403700C94962D8F319105E5
:1040D00009F40CC47CF48C31910509F4BFC30CF4D1
:1040E0006AC38D31910509F4C1C34E9709F4C5C364
:1040F0000C94702D8C34910509F4A3C46CF48032B7
:10410000910509F4CAC38B34910511F00C94702DFC
:104110000E949BCA0C94962D8D34910509F495C488
:104120008135910511F00C94702D0E9471760E94DA
:10413000D4CA0F9410120E94CC3268EE73E080E073
:1041400090E00E942E320E94CF3260E083EF96E032
:104150000E9485F10C94962D8E36910509F428C5A0
:1041600074F58836910509F474C484F48435910596
:1041700009F4F4C50CF4EBC58535910509F424C6A2
:104180008C35910509F443C60C94702D8B3691053E
:1041900009F405C554F48936910509F4ABC48A368F
:1041A000910509F4BBC40C94702D8C36910509F46B
:1041B00055C58D36910509F474C40C94702D85375E
:1041C000910509F4C9C60CF0A3C08137910509F423
:1041D0004DC594F48F36910509F4FBC480379105E1
:1041E00011F00C94702D41E060E070E08EED96E0EF
:1041F0000E944C330C94962D8237910509F4A5C684
:104200008337910511F00C94702D8BE498E00E9497
:10421000163360E08BE398E00F94072460E086E2B9
:1042200098E00F94072461E084E49EE20F94072451
:1042300061E08BE198E00F94072461E08BE098E067
:104240000F94072460E082E098E00F94072461E077
:1042500088EF97E00F94072461E08EEE97E00F94CB
:10426000072461E087EE97E00F94072461E08FED6B
:1042700097E00F94072461E081ED97E00F94072405
:1042800060E083EC97E00F94072460E084EB97E014
:104290000F94072460E086EA97E00F94072460E01B
:1042A00080E997E00F94072460E08FE797E00F9490
:1042B000072460E080E797E00F94072461E089E637
:1042C00097E00F94072460E084E597E00F940724BB
:1042D00060E086E497E00F94072460E083E397E0D2
:1042E0000F94072460E086E297E00F94072460E0D3
:1042F00081E297E00F94072461E084E197E00F9456
:10430000072460E080E097E00F9407240C94962D3A
:104310008837910509F46BC66CF48637910509F46A
:104320002BC68737910511F00C94702D0E940BCA93
:104330000C94962D8937910509F461C68D37910546
:1043400011F00C94702D0E9403700C94962D8139FD
:10435000E1E09E0711F40C949A2B0CF082C0803D92
:10436000910511F40C94D1299CF5893C910509F42F
:1043700022C7ACF48B39910509F4BCC434F48139FB
:10438000910509F443C60C94702D8E3B910509F4F8
:10439000AEC4883C910509F4ADC60C94702D8D3CDB
:1043A000910509F499C754F48B3C910509F444C76D
:1043B0008C3C910509F45FC70C94702D8E3C9105DF
:1043C00009F48DC78F3C910509F4A7C70C94702D93
:1043D0008D3D910511F40C94652A04F5893D9105F4
:1043E00011F40C94282A74F4813D910511F40C9475
:1043F0001B2A833D910511F00C94702D0E942671AB
:104400000C94962D8A3D910511F40C943B2A8C3D19
:10441000910511F40C943E2A0C94702D8D3221E0FC
:10442000920711F40C94162B6CF48232E1E09E0793
:1044300011F40C94BA2A8C32914011F40C94012B93
:104440000C94702D8F3221E0920711F40C94972B6D
:104450008039914011F00C94702D0F94FF110C9441
:10446000962D873FE1E09E0711F40C94832C0CF00D
:1044700049C0843A21E0920711F40C94AA2BFCF471
:104480008A39E1E09E0709F4EEC364F48239914071
:1044900011F00C94702D80E00E9465AA0E945EC904
:1044A0000C94962D8C3931E0930711F40C94A02BC9
:1044B0008D39914011F40C94382D0C94702D843F5B
:1044C000F1E09F0711F40C947D2C6CF4853A31E0F7
:1044D000930711F40C94AD2B8C3A914011F40C9489
:1044E000202C0C94702D853FF1E09F0711F40C9463
:1044F000802C863F914011F00C94702D0F94180A77
:104500000C94962D8E3B32E0930711F40C94242DDD
:104510001CF58835F2E09F0711F40C94A92C6CF47B
:10452000883F31E0930711F40C948B2C8C3092402F
:1045300011F40C949C2C0C94702D8B35F2E09F0799
:1045400011F40C94AC2C8D3B924011F00C94702D16
:104550000E945C6D0C94962D873E33E0930711F416
:104560000C942A2DCCF48335F3E09F0711F40C94BE
:10457000272D803A934011F00C94702D2091B9149E
:104580003091BA1490918B11926090938B11C90164
:104590000E94D4D90C94962D883E33E0930711F4F1
:1045A0000C944F2D893E934011F40C94522D0C9491
:1045B000702D80E50E9462BD882329F00E94F4B826
:1045C0006B017C0103C0C12CD12C760183E50E94D4
:1045D00062BD882361F00E94EDBA20E030E04AE736
:1045E00054E40F9407340F94A13B6B017C010F94AA
:1045F000FF118091B9149091BA14009721F061E0F5
:104600000E941DF205C060E086E096E00E9485F100
:1046100040E0C701B6010E94FA3A0E9420FC0C94C7
:10462000962D8091BF1484FF02C00C94802E80913F
:10463000C11487FF02C00C94802E8091C214837035
:1046400011F00C94802E0C949D2E80918B1183FF81
:1046500025C089E396E00E94163380918B1183FF79
:1046600017C08AEA91E10E9422A38BE1EAEAF1E114
:10467000DE01119601900D928A95E1F760E070E0FD
:10468000CE0101960F94C61BCE0101960E942E9773
:104690008AE296E00E9416330C94962D0E944833CD
:1046A0008AE496E00E9416330C94962D0E9470DCEA
:1046B0000C94962DE091B914F091BA14808188235E
:1046C00029F0803209F410823196F8CF60E08091B1
:1046D000B9149091BA140E941CDA0C94962D83E5BB
:1046E0000E9462BD882321F00E94B5BA0E94235225
:1046F00084E50E9462BD8823A9F00E94B5BA6B01CF
:104700007C010E9480CAC092EF0BD092F00BE09225
:10471000F10BF092F20BCD28CE28CF2819F081E0D2
:104720008093E1138091900C8823F9F080E090E071
:10473000A8E4B2E488A399A3AAA3BBA31C8E1D8EF0
:104740001E8E1F8E19821A821B821C8200E010E0CE
:1047500020E0AE01405E5F4FBE01645E7F4FCE0140
:1047600001960E94F5990C94962D0E94A8328823F8
:1047700081F00E94BBD80E949BCA80E59EE00E9407
:1047800060D81092C3141092C4141092C5141092E1
:10479000C6140E9420FC0C94962D80918B1183FDF1
:1047A00002C00C94962D83E50E9462BD81110C9489
:1047B000AC2E0C94962D83E40E94C896882319F1A0
:1047C0008EE596E00E9416338091F112882391F0D5
:1047D000BE016F5F7F4F8EEE92E10E94E9A18E01D4
:1047E0000F5F1F4FF80181918F01882339F00E94DC
:1047F0000F33F8CF84E596E00E9416338AE00E94DA
:104800000F330C94962D80918B1182FF21C08DE681
:1048100096E00E9416336091871170918811809103
:10482000891190918A114AE00E9419348FE20E9406
:104830000F33609183117091841180918511909153
:1048400086114AE00E9419340E9453350C94962D2B
:104850008FE796E00E9416330C94962D8091B91440
:104860009091BA140E94D4D90C94962D80918B11FA
:104870008E7F80938B110C94962D80918B1183FDEC
:1048800002C00C94962D0E940FFB8091B914909158
:10489000BA140E94FADB0C94962D80918B1182FD44
:1048A0000F94FF1180918B1183FD02C00C94962D03
:1048B00060E080E50E948ABD182F682F8091B914AE
:1048C0009091BA140E941CDA83E50E9462BD88238D
:1048D00021F00E94B5BA0E9423520E94BBD8111148
:1048E0000C94962D0E949BCA0C94962D0E944CCA43
:1048F0007B018C0120E831E541E050E00F94F7396D
:10490000C9016DE671E00F944D3A4B015C01C8019D
:10491000B70120E13EE040E050E00F94F739CA01D2
:10492000B90128E130E040E050E00F94F739762EED
:10493000672EC62ED72EACE32A2E312C412C512CBB
:10494000C801B701A20191010F94F739F62EE72EA5
:10495000CA01B901A20191010F94F739CB018E016F
:104960000F5F1F4F8114910499F0EF92FF927F9394
:104970006F936F927F92BF92AF929F928F9280E9D6
:1049800096E09F938F931F930F930F94393313C027
:10499000A114B104B1F0EF92FF927F936F936F92E5
:1049A0007F92BF92AF9284E996E09F938F931F937B
:1049B0000F930F9439330FB6F894DEBF0FBECDBFFF
:1049C00030C0CD2879F0EF92FF927F936F936F9272
:1049D0007F9288E996E09F938F931F930F930F9494
:1049E0003933E9CF892B69F0EF92FF927F936F9370
:1049F0008CE996E09F938F931F930F930F94393315
:104A0000DACFEF92FF9280EA96E09F938F931F9305
:104A10000F930F9439330F900F900F900F900F90CA
:104A20000F9060E0C8010E941DF20E944833B80157
:104A300084EA96E00E9431338AE00E940F330C949E
:104A4000962D0E94BFCA0C94962D0E94D4CA0C9435
:104A5000962D80919C0D83FF02C00C94962D0E9490
:104A60001C69182F87FF02C00C94962D89E40E94C0
:104A700062BD882311F40C94B12E0E94C5BA90E057
:104A80001816190614F481E090E026E0289FF00142
:104A9000299FF00D1124E55CFB4E808191810C94DF
:104AA000BC2E80919C0D83FF02C00C94962D0E9419
:104AB0001C69182F87FF02C00C94962D89E40E9470
:104AC00062BD882311F40C94C42E0E94C5BA90E0F4
:104AD0001816190614F481E090E026E0289FF001F2
:104AE000299FF00D1124E55CFB4E8081918100E04F
:104AF0000C94D52E0E941C69182F87FD0AC084ECE7
:104B000097E30E941633812F0E94B9738AE00E94B6
:104B10000F339EA19093B8130C94743060E080E53D
:104B20000E947EBD81110C94962D81E40E94C8964E
:104B3000882349F0E091CB0EF0E0ED55F24F608113
:104B4000062F10E002C00FEF10E089E40E9462BD62
:104B5000882399F00E94C5BA90E01816190614F43B
:104B600081E090E026E0289FF001299FF00D1124BC
:104B7000E55CFB4E0481158108C083E50E9462BD9F
:104B8000882319F00E94B5BA8B01B8010F3F1105B7
:104B900019F010F06FEF70E06093A30DC7C760E0ED
:104BA00080E50E947EBD8111C1C71092A30DBEC7D2
:104BB0008EE40E9462BD882309F4B8C70E94B5BA8A
:104BC0006093F3037093F4038093F5039093F603DB
:104BD000ADC783E50E94C896882331F060E083E585
:104BE0000E947EBD80939C0D0E94483387ED96E025
:104BF0000E94163380919C0D882369F1F3E5EF2E16
:104C0000FAE0FF2E00E010E020E080919C0D90E0A3
:104C1000A0E0B0E0002E04C0B695A79597958795C3
:104C20000A94D2F780FF0EC0DD24D394D20E222343
:104C300019F08CE20E940F33F701859194910E9444
:104C400016332D2D0F5F1F4FE2E0EE0EF11C0530E5
:104C50001105D9F6D3CD83ED96E0CECD1092B713E2
:104C60001092620263C70E94833260C783E50E948C
:104C700062BD882371F00E94C5BA282F30E02D3321
:104C800031051CF48093000251C78CE3809300022D
:104C90004DC70E9448334091000250E060E070E050
:104CA0008CEE96E00E9486348AE00E940F333EC765
:104CB00080919C0D83FD3AC789E40E9462BD8823E0
:104CC00011F40C94242F0E94C5BA90E0181619060E
:104CD00014F481E090E026E0289FF001299FF00D78
:104CE0001124E55CFB4E628173810C942E2F0E948F
:104CF0002C501CC783E50E9462BD882309F416C7A7
:104D00000E94C5BA182F90E0CD970CF01CE31093C9
:104D100038030F943B036B017C01212F30E0A8EE98
:104D2000B3E00F94243AC60ED71EE81EF91EC092B7
:104D30003403D0923503E0923603F0923703F6C67F
:104D400080919D0D8F7D806180939D0DEFC6809138
:104D50009D0D8F7E806280939D0DE8C683E50E9445
:104D600062BD8823E9F00F943B036093D00E7093EB
:104D7000D10E8093D20E9093D30E0E94EDBA20E014
:104D800030E04AE754E40F9407340F94A13B60935A
:104D90000102709302028093030290930402C6C63C
:104DA0008091BF1484FF02C00C943F2F8091C114E6
:104DB00087FF02C00C943F2F8091C214837011F0C2
:104DC0000C943F2F0C94702F83E50E94C896882383
:104DD00009F4ACC60F943B036093D00E7093D10ED0
:104DE0008093D20E9093D30E0E94EDBA20E030E073
:104DF0004AE754E40F9407340F94A13B60933903BE
:104E000070933A0380933B0390933C038FC60E94B8
:104E10001C6987FD8BC69091BF1494FD04C09091CE
:104E2000C11497FF0AC078E1C72E73E0D72EEFE6D2
:104E3000EE2EE3E1FE2E10E009C09091C2149370B3
:104E400091F7682F81E00E94157270C6F60181917A
:104E50006F010E9462BD882309F46DC0133009F010
:104E600063C00E94EDBA4B015C0120E030E040EAF3
:104E700051E40F94A13387FF4EC0A50194016091C6
:104E80008F137091901380919113909192130F94BE
:104E9000283B2B013C019B01AC0160919314709164
:104EA000941480919514909196140F940734609304
:104EB0009314709394148093951490939614A30173
:104EC000920160919F137091A0138091A113909112
:104ED000A2130F94073460939F137093A0138093D1
:104EE000A1139093A2136091CB067091CC06809190
:104EF000CD069091CE060F94A633A30192010F9494
:104F000007340F94A13B6093CB067093CC0680933B
:104F1000CD069093CE0680928F1390929013A0921C
:104F20009113B092921307C00E94EDBAF701648BFF
:104F3000758B868B978B1F5FF4E0EF0EF11C14309E
:104F400009F084CF0F94DB11F1C50E944AF58FE37D
:104F500091E10E94C9CDEAC58091B9149091BA142B
:104F6000009709F416CCFC012081222309F411CC0E
:104F700060E00E941DF2DAC50091B9141091BA14D4
:104F800094E0F12C40E0915029F1F8018081282F24
:104F90002B7F213421F421812133E1F408C08035B5
:104FA000C9F4F801818180538A3048F013C08134FC
:104FB00021F0853421F441E002C0FF24F3949801EC
:104FC0002E5F3F4F89012F5F3F4FF8018081803274
:104FD000C9F3D9CF41110E944833FF2021F083E269
:104FE00099E00E941633C8010E9459359FC581E09F
:104FF00080938104809380040E943DCA97C51092DB
:105000008104109280040E943DCA90C560E070E067
:1050100083E50E946FBD823038F00E94443387E2FE
:1050200099E00E94163382C58C01112788E40E9402
:1050300062BD8823E1F00E94E9BA8A3A910544F002
:105040000E94E9BA8530914034F40E94E9BA05C063
:105050008AEA90E002C084E091E026E0209FF0011F
:10506000219FF00D1124E55CFB4E9183808382E447
:105070000E9462BD8823D9F00E94E9BA97FD08C05A
:105080000E94E9BA8937910534F40E94E9BA05C053
:1050900080E090E002C088E790E026E0209FF001E9
:1050A000219FF00D1124E55CFB4E9383828386E4FF
:1050B0000E9462BD882309F439C50E94E9BA97FDB0
:1050C00009C00E94E9BA8F3F910509F034F40E94AB
:1050D000E9BA05C080E090E002C08FEF90E026E0E2
:1050E000209FF001219FF00D1124E55CFB4E95837C
:1050F00084831CC50E941C69182F87FD17C5009169
:10510000E50D84E40E9462BD882309F4ECC60E9488
:10511000EDBA6B017C0120E030E0A9010F94A133CE
:10512000882309F442C024E01202F0011124E35262
:10513000F24FC082D182E282F38220E030E0A90106
:105140006091DD0D7091DE0D8091DF0D9091E00D8D
:105150000F94A13381110CC080E090E0A0EEBFE37A
:105160008093DD0D9093DE0DA093DF0DB093E00DE5
:1051700020E030E0A9016091E10D7091E20D809195
:10518000E30D9091E40D0F94A13381110CC080E0E8
:1051900090E0A0EEBFE38093E10D9093E20DA09329
:1051A000E30DB093E40D01E09EC680E08093E50D31
:1051B0000F944C10BBC40E941C6987FDB7C458E112
:1051C000C52E53E0D52E6FE6E62E63E1F62E10E0F5
:1051D000F60181916F010E94C896882331F10E94E7
:1051E000EDBA6C8F7D8F8E8F9F8F80E1E1E9F2E0C9
:1051F000DE01119601900D928A95E1F79E012F5FD5
:105200003F4F49E459E0612FCE014C960F940611AF
:105210006C8D7D8D8E8D9F8D0F94A13BF7016083EA
:105220007183828393830F9494111F5FF4E0EF0ED8
:10523000F11C143069F67AC40E941C6987FD76C49B
:1052400048E1E42E43E0F42E0FE613E1F7018191EB
:105250007F010E94C896882339F00E94EDBAF801B8
:1052600064A375A386A397A30C5F1F4FF3E10F37C9
:105270001F0761F75BC48091C01487FD39C6809118
:10528000C1148E7009F034C64091A3135091A41339
:105290006091A5137091A61386E599E00E944235AE
:1052A0004091A7135091A8136091A9137091AA136C
:1052B0008DE992E30E9442354091AB135091AC13BB
:1052C0006091AD137091AE1389EF95E30E94423562
:1052D0008AE00E940F332AC40E9424BB27C432EF05
:1052E000E32E3DE0F32E10E088E5810F0E94C89682
:1052F000882351F00E94EDBAF701608371838283A5
:105300009383812F0F94B7161F5FF4E0EF0EF11C0B
:10531000133051F70E945EC909C483E50E94C89604
:10532000882351F00E94EDBA60931A1470931B14F5
:1053300080931C1490931D1486E40E94C8968823C1
:1053400081F00E94EDBA20E030E040E752E40F9493
:10535000283B60931E1470931F1480932014909325
:1053600021148AE50E94C896882351F00E94EDBA64
:105370006093221470932314809324149093251423
:1053800087E50E94C896882309F4D0C30E94EDBA2D
:1053900060932E1470932F148093301490933114D3
:1053A000C5C383E50E94C896882351F00E94EDBAD8
:1053B00060932614709327148093281490932914D3
:1053C00086E40E94C896882381F00E94EDBA20E00E
:1053D00030E040E752E40F94283B60932A14709326
:1053E0002B1480932C1490932D1482E50E94C89660
:1053F000882381F00E94EDBA20E030E040E752E4DB
:105400000F94283B609336147093371480933814AC
:105410009093391487E50E94C896882309F486C3BF
:105420000E94EDBA60933214709333148093341455
:10543000909335147BC383E50E94C896882309F4B2
:1054400075C30E94D9BA809319140E9417696EC35C
:105450008AE50E9462BD882351F00E94EDBA6093F4
:10546000AA067093AB068093AC069093AD0680E0DD
:105470000E94C5725BC30E94507258C383E50E94AC
:1054800062BD882331F00E94E9BA9093380280937C
:1054900037028091BF149091C014A091C114B091B3
:1054A000C214892B8A2B8B2B09F040C360913702E1
:1054B0007091380286E699E00E94C03485E20E942D
:1054C0000F338AE00E940F3331C30E941C69F82E0B
:1054D00087FD2CC383E50E9462BD0F2D0F2C000CAD
:1054E000110B882361F10E94E9BAF801EE0FFF1F4A
:1054F000EF57FD4F91838083000F111F000F111F85
:105500009801255D3D4F7901BC01990F880B990BDE
:105510000F94A8332AE037ED43E25CE30F9407349D
:10552000F801E956FB4E20813181428153810F946D
:105530000734F7016083718382839383F7C20E94EB
:10554000483385E40E940F3380E38F0D0E940F33B0
:10555000000F111FF801EF57FD4F608171818AE63E
:1055600099E00E94C03485E20E940F338AE00E94D5
:105570000F33DCC28AE50E9462BD811105C083E55C
:105580000E9462BD882331F10E94EDBA20E030E034
:1055900040E050EC0F94A13387FDF5C40E94EDBAB2
:1055A00020E030E040E050E40F94283C18160CF462
:1055B000E5C40E94EDBA20918B1330918C13409179
:1055C0008D1350918E130F9407340F949A3BCB0197
:1055D0000E9456F98091C11487FDDAC48091C214EB
:1055E000837009F0D5C40E9448336091D40E709145
:1055F000D50E82E799E00E94C0348AE00E940F3302
:1056000095C264E071E083E50E9413718C0168EE3D
:1056100073E080E50E9413718938F3E19F0710F071
:1056200088E893E1B8010E9458F180C260E085E407
:105630000E947EBD823008F073C080E50E94C8964B
:10564000882351F00E94EDBA6093BA0D7093BB0DA0
:105650008093BC0D9093BD0D89E40E94C896882369
:1056600081F00E94EDBA2CEA35EC47E25EE30F943C
:1056700007346093BE0D7093BF0D8093C00D90935F
:10568000C10D84E40E94C896882381F00E94EDBA7F
:105690002CEA35EC47E25EE30F94283B6093C20DA1
:1056A0007093C30D8093C40D9093C50D0E94483331
:1056B0004091BA0D5091BB0D6091BC0D7091BD0D24
:1056C00085E899E00E9442352CEA35EC47E25EE33A
:1056D0006091BE0D7091BF0D8091C00D9091C10D74
:1056E0000F94283BAB01BC0181E899E00E94423550
:1056F0002CEA35EC47E25EE36091C20D7091C30D78
:105700008091C40D9091C50D0F940734AB01BC017D
:105710008DE799E00E9442358AE00E940F3306C26D
:105720000E94443384ED92E20E941633FFC10E942E
:105730005D4BFCC181E00E9465AA0E945EC9F6C172
:105740008091BF1483FD2AC48091C114867009F032
:1057500025C449C40E948FBBE9C16FEF7FEF89E484
:105760000E946FBD082F6FEF7FEF8AE40E946FBD2C
:10577000182F8AE50E9462BD811108C081E50E9450
:1057800062BDD82E882309F448C401C0D12CC02E94
:1057900081E0800F853008F04CC0912E81E0810FB0
:1057A000853008F046C00E94EDBA2B013C01F02E76
:1057B00007FDF12C07FF02C0F3E0CF2E812E17FD6D
:1057C000812C17FF02C0E3E09E2ECF1408F4AEC177
:1057D000E82C24E0F29E500111249E1440F10E2D7D
:1057E00010E0DD2071F0F501E00FF11FEE0FFF1F5B
:1057F000EE0FFF1FE95BFB4E208131814281538117
:1058000003C020E030E0A9010A0D1B1D000F111F8D
:10581000000F111F095B1B4EC301B2010F94A53A83
:10582000F8016083718382839383E394D6CFF394EA
:10583000CCCF0E9444338DEE95E00E94163376C1A2
:105840000E9491FD811172C104E816E32EE432E05A
:105850003DA32CA3CE0101961C0147EBC42E46E3C9
:10586000D42E7C01F8016591759185919491ECA1FC
:10587000FDA181909190A190B190FDA3ECA3A50111
:1058800094010F94A43A2B013C01F70160837183CA
:105890008283938320E030E040EA51EC0F94283C6F
:1058A00087FD0AC020E030E040EA51E4C301B201C4
:1058B0000F94A13318162CF4F601849118160CF4E9
:1058C000B3C3F70181909190A190B1907F0120E046
:1058D00030E040EA51ECC501B4010F94283C87FD4B
:1058E000ADC320E030E040EA51E4C501B4010F94BB
:1058F000A13318160CF0B6C3A1C30E94DB8316C1F6
:105900000F94F40B13C161E083E50E948ABD8127E7
:105910000F940A0C0BC181E08093FC130E94A87DB8
:105920001092FC13882309F401C10E94483387E1D7
:105930009AE00E941633FAC080918B1182FF04C056
:10594000806480938B11F2C083FFF0C00E940FFB34
:10595000EDC00E94A36EEAC00E941C69082F87FD5B
:10596000E5C085E50E94C8968823A9F1E02E002EA7
:10597000000CFF080E94EDBA4B015C0120E030E012
:10598000A9010F94283C87FF04C0B7FAB094B7F878
:10599000B094C70123E0880F991F2A95E1F79C0175
:1059A000275F3B4E7901F90180829182A282B38206
:1059B00020E030E048E453E4C501B4010F94283CF2
:1059C00018164CF480E090E0A8E4B3E4F70180837B
:1059D0009183A283B3838CE40E94C896882309F440
:1059E000A5C0002E000C110B0E94EDBA6B017C01CA
:1059F00020E030E0A9010F94283C87FF04C0F7FAAB
:105A0000F094F7F8F09483E0000F111F8A95E1F706
:105A1000075F1B4EF801C482D582E682F78220E040
:105A200030E048E453E4C701B6010F94283C18164F
:105A30000CF07CC080E090E0A8E4B3E4F80184833B
:105A40009583A683B78372C00E94276C6FC00F94A2
:105A50003A216CC081E0809349061092640D60E0A9
:105A600083E50E948ABD811161C00F94B4205EC09D
:105A700083E50E94C896882339F00E94D9BA8093A2
:105A80003A140E941E9752C00E94483382E29AE064
:105A90000E94163380913A140E94253347C00E9419
:105AA0005F6944C00E944CCA6D3371058105910540
:105AB00020F08FE49AE00F9451248BE49AE00F9445
:105AC00051240E9416970E9465DC87E39AE00E94A9
:105AD000163388E891E2909386048093850426C06B
