:100000000C94AB200C94DC200C94DC200C94DC20B1
:100010000C94DC200C94DC200C94DC200C94DC2070
:100020000C94DC200C94DC200C94DC200C94DC2060
:100030000C94DC200C9434950C94DC200C94DC2083
:100040000C94DC200C94F2D20C94DC200C94DC2078
:100050000C94DC200C94DC200C94DA7A0C94EA9456
:100060000C94DC200C9403400C94F93F0C94DC209D
:100070000C94DC200C94DC200C94DC200C94DC2010
:100080000C94DC200C94DC200C94DC200C94DC2000
:100090000C94DC200C94DC200C94DC200C94DC20F0
:1000A0000C94DC200C94DC200C94DC200C94DC20E0
:1000B0000C94DC200C94DC200C94DC200C94DC20D0
:1000C0000C94DC200C94DC200C94DC200C94DC20C0
:1000D0000C94DC200C94DC200C94DC200C94DC20B0
:1000E0000C94DC20783D7D3D823D8C3D963D0F3E5D
:1000F000A03DA83DB03DBA3DC43DCE3DDD3DE73D10
:100100000F3EF13DFB3D053ED26DAB6DAE6DD56D45
:10011000B16DB46DB76DC36DBA6DD06DBD6DC06D91
:10012000377DF97DFE7D117E167E297E357E277D09
:100130009601EA00DA01320280014201F401AA01CB
:100140000A0202028A01E6011802CE0042015601AB
:100150005401E8000C94558F0C945FE90C946EF1F7
:100160000C947A6A0C9489E30C9476F10C940DE566
:100170000D9429080C948B8D0C9476970C948F9485
:100180000C942B8F0D9440240C94D4950D942E0A2E
:100190000C94948F0C94BB940C94357E0D946B0747
:1001A0000C94666A0C9498EF0D946F0A0D942D15BB
:1001B0000C945D970C9441E50C94766A0C94BA3DCE
:1001C0000C94B4DB0C9430590C9423460C947DF6BB
:1001D0000D9479070D9447070C945D8D0C948694CB
:1001E0000C94FE7D0C94963D0C94783D0C94B76D68
:1001F0000C94828F0C94726A0C94445F0C945C573C
:100200000C94A08F0C945A5B0C94826A0C945797B0
:100210000D94A3300C94245F0C94148E0C9461E222
:100220000D94240A0D943B080C942B670C94744B8A
:100230000C942BE90D94ED220D942F080C94788DDD
:100240000C94626A0C941A920C9461400C9450972E
:100250000C94AE6D0C9473970C94B3E90C9474E207
:100260000C94CF940C94DD950C94CA8D0C947E6AFA
:100270000C943BE50C94774B0C948C610C946F9729
:100280000C94A3DB0D947E070C94709A0C94468F0B
:100290000C9478400C94053E0C944A400C94E795DD
:1002A0000C940D8F0C9464570D9475070D94710781
:1002B0000D94F3220C9401E50C94F97D0C94D56D0A
:1002C0000C948E8F0C94D3950C9407610C9487F149
:1002D0000C949A8F0D94EF220C94BD6D0C940C67C6
:1002E0000C943C670C94FC8D0C94FB3D0C9434678F
:1002F0000C947DEA0C946E6A0C94C06D0C94A03D35
:100300000D943E070C94708F0C946A6A0C94A6E2CC
:100310000C94E38D0D945D070D9485300C94B1DB46
:100320000C94678E0C945E6A0C941C8F0D94440799
:100330000C9420E50C94EC8E0C94768F0C94E39541
:100340000C9435E50C9493E90C94868E0C94277DDF
:100350000C947D3D0D944F070C94648F0C94DD3DFF
:100360000D9435080C94BA6D0C942B8D0C94325F5F
:100370000C943D8E0C94448D0C94297E0C94B78D76
:100380000C94128D0C94058E0D94C30A0C94CE3DE2
:100390000C948F400C9441690C94B0DB0C94167E45
:1003A0000C94A83D0C94C36D0C941D5B0C94AB6D28
:1003B0000C940F3E0D9436070C94B7E90C943A8FC9
:1003C0000C942FE50C94F06C0C9460570D9463071B
:1003D0000C946A8F0C94823D0C949E8D0C947C8FAF
:1003E0000C948C3D0D94F5220D944B070C945E57A4
:1003F0000C947E970C94E73D0C94488E0C944F65BA
:100400000C94B3F60D9459070C9463970C94D26D29
:100410000C948DE20D9455070D94290A0C94C43D5B
:100420000C9410990C94B46D0C940A670C94699711
:100430000D9467070D94D6210C94F0670C94888F67
:100440000C94358E0D94710D0C9472F10C94F13D59
:100450000C94D06D0D941F0A0C9447DC0C948BF116
:100460000C94117E0D943A070C9477940C94625777
:100470000C94B16D0C94866A0D94F1220C94377D26
:100480000C94B03D0C949C684E414E494E495459D1
:10049000494E46CDCCCC3D0AD7233C17B7D138774F
:1004A000CC2B329595E6241FB14F0A000020410065
:1004B00000C84200401C4620BCBE4CCA1B0E5AAEAF
:1004C000C59D7400407A10F35A00A0724E180900BE
:1004D00010A5D4E80000E87648170000E40B5402A9
:1004E0000000CA9A3B000000E1F5050000809698E4
:1004F00000000040420F000000A086010000001034
:100500002700000000E80300000000640000000075
:10051000000A00000000000100000000002C76D856
:1005200088DC674F0823DFC1DFAE59E1B1B796E53C
:10053000E3E453C63AE651997696E8E6C28426EBA0
:10054000898C9B62ED407C6FFCEFBC9C9F40F2BAB3
:10055000A56FA5F490055A2AF75C936B6CF9676D4B
:10056000C11BFCE0E40D47FEF520E6B500D0ED90A0
:100570002E0300943577050080841E080000204E6D
:100580000A000000C80C333333330F986E12831106
:1005900041EF8D2114893BE65516CFFEE6DB18D1DD
:1005A000844B381BF77C1D901DA4BBE424203284AF
:1005B000725E228100C9F124ECA1E53D27434F4D35
:1005C0004D554E49434154494F4E0044525952559E
:1005D0004E004552524F525300494E464F0045433C
:1005E000484F00D0A1D0BED0BD2E2E2E004D657339
:1005F0006820706F696E74206F7574206F6620724A
:10060000616E67650A00D09FD180D0BED0B4D0BEE5
:10061000D0BBD0B6D0B8D182D18C2E2E2E00D09D9A
:10062000D0B5D18220D0B4D0B2D0B8D0B6D0B5D069
:10063000BDD0B8D18F2E00456E642066696C6520F0
:100640006C6973740A00426567696E2066696C653F
:10065000206C6973740A004E6F206D656469610ACD
:1006600000286E6F2066696C65290043757272659B
:100670006E742066696C653A20005344207072697C
:100680006E74696E67206279746520004E6F742005
:100690005344207072696E74696E670A0025697927
:1006A00020256964202569682025696D20256973E6
:1006B000005072696E742074696D653A2000D09E96
:1006C000D185D0BBD0B0D0B6D0B4D0B5D0BDD0B825
:1006D000D0B52E2E2E00D09DD0B0D0B3D180D0B5C5
:1006E000D0B22E2E2E00452563202553006F66665E
:1006F0000044454255473A004D3131322053687528
:1007000074646F776E004D313133205300503830B0
:1007100032515232204F46462E004348414D424509
:10072000525F54454D504552415455524500424147
:1007300042595354455050494E470041524353008B
:100740004D4F54494F4E5F4D4F444553005448451B
:10075000524D414C5F50524F54454354494F4E0007
:100760004C4F4E475F46494C454E414D4500415523
:10077000544F5245504F52545F53445F5354415469
:100780005553005344434152440050524F4D50542E
:100790005F535550504F525400454D455247454EBA
:1007A00043595F50415253455200434153455F4CBA
:1007B000494748545F4252494748544E45535300B5
:1007C000544F47474C455F4C494748545300534F9B
:1007D0004654574152455F504F5745520042554984
:1007E0004C445F50455243454E54004C4556454C91
:1007F000494E475F44415441005A5F50524F424571
:100800000052554E4F5554004155544F4C45564596
:100810004C005052494E545F4A4F420050524F478D
:1008200052455353004155544F5245504F52545F17
:1008300054454D5000564F4C554D45545249430078
:1008400042494E4152595F46494C455F5452414ED0
:10085000534645520053455249414C5F584F4E5FF5
:10086000584F4646004649524D574152455F4E410A
:100870004D453A4D61726C696E206D61726C696EA6
:100880002D322E302E382028446563203239203214
:100890003032302031313A35383A34362920534F0E
:1008A000555243455F434F44455F55524C3A687437
:1008B0007470733A2F2F6769746875622E636F6D59
:1008C0002F4D61726C696E4669726D776172652F2A
:1008D0004D61726C696E2050524F544F434F4C5FC4
:1008E00056455253494F4E3A312E30204D414348E0
:1008F000494E455F545950453A5038303251523282
:100900002045585452554445525F434F554E543A32
:100910003220555549443A63656465326132662D2B
:10092000343161322D343734382D396231322D6310
:1009300035356336326633363766660A002F2F2028
:10094000004D31343520533C696E6465783E206F2C
:100950007574206F662072616E67652028302D31B6
:10096000290A00416363656C65726174696F6E008A
:10097000416363656C65726174696F6E3A20500003
:1009800046523A0020466C6F773A20004261627905
:1009900073746570205A0020643A0020693A002080
:1009A000703A0046696C616D656E742072756E6F89
:1009B00075742064697374616E636520286D6D2998
:1009C0003A200046696C616D656E742072756E6FB9
:1009D000757420004D34323120696E636F72726518
:1009E000637420706172616D6574657220757361E6
:1009F00067650A00D0A1D0BCD0B5D189D0B5D0BD33
:100A0000D0B8D18F20D0BFD180D0B8D0BCD0B5D095
:100A1000BDD0B5D0BDD18B004572723A20546F6FF6
:100A2000206661722100546F6F20666172206672C9
:100A30006F6D207265666572656E636520706F69A3
:100A40006E740A00454550524F4D204F4B0A0050DE
:100A50006F7765722D6C6F7373207265636F766547
:100A600072792000446F6E65207072696E74696ED1
:100A7000672066696C650A004D3737004D333100D9
:100A8000DE05D905D205CB05BD054572726F722012
:100A900077726974696E6720746F20454550524FB4
:100AA0004D210A004D323930004D343130004D3186
:100AB0003132004D31303800D09ED0A1D0A2D0903C
:100AC000D09DD09ED092D09BD095D09DD09E2E20F0
:100AD000005072696E7465722073746F7070656413
:100AE0002064756520746F206572726F72732E209A
:100AF00046697820746865206572726F7220616E35
:100B00006420757365204D39393920746F20726502
:100B100073746172742E202854656D7065726174EF
:100B20007572652069732072657365742E20536534
:100B300074206974206166746572207265737461D3
:100B40007274696E67290A004E6F20436865636B93
:100B500073756D2077697468206C696E65206E7599
:100B60006D6265722C204C617374204C696E653A1D
:100B70002000636865636B73756D206D69736D61CB
:100B80007463682C204C617374204C696E653A2044
:100B9000004C696E65204E756D6265722069732028
:100BA0006E6F74204C617374204C696E65204E75B5
:100BB0006D6265722B312C204C617374204C696E10
:100BC000653A20004D313130005344207265616434
:100BD000206572726F720A002121204B494C4C2013
:100BE000636175736564206279204B494C4C2062C7
:100BF0007574746F6E2F70696E0A002121204B4945
:100C00004C4C2063617573656420627920746F6F4A
:100C1000206D75636820696E616374697665207400
:100C2000696D65202D2063757272656E7420636F27
:100C30006D6D616E643A2000627573793A2070615F
:100C40007573656420666F7220696E7075740A0032
:100C5000627573793A2070617573656420666F728E
:100C600020757365720A00627573793A2070726F2D
:100C700063657373696E670A0053442DD0BAD0B0B0
:100C8000D180D182D0B020D0B8D0B7D0B2D0BBD034
:100C9000B5D187D0B5D0BDD0B00053442DD0BAD097
:100CA000B0D180D182D0B020D0B2D181D182D0B0A9
:100CB000D0B2D0BBD0B5D0BDD0B0004D3130303087
:100CC00053004D3630302054313700D0A1D0B4D04D
:100CD000B5D0BBD0B0D0B9D182D0B520D181D0B100
:100CE000D180D0BED18100D09FD0A0D098D09DD04F
:100CF000A2D095D0A020D09ED0A1D0A2D090D09D3F
:100D0000D09ED092D09BD095D09D0025533A2025DF
:100D10005300D0A3D091D098D0A2D09E2E200050C6
:100D200072696E7465722068616C7465642E206BE4
:100D3000696C6C28292063616C6C6564210A00650C
:100D400063686F3A004572726F723A00D09AD0B001
:100D5000D0BCD0B5D180D0B02C014300D094D0BE4F
:100D600020D0BAD0BED0BDD186D0B02C20D0BCD03F
:100D7000BC00D092D18BD0B3D180D183D0B7D0BAC0
:100D8000D0B02C20D0BCD0BC00D097D0B0D0B3D144
:100D900080D183D0B7D0BAD0B02C20D0BCD0BC008A
:100DA000D094D0B8D0B0D0BC2E20D184D0B8D0BB95
:100DB000D0B0D0BC2E202A00D094D0B8D0B0D0BCB7
:100DC0002E20D184D0B8D0BBD0B0D0BC2E004520CE
:100DD000D0B220D0BCD0BCC2B300D09ED185D0BB95
:100DE000D0B0D0B6D0B4D0B5D0BDD0B8D0B520D169
:100DF00081D182D0BED0BBD0B02E2E2E00D09DD0BF
:100E0000B0D0B3D180D0B5D0B220D181D182D0BE04
:100E1000D0BBD0B02E2E2E0023646566696E65208F
:100E200044454641554C545F004B6420004B6920BB
:100E3000004B702000504944204175746F74756EEA
:100E4000652066696E697368656421205075742039
:100E5000746865206C617374204B702C204B692082
:100E6000616E64204B6420636F6E7374616E747383
:100E70002066726F6D2062656C6F7720696E746F8B
:100E800020436F6E66696775726174696F6E2E6854
:100E90000A00504944204175746F74756E65206670
:100EA00061696C6564212074696D656F75740A00F1
:100EB0000A20436C617373696320504944200A001F
:100EC000204B643A2000204B693A2000204B703AB6
:100ED00020000A204E6F206F76657273686F6F7402
:100EE0000A002054753A2000204B753A2000206DEE
:100EF00061783A2000206D696E3A200020643A2023
:100F00000020626961733A200050494420417574A1
:100F10006F74756E652073746172740A0050494471
:100F2000204175746F74756E65206661696C6564C7
:100F3000212054656D706572617475726520746FDF
:100F40006F20686967680A00D090D0B2D182D0BEA5
:100F5000D0BFD0BED0B4D0B1D0BED1802050494493
:100F600000504944204175746F74756E6520666148
:100F7000696C6564212042616420657874727564CF
:100F80006572206E756D6265720A00A100000069CD
:100F900000A20000006300B00000000900C10000D2
:100FA000004100C20000004100C30000004100C435
:100FB0000000004100C50000004100C600000041E3
:100FC00045C70000004300C80000004500C90000FC
:100FD000004500CD0000004900D10000004E00D5C2
:100FE0000000004F00D60000004F00D7000000783E
:100FF00000DC0000005500DD0000005900E00000AA
:10100000006100E10000006100E20000006100E317
:101010000000006100E40000006100E500000061E4
:1010200000E60000006165E70000006300E80000E2
:10103000006500E90000006500EA0000006500EBC3
:101040000000006500EC0000006900ED0000006990
:1010500000EE0000006900EF0000006900F10000F0
:10106000006E00F20000006F00F30000006F00F45B
:101070000000006F00F50000006F00F60000006F38
:1010800000F80000006F00F90000007500FA000091
:10109000007500FB0000007500FC0000007500FDFD
:1010A0000000007900FF0000007900040100004109
:1010B0000005010000610006010000430007010077
:1010C0000063000C01000043000D01000063000EEE
:1010D00001000044000F01000064001101000064E1
:1010E000001901000065001A01000045001B010005
:1010F0000065001F01000067003001000049003159
:101100000100006900410100004C00420100006C38
:1011100000430100004E00440100006E0048010041
:10112000006E005801000052005901000072005A80
:1011300001000053005B01000073005F01000073B9
:1011400000600100005300610100007300650100B0
:101150000074006F01000075007C0100007A007DC2
:101160000100005A007E0100007A00920100006632
:1011700000E30200007800010400004500100400B4
:10118000004100110400006200120400004200133C
:101190000400005400140400005100150400004530
:1011A00000160400002A001704000045001804007F
:1011B000004E00190400004E001A0400004B001BF2
:1011C00004000054001C0400004D001D04000048F1
:1011D000001E0400004F001F0400006E00200400E9
:1011E00000500021040000430022040000540023AA
:1011F0000400005900240400006F0025040000587A
:10120000002604000055002704000079002804008F
:101210000057002904000057002A04000062002B38
:10122000040000627C2C04000062002D04000065B4
:10123000002E0400007C4F2F040000397C30040095
:101240000061003104000036003204000042003327
:1012500004000072003404000061003504000065E1
:1012600000360400002A003704000065003804003E
:101270000075003904000075003A0400006B003B63
:101280000400006E003C0400006D003D04000048B6
:10129000003E0400006F003F0400006E00400400A8
:1012A0000070004104000063004204000074004329
:1012B00004000079004404000071704504000078C7
:1012C000004604000075004704000079004804004F
:1012D0000077004904000077004A04000062004BD8
:1012E000040000627C4C04000062004D04000065B4
:1012F000004E0400007C6F4F0400006700510400A2
:10130000006500222000002E001E210000507822DF
:10131000210000544D902100003C2D922100002D11
:101320003EB02100000300BB21000004003C22006D
:10133000007E00482200007E3D60220000213D61C9
:101340002200003D00642200003C3D652200003E7A
:101350003DF12300000700A03000003D0021F30113
:10136000000200C2F401000500A2000000EC00B081
:10137000000000DF00E4000000E100F6000000EFE4
:1013800000F7000000FD00FC000000F500E3020093
:1013900000EB0087030000A5008F030000F4009815
:1013A000030000F2009E030000E300A3030000F628
:1013B00000A9030000F400AC030000E000AD03004E
:1013C00000E300B1030000E000B2030000E200B55A
:1013D000030000E300B8030000F200BC030000E4D7
:1013E00000BE030000E300C0030000F700C10300DB
:1013F00000E600C3030000E500902100007F00929A
:101400002100007E001A220000E8001E220000F3E6
:101410000088250000FF0002300000A1000C300011
:1014200000A2000D300000A3009B300000DE009CF5
:10143000300000DF00A03000003D00A1300000A718
:1014400000A2300000B100A3300000A800A43000CA
:1014500000B200A5300000A900A6300000B300A72C
:10146000300000AA00A8300000B400A9300000AB92
:1014700000AA300000B500AB300000B600AC300070
:1014800000B6DEAD300000B700AE300000B7DEAF12
:10149000300000B800B0300000B8DEB1300000B954
:1014A00000B2300000B9DEB3300000BA00B4300042
:1014B00000BADEB5300000BB00B6300000BBDEB7BE
:1014C000300000BC00B8300000BCDEB9300000BD08
:1014D00000BA300000BDDEBB300000BE00BC3000F2
:1014E00000BEDEBD300000BF00BE300000BFDEBF6A
:1014F000300000C000C0300000C0DEC1300000C1BC
:1015000000C2300000C1DEC3300000AF00C43000B4
:1015100000C200C5300000C2DEC6300000C300C7F4
:10152000300000C3DEC8300000C400C9300000C471
:10153000DECA300000C500CB300000C600CC300051
:1015400000C700CD300000C800CE300000C900CF79
:10155000300000CA00D0300000CADED1300000CA1E
:10156000DFD2300000CB00D3300000CBDED430001F
:1015700000CBDFD5300000CC00D6300000CCDED769
:10158000300000CCDFD8300000CD00D9300000CDD5
:10159000DEDA300000CDDFDB300000CE00DC3000D2
:1015A00000CEDEDD300000CEDFDE300000CF00DF19
:1015B000300000D000E0300000D100E1300000D267
:1015C00000E2300000D300E3300000AC00E4300063
:1015D00000D400E5300000AD00E6300000D500E7A3
:1015E000300000AE00E8300000D600E9300000D73F
:1015F00000EA300000D800EB300000D900EC3000E9
:1016000000DA00ED300000DB00EF300000DC00F21B
:10161000300000A600F3300000DD00F4300000B31D
:10162000DEF7300000DCDEFA300000A6DEFB300022
:1016300000A500FC300000B000FD300000A4000751
:101640004E0000FB0086510000FC0043530000FAEE
:101650000064FF0000A40065FF0000A50066FF0015
:1016600000A60067FF0000A70068FF0000A800694F
:10167000FF0000A9006AFF0000AA006BFF0000AB9A
:10168000006CFF0000AC006DFF0000AD006EFF00BD
:1016900000AE006FFF0000AF0070FF0000B00071EF
:1016A000FF0000B10072FF0000B20073FF0000B342
:1016B0000074FF0000B40075FF0000B50076FF0065
:1016C00000B60077FF0000B70078FF0000B800798F
:1016D000FF0000B9007AFF0000BA007BFF0000BBEA
:1016E000007CFF0000BC007DFF0000BD007EFF000D
:1016F00000BE007FFF0000BF0080FF0000C000812F
:10170000FF0000C10082FF0000C20083FF0000C391
:101710000084FF0000C40085FF0000C50086FF00B4
:1017200000C60087FF0000C70088FF0000C80089CE
:10173000FF0000C9008AFF0000CA008BFF0000CB39
:10174000008CFF0000CC008DFF0000CD008EFF005C
:1017500000CE008FFF0000CF0090FF0000D000916E
:10176000FF0000D10092FF0000D20093FF0000D3E1
:101770000094FF0000D40095FF0000D50096FF0004
:1017800000D60097FF0000D70098FF0000D800990E
:10179000FF0000D9009AFF0000DA009BFF0000DB89
:1017A000009CFF0000DC009DFF0000DD009EFF00AC
:1017B00000DE009FFF0000DF00E5FF00005C00008E
:1017C0001C1F11111F00000006191803130C000440
:1017D0000E1F041C000000000E1315110E00001C4B
:1017E00010181705060500040A0A0A0A11110E0C42
:1017F00012120C00000000001F1511151F00004DF3
:10180000333033205531204525692053256900D0D8
:1018100090D0B2D182D0BED0BFD0BED0B4D0B1D0E3
:10182000BED18020504944202A005049442D4420F4
:101830002A005049442D49202A005049442D502067
:101840002A00D09FD0B5D180D0B5D0BCD0B5D18939
:10185000D0B5D0BDD0B8D0B520D0BCD0B8D0BD00A8
:10186000D0A1D0BAD0BED1802ED0BCD0B8D0BD00CF
:10187000D0A1D0BAD0BED1802ED0BCD0B0D0BAD1F9
:1018800081204500D0A1D0BAD0BED1802ED0BCD00E
:10189000B0D0BAD181205A00D0A1D0BAD0BED18068
:1018A0002ED0BCD0B0D0BAD181205900D0A1D0BAAE
:1018B000D0BED1802ED0BCD0B0D0BAD181205800BB
:1018C000D0A3D181D0BAD0BED1802ED0BCD0B0D0E0
:1018D000BAD181204500D0A3D181D0BAD0BED18069
:1018E0002ED0BCD0B0D0BAD181205A00D0A3D181A3
:1018F000D0BAD0BED1802ED0BCD0B0D0BAD1812049
:101900005900D0A3D181D0BAD0BED1802ED0BCD0C6
:10191000B0D0BAD181205800D0A3D181D0BAD0BEE6
:10192000D1802ED0BFD183D182D0B5D1882E00D026
:10193000A3D181D0BAD0BED1802ED0B2D182D18FE6
:10194000D0B3D0B8D0B22E00D0A3D181D0BAD0BEFF
:10195000D180D0B5D0BDD0B8D0B500D09FD0BED04A
:10196000B4D0BDD18FD182D0B8D0B520D0BFD0BE39
:10197000205A00322DD0B520D181D0BED0BFD0BBEF
:10198000D0BE205A00322DD0B520D181D0BED0BFDC
:10199000D0BBD0BE205900322DD0B520D181D0BED1
:1019A000D0BFD0BBD0BE205800D092D0BED0B7D0D0
:1019B000B2D1802ED181D0BCD0B5D0BDD18B205634
:1019C00000D092D0BED0B7D0B2D180D0B0D18220DA
:1019D0005600D092D0BED0B7D0B2D1802ED181D017
:1019E000BCD0B5D0BDD18B2CD0BCD0BC00D092D057
:1019F000BED0B7D0B2D180D0B0D1822C20D0BCD054
:101A0000BC00D09FD0BED0B4D181D0BAD0BED0BAA5
:101A10002C20D0BCD0BC00D092D182D18FD0B3D0FA
:101A2000B8D0B2D0B0D0BDD0B8D0B5205600D0A17B
:101A3000D0BCD0B5D0BDD0B020D0B2D182D18FD063
:101A4000B32E2CD0BCD0BC00D092D182D18FD0B3D9
:101A5000D0B8D0B22E2C20D0BCD0BC00D090D0B208
:101A6000D182D0BED0B2D182D18FD0B3D0B8D0B2D3
:101A70002E00D0A1D0BED0BFD0BBD0BE2C20014301
:101A800000D092D0BED181D181D182D0B0D0BDD092
:101A9000BED0B2D0B5D0BDD0B8D0B520D181D0B1F4
:101AA000D0BED18F00D09AD0BED0BDD184D0B8D016
:101AB000B3D183D180D0B0D186D0B8D18F00D09AA5
:101AC000D0BED0BDD182D1802ED183D182D0B5D12C
:101AD00087D0BAD0B820D0A23AD092D18BD0BAD089
:101AE000BB00313330004245443A203130306B2066
:101AF0007769746820342E376B2070756C6C2D7587
:101B00007000D09AD0BED0BDD182D1802ED183D1E9
:101B100082D0B5D187D0BAD0B820D0A23AD092D056
:101B2000BAD0BB0045323A203130306B207769742F
:101B30006820342E376B2070756C6C2D757000D05A
:101B40009CD0B0D0BAD1812E20020032373500D0DF
:101B50009CD0B8D0BD2E2020020045313A20313033
:101B6000306B207769746820342E376B2070756C69
:101B70006C2D757000D091D09F0047656E657269BD
:101B80006300D09FD180D0BED182D0BED0BAD0BEAB
:101B9000D0BB00312E3000D0A1D0BAD0BED180D081
:101BA000BED181D182D18C2CD091D09ED0940031E5
:101BB00031353230300068747470733A2F2F777774
:101BC000772E616C69657870726573732E636F6DC3
:101BD0002F6974656D2F33323936353430363339E9
:101BE000362E68746D6C005A4F4E45535441522046
:101BF0005A5249425F563600D091D0B8D0BBD0B8C7
:101C0000D0BD2E20D0B2D18BD180D0B0D0B2D0BD3B
:101C1000D0B8D0B22E00D0ADD0BAD181D182D1808F
:101C2000D183D0B4D0B5D180D18B007777772E7A9D
:101C30006F6E657374617233642E636F6D0050381C
:101C4000303251523200323032302D31322D313774
:101C5000006D61726C696E2D322E302E3800563355
:101C60002E322E3000D0A2D0B5D180D0BCD0B8D189
:101C700081D182D0BED180D18B00D094D0B0D0BDE4
:101C8000D0BDD18BD0B520D0BFD0BBD0B0D182D108
:101C90008B00D094D0B0D0BDD0BDD18BD0B520D0EA
:101CA000BFD180D0B8D0BDD182D0B5D180D0B00066
:101CB0004D3130303000D09ED181D182D0B0D0BDF6
:101CC000D0BED0B2D0B8D182D18C20D0BFD0B5D1C7
:101CD00087D0B0D182D18C00D09FD180D0BED0B47B
:101CE000D0BED0BBD0B6D0B8D182D18C20D0BFD09E
:101CF000B5D187D0B0D182D18C00D09DD0B0D0B733
:101D0000D0B0D0B400D0A1D182D0BED0BF00D09D81
:101D1000D0B5D18220534420D0BAD0B0D180D18266
:101D2000D18B00D0A1D0BCD0B5D0BDD0B8D182D19C
:101D30008C20534420D0BAD0B0D180D182D183003E
:101D40004D323100D0A1D0BCD0B5D0BDD0B020D163
:101D500084D0B8D0BBD0B0D0BCD0B5D0BDD182D0AB
:101D6000B000D09E20D0BFD180D0B8D0BDD182D01D
:101D7000B5D180D0B500D09DD0B0D181D182D180F5
:101D8000D0BED0B8D182D18C00D09FD0B0D183D07A
:101D9000B7D0B020D0BFD0B5D187D0B0D182D0B825
:101DA00000D093D0BBD0B0D0B2D0BDD18BD0B920B1
:101DB000D18DD0BAD180D0B0D0BD00D09FD0B0D11D
:101DC00080D0BAD0BED0B2D0BAD0B02E2E2E000065
:101DD00000D09ED0B6D0B8D0B4D0B0D0B9D182D0D7
:101DE000B520D0BDD0B0D187D0B0D0BBD0B000D15D
:101DF00081D0BCD0B5D0BDD18B20D184D0B8D0BBE0
:101E0000D0B0D0BCD0B5D0BDD182D0B00000D09E73
:101E1000D0B6D0B8D0B4D0B0D0B9D182D0B500D07F
:101E2000B2D18BD0B3D180D183D0B7D0BAD0B800E3
:101E3000D184D0B8D0BBD0B0D0BCD0B5D0BDD182C9
:101E4000D0B000D09DD0B0D0B3D180D0B5D0B2202A
:101E5000D181D0BED0BFD0BBD0B000D096D0B4D04E
:101E6000B8D182D0B52E2E2E0000D09DD0B0D0B6E5
:101E7000D0BCD0B8D182D0B520D0BAD0BDD0BED0E1
:101E8000BFD0BAD18300D0B4D0BBD18F20D0BDD0C9
:101E9000B0D0B3D180D0B5D0B2D0B000D181D0BE57
:101EA000D0BFD0BBD0B02E2E2E00D092D181D18207
:101EB000D0B0D0B2D18CD182D0B520D184D0B8D01E
:101EC000BBD0B0D0BCD0B5D0BDD18200D0B820D06E
:101ED000BDD0B0D0B6D0BCD0B8D182D0B520D0BAA9
:101EE000D0BDD0BED0BFD0BAD18300D0B4D0BBD18A
:101EF0008F20D0BFD180D0BED0B4D0BED0BBD0B6A2
:101F0000D0B5D0BDD0B8D18F00D09ED0B6D0B8D08B
:101F1000B4D0B0D0B9D182D0B500D0B7D0B0D0B3A2
:101F2000D180D183D0B7D0BAD0B800D184D0B8D0C6
:101F3000BBD0B0D0BCD0B5D0BDD182D0B000D09D88
:101F4000D0B0D0B6D0BCD0B8D182D0B520D0BAD025
:101F5000BDD0BED0BFD0BAD18300D0B4D0BBD18F5A
:101F600020D0BFD180D0BED0B4D0BED0BBD0B6D0F0
:101F7000B5D0BDD0B8D18F00D0BFD0B5D187D0B04B
:101F8000D182D0B800D09ED0B6D0B8D0B4D0B0D026
:101F9000B9D182D0B500D0B2D0BED0B7D0BED0B10A
:101FA000D0BDD0BED0B2D0BBD0B5D0BDD0B8D18F0F
:101FB00000D0BFD0B5D187D0B0D182D0B800D09EEC
:101FC000D0B6D0B8D0B4D0B0D0B9D182D0B500D1CD
:101FD0008DD0BAD181D182D180D183D0B7D0B8D0C1
:101FE000B800D184D0B8D0BBD0B0D0BCD0B5D0BDB3
:101FF000D182D0B000204D393220580020204D61D0
:10200000783A200020204D696E3A2000536F6674A4
:1020100020656E6473746F70733A20004D32342003
:1020200053256C642054256C64004739322E3920C6
:1020300045257300473120462564004739322E3943
:10204000205A2573004731205A3020463230300064
:1020500047312058257320592573204633303030BE
:10206000004731204525642046323030004D313064
:10207000362050256920532569004D3130392053D1
:102080002569005425692053004D313930205325EE
:1020900069004D32303020542569204430004D32E3
:1020A000303020542569204425730047323852309F
:1020B0005859004739322E39204530205A300A47C6
:1020C000315A2573004D3130392053313530205489
:1020D0002569004D31343020532569004D343230AC
:1020E000205330205A300020496E76616C6964209C
:1020F00065787472756465722000D0A1D182D0BEFB
:10210000D0BB2C20200143004532004531006265E0
:1021100064002C2073797374656D2073746F707014
:10212000656421204865617465725F49443A200006
:10213000D0A3D0A2D095D0A7D09AD09020D0A2D0B2
:1021400095D09FD09BD09000546865726D616C20D3
:1021500052756E6177617900D0A0D0B0D0B7D0BE93
:10216000D0B3D180D0B5D0B220D0BDD0B520D183EE
:10217000D0B4D0B0D0BBD181D18F00486561746933
:102180006E67206661696C656400D09ED188D0B8A6
:10219000D0B1D0BAD0B03A20D0A220D0BCD0B0D0EC
:1021A000BAD1812E004D415854454D50207472696A
:1021B00067676572656400D09ED188D0B8D0B1D011
:1021C000BAD0B03A20D0A220D0BCD0B8D0BD2E001A
:1021D0004D494E54454D502074726967676572656C
:1021E0006400202F002040002042403A0020403A66
:1021F0000020573A001000AA038000400100012C83
:1022000001B001220140021001F00202018003F836
:10221000004004F500E004ED009005E4003006DD28
:1022200000E006D7008007D1003008CC00D008C7F6
:10223000007009C300100ABE00B00ABB00500BB703
:1022400000900CB300D00DAA00B00FA5005010A054
:1022500000101496009016900010198C00501A85EA
:1022600000301C820070227800B023750040256E7B
:102270000020276900A0296400502A5F00902B5A93
:1022800000D02C5500702D4F00E02E4800503145F5
:102290000030334100D03539006036370010373315
:1022A00000F0382D00A0392700803C1C00103D199B
:1022B00000903D1700103E1400703E1200C03E0F0B
:1022C00000003F0C00403F0800803F0500C03F0079
:1022D00000F03FFBFFD09FD0B0D180D0B0D0BCD0B9
:1022E000B5D182D180D18B20D181D0BED185D18092
:1022F000D0B0D0BDD0B5D0BDD18B0020627974658F
:10230000733B20637263200053657474696E677356
:102310002053746F726564202800454550524F4D1C
:10232000206461746173697A65206572726F722EC0
:102330000A002073746F7265642073657474696E2B
:102340006773207265747269657665642028002061
:102350002863616C63756C6174656429210A0020CF
:10236000213D2000454550524F4D20435243206DA2
:1023700069736D61746368202D202873746F7265B2
:1023800064292000496E6465783A20004449474931
:10239000504F5453204C6F616465640A00444947B0
:1023A00049504F5453204C6F6164696E670A002096
:1023B0004D61726C696E3D563833290A00454550AF
:1023C000524F4D2076657273696F6E206D69736D23
:1023D000617463682028454550524F4D3D00D098A8
:1023E000D0BDD0B8D1862DD18F004D34323800D039
:1023F00098D0BDD0B8D186D0B8D0B0D0BBD0B8D0EE
:10240000B72E20454550524F4D00D0A4D0B8D0BB78
:10241000D0B0D0BCD0B5D0BDD18200D0A8D0B0D083
:10242000B3D0BED0B22FD0BCD0BC00D0A1D0BCD0D5
:10243000B5D189D0B5D0BDD0B8D18F205A2DD0B765
:10244000D0BED0BDD0B4D0B000D0A0D18BD0B2D04F
:10245000BED0BA00D0A3D181D0BAD0BED180D0B581
:10246000D0BDD0B8D0B52C20D0BCD0BC2FD18132BB
:1024700000D0A1D0BAD0BED180D0BED181D182D17E
:102480008C2C20D0BCD0BC2FD18100D0A3D181D145
:1024900082D0B0D0BDD0BED0B22ED181D0BCD0B50C
:1024A000D1892ED0B4D0BED0BCD0B000D0A1D0BB8A
:1024B000D0B5D0B4D183D18ED189D0B8D0B920D104
:1024C00083D0B3D0BED0BB00D093D0BED182D0BE1B
:1024D000D0B2D0BE00D094D0B0D0BBD18CD188D0F7
:1024E000B500D09DD183D0BBD0B5D0B2D0BED0B5D1
:1024F00020D0BFD0BED0BBD0BED0B6D0B5D0BDD01E
:10250000B8D0B500D092D18BD181D0BED182D0B01D
:1025100020D181D0BFD0B0D0B4D0B000D092D18B78
:10252000D180D0BED0B2D0BDD18FD182D18C20D1BC
:1025300081D182D0BED0BB004732380A4732390041
:102540004361746368205A204F6666736574004760
:102550003239204E00D092D18BD180D0BED0B2D0B3
:10256000BDD18FD182D18C20D183D0B3D0BBD18BC0
:102570000002F0004A0110013B0130012C01400132
:1025800027015001220170011D0190011801B001C5
:102590001301C0010E01F001090110020401300213
:1025A000FF006002FA009002F500C002F000000394
:1025B000EB004003E6008003E100D003DC002004D0
:1025C000D700E004D200C005CD004006C800D00608
:1025D000C3008007BE00F008B9004009B400C0097C
:1025E000AF00B00AAA00B00BA500D00CA000000EEE
:1025F0009B00C01096005012910000148C00C01572
:102600008700B0178200B0197D00D01B7800001E33
:10261000730040206E0090226900F024640040277F
:102620005F0090295A00E02B5500102E50002030FA
:102630004B0010324600E033410090353C0010372B
:10264000370070383200A0392D00B03A2800A03B86
:102650002300603C1E00103D1900903D1700103E05
:102660001400703E1200C03E0F00003F0C00403FBF
:102670000800803F0500C03F0000F03FFBFF202026
:10268000506C616E6E6572427566666572427974F1
:1026900065733A20002046726565204D656D6F7246
:1026A000793A2000436F6D70696C65643A20446527
:1026B0006320323920323032300A00204C6173748A
:1026C00020557064617465643A20323032302D31A7
:1026D000322D3137207C20417574686F723A202882
:1026E0005A4F4E45535441522C2048616C6C792905
:1026F0000A006D61726C696E2D322E302E380A0020
:102700004D61726C696E0020536F667477617265FB
:102710002052657365740A00205761746368646FA2
:10272000672052657365740A002042726F776E20CD
:102730006F75742052657365740A0020457874655E
:10274000726E616C2052657365740A00506F776514
:102750007255700A006175746F25632E67004732E9
:10276000385859004D31303031006572726F722027
:1027700077726974696E6720746F2066696C650A88
:1027800000446F6E6520736176696E672066696CC0
:10279000652E0A004D323900D0ADD0BDD0B4D18104
:1027A000D182D0BED0BFD18B0025532025632025F8
:1027B000632025632025630020503A00656E647312
:1027C000746F7073206869743A2000D094D0B2D0CE
:1027D000B8D0B6D0B5D0BDD0B8D0B5004D383400E3
:1027E000D092D18BD180D0B0D0B2D0BDD0B8D0B241
:1027F000D0B0D0BDD0B8D0B520D181D182D0BED09C
:10280000BBD0B000D09FD0B0D180D0BAD0BED0B2B3
:10281000D0BAD0B02058595A00D0A2D0B5D0BCD030
:10282000BFD0B5D180D0B0D182D183D180D0B0001B
:1028300041425300504C4100D0ADD0BAD181D18239
:10284000D180D183D0B4D0B5D180202A00D0ADD0F2
:10285000BAD181D182D180D183D0B4D0B5D180001A
:10286000D094D0B2D0B8D0B6D0B5D0BDD0B8D0B555
:1028700020D0BFD0BE205A00D094D0B2D0B8D0B6AD
:10288000D0B5D0BDD0B8D0B520D0BFD0BE20590073
:10289000D094D0B2D0B8D0B6D0B5D0BDD0B8D0B525
:1028A00020D0BFD0BE205800D092D18BD0BAD0BBA0
:1028B000D18ED187D0B8D182D18C20D0B4D0B2D033
:1028C000B8D0B3D0B0D182D0B5D0BBD0B800D09FF3
:1028D000D0B0D180D0BAD0BED0B2D0BAD0B0205A09
:1028E000004732385A00D09FD0B0D180D0BAD0BE85
:1028F000D0B2D0BAD0B02059004732385900D09F5A
:10290000D0B0D180D0BAD0BED0B2D0BAD0B02058DA
:1029100000473238580047323800D094D0B2D0B88F
:10292000D0B6D0B5D0BDD0B8D0B520D0BFD0BE20A5
:10293000D0BED181D18FD0BC00D09DD0B0D0B3D18A
:1029400080D0B5D0B2202420D0B2D181D19100D096
:102950009DD0B0D0B3D180D0B5D0B2202420D181C9
:10296000D0BED0BFD0BBD0BE207E00D09DD0B0D0D6
:10297000B3D180D0B5D0B2202420D181D182D0BEB5
:10298000D0BB00D09DD0B0D0B3D180D0B5D0B220D4
:1029900024207E00D09ED185D0BBD0B0D0B6D0B49C
:1029A000D0B5D0BDD0B8D0B500D09FD180D0B5D0F3
:1029B000B4D0BDD0B0D0B3D180D0B5D0B220240037
:1029C0003428302842696C696E656172204C6576E6
:1029D000656C696E6720477269643A0A00507265D7
:1029E000737320627574746F6E20746F20726573D8
:1029F000756D650A00507265737320627574746F2B
:102A00006E20746F2068656174206E6F7A7A6C65D1
:102A10000A00496E76616C69642065787472756429
:102A200065720A0041637469766520457874727531
:102A30006465723A20007C3C3E5E2B3D3F2F5B5D1F
:102A40003B2C2A225C0020746F6F206C6F6E672015
:102A5000657874727573696F6E2070726576656ED5
:102A60007465640A004A65726B004F46460A004668
:102A70006164652048656967687420004265642068
:102A80004C6576656C696E6720004661696C6564AB
:102A900020746F20656E61626C6520426564204C15
:102AA0006576656C696E670A00496E76616C69646B
:102AB000206D6573682E0A00D0A2D0BED187D0BA2F
:102AC000D0B020D181D0B5D182D0BAD0B8002553B2
:102AD0002025692F25690050726F62696E67206D2D
:102AE00065736820706F696E7420004F6666736549
:102AF0007420636174636865642021006661696C99
:102B00002C206D616E75616C206C6576656C00467D
:102B100061696C21204D6F766520646F776E20505F
:102B2000726F62652E00546F206361746368206F5A
:102B3000666673657400202844525952554E290028
:102B4000473239204175746F20426564204C6576A8
:102B5000656C696E67003F20284C2C522C462C4235
:102B600029206F7574206F6620626F756E64732EF6
:102B70000A003F2856296572626F7365206C65767E
:102B8000656C20696D706C61757369626C65202875
:102B9000302D34292E0A00426164205A2076616C5F
:102BA00075650A004E6F2062696C696E65617220FE
:102BB000677269640A006F70656E00545249474736
:102BC000455245440066696C616D656E74007A5FBC
:102BD00070726F6265007A5F6D696E00795F6D6912
:102BE0006E00785F6D696E005265706F7274696E09
:102BF0006720656E6473746F70207374617475738D
:102C00000A0000001644000016440000164424F494
:102C1000D43050C38E20C2A24017828B7011127A1A
:102C2000910D816CD90AA861E108C7586607615106
:102C300043061E4B5D05C145A7041A411104093D19
:102C40009803713931034036DB0265339102D43089
:102C50005402802E1D02632CEE01752AC501B02896
:102C6000A001102781018F2564012B244B01E02254
:102C70003401AC211F018D200D01801FFC00841E3A
:102C8000ED00971DDF00B81CD200E61BC600201B1C
:102C9000BC00641AB200B219A8000A19A0006A1890
:102CA0009900D117910040178B00B516840031169A
:102CB0007E00B31579003A157300C7146F005814DD
:102CC0006A00EE1366008813630025135E00C712C6
:102CD0005B006C12570015125400C11151007011A5
:102CE0004F0021114B00D61049008D1047004610AF
:102CF000440002104200C00F4000800F3E00420F0F
:102D00003C00060F3B00CB0E3800930E37005C0EE4
:102D10003500270E3400F30D3200C10D3100900D47
:102D20003000600D2E00320D2D00050D2C00D90C49
:102D30002B00AE0C2900850C29005C0C2700350CFB
:102D400027000E0C2600E80B2400C40B2400A00B67
:102D500023007D0B23005A0B2100390B2100180B97
:102D60002000F80A1F00D90A1E00BB0A1E009D0A97
:102D70001D00800A1D00630A1C00470A1B002C0A64
:102D80001B00110A1A00F7091A00DD091900C4090D
:102D90001900AB091900920917007B091800630993
:102DA00017004C09160036091600200916000A09FA
:102DB0001500F5081500E0081400CC081400B80848
:102DC0001400A4081400900813007D0812006B087A
:102DD0001300580812004608120034081100230896
:102DE00011001208110001081100F0071000E0079F
:102DF0001000D0071000C0071000B0070F00A10797
:102E0000100091070E0083070F0074070F0065077D
:102E10000E0057070E0049070E003B070D002E0756
:102E20000E0020070D0013070D0006070D00F90620
:102E30000C00ED060D00E0060C00D4060C00C806E0
:102E40000C00BC060C00B0060C00A4060B00990692
:102E50000C008D060B0082060B0077060B006C063B
:102E60000B0061060A0057060B004C060A004206DA
:102E70000A0038060A002E060A0024060A001A066E
:102E80000A001006090007060A00FD050900F405FE
:102E90000900EB050900E2050900D9050900D00584
:102EA0000900C7050900BE050900B5050800AD0504
:102EB0000800A50509009C050800940508008C057C
:102EC0000800840508007C050800740508006C05EE
:102ED0000700650508005D050700560508004E055A
:102EE00007004705070040050800380507003105C1
:102EF00007002A050700230507001C050600160524
:102F000007000F0507000805060002050700FB047F
:102F10000600F5040700EE040600E8040600E204DB
:102F20000700DB040600D5040600CF040600C90430
:102F30000600C3040600BD040600B7040600B10481
:102F40000500AC040600A6040600A00405009B04CE
:102F5000060095040500900406008A040500850417
:102F60000500800406007A0405007504050070045D
:102F700005006B04050066040500610405005C049F
:102F8000050057040500520405004D0405004804DF
:102F90000500430405003E0404003A04050035041E
:102FA0000500300404002C04050027040400230459
:102FB00005001E0404001A04040016040500110490
:102FC00004000D04040009040500040404000004C6
:102FD0000400FC030400F8030400F4030400F003FD
:102FE0000400EC030400E8030400E4030400E0032D
:102FF0000400DC030400D8030400D4030400D0035D
:103000000400CC030400C8030300C503030024F438
:1030100004D9201BC40C5C0E9804C4095F02650728
:103020007101F405F900FB04B30048048700C103F3
:1030300069005803550003034500BE023A008402AC
:10304000310053022A002902250004022000E40175
:103050001C00C8011900AF01170098011400840179
:103060001300710110006101100051010E004301B5
:103070000D0036010B002B010B0020010B00150188
:1030800009000C01090003010800FB000800F3001F
:103090000800EB000700E4000600DE000600D80090
:1030A0000600D2000600CC000500C7000500C200E3
:1030B0000500BD000400B9000400B5000400B10023
:1030C0000400AD000400A9000400A5000300A20054
:1030D00003009F0004009B0003009800030095007C
:1030E000020093000300900003008D0002008B009B
:1030F00003008800020086000200840003008100B3
:1031000002007F0002007D0002007B0002007900C7
:1031100002007700010076000200740002007200D5
:103120000100710002006F0002006D0001006C00E0
:1031300002006A00010069000200670001006600E9
:1031400001006500010064000200620001006100EE
:103150000100600001005F0002005D0001005C00F2
:1031600001005B0001005A000100590001005800F5
:1031700001005700010056000100550001005400F5
:1031800001005300000053000100520001005100F3
:103190000100500001004F0001004E0000004E00F1
:1031A00001004D0001004C0001004B0000004B00ED
:1031B00001004A00010049000100480000004800E9
:1031C00001004700010046000000460001004500E4
:1031D00000004500010044000100430000004300DE
:1031E00001004200000042000100410000004100D7
:1031F0000100400001003F0000003F0001003E00D0
:1032000000003E0001003D0000003D0001003C00C8
:1032100000003C0000003C0001003B0000003B00BF
:1032200001003A0000003A000100390000003900B6
:1032300001003800000038000000380001003700AD
:1032400000003700010036000000360000003600A4
:103250000100350000003500000035000100340099
:10326000000034000000340001003300000033008F
:103270000000330001003200000032000000320084
:103280000100310000003100000031000100300079
:10329000000030000000300001002F0000002F006F
:1032A00000002F0000002F0001002E0000002E0063
:1032B00000002E0001002D0000002D0000002D0058
:1032C00000002D0001002C0000002C0000002C004C
:1032D00000002C0001002B0000002B0000002B0040
:1032E00000002B0001002A0000002A0000002A0034
:1032F00000002A0001002900000029000000290028
:10330000000029000000290001002800000028001A
:10331000000028000000280000002800010027000D
:103320000000270000002700000027000000270001
:1033300001002600000026000000260000002600F4
:1033400000002600010025000000250000002500E7
:1033500000002500000025000000250001002400D9
:1033600000002400000024000000240000002400CD
:1033700001002300000023000000230000002300C0
:1033800000002300000023000000230001002200B1
:1033900000002200000022000000220000002200A5
:1033A0000000220001002100000021000000210097
:1033B0000000210000002100000021000000210089
:1033C000010020000000200000002000000020007C
:1033D000000020000000200000002000000020006D
:1033E00001001F0000001F0000001F0000001F0060
:1033F00000001F0000001F0000001F0001001E0051
:1034000000001E0000001E0000001E000000043727
:1034100000001E290000511B000058100000100978
:103420000000CC040000780200004101000000010F
:1034300020436F756E7420583A002053697A653ABC
:103440002000534420496E6974204661696C005322
:10345000442063617264206F6B0A006F70656E5266
:103460006F6F74206661696C65640A00766F6C75B5
:103470006D652E696E6974206661696C65640A0009
:103480004E6F20534420636172640A004D32332032
:1034900025730046696C652073656C6563746564AB
:1034A0000A0046696C65206F70656E65643A20009D
:1034B000454E4420535542524F5554494E450A00FB
:1034C0002220706F73002220706172656E743A2240
:1034D00000535542524F5554494E452043414C4CA0
:1034E000207461726765743A2200D09FD0B5D18094
:1034F000D0B5D0BFD0BED0BBD0BD2E20D0B2D18BE6
:10350000D0B7D0BED0B2D0B00045786365656465F1
:1035100064206D617820535542524F5554494E45B1
:103520002064657074683A310A0044656C6574699A
:103530006F6E206661696C65642C2046696C653A23
:10354000200046696C652064656C657465643A00AA
:103550006F70656E206661696C65642C2046696CCD
:10356000653A200057726974696E6720746F20662F
:10357000696C653A2000667265736800646F696EF5
:1035800067004E6F772000D097D0B0D0B3D180D1F4
:1035900083D0B7D0B8D182D18C20D0BDD0B0D1816A
:1035A000D182D180D0BED0B9D0BAD0B800D0A1D00D
:1035B000BED185D180D0B0D0BDD0B8D182D18C2041
:1035C000D0BDD0B0D181D182D180D0BED0B9D0BA57
:1035D000D0B800D0A1D0BCD0B5D189D0B5D0BDD0A5
:1035E000B8D0B5205A00D094D180D183D0B3D0B810
:1035F000D0B520D0BDD0B0D181D182D180D0BED0C5
:10360000B9D0BAD0B800D09FD0BED0B4D0B0D1829B
:10361000D18C20D184D0B8D0BBD0B0D0BCD0B5D064
:10362000BDD182202A00D0A3D0B1D180D0B0D18228
:10363000D18C20D184D0B8D0BBD0B0D0BCD0B5D044
:10364000BDD182202A00D092D0ABD093D0A0D0A3FD
:10365000D097D09AD09020D0A4D098D09BD090D0A2
:103660009CD095D09DD0A2D09000D097D090D093F0
:10367000D0A0D0A3D097D09AD09020D0A4D098D06A
:103680009BD090D09CD095D09DD0A2D09000D097C8
:10369000D090D09CD095D09DD09020D0A4D098D060
:1036A0009BD090D09CD095D09DD0A2D09000D09DA2
:1036B000D0B020D0B1D0B0D0B7D0BED0B2D18BD0A6
:1036C000B520D0BFD0B0D180D0B0D0BCD0B5D182E1
:1036D000D180D18B00D09DD0B0D0B3D180D0B5D027
:1036E000B2202420D0BFD180D0B0D0B2D0BAD0B0D8
:1036F00000D094D0B0D182D187D0B8D0BA20D0BE7B
:10370000D0BAD0BED0BDD1872ED184D0B8D0BBD056
:10371000B0D0BC2E00D092D182D18FD0B3D0B8D04F
:10372000B2D0B0D0BDD0B8D0B500D0A1D0BCD0B54B
:10373000D0BDD0B020D181D0BED0BFD0B5D0BB00DD
:10374000D0A0D0B0D0B7D0BCD0B5D189D0B5D0BD85
:10375000D0B8D0B520D181D0BED0BFD0B5D0BB00BD
:103760004D36303020423020542569004D373031FD
:1037700020542569004D3730322054256900D092FD
:10378000D18BD0B3D180D183D0B7D0B8D182D18CF6
:1037900020D0B2D181D191004D37303200D0A1D0AC
:1037A000BCD0B5D0BDD0B020D184D0B8D0BBD0B0C3
:1037B000D0BCD0B5D0BDD182D0B0202A00D092D01C
:1037C000BED0B7D0BED0B1D0BDD0BED0B2D0B8D1AF
:1037D00082D18C20D0BFD0B5D187D0B0D182D18C4E
:1037E00000D092D18BD0B4D0B0D0B2D0B8D182D1E9
:1037F0008C20D0B5D189D19100D09ED09FD0A6D0B9
:1038000098D09820D09FD0A0D09ED094D09ED09B0E
:10381000D096D095D09DD098D0AF3A00D09FD0957B
:10382000D0A7D090D0A2D0AC20D09DD09020D09F57
:10383000D090D0A3D097D095002020D0A1D0BED0DA
:10384000BFD0BBD0B03A2000D09AD183D0BBD0B586
:10385000D18000D0A1D0BED0BFD0BBD0BE207E00D2
:10386000D09ED181D0BDD0BED0B2D0BDD0BED0B55B
:1038700020D0BCD0B5D0BDD18E00D0A1D183D0BCDA
:10388000D0B0D180D0BDD0BE00D09CD0B8D0BAD1FD
:1038900080D0BED188D0B0D0B3205A00D09FD0BE47
:1038A000D182D0BED0BA207E00D09FD0BED182D0EF
:1038B000BED0BA00D0A1D0BAD0BED180D0BED18106
:1038C000D182D18C002568753A2530326875002583
:1038D000303268753A2530326875002D2D2D005331
:1038E00044002020202020202000D09FD0B5D18768
:1038F000D0B0D182D18C20D0BED182D0BCD0B5D0B6
:10390000BDD0B5D0BDD0B0004D323520500A4D32BB
:10391000340050617573696E672E2E2E00000022F0
:1039200000250028002B002E003100340002010089
:1039300000050108010B0100002100240027002AD6
:10394000002D003000330001010000040107010ACE
:103950000105050505070508080808020202020A14
:103960000A08080404040401010101010101010322
:1039700003030303030303040707070C0C0C0C0CDD
:103980000C0C0C0202020206060606060606060BD0
:103990000B0B0B0B0B0B0B01021020200808102047
:1039A00040102040800201020108040201010204CB
:1039B000081020408080402010080402018004028A
:1039C00001804020100804020108040201010204E1
:1039D0000810204080010204081020408020453A51
:1039E00000205A3A0020593A00D09FD0B5D187D054
:1039F000B0D182D18C20D18120534420D0BAD0B014
:103A0000D180D182D18B00205A3A200020593A200F
:103A10000042656420583A2000D09FD0B5D187D0AD
:103A2000B0D182D18C20D0BDD0B020D0BFD0B0D109
:103A300083D0B7D0B50050726F62696E672046615F
:103A4000696C65640A00D09ED188D0B8D0B1D0BA74
:103A5000D0B020D0B7D0BED0BDD0B4D0B8D180D0F7
:103A6000BED0B2D0B0D0BDD0B8D18F00D0A1D0BD23
:103A7000D0B0D187D0B0D0BBD0B020D0BFD0B0D1E3
:103A800080D0BAD183D0B92025732573257300491E
:103A90006E736572742066696C616D656E74206109
:103AA0006E6420707265737320627574746F6E0A31
:103AB000005038303251523220D093D0BED182D013
:103AC000BED0B22E00D09FD0B5D187D0B0D182D198
:103AD0008C2E2E2E00220A00556E6B6E6F776E2094
:103AE000636F6D6D616E643A20220000000A0B0264
:103AF000090C0D0E0807030401000000000000007F
:103B000000000000000000000000000000000000B5
:103B10000000000000000012111000000000000072
:103B20000000000000000000000000000000000095
:103B3000003F00D09ED182D0BCD0B5D0BDD0B00067
:103B4000D09DD0B0D187D0B0D0BBD0BE20D0BFD018
:103B5000B5D187D0B0D182D0B800D09FD0B5D187B1
:103B6000D0B0D182D18C0043616E6E6F7420656ECF
:103B7000746572207375626469723A2000052E2E96
:103B800000D094D0B2D0B8D0B6D0B5D0BDD0B8D0D7
:103B9000B5202573D0BCD0BC00D094D0B2D0B8D062
:103BA000B6D0B5D0BDD0B8D0B520302E31D0BCD035
:103BB000BC00D094D0B2D0B8D0B6D0B5D0BDD0B8BB
:103BC000D0B52031D0BCD0BC00D094D0B2D0B8D0C9
:103BD000B6D0B5D0BDD0B8D0B5203130D0BCD0BC77
:103BE00000486F74656E64206F6666736574733A1F
:103BF00000205200454550524F4D20496E6974696E
:103C0000616C697A65640A0048617264636F646517
:103C1000642044656661756C742053657474696EC4
:103C20006773204C6F616465640A003B20002020AC
:103C30004D363033200020204D34313220530046A1
:103C4000696C616D656E742072756E6F757420732A
:103C5000656E736F723A00546F6F6C2D6368616E9E
:103C600067696E673A005431204C0020550054308B
:103C7000204C0046696C616D656E74206C6F6164E8
:103C80002F756E6C6F6164206C656E677468733A33
:103C90000020204D3835312058005A2D50726F6267
:103CA00065204F66667365740020204D32303920E0
:103CB00053004175746F2D526574726163743A20BC
:103CC000533D3020746F2064697361626C652C20F1
:103CD0003120746F20696E7465727072657420454E
:103CE0002D6F6E6C79206D6F766573206173207215
:103CF0006574726163742F7265636F7665720020FC
:103D0000204D3230382053005265636F7665723A29
:103D100020533C6C656E6774683E20463C756E6946
:103D200074732F6D3E0020570020204D3230372015
:103D30005300526574726163743A20533C6C656E33
:103D40006774683E20463C756E6974732F6D3E2023
:103D50005A3C6C6966743E0020204D343133205348
:103D600000506F7765722D4C6F7373205265636FCF
:103D7000766572793A0020204D3330312050005062
:103D800049442073657474696E67733A0020460075
:103D900020480020204D3134352053004D6174659A
:103DA0007269616C20686561747570207061726100
:103DB0006D65746572733A00204A002020473239DD
:103DC000205720490020204D3432302053004175C7
:103DD000746F20426564204C6576656C696E673A45
:103DE0000020204D32313820540020204D32303612
:103DF000205800486F6D65206F66667365743A00E1
:103E000020204D323035204200416476616E63657A
:103E1000643A20423C6D696E5F7365676D656E74D0
:103E20005F74696D655F75733E20533C6D696E5FAD
:103E300066656564726174653E20543C6D696E5FB1
:103E400074726176656C5F66656564726174653E07
:103E500020583C6D61785F785F6A65726B3E2059CF
:103E60003C6D61785F795F6A65726B3E205A3C6D8C
:103E700061785F7A5F6A65726B3E20453C6D617860
:103E80005F655F6A65726B3E0020204D32303420E2
:103E90005000416363656C65726174696F6E2028C0
:103EA000756E6974732F7332293A20503C707269B1
:103EB0006E745F616363656C3E20523C7265747220
:103EC0006163745F616363656C3E20543C7472612E
:103ED00076656C5F616363656C3E0020204D323017
:103EE000312058004D6178696D756D2041636365BF
:103EF0006C65726174696F6E2028756E6974732FBA
:103F00007332293A0020204D3230332058004D6161
:103F100078696D756D20666565647261746573207E
:103F200028756E6974732F73293A00537465707322
:103F30002070657220756E69743A0020204D323011
:103F40003020530020440020204D323030205400D7
:103F50002044697361626C65640A0046696C616D36
:103F6000656E742073657474696E67733A002020FF
:103F70004D3134392043203B20556E6974732069DC
:103F80006E2043656C736975730A0020286D6D2976
:103F9000002020473231202020203B20556E6974BC
:103FA0007320696E206D6D000000FA430000FA4333
:103FB0000000A0400000C8420000A0420000A04253
:103FC0000000C8430000B042B80B0000B80B00006E
:103FD0006400000010270000000020C2000020C183
:103FE00000000000000048420000484200008040FD
:103FF0000202040000A0400000A0400000004000B9
:104000000020440080184400001644FFFFFF576161
:10401000726E696E673A20486F6D696E67204275EF
:104020006D702044697669736F72203C20310A00FC
:10403000206C696D6974656420746F2000204D6187
:1040400078200043616E6E6F74206F70656E207310
:104050007562646972200056652DD180D18BD0B213
:10406000D0BED0BA00565A2DD180D18BD0B2D0BE9E
:10407000D0BA0056592DD180D18BD0B2D0BED0BA93
:104080000056582DD180D18BD0B2D0BED0BA00D03E
:10409000A1D0BCD0B5D189D0B5D0BDD0B8D0B520D5
:1040A0005900D0A1D0BCD0B5D189D0B5D0BDD0B841
:1040B000D0B52058004520D188D0B0D0B32FD0BC87
:1040C000D0BC005A20D188D0B0D0B32FD0BCD0BC47
:1040D000005920D188D0B0D0B32FD0BCD0BC00586C
:1040E00020D188D0B0D0B32FD0BCD0BC00436170F9
:1040F0003A003F5A206F7574206F662072616E67B8
:10410000652028003F59206F7574206F662072610A
:104110006E676520282D003F58206F7574206F66EC
:104120002072616E676520282D0050726F626520D5
:104130004F6666736574205800656E7175657565A8
:10414000696E672022006F6B00526573656E643A7A
:10415000200008018C0111241FBECFEFD1E2DEBF89
:10416000CDBF00E00CBF13E0A0E0B2E0E0E4F4E873
:1041700002E00BBF02C007900D92A233B107D9F73E
:1041800025E1A2E3B3E001C01D92AF34B207E1F72D
:1041900010E2CAEAD0E200E006C021970109802FB0
:1041A000FE010F94753FC93AD10780E00807A9F7CF
:1041B0000F94C2290D940E420C9400002F923F924E
:1041C0004F925F926F927F928F929F92AF92BF9227
:1041D000CF92DF92EF92FF920F931F93CF93DF93D3
:1041E000CDB7DEB7A7970FB6F894DEBF0FBECDBF31
:1041F0008FA32091B8132EA311E01093B8138091D0
:10420000BE148D3409F4D7C3843511F40C943432C0
:10421000873411F00C9455328091BC149091BD14E8
:104220008B31910509F46AC124F58830910509F4B0
:104230003FC04CF497FDBBC382309105CCF104978D
:1042400009F417C1B4C38B30910509F451C185310C
:10425000910511F40C9457320A9709F0A8C360E055
:1042600083E50E944BC2682F81E00E9407A00C9456
:1042700057328A32910509F4BAC254F48D3191054E
:1042800009F466C10CF454C14E9709F47FC18FC381
:104290008B35910509F4F5C18C35910509F4F6C10A
:1042A0008A35910509F083C310929D0D0C94573205
:1042B00080914906813011F00C94573219821A828C
:1042C0001B821C82CE0101965C0122EEE22E23E1CC
:1042D000F22E0EE412E035EEC32E30E1D32E912CF7
:1042E00088E5890D0E9423C2F50181935F0188232F
:1042F00011F10E94AEBF2B013C01892D0E94076E77
:10430000882351F0F8012081318142815381C3011A
:10431000B2010F94863F09C0F601208131814281AC
:104320005381C301B2010F94853FF701608371830C
:10433000828393830AC0F80180819181A281B38135
:10434000F70180839183A283B3839394F4E0EF0E0B
:10435000F11C0C5F1F4F24E0C20ED11C33E09312FE
:10436000BFCF85E40E9423C28C83882301F10E9481
:10437000AEBF6B017C0183E00E94076E882371F061
:1043800020915A0230915B0240915C0250915D0293
:10439000C701B6010F94863F6B017C01C092EE13FA
:1043A000D092EF13E092F013F092F11310C08091CD
:1043B0005A0290915B02A0915C02B0915D028093E1
:1043C000EE139093EF13A093F013B093F113809139
:1043D0003A14882381F080918B1182FF0CC08C816C
:1043E000882349F08981811103C08A81882319F0CB
:1043F00080E00E94C9FE40E050E0BA0186E40E94DD
:10440000075020E030E0A9010F940941181684F408
:104410000E94AEBF20E030E040E752E40F94094034
:10442000609346027093470280934802909349023A
:1044300080911914882311F40C94923285E40E941F
:10444000899B882311F40C94923288E50E94899B01
:1044500081110C94923289E50E94899B81110C9400
:1044600092328AE50E94899B81110C9492320C94BD
:10447000603280E50E9423C2882329F00E94B5BDE6
:104480006B017C0103C0C12CD12C760183E50E9415
:1044900023C2882361F00E94AEBF20E030E04AE7EB
:1044A00054E40F94E8380F9482406B017C010F9420
:1044B000E01680913B0D811105C060E083EE95E030
:1044C0000E9446F60F940808C60ED71EE81EF91E75
:1044D0000F940808DC01CB018C199D09AE09BF09B6
:1044E000B7FD02C00C94573280E00E943B3AF0CFF7
:1044F00060E080E00E9407A00C9457320F945202B3
:1045000081110C9457328CE0E5E8F2E0DE0111965F
:1045100001900D928A95E1F760E070E080E50E94DD
:10452000D475BE016F5F7F4F0E94A1F10C9457328A
:104530008091F2138770873011F00C94C43260E0E0
:104540008FE40E944BC281110C9457320C94C432F8
:104550000F9408086093D00E7093D10E8093D20E02
:104560009093D30E0F94520281110C945732809184
:10457000A20D882311F40C943E3360E08FE40E9476
:104580004BC281110C9457320C943E33209162132C
:1045900030916313409164135091651360914E0202
:1045A00070914F0280915002909151020F94863F7A
:1045B000AB01BC0188E50E94075069837A838B8335
:1045C0009C8320916613309167134091681350913A
:1045D000691360915202709153028091540290913C
:1045E00055020F94863FAB01BC0189E50E9407503C
:1045F0006D837E838F839887BE016B5F7F4FCE0173
:1046000001960E94C5BD882311F40C94573280E0B6
:104610000E94D3A30E948BCB61E085E40E944BC231
:1046200001E021E0482FBE016B5F7F4FCE01019674
:104630000F9416036B017C019B01AC010F94874121
:10464000811119C049815A816B817C8181E19AE392
:104650000E94033A4D815E816F8178858CE09AE3F8
:104660000E94033AB701A60187E09AE30E94033A49
:104670008AE00E94D0370E9472CB0E941FCE0C9419
:1046800057328FE080939D0D0C9457328091BB146C
:10469000882349F1893009F0A6C088E1A82E83E07B
:1046A000B82E9EE4E92E92E0F92ED12C00E010E025
:1046B000F50181915F010E9423C2882369F00E9465
:1046C000AEBFF7016083718382839383133011F44B
:1046D00001E002C0DD24D3941F5FF4E0EF0EF11C73
:1046E000143031F775C0B8E12B2EB3E03B2E16EE37
:1046F000E12E1DE0F12E2EE432E03DA32CA305EEC9
:10470000C02E00E1D02E00E010E0F10181911F01E8
:104710000E9423C2882309F44AC00E94AEBF2B0125
:104720003C01133049F0F6012081318142815381EF
:104730000F94853F2B013C01ECA1FDA1208131812B
:1047400042815381C301B2010F94853F4B015C014B
:104750002DEB37E346E855EB0F94094187FD0AC07E
:104760002DEB37E346E855E3C501B4010F948238D9
:104770001816ECF4133051F440925A0250925B0236
:1047800060925C0270925D0201E011C0A50194018B
:10479000F70160817181828193810F94863FF701D7
:1047A0006083718382839383812F0F94981B1F5F93
:1047B000F4E0EF0EF11C2CA13DA12C5F3F4F3DA377
:1047C0002CA334E0C30ED11C143009F09ECF05C0D9
:1047D000DD2019F00E941DCE06C0002321F08AE5DD
:1047E00092E00F94011A0E941FCE0C9457328091D0
:1047F0004906813011F00C94573289E40E9423C29B
:10480000E82E882321F00E94AABF082F01C000E0F3
:104810008AE40E9423C2F82E882321F00E94AABFB6
:10482000182F01C010E0EE2011F0043020F4FF201A
:1048300041F0143030F08DEE95E00E94D7370C94A3
:10484000573280E1EEE4F2E0A2EEB3E101900D9286
:104850008A95E1F7EE2019F1602F000F770B880B96
:10486000990B0F94893820910114309102144091D2
:104870000314509104140F94E83820915604309199
:10488000570440915804509159040F94863F609307
:10489000E2137093E3138093E4139093E513FF20E6
:1048A00019F1612F110F770B880B990B0F94893831
:1048B000209105143091061440910714509108146A
:1048C0000F94E83820915A0430915B0440915C04C5
:1048D00050915D040F94863F6093E6137093E71345
:1048E0008093E8139093E91360E080E50E944BC247
:1048F0008823C1F1EE20D1F020916213309163132F
:1049000040916413509165136091E2137091E31329
:104910008091E4139091E5130F94853F6093E21327
:104920007093E3138093E4139093E513FF20D1F089
:104930002091661330916713409168135091691369
:104940006091E6137091E7138091E8139091E91359
:104950000F94853F6093E6137093E7138093E813F9
:104960009093E91340E050E0BA0186E40E940750BA
:104970006B017C0120E030E0A9010F940941181679
:104980004CF420E030E040E752E4C701B6010F9458
:10499000094003C060E070E0CB0169837A838B83B8
:1049A0009C83CE0101960E94AACB0C9457320F949F
:1049B0000C000C9457328091BC149091BD148C382B
:1049C000910509F436C60CF083C18235910509F4CE
:1049D00078C60CF082C08A31910509F49FC3BCF5FA
:1049E0008431910509F4F2C27CF48131910509F416
:1049F000D9C22CF4029708F49DC20C94313242972C
:104A000009F46DC60C9431328731910509F413C352
:104A100094F48531910509F40AC3469711F00C947A
:104A200031320E946BDD80918B11877F8062809391
:104A30008B110C9457328831910509F411C34997B1
:104A400011F00C9431320E94C4740C9457328F319F
:104A5000910509F40CC47CF48C31910509F4BFC3B1
:104A60000CF46AC38D31910509F4C1C34E9709F462
:104A7000C5C30C9431328C34910509F4A3C46CF491
:104A80008032910509F4CAC38B34910511F00C945E
:104A900031320E945CCF0C9457328D34910509F469
:104AA00095C48135910511F00C9431320E94327B0E
:104AB0000E9495CF0F94F1160E948D3768EE73E037
:104AC00080E090E00E94EF360E94903760E08DE039
:104AD00097E00E9446F60C9457328E36910509F401
:104AE00028C574F58836910509F474C484F48435B6
:104AF000910509F4F4C50CF4EBC58535910509F46D
:104B000024C68C35910509F443C60C9431328B369A
:104B1000910509F405C554F48936910509F4ABC42F
:104B20008A36910509F4BBC40C9431328C36910558
:104B300009F455C58D36910509F474C40C943132CD
:104B40008537910509F4C9C60CF0A3C081379105DA
:104B500009F44DC594F48F36910509F4FBC48037F0
:104B6000910511F00C94313241E060E070E088EF83
:104B700096E00E940D380C9457328237910509F463
:104B8000A5C68337910511F00C94313285E698E083
:104B90000E94D73760E085E598E00F94E82860E050
:104BA00080E498E00F94E82861E083E094E20F94B9
:104BB000E82861E085E398E00F94E82861E085E269
:104BC00098E00F94E82860E08CE198E00F94E828E2
:104BD00061E082E198E00F94E82861E088E098E0E5
:104BE0000F94E82861E081E098E00F94E82861E004
:104BF00089EF97E00F94E82861E08BEE97E00F943F
:104C0000E82860E08DED97E00F94E82860E08EECF6
:104C100097E00F94E82860E080EC97E00F94E82894
:104C200060E08AEA97E00F94E82860E089E997E07D
:104C30000F94E82860E08AE897E00F94E82861E0A4
:104C400083E897E00F94E82860E08EE697E00F9401
:104C5000E82860E080E697E00F94E82860E08DE4C3
:104C600097E00F94E82860E080E497E00F94E8284C
:104C700060E08BE397E00F94E82861E08EE297E034
:104C80000F94E82860E08AE197E00F94E8280C94FC
:104C900057328837910509F46BC66CF48637910555
:104CA00009F42BC68737910511F00C9431320E941C
:104CB000CCCE0C9457328937910509F461C68D37F3
:104CC000910511F00C9431320E94C4740C94573247
:104CD0008139E1E09E0711F40C945B300CF082C046
:104CE000803D910511F40C94922E9CF5893C910520
:104CF00009F422C7ACF48B39910509F4BCC434F42F
:104D00008139910509F443C60C9431328E3B9105EB
:104D100009F4AEC4883C910509F4ADC60C94313257
:104D20008D3C910509F499C754F48B3C910509F425
:104D300044C78C3C910509F45FC70C9431328E3C1A
:104D4000910509F48DC78F3C910509F4A7C70C9410
:104D500031328D3D910511F40C94262F04F5893DD7
:104D6000910511F40C94E92E74F4813D910511F430
:104D70000C94DC2E833D910511F00C9431320E948D
:104D8000E7750C9457328A3D910511F40C94FC2E72
:104D90008C3D910511F40C94FF2E0C9431328D3220
:104DA00021E0920711F40C94D72F6CF48232E1E0E9
:104DB0009E0711F40C947B2F8C32914011F40C94CB
:104DC000C22F0C9431328F3221E0920711F40C94EF
:104DD00058308039914011F00C9431320F94E01624
:104DE0000C945732873FE1E09E0711F40C94443154
:104DF0000CF049C0843A21E0920711F40C946B3016
:104E0000FCF48A39E1E09E0709F4EEC364F48239C8
:104E1000914011F00C94313280E00E9426AF0E9444
:104E20001FCE0C9457328C3931E0930711F40C9457
:104E300061308D39914011F40C94F9310C94313278
:104E4000843FF1E09F0711F40C943E316CF4853AF5
:104E500031E0930711F40C946E308C3A914011F4C8
:104E60000C94E1300C943132853FF1E09F0711F44E
:104E70000C944131863F914011F00C9431320F94E3
:104E8000F90E0C9457328E3B32E0930711F40C94D8
:104E9000E5311CF58835F2E09F0711F40C946A3176
:104EA0006CF4883F31E0930711F40C944C318C3052
:104EB000924011F40C945D310C9431328B35F2E058
:104EC0009F0711F40C946D318D3B924011F00C94BE
:104ED00031320E941D720C945732873E33E09307A3
:104EE00011F40C94EB31CCF48335F3E09F0711F40B
:104EF0000C94E831803A934011F00C9431322091B7
:104F0000B9143091BA1490918B11926090938B11D7
:104F1000C9010E9495DE0C945732883E33E0930716
:104F200011F40C941032893E934011F40C94133216
:104F30000C94313280E50E9423C2882329F00E941C
:104F4000B5BD6B017C0103C0C12CD12C760183E57A
:104F50000E9423C2882361F00E94AEBF20E030E0AF
:104F60004AE754E40F94E8380F9482406B017C01C7
:104F70000F94E0168091B9149091BA14009721F023
:104F800061E00E94DEF605C060E086E096E00E94E7
:104F900046F640E0C701B6010E94BB3F0F94E10016
:104FA0000C9457328091BF1484FF02C00C9441339B
:104FB0008091C11487FF02C00C9441338091C214C8
:104FC000837011F00C9441330C945E3380918B11FB
:104FD00083FF25C086E496E00E94D73780918B112D
:104FE00083FF17C08AEA91E10E94E3A78BE1EAEA16
:104FF000F1E1DE01119601900D928A95E1F760E0F2
:1050000070E0CE0101960F94A720CE0101960E9478
:10501000EF9B87E396E00E94D7370C9457320E94AB
:10502000093887E596E00E94D7370C9457320E94E2
:1050300031E10C945732E091B914F091BA148081A7
:10504000882329F0803209F410823196F8CF60E08D
:105050008091B9149091BA140E94DDDE0C945732FD
:1050600083E50E9423C2882321F00E9476BF0E941C
:10507000E45684E50E9423C28823A9F00E9476BFEB
:105080006B017C010E9441CFC092EF0BD092F00BDC
:10509000E092F10BF092F20BCD28CE28CF2819F038
:1050A00081E08093E1138091900C8823F9F080E0F7
:1050B00090E0A8E4B2E488A399A3AAA3BBA31C8EA2
:1050C0001D8E1E8E1F8E19821A821B821C8200E08A
:1050D00010E020E0AE01405E5F4FBE01645E7F4F96
:1050E000CE0101960E94B69E0C9457320E946937F9
:1050F000882381F00E947CDD0E945CCF80E59EE0E9
:105100000E9421DD1092C3141092C4141092C51491
:105110001092C6140F94E1000C94573280918B11B9
:1051200083FD02C00C94573283E50E9423C2811193
:105130000C946D330C94573283E40E94899B88232E
:1051400019F18BE696E00E94D7378091F1128823FF
:1051500091F0BE016F5F7F4F8EEE92E10E94AAA692
:105160008E010F5F1F4FF80181918F01882339F065
:105170000E94D037F8CF81E696E00E94D7378AE0C8
:105180000E94D0370C94573280918B1182FF21C03E
:105190008AE796E00E94D737609187117091881155
:1051A0008091891190918A114AE00E94DA388FE249
:1051B0000E94D03760918311709184118091851184
:1051C000909186114AE00E94DA380E94143A0C94B9
:1051D00057328CE896E00E94D7370C945732809172
:1051E000B9149091BA140E9495DE0C9457328091B4
:1051F0008B118E7F80938B110C94573280918B1181
:1052000083FD02C00C9457320E94D0FF8091B914E4
:105210009091BA140E94BBE00C94573280918B118C
:1052200082FD0F94E01680918B1183FD02C00C94D7
:10523000573260E080E50E944BC2182F682F8091A2
:10524000B9149091BA140E94DDDE83E50E9423C256
:10525000882321F00E9476BF0E94E4560E947CDDE4
:1052600011110C9457320E945CCF0C9457320E945B
:105270000DCF7B018C0120E831E541E050E00F9437
:10528000D83EC9016DE671E00F942E3F4B015C01E1
:10529000C801B70120E13EE040E050E00F94D83E65
:1052A000CA01B90128E130E040E050E00F94D83E57
:1052B000762E672EC62ED72EACE32A2E312C412C0B
:1052C000512CC801B701A20191010F94D83EF62ECE
:1052D000E72ECA01B901A20191010F94D83ECB017A
:1052E0008E010F5F1F4F8114910499F0EF92FF928E
:1052F0007F936F936F927F92BF92AF929F928F92A4
:105300008DE996E09F938F931F930F930F941A3814
:1053100013C0A114B104B1F0EF92FF927F936F9389
:105320006F927F92BF92AF9281EA96E09F938F93A4
:105330001F930F930F941A380FB6F894DEBF0FBE69
:10534000CDBF30C0CD2879F0EF92FF927F936F935D
:105350006F927F9285EA96E09F938F931F930F93AE
:105360000F941A38E9CF892B69F0EF92FF927F935F
:105370006F9389EA96E09F938F931F930F930F94F7
:105380001A38DACFEF92FF928DEA96E09F938F93CF
:105390001F930F930F941A380F900F900F900F9048
:1053A0000F900F9060E0C8010E94DEF60E9409385D
:1053B000B80181EB96E00E94F2378AE00E94D03774
:1053C0000C9457320E9480CF0C9457320E9495CF94
:1053D0000C94573280919C0D83FF02C00C9457327D
:1053E0000E94DD6D182F87FF02C00C94573289E4AC
:1053F0000E9423C2882311F40C9472330E9486BF4A
:1054000090E01816190614F481E090E026E0289F39
:10541000F001299FF00D1124E55CFB4E8081918104
:105420000C947D3380919C0D83FF02C00C94573205
:105430000E94DD6D182F87FF02C00C94573289E45B
:105440000E9423C2882311F40C9485330E9486BFE6
:1054500090E01816190614F481E090E026E0289FE9
:10546000F001299FF00D1124E55CFB4E80819181B4
:1054700000E00C9496330E94DD6D182F87FD0AC062
:1054800086E491E40E94D737812F0E947A788AE0DF
:105490000E94D0379EA19093B8130C94353560E0EC
:1054A00080E50E943FC281110C94573281E40E9432
:1054B000899B882349F0E091CB0EF0E0ED55F24F47
:1054C0006081062F10E002C00FEF10E089E40E9417
:1054D00023C2882399F00E9486BF90E0181619060F
:1054E00014F481E090E026E0289FF001299FF00D60
:1054F0001124E55CFB4E0481158108C083E50E9400
:1055000023C2882319F00E9476BF8B01B8010F3F98
:10551000110519F010F06FEF70E06093A30DC7C78D
:1055200060E080E50E943FC28111C1C71092A30DC7
:10553000BEC78EE40E9423C2882309F4B8C70E9424
:1055400076BF6093F3037093F4038093F503909315
:10555000F603ADC783E50E94899B882331F060E0A4
:1055600083E50E943FC280939C0D0E94093881EF21
:1055700096E00E94D73780919C0D882369F1F0E86E
:10558000EF2EFAE0FF2E00E010E020E080919C0D6D
:1055900090E0A0E0B0E0002E04C0B695A7959795E6
:1055A00087950A94D2F780FF0EC0DD24D394D20EE3
:1055B000222319F08CE20E94D037F7018591949153
:1055C0000E94D7372D2D0F5F1F4FE2E0EE0EF11C2A
:1055D00005301105D9F6D3CD8DEE96E0CECD1092E3
:1055E000B7131092620263C70E94443760C783E515
:1055F0000E9423C2882371F00E9486BF282F30E0CA
:105600002D3331051CF48093000251C78CE3809345
:1056100000024DC70E9409384091000250E060E04E
:1056200070E086E097E00E9447398AE00E94D03718
:105630003EC780919C0D83FD3AC789E40E9423C236
:10564000882311F40C94E5330E9486BF90E018166D
:10565000190614F481E090E026E0289FF001299FCC
:10566000F00D1124E55CFB4E628173810C94EF33E5
:105670000E94ED541CC783E50E9423C2882309F4CD
:1056800016C70E9486BF182F90E0CD970CF01CE340
:10569000109338030F9408086B017C01212F30E030
:1056A000A8EEB3E00F94053FC60ED71EE81EF91E04
:1056B000C0923403D0923503E0923603F092370360
:1056C000F6C680919D0D8F7D806180939D0DEFC604
:1056D00080919D0D8F7E806280939D0DE8C683E54D
:1056E0000E9423C28823E9F00F9408086093D00E2B
:1056F0007093D10E8093D20E9093D30E0E94AEBFC2
:1057000020E030E04AE754E40F94E8380F948240F8
:10571000609301027093020280930302909304024B
:10572000C6C68091BF1484FF02C00C9400348091DF
:10573000C11487FF02C00C9400348091C21483709E
:1057400011F00C9400340C94313483E50E94899B51
:10575000882309F4ACC60F9408086093D00E7093A8
:10576000D10E8093D20E9093D30E0E94AEBF20E054
:1057700030E04AE754E40F94E8380F948240609395
:10578000390370933A0380933B0390933C038FC695
:105790000E94DD6D87FD8BC69091BF1494FD04C0FF
:1057A0009091C11497FF0AC078E1C72E73E0D72EFD
:1057B000EFE6EE2EE3E1FE2E10E009C09091C21458
:1057C000937091F7682F81E00E94D67670C6F6013B
:1057D00081916F010E9423C2882309F46DC01330A8
:1057E00009F063C00E94AEBF4B015C0120E030E0D5
:1057F00040EA51E40F94823887FF4EC0A50194011E
:1058000060918F13709190138091911390919213E6
:105810000F9409402B013C019B01AC016091931452
:105820007091941480919514909196140F94E83887
:10583000609393147093941480939514909396149A
:10584000A301920160919F137091A0138091A11305
:105850009091A2130F94E83860939F137093A01354
:105860008093A1139093A2136091CB067091CC0604
:105870008091CD069091CE060F948738A3019201B6
:105880000F94E8380F9482406093CB067093CC0657
:105890008093CD069093CE0680928F1390929013B2
:1058A000A0929113B092921307C00E94AEBFF7016D
:1058B000648B758B868B978B1F5FF4E0EF0EF11C6A
:1058C000143009F084CF0F94BC16F1C50E940BFA76
:1058D0008FE391E10E948AD2EAC58091B914909138
:1058E000BA14009709F416CCFC012081222309F494
:1058F00011CC60E00E94DEF6DAC50091B914109177
:10590000BA1494E0F12C40E0915029F1F801808123
:10591000282F2B7F213421F421812133E1F408C089
:105920008035C9F4F801818180538A3048F013C072
:10593000813421F0853421F441E002C0FF24F39446
:1059400098012E5F3F4F89012F5F3F4FF801808103
:105950008032C9F3D9CF41110E940938FF2021F0CC
:105960008DE399E00E94D737C8010E941A3A9FC57B
:1059700081E080938104809380040E94FECE97C5CD
:1059800010928104109280040E94FECE90C560E0C7
:1059900070E083E50E9430C2823038F00E94053802
:1059A00081E499E00E94D73782C58C01112788E4F1
:1059B0000E9423C28823E1F00E94AABF8A3A91057F
:1059C00044F00E94AABF8530914034F40E94AABFDF
:1059D00005C08AEA90E002C084E091E026E0209FC2
:1059E000F001219FF00D1124E55CFB4E9183808333
:1059F00082E40E9423C28823D9F00E94AABF97FDA7
:105A000008C00E94AABF8937910534F40E94AABF3A
:105A100005C080E090E002C088E790E026E0209F8B
:105A2000F001219FF00D1124E55CFB4E93838283EE
:105A300086E40E9423C2882309F439C50E94AABFC4
:105A400097FD09C00E94AABF8F3F910509F034F469
:105A50000E94AABF05C080E090E002C08FEF90E0F6
:105A600026E0209FF001219FF00D1124E55CFB4E04
:105A7000958384831CC50E94DD6D182F87FD17C593
:105A80000091E50D84E40E9423C2882309F4ECC64A
:105A90000E94AEBF6B017C0120E030E0A9010F94B1
:105AA0008238882309F442C024E01202F001112454
:105AB000E352F24FC082D182E282F38220E030E0F2
:105AC000A9016091DD0D7091DE0D8091DF0D909147
:105AD000E00D0F94823881110CC080E090E0A0EEC0
