:100000000C94691B0C949A1B0C949A1B0C949A1BCD
:100010000C949A1B0C949A1B0C949A1B0C949A1B8C
:100020000C949A1B0C949A1B0C949A1B0C949A1B7C
:100030000C949A1B0C94F28F0C949A1B0C949A1BA0
:100040000C949A1B0C94B0CD0C949A1B0C949A1B94
:100050000C949A1B0C949A1B0C9498750C94A88F72
:100060000C949A1B0C94C13A0C94B73A0C949A1BBA
:100070000C949A1B0C949A1B0C949A1B0C949A1B2C
:100080000C949A1B0C949A1B0C949A1B0C949A1B1C
:100090000C949A1B0C949A1B0C949A1B0C949A1B0C
:1000A0000C949A1B0C949A1B0C949A1B0C949A1BFC
:1000B0000C949A1B0C949A1B0C949A1B0C949A1BEC
:1000C0000C949A1B0C949A1B0C949A1B0C949A1BDC
:1000D0000C949A1B0C949A1B0C949A1B0C949A1BCC
:1000E0000C949A1B36383B3840384A385438CD384F
:1000F0005E3866386E38783882388C389B38A53848
:10010000CD38AF38B938C338906869686C6893687F
:100110006F6872687568816878688E687B687E68C9
:10012000F577B778BC78CF78D478E778F378E57747
:100130002202D2018C01E0002C01BA010801200248
:1001400058018801AC01A401E001CA00BA01AA016A
:10015000D000E4000C94138A0C941DE40C942CEC55
:100160000C9438650C9447DE0C9434EC0C94CBDF83
:100170000D94DB020C9449880C9434920C944D8FAE
:100180000C94E9890D94DE1E0C9492900D94E00479
:100190000C94528A0D941D020C94798F0C94F37870
:1001A0000D9427020C9424650C9456EA0D942105B5
:1001B0000D94CB0F0C941B920C94FFDF0C943465C0
:1001C0000D94EC010C9478380D942B020C9472D69B
:1001D0000C94EE530C94E1400C943BF10D940F08F9
:1001E0000C941B880C94448F0C94BC780C94543859
:1001F0000C9436380C9475680C94408A0C943065D5
:100200000C94025A0C941A520C945E8A0C94185650
:100210000D94FD010C9440650C9415920D94412BA6
:100220000C94E2590C94D2880C941FDD0D94D604E2
:100230000D94ED020C94E9610C9432460C94E9E3C0
:100240000D948B1D0D94E1020C9436880C9420655E
:100250000C94D88C0C941F3B0D94F0010C940E92CE
:100260000C946C680C9431920C9471E40C9432DD13
:100270000C948D8F0C949B900C9488880C943C6506
:100280000C94F9DF0C9435460C944A5C0C942D9236
:100290000C9461D60C942E950C94048A0C94363BE5
:1002A0000C94C3380C94083B0C94A5900C94CB8907
:1002B0000D9407020C9422520D94911D0C94BFDFF3
:1002C0000C94B7780C9493680C944C8A0C9491908D
:1002D0000C94C55B0C9445EC0C94588A0D948D1DC0
:1002E0000C947B680C94CA610C94FA610C94BA88E3
:1002F0000C94B9380C94F2610C943BE50C942C6589
:100300000C947E680C945E380C942E8A0C942865AC
:100310000D940B020C9464DD0D94E8010C94A188FB
:100320000D94232B0C946FD60C9425890C941C658A
:100330000C94DA890C94DEDF0C94AA890C94348A2C
:100340000C94A1900C94F3DF0D9415020C9451E4DD
:100350000C9444890D9423020D940F020C94E577BC
:100360000C943B380C94228A0C949B380D94E70231
:100370000C9478680D9430020C94E9870C94F05931
:100380000C94FB880C9402880C94E7780C94758884
:100390000C94D0870C94C3880D9475050C948C38FC
:1003A0000C944D3B0D94F9010C94FF630C946ED6A4
:1003B0000C94D4780C9466380C9481680C94DB55BA
:1003C0000D9419020C9469680C94CD380C9475E462
:1003D0000C94F8890C94EDDF0C94AE670C941E52CB
:1003E0000C94288A0C9440380C945C880C943A8ABB
:1003F0000C944A380D94931D0C941C520C943C920E
:100400000C94A5380C9406890C940D600C9471F131
:100410000C9421920C9490680C944BDD0D94DB04A9
:100420000C9482380C94CE930C9472680C94C8612E
:100430000C9427920D94741C0C94AE620C94468A12
:100440000D9401020D94F6010C94F3880C9430EC99
:100450000C94AF380C948E680D94D1040C9405D78D
:100460000C9449EC0C94CF780C94358F0C9420525A
:100470000C946F680C9444650D948F1D0C94F57763
:100480000C946E380C945A634E414E494E4954595F
:10049000494E46CDCCCC3D0AD7233C17B7D138774F
:1004A000CC2B329595E6241FB14F0A000020410065
:1004B00000C84200401C4620BCBE4CCA1B0E5AAEAF
:1004C000C59D7400407A10F35A00A0724E180900BE
:1004D00010A5D4E80000E87648170000E40B5402A9
:1004E0000000CA9A3B000000E1F5050000809698E4
:1004F00000000040420F000000A086010000001034
:100500002700000000E80300000000640000000075
:10051000000A00000000000100000000002C76D856
:1005200088DC674F0823DFC1DFAE59E1B1B796E53C
:10053000E3E453C63AE651997696E8E6C28426EBA0
:10054000898C9B62ED407C6FFCEFBC9C9F40F2BAB3
:10055000A56FA5F490055A2AF75C936B6CF9676D4B
:10056000C11BFCE0E40D47FEF520E6B500D0ED90A0
:100570002E0300943577050080841E080000204E6D
:100580000A000000C80C333333330F986E12831106
:1005900041EF8D2114893BE65516CFFEE6DB18D1DD
:1005A000844B381BF77C1D901DA4BBE424203284AF
:1005B000725E228100C9F124ECA1E53D27434F4D35
:1005C0004D554E49434154494F4E0044525952559E
:1005D0004E004552524F525300494E464F0045433C
:1005E000484F00456D206573706572612E2E2E0098
:1005F0004D65736820706F696E74206F7574206F1D
:10060000662072616E67650A00C38120657370653C
:100610007261206465206F7264656D0053656D20A2
:100620006D6F76696D656E746F00456E64206669E6
:100630006C65206C6973740A00426567696E206698
:10064000696C65206C6973740A004E6F206D656477
:1006500069610A00286E6F2066696C652900437520
:100660007272656E742066696C653A20005344208E
:100670007072696E74696E67206279746520004ECD
:100680006F74205344207072696E74696E670A003B
:1006900025697920256964202569682025696D20F0
:1006A000256973005072696E742074696D653A2013
:1006B000004171756563656E646F2E2E2E004525B1
:1006C00063202553006F66660044454255473A0053
:1006D0004D3131322053687574646F776E004D313F
:1006E000313320530050383032515232204F464679
:1006F0002E004348414D4245525F54454D504552AE
:100700004154555245004241425953544550504975
:100710004E470041524353004D4F54494F4E5F4D99
:100720004F44455300544845524D414C5F50524F41
:1007300054454354494F4E004C4F4E475F46494C39
:10074000454E414D45004155544F5245504F52542E
:100750005F53445F535441545553005344434152F3
:10076000440050524F4D50545F535550504F5254C7
:1007700000454D455247454E43595F504152534500
:100780005200434153455F4C494748545F425249E8
:100790004748544E45535300544F47474C455F4CD0
:1007A000494748545300534F4654574152455F50B0
:1007B0004F574552004255494C445F5045524345BE
:1007C0004E54004C4556454C494E475F44415441B8
:1007D000005A5F50524F42450052554E4F555400FB
:1007E0004155544F4C4556454C005052494E545F6C
:1007F0004A4F420050524F475245535300415554BF
:100800004F5245504F52545F54454D5000564F4C37
:10081000554D45545249430042494E4152595F4655
:10082000494C455F5452414E534645520053455240
:1008300049414C5F584F4E5F584F4646004649521B
:100840004D574152455F4E414D453A4D61726C697D
:100850006E206D61726C696E2D322E302E3820281C
:1008600044656320323920323032302031313A331E
:10087000363A33312920534F555243455F434F4455
:10088000455F55524C3A68747470733A2F2F6769FC
:10089000746875622E636F6D2F4D61726C696E4660
:1008A00069726D776172652F4D61726C696E20504F
:1008B000524F544F434F4C5F56455253494F4E3A57
:1008C000312E30204D414348494E455F54595045E3
:1008D0003A503830325152322045585452554445DE
:1008E000525F434F554E543A3220555549443A636E
:1008F000656465326132662D343161322D343734AE
:10090000382D396231322D633535633632663336F0
:100910003766660A002F2F20004D31343520533CB6
:10092000696E6465783E206F7574206F6620726111
:100930006E67652028302D31290A00416363656C9C
:1009400065726174696F6E3A20500046523A002019
:10095000466C6F773A200020643A0020693A002004
:10096000703A0046696C616D656E742072756E6FC9
:1009700075742064697374616E636520286D6D29D8
:100980003A200046696C616D656E742072756E6FF9
:10099000757420004D34323120696E636F72726558
:1009A000637420706172616D657465722075736126
:1009B00067650A004F6666736574732061706C69C1
:1009C0006361646F73004572723A20546F6F2066E2
:1009D00061722100546F6F206661722066726F6DC4
:1009E000207265666572656E636520706F696E74EE
:1009F0000A00454550524F4D204F4B0A00506F772B
:100A000065722D6C6F7373207265636F7665727992
:100A10002000446F6E65207072696E74696E672085
:100A200066696C650A004D3737004D333100DE05CD
:100A3000D905D205CB05BD054572726F722077725C
:100A40006974696E6720746F20454550524F4D217F
:100A50000A004D323930004D343130004D313132E1
:100A6000004D3130380050415241444F2E2000504B
:100A700072696E7465722073746F7070656420643F
:100A8000756520746F206572726F72732E204669CF
:100A90007820746865206572726F7220616E6420C0
:100AA000757365204D39393920746F207265737400
:100AB0006172742E202854656D7065726174757250
:100AC000652069732072657365742E2053657420E8
:100AD00069742061667465722072657374617274E2
:100AE000696E67290A004E6F20436865636B7375F2
:100AF0006D2077697468206C696E65206E756D6213
:100B000065722C204C617374204C696E653A20002C
:100B1000636865636B73756D206D69736D61746374
:100B2000682C204C617374204C696E653A20004C2F
:100B3000696E65204E756D626572206973206E6FF7
:100B400074204C617374204C696E65204E756D6223
:100B500065722B312C204C617374204C696E653AA0
:100B600020004D31313000534420726561642065AE
:100B700072726F720A002121204B494C4C20636134
:100B800075736564206279204B494C4C2062757402
:100B9000746F6E2F70696E0A002121204B494C4CF6
:100BA0002063617573656420627920746F6F206DB6
:100BB00075636820696E6163746976652074696D18
:100BC00065202D2063757272656E7420636F6D6D84
:100BD000616E643A2000627573793A2070617573B2
:100BE000656420666F7220696E7075740A006275A4
:100BF00073793A2070617573656420666F72207531
:100C00007365720A00627573793A2070726F63655A
:100C10007373696E670A0043617274C3A36F2072B5
:100C2000656D6F7669646F0043617274C3A36F2052
:100C3000696E73657269646F004D313030305300F6
:100C40004D3630302054313700506C65617365206B
:100C50005265736574005052494E544552204841C4
:100C60004C5445440025533A20255300454D4552E8
:100C700047C38A4E4349412E20005072696E746505
:100C8000722068616C7465642E206B696C6C282915
:100C90002063616C6C6564210A006563686F3A00CB
:100CA0004572726F723A00456E636C6F7375726550
:100CB0000052756E6F75742044697374206D6D00F9
:100CC0004C6F6164206D6D00556E6C6F6164206DBA
:100CD0006D0046696C2E204469616D2E202A004605
:100CE000696C2E204469616D2E004520656D206D74
:100CF0006DC2B30042656420436F6F6C696E672EEE
:100D00002E2E004171756563656E646F206261739C
:100D1000652E2E2E0023646566696E652044454667
:100D200041554C545F004B6420004B6920004B70D0
:100D30002000504944204175746F74756E652066BB
:100D4000696E6973686564212050757420746865E4
:100D5000206C617374204B702C204B6920616E6491
:100D6000204B6420636F6E7374616E7473206672BF
:100D70006F6D2062656C6F7720696E746F20436FB2
:100D80006E66696775726174696F6E2E680A0050CD
:100D90004944204175746F74756E65206661696C95
:100DA0006564212074696D656F75740A000A2043BB
:100DB0006C617373696320504944200A00204B64BE
:100DC0003A2000204B693A2000204B703A20000A5C
:100DD000204E6F206F76657273686F6F740A002003
:100DE00054753A2000204B753A2000206D61783A06
:100DF0002000206D696E3A200020643A20002062B5
:100E00006961733A2000504944204175746F7475CC
:100E10006E652073746172740A00504944204175F4
:100E2000746F74756E65206661696C656421205409
:100E3000656D706572617475726520746F6F20687E
:100E40006967680A00504944204175746F74756E73
:100E50006500504944204175746F74756E65206655
:100E600061696C65642120426164206578747275E3
:100E7000646572206E756D6265720A00A1000000E3
:100E80006900A20000006300B00000000900C1007A
:100E900000004100C20000004100C300000041000A
:100EA000C40000004100C50000004100C600000071
:100EB0004145C70000004300C80000004500C900CC
:100EC00000004500CD0000004900D10000004E00A8
:100ED000D50000004F00D60000004F00D7000000F2
:100EE0007800DC0000005500DD0000005900E00043
:100EF00000006100E10000006100E200000061000C
:100F0000E30000006100E40000006100E500000073
:100F10006100E60000006165E70000006300E80092
:100F200000006500E90000006500EA0000006500BF
:100F3000EB0000006500EC0000006900ED0000001F
:100F40006900EE0000006900EF0000006900F10098
:100F500000006E00F20000006F00F30000006F0060
:100F6000F40000006F00F50000006F00F6000000C4
:100F70006F00F80000006F00F90000007500FA0033
:100F800000007500FB0000007500FC00000075000B
:100F9000FD0000007900FF0000007900040100005E
:100FA0004100050100006100060100004300070147
:100FB000000063000C01000043000D01000063000D
:100FC0000E01000044000F01000064001101000048
:100FD00064001901000065001A01000045001B01B2
:100FE000000065001F01000067003001000049009B
:100FF000310100006900410100004C004201000085
:101000006C00430100004E00440100006E004801E6
:1010100000006E00580100005200590100007200EB
:101020005A01000053005B01000073005F010000E3
:10103000730060010000530061010000730065014E
:10104000000074006F01000075007C0100007A0050
:101050007D0100005A007E0100007A00920100002C
:101060006600E30200007800222000002E001E210E
:101070000000507822210000544D902100003C2DAA
:10108000922100002D3EB02100000300BB21000092
:1010900004003C2200007E00482200007E3D6022C9
:1010A0000000213D612200003D00642200003C3D23
:1010B000652200003E3DF12300000700A030000043
:1010C0003D0021F301000200C2F401000500A2006E
:1010D0000000EC00B0000000DF00E4000000E100D0
:1010E000F6000000EF00F7000000FD00FC0000002B
:1010F000F500E3020000EB0087030000A5008F036A
:101100000000F40098030000F2009E030000E300DA
:10111000A3030000F600A9030000F400AC030000E4
:10112000E000AD030000E300B1030000E000B20303
:101130000000E200B5030000E300B8030000F20085
:10114000BC030000E400BE030000E300C003000095
:10115000F700C1030000E600C3030000E500902192
:1011600000007F00922100007E001A220000E800AB
:101170001E220000F30088250000FF00023000005E
:10118000A1000C300000A2000D300000A3009B3035
:101190000000DE009C300000DF00A03000003D00B9
:1011A000A1300000A700A2300000B100A330000071
:1011B000A800A4300000B200A5300000A900A630AD
:1011C0000000B300A7300000AA00A8300000B4005F
:1011D000A9300000AB00AA300000B500AB30000021
:1011E000B600AC300000B6DEAD300000B700AE3067
:1011F0000000B7DEAF300000B800B0300000B8DE4D
:10120000B1300000B900B2300000B9DEB3300000E8
:10121000BA00B4300000BADEB5300000BB00B63012
:101220000000BBDEB7300000BC00B8300000BCDE00
:10123000B9300000BD00BA300000BDDEBB30000098
:10124000BE00BC300000BEDEBD300000BF00BE30BE
:101250000000BFDEBF300000C000C0300000C0DEB4
:10126000C1300000C100C2300000C1DEC330000048
:10127000AF00C4300000C200C5300000C2DEC6307E
:101280000000C300C7300000C3DEC8300000C40047
:10129000C9300000C4DECA300000C500CB300000F9
:1012A000C600CC300000C700CD300000C800CE30F2
:1012B0000000C900CF300000CA00D0300000CADEF4
:1012C000D1300000CADFD2300000CB00D3300000A4
:1012D000CBDED4300000CBDFD5300000CC00D630E0
:1012E0000000CCDED7300000CCDFD8300000CD00CD
:1012F000D9300000CDDEDA300000CDDFDB30000079
:10130000CE00DC300000CEDEDD300000CEDFDE308F
:101310000000CF00DF300000D000E0300000D1003E
:10132000E1300000D200E2300000D300E3300000E2
:10133000AC00E4300000D400E5300000AD00E63041
:101340000000D500E7300000AE00E8300000D60015
:10135000E9300000D700EA300000D800EB30000090
:10136000D900EC300000DA00ED300000DB00EF3097
:101370000000DC00F2300000A600F3300000DD00C9
:10138000F4300000B3DEF7300000DCDEFA3000009D
:10139000A6DEFB300000A500FC300000B000FD30F0
:1013A0000000A400074E0000FB0086510000FC0076
:1013B00043530000FA0064FF0000A40065FF000032
:1013C000A50066FF0000A60067FF0000A70068FFF9
:1013D0000000A80069FF0000A9006AFF0000AA0041
:1013E0006BFF0000AB006CFF0000AC006DFF000065
:1013F000AD006EFF0000AE006FFF0000AF0070FF99
:101400000000B00071FF0000B10072FF0000B200E8
:1014100073FF0000B30074FF0000B40075FF00000C
:10142000B50076FF0000B60077FF0000B70078FF38
:101430000000B80079FF0000B9007AFF0000BA0090
:101440007BFF0000BB007CFF0000BC007DFF0000B4
:10145000BD007EFF0000BE007FFF0000BF0080FFD8
:101460000000C00081FF0000C10082FF0000C20038
:1014700083FF0000C30084FF0000C40085FF00005C
:10148000C50086FF0000C60087FF0000C70088FF78
:101490000000C80089FF0000C9008AFF0000CA00E0
:1014A0008BFF0000CB008CFF0000CC008DFF000004
:1014B000CD008EFF0000CE008FFF0000CF0090FF18
:1014C0000000D00091FF0000D10092FF0000D20088
:1014D00093FF0000D30094FF0000D40095FF0000AC
:1014E000D50096FF0000D60097FF0000D70098FFB8
:1014F0000000D80099FF0000D9009AFF0000DA0030
:101500009BFF0000DB009CFF0000DC009DFF000053
:10151000DD009EFF0000DE009FFF0000DF00E5FF12
:1015200000005C00001C1F11111F000000061918AC
:1015300003130C00040E1F041C000000000E131502
:10154000110E00001C10181705060500040A0A0AEF
:101550000A11110E0C12120C00000000001F1511D0
:10156000151F00004D3330332055312045256920AB
:1015700053256900504944204175746F74756E6538
:10158000202A005049442D44202A005049442D4926
:10159000202A005049442D50202A0056547261766A
:1015A000204D696E00566D696E00566D617820455C
:1015B00000566D6178205A00566D617820590056AA
:1015C0006D6178205800416D6178204500416D6162
:1015D00078205A00416D6178205900416D61782072
:1015E0005800412D6D6F76696D656E746F00412DE9
:1015F000726574726163C3A7C3A36F0041636365BF
:101600006C005A20526169736500326E64204E6F1F
:101610007A7A6C65205A00326E64204E6F7A7A6C4A
:1016200065205900326E64204E6F7A7A6C652058BE
:10163000005320556E526574205600204465735245
:1016400065742020560054726F63612044657352A4
:101650006574206D6D00204C6576616E746172203A
:101660006D6D0020526574726169722020560054BD
:10167000726F63612052657472616972206D6D00D2
:10168000204175746F2D526574726163740020027D
:10169000204269636F00506F776572204F757461E7
:1016A000676500436F6E66696775726174696F6E16
:1016B0000052756E617761792057617463683A20D2
:1016C0004F464600313330004245443A20313030F5
:1016D0006B207769746820342E376B2070756C6CC2
:1016E0002D75700052756E61776179205761746352
:1016F000683A204F4E0045323A203130306B207727
:1017000069746820342E376B2070756C6C2D757081
:10171000004D61782054656D7000323735004D6999
:101720006E2054656D700045313A203130306B20A9
:101730007769746820342E376B2070756C6C2D754A
:1017400070005053550047656E65726963005072B2
:101750006F746F636F6C00312E30004261756400EE
:101760003131353230300068747470733A2F2F770E
:1017700077772E616C69657870726573732E636F0D
:101780006D2F6974656D2F33323936353430363309
:1017900039362E68746D6C005A4F4E455354415281
:1017A000205A5249425F56360042696C696E656143
:1017B00072204C6576656C696E6700457874727549
:1017C00064657273007777772E7A6F6E65737461D4
:1017D0007233642E636F6D005038303251523200D4
:1017E000323032302D31322D3137006D61726C69FB
:1017F0006E2D322E302E380056332E322E300054BD
:101800006865726D6973746F727300426F617264A0
:1018100020496E666F005072696E74657220496E61
:10182000666F004D31303030005061726172206956
:101830006D7072657373C3A36F005265746F6D61D1
:101840007220696D7072657373C3A36F0042616328
:101850006B0053746F700053656D2063617274C3C5
:10186000A36F2053440054726F63617220636172EE
:1018700074C3A36F205344004D32310054726F6320
:1018800061722066696C616D656E746F0041626F94
:101890007574205072696E746572004166696E617C
:1018A000720050617573617220696D707265737337
:1018B000C3A36F004D6F6E69746F72697A617200B5
:1018C0005061726B696E672E2E2E000000576169A1
:1018D0007420666F720066696C616D656E7420635A
:1018E00068616E676500746F20737461727400576D
:1018F00061697420666F720066696C616D656E74F3
:1019000020756E6C6F616400004E6F7A7A6C652092
:1019100068656174696E6700506C656173652077F6
:101920006169742E2E2E00005072657373206275EB
:1019300074746F6E00746F2068656174206E6F7AC6
:101940007A6C650000496E736572742066696C611B
:101950006D656E7400616E642070726573732062D1
:101960007574746F6E00746F20636F6E74696E753A
:1019700065005761697420666F720066696C616DFD
:10198000656E74206C6F6164000050726573732023
:10199000427574746F6E00746F20726573756D6537
:1019A000207072696E7400005761697420666F72EE
:1019B000207072696E7400746F20726573756D6546
:1019C0002E2E2E00005761697420666F72006669C2
:1019D0006C616D656E742070757267650000204DD6
:1019E000393220580020204D61783A200020204DC7
:1019F000696E3A2000536F667420656E6473746F6D
:101A000070733A20004D32342053256C64205425E5
:101A10006C64004739322E39204525730047312048
:101A2000462564004739322E39205A257300473144
:101A3000205A30204632303000473120582573205C
:101A40005925732046333030300047312045256416
:101A50002046323030004D31303620502569205339
:101A60002569004D313039205325690054256920FE
:101A700053004D31393020532569004D323030202C
:101A8000542569204430004D3230302054256920DF
:101A90004425730047323852305859004739322EA6
:101AA00039204530205A300A47315A2573004D31CC
:101AB0003039205331353020542569004D313430D0
:101AC00020532569004D343230205330205A3000E5
:101AD00020496E76616C69642065787472756465FE
:101AE00072200020022042617365004532004531BA
:101AF00000626564002C2073797374656D207374C3
:101B00006F7070656421204865617465725F494437
:101B10003A2000544845524D414C2052554E4157B1
:101B2000415900546865726D616C2052756E617721
:101B30006179004171756563696D656E746F2066CA
:101B4000616C686F750048656174696E67206661D5
:101B5000696C6564004572723A2054204DC3A178C7
:101B6000696D61004D415854454D5020747269674C
:101B70006765726564004572723A2054204DC3ADAA
:101B80006E696D61004D494E54454D502074726927
:101B900067676572656400202F0020400020424086
:101BA0003A0020403A0020573A001000AA03800073
:101BB000400100012C01B001220140021001F0029D
:101BC00002018003F8004004F500E004ED009005F8
:101BD000E4003006DD00E006D7008007D1003008C1
:101BE000CC00D008C7007009C300100ABE00B00ABC
:101BF000BB00500BB700900CB300D00DAA00B00F83
:101C0000A5005010A0001014960090169000101916
:101C10008C00501A8500301C820070227800B0239E
:101C2000750040256E0020276900A0296400502A15
:101C30005F00902B5A00D02C5500702D4F00E02EE5
:101C400048005031450030334100D035390060360E
:101C5000370010373300F0382D00A0392700803CC2
:101C60001C00103D1900903D1700103E1400703EFE
:101C70001200C03E0F00003F0C00403F0800803FB4
:101C80000500C03F0000F03FFBFF53657474696EB0
:101C900067732053746F7265640020627974657392
:101CA0003B20637263200053657474696E67732010
:101CB00053746F726564202800454550524F4D2083
:101CC0006461746173697A65206572726F722E0A3D
:101CD000002073746F7265642073657474696E6735
:101CE0007320726574726965766564202800202807
:101CF00063616C63756C6174656429210A0020213D
:101D00003D2000454550524F4D20435243206D69C0
:101D1000736D61746368202D202873746F7265641D
:101D2000292000496E6465783A20004449474950AB
:101D30004F5453204C6F616465640A00444947491D
:101D4000504F5453204C6F6164696E670A00204DF8
:101D500061726C696E3D563833290A004545505210
:101D60004F4D2076657273696F6E206D69736D617A
:101D70007463682028454550524F4D3D00496E69B7
:101D800074004D34323800496E697469616C697A47
:101D90006520454550524F4D0046696C616D656E3A
:101DA000746F00506173736F2F6D6D0050726F62AE
:101DB00065204F66667365747300416363656C6587
:101DC000726174696F6E0056656C6F636974790037
:101DD000446566696E69722064657376696F004E4A
:101DE00065787420436F726E657200446F6E650093
:101DF0004E65787400496E646F2070617261206F67
:101E0000726967656D004661646520486569676849
:101E100074004C6576656C20426564004732380A70
:101E2000473239004361746368205A204F666673F5
:101E3000657400473239204E004C6576656C20434E
:101E40006F726E6572730002F0004A0110013B016F
:101E500030012C01400127015001220170011D01B8
:101E600090011801B0011301C0010E01F001090138
:101E7000100204013002FF006002FA009002F50037
:101E8000C002F0000003EB004003E6008003E10025
:101E9000D003DC002004D700E004D200C005CD0050
:101EA0004006C800D006C3008007BE00F008B90095
:101EB0004009B400C009AF00B00AAA00B00BA500E9
:101EC000D00CA000000E9B00C01096005012910094
:101ED00000148C00C0158700B0178200B0197D0077
:101EE000D01B7800001E730040206E009022690015
:101EF000F024640040275F0090295A00E02B550031
:101F0000102E500020304B0010324600E0334100CC
:101F100090353C001037370070383200A0392D0062
:101F2000B03A2800A03B2300603C1E00103D190081
:101F3000903D1700103E1400703E1200C03E0F008E
:101F4000003F0C00403F0800803F0500C03F0000FC
:101F5000F03FFBFF2020506C616E6E65724275662B
:101F600066657242797465733A2000204672656531
:101F7000204D656D6F72793A2000436F6D70696C0A
:101F800065643A2044656320323920323032300AA9
:101F900000204C61737420557064617465643A204C
:101FA000323032302D31322D3137207C2041757462
:101FB000686F723A20285A4F4E45535441522C2094
:101FC00048616C6C79290A006D61726C696E2D3202
:101FD0002E302E380A004D61726C696E0020536FEE
:101FE0006674776172652052657365740A002057C4
:101FF00061746368646F672052657365740A0020BA
:1020000042726F776E206F75742052657365740A23
:10201000002045787465726E616C2052657365743A
:102020000A00506F77657255700A006175746F25EC
:10203000632E67004732385859004D313030310037
:102040006572726F722077726974696E6720746F3F
:102050002066696C650A00446F6E6520736176695D
:102060006E672066696C652E0A004D32390046693C
:102070006D20646520637572736F0025532025639E
:102080002025632025632025630020503A00656EDB
:102090006473746F7073206869743A20004D6F76B2
:1020A000696D656E746F004D38340049722070613F
:1020B0007261206F726967656D0054656D7065723D
:1020C00061747572610041425300504C41004D6F84
:1020D000766572204578747275736F72202A004D90
:1020E0006F766572204578747275736F72004D6FEC
:1020F000766572205A004D6F7665722059004D6FDB
:102100007665722058004465736163746976617204
:10211000206D6F746F726573004972207061726117
:10212000206F726967656D205A004732385A00493E
:10213000722070617261206F726967656D2059004D
:10214000473238590049722070617261206F72699C
:1021500067656D2058004732385800473238004DC7
:102160006F766572206569786F005072652D6171B8
:102170002E2024205475646F005072652D61717596
:10218000656365722024204269636F207E0050726F
:10219000652D61712E20242002426173650050720A
:1021A000652D617175656365722024207E00417222
:1021B00072656665636572005072652D6171756543
:1021C000636572202400CA20C62042696C696E656E
:1021D0006172204C6576656C696E67204772696430
:1021E0003A0A00507265737320627574746F6E20C2
:1021F000746F20726573756D650A00507265737334
:1022000020627574746F6E20746F2068656174202D
:102210006E6F7A7A6C650A00496E76616C6964202B
:1022200065787472756465720A00416374697665D5
:102230002045787472756465723A20007C3C3E5E7D
:102240002B3D3F2F5B5D3B2C2A225C0020746F6F7F
:10225000206C6F6E6720657874727573696F6E207D
:1022600070726576656E7465640A004F46460A00B2
:10227000466164652048656967687420004265644A
:10228000204C6576656C696E6720004661696C65F7
:102290006420746F20656E61626C65204265642005
:1022A0004C6576656C696E670A00496E76616C698B
:1022B00064206D6573682E0A0050726F62696E67E4
:1022C00020506F696E740025532025692F25690001
:1022D00050726F62696E67206D65736820706F69F8
:1022E0006E7420004F666673657420636174636862
:1022F00065642021006661696C2C206D616E7561DA
:102300006C206C6576656C004661696C21204D6FB0
:10231000766520646F776E2050726F62652E005470
:102320006F206361746368206F6666736574002054
:102330002844525952554E2900473239204175746C
:102340006F20426564204C6576656C696E67003F5E
:1023500020284C2C522C462C4229206F7574206F5B
:102360006620626F756E64732E0A003F28562965D9
:1023700072626F7365206C6576656C20696D706C38
:1023800061757369626C652028302D34292E0A002E
:10239000426164205A2076616C75650A004E6F2098
:1023A00062696C696E65617220677269640A006FA8
:1023B00070656E005452494747455245440066696E
:1023C0006C616D656E74007A5F70726F6265007A21
:1023D0005F6D696E00795F6D696E00785F6D696E23
:1023E000005265706F7274696E6720656E647374F5
:1023F0006F70207374617475730A000000164400D6
:102400000016440000164424F4D43050C38E20C279
:10241000A24017828B7011127A910D816CD90AA893
:1024200061E108C7586607615143061E4B5D05C14F
:1024300045A7041A411104093D980371393103403D
:1024400036DB0265339102D4305402802E1D0263C4
:102450002CEE01752AC501B028A001102781018F3B
:102460002564012B244B01E0223401AC211F018D96
:10247000200D01801FFC00841EED00971DDF00B8B9
:102480001CD200E61BC600201BBC00641AB200B2BE
:1024900019A8000A19A0006A189900D117910040E4
:1024A000178B00B516840031167E00B31579003AFB
:1024B000157300C7146F0058146A00EE1366008885
:1024C00013630025135E00C7125B006C12570015E2
:1024D000125400C111510070114F0021114B00D650
:1024E0001049008D1047004610440002104200C001
:1024F0000F4000800F3E00420F3C00060F3B00CB18
:102500000E3800930E37005C0E3500270E3400F3B2
:102510000D3200C10D3100900D3000600D2E0032E3
:102520000D2D00050D2C00D90C2B00AE0C290085BB
:102530000C29005C0C2700350C27000E0C2600E847
:102540000B2400C40B2400A00B23007D0B23005A96
:102550000B2100390B2100180B2000F80A1F00D9AD
:102560000A1E00BB0A1E009D0A1D00800A1D006392
:102570000A1C00470A1B002C0A1B00110A1A00F74C
:10258000091A00DD091900C4091900AB09190092E4
:102590000917007B091800630917004C091600365B
:1025A000091600200916000A091500F5081500E0B3
:1025B000081400CC081400B8081400A408140090F3
:1025C0000813007D0812006B08130058081200461B
:1025D000081200340811002308110012081100012C
:1025E000081100F0071000E0071000D0071000C02D
:1025F000071000B0070F00A107100091070E00831D
:10260000070F0074070F0065070E0057070E0049FB
:10261000070E003B070D002E070E0020070D0013CC
:10262000070D0006070D00F9060C00ED060D00E091
:10263000060C00D4060C00C8060C00BC060C00B04A
:10264000060C00A4060B0099060C008D060B0082F8
:10265000060B0077060B006C060B0061060A00579C
:10266000060B004C060A0042060A0038060A002E35
:10267000060A0024060A001A060A001006090007C6
:10268000060A00FD050900F4050900EB050900E252
:10269000050900D9050900D0050900C7050900BED4
:1026A000050900B5050800AD050800A50509009C51
:1026B000050800940508008C050800840508007CC6
:1026C000050800740508006C050700650508005D35
:1026D000050700560508004E05070047050700409E
:1026E00005080038050700310507002A0507002303
:1026F0000507001C050600160507000F0507000862
:1027000005060002050700FB040600F5040700EEBD
:10271000040600E8040600E2040700DB040600D516
:10272000040600CF040600C9040600C3040600BD69
:10273000040600B7040600B1040500AC040600A6B8
:10274000040600A00405009B040600950405009003
:102750000406008A04050085040500800406007A4A
:1027600004050075040500700405006B040500668F
:10277000040500610405005C0405005704050052CF
:102780000405004D04050048040500430405003E0F
:102790000404003A04050035040500300404002C4C
:1027A00004050027040400230405001E0404001A85
:1027B00004040016040500110404000D04040009BB
:1027C0000405000404040000040400FC030400F8F1
:1027D000030400F4030400F0030400EC030400E825
:1027E000030400E4030400E0030400DC030400D855
:1027F000030400D4030400D0030400CC030400C885
:10280000030300C503030024F404D9201BC40C5C9B
:102810000E9804C4095F0265077101F405F900FB15
:1028200004B30048048700C103690058035500033E
:10283000034500BE023A008402310053022A0029F7
:1028400002250004022000E4011C00C8011900AFA9
:102850000117009801140084011300710110006138
:1028600001100051010E0043010D0036010B002B39
:10287000010B0020010B00150109000C01090003E8
:10288000010800FB000800F3000800EB000700E46B
:10289000000600DE000600D8000600D2000600CCCC
:1028A000000500C7000500C2000500BD000400B916
:1028B000000400B5000400B1000400AD000400A94C
:1028C000000400A5000300A20003009F0004009B79
:1028D000000300980003009500020093000300909D
:1028E0000003008D0002008B0003008800020086B8
:1028F00000020084000300810002007F0002007DCE
:102900000002007B000200790002007700010076DF
:102910000002007400020072000100710002006FEA
:102920000002006D0001006C0002006A00010069F5
:1029300000020067000100660001006500010064FC
:102940000002006200010061000100600001005F00
:102950000002005D0001005C0001005B0001005A04
:102960000001005900010058000100570001005605
:102970000001005500010054000100530000005305
:102980000001005200010051000100500001004F01
:102990000001004E0000004E0001004D0001004CFF
:1029A0000001004B0000004B0001004A00010049FB
:1029B00000010048000000480001004700010046F7
:1029C00000000046000100450000004500010044F1
:1029D00000010043000000430001004200000042EB
:1029E0000001004100000041000100400001003FE3
:1029F0000000003F0001003E0000003E0001003DDD
:102A00000000003D0001003C0000003C0000003CD4
:102A10000001003B0000003B0001003A0000003ACA
:102A200000010039000000390001003800000038C2
:102A300000000038000100370000003700010036B8
:102A400000000036000000360001003500000035AF
:102A500000000035000100340000003400000034A4
:102A60000001003300000033000000330001003299
:102A7000000000320000003200010031000000318F
:102A80000000003100010030000000300000003084
:102A90000001002F0000002F0000002F0000002F79
:102AA0000001002E0000002E0000002E0001002D6D
:102AB0000000002D0000002D0000002D0001002C62
:102AC0000000002C0000002C0000002C0001002B56
:102AD0000000002B0000002B0000002B0001002A4A
:102AE0000000002A0000002A0000002A000100293E
:102AF0000000002900000029000000290000002932
:102B00000001002800000028000000280000002824
:102B10000000002800010027000000270000002717
:102B2000000000270000002700010026000000260A
:102B300000000026000000260000002600010025FD
:102B400000000025000000250000002500000025F1
:102B500000000025000100240000002400000024E3
:102B600000000024000000240001002300000023D6
:102B700000000023000000230000002300000023C9
:102B800000000023000100220000002200000022BB
:102B900000000022000000220000002200010021AD
:102BA00000000021000000210000002100000021A1
:102BB0000000002100000021000100200000002092
:102BC0000000002000000020000000200000002085
:102BD00000000020000000200001001F0000001F76
:102BE0000000001F0000001F0000001F0000001F69
:102BF0000000001F0001001E0000001E0000001E5B
:102C00000000001E000000043700001E29000051D3
:102C10001B00005810000010090000CC04000078D0
:102C200002000041010000000120436F756E742016
:102C3000583A002053697A653A2000534420496E7F
:102C40006974204661696C0053442063617264209A
:102C50006F6B0A006F70656E526F6F7420666169EA
:102C60006C65640A00766F6C756D652E696E6974AB
:102C7000206661696C65640A004E6F2053442063CE
:102C80006172640A004D32332025730046696C6519
:102C90002073656C65637465640A0046696C652021
:102CA0006F70656E65643A2000454E44205355426E
:102CB000524F5554494E450A002220706F7300222E
:102CC00020706172656E743A2200535542524F551E
:102CD00054494E452043414C4C20746172676574E1
:102CE0003A220053756263616C6C204F76657266A0
:102CF0006C6F77004578636565646564206D617805
:102D000020535542524F5554494E452064657074C6
:102D1000683A310A0044656C6574696F6E206661BB
:102D2000696C65642C2046696C653A200046696CC4
:102D3000652064656C657465643A006F70656E202B
:102D40006661696C65642C2046696C653A200057A1
:102D5000726974696E6720746F2066696C653A20C9
:102D600000667265736800646F696E67004E6F7706
:102D700020004361727265676172206461206D6535
:102D80006D6F7269610047756172646172206E6176
:102D9000206D656D6F7269610044657376696F209F
:102DA0005A00416476616E6365642053657474698A
:102DB0006E6773004C6F61642046696C616D656E6F
:102DC00074202A00556E6C6F61642046696C616DD9
:102DD000656E74202A004F6666004F6E00554E4C9B
:102DE0004F41442046494C414D454E540046494CC4
:102DF000414D454E54204348414E4745005265736E
:102E0000742E20646520656D657267656E2E0044C2
:102E10006566696E69C3A7C3B565732024005275E2
:102E20006E6F75742053656E736F720052657472A5
:102E300061697200546F6F6C204368616E67650052
:102E4000546F6F6C204F666673657473004D363037
:102E50003020423020542569004D37303120542530
:102E600069004D3730322054256900556E6C6F6112
:102E70006420416C6C004D3730320054726F6361D6
:102E8000722066696C616D656E746F202A00436FF5
:102E90006E74696E7565005075726765206D6F722E
:102EA0006500524553554D45204F5054494F4E53A0
:102EB0003A005052494E5420504155534544002049
:102EC000204E6F7A7A6C653A2000426162797374A1
:102ED0006570205A0056656C2E2076656E746F6999
:102EE0006E6861002002204269636F207E004D659C
:102EF0006E75207072696E636970616C00546F74D6
:102F0000616C00466C75786F207E00466C75786F3A
:102F10000056656C6F636964616465002568753A85
:102F200025303268750025303268753A25303268B0
:102F300075002D2D2D002020202020202000496DFF
:102F40007072657373C3A36F2063616E63656C6198
:102F50006461004D323520500A4D323400506175A5
:102F600073696E672E2E2E000000220025002800B7
:102F70002B002E0031003400020100000501080181
:102F80000B0100002100240027002A002D00300042
:102F9000330001010000040107010A0105050505D0
:102FA000070508080808020202020A0A08080404C1
:102FB00004040101010101010101030303030303EF
:102FC0000303040707070C0C0C0C0C0C0C0C02027E
:102FD000020206060606060606060B0B0B0B0B0B7B
:102FE0000B0B010210202008081020401020408008
:102FF00002010201080402010102040810204080BD
:10300000804020100804020180040201804020104A
:103010000804020108040201010204081020408093
:10302000010204081020408020453A00205A3A004E
:1030300020593A00496D7072696D697220646F2081
:10304000534400205A3A200020593A200042656437
:1030500020583A20005072696E7420506175736573
:10306000640050726F62696E67204661696C6564C6
:103070000A0050726F62696E67204661696C656410
:1030800000486F6D6520257325732573204669728E
:10309000737400496E736572742066696C616D6546
:1030A0006E7420616E642070726573732062757433
:1030B000746F6E0A00503830325152322070726F85
:1030C0006E74612E005072696E74696E672E2E2EBA
:1030D00000220A00556E6B6E6F776E20636F6D6D08
:1030E000616E643A20220000000A0B02090C0D0EEA
:1030F00008070304010000000000000000000000B9
:1031000000000000000000000000000000000000BF
:10311000000000121110000000000000000000007C
:10312000000000000000000000000000003F00431D
:10313000616E63656C005374617274205072696EC5
:10314000740043616E6E6F7420656E7465722073D7
:1031500075626469723A2000052E2E004D6F766507
:10316000722025736D6D004D6F76657220302E31A3
:103170006D6D004D6F76657220316D6D004D6F760F
:1031800065722031306D6D00486F74656E64206F1C
:103190006666736574733A00205200454550524F7D
:1031A0004D20496E697469616C697A65640A0048EA
:1031B000617264636F6465642044656661756C74F4
:1031C0002053657474696E6773204C6F6164656425
:1031D0000A003B200020204D363033200020204DB7
:1031E00034313220530046696C616D656E74207213
:1031F000756E6F75742073656E736F723A00546FDD
:103200006F6C2D6368616E67696E673A0054312098
:103210004C002055005430204C0046696C616D65AF
:103220006E74206C6F61642F756E6C6F6164206CBE
:10323000656E677468733A0020204D383531205828
:10324000005A2D50726F6265204F66667365740078
:1032500020204D3230392053004175746F2D526556
:1032600074726163743A20533D3020746F20646936
:103270007361626C652C203120746F20696E7465F7
:10328000727072657420452D6F6E6C79206D6F764B
:10329000657320617320726574726163742F726547
:1032A000636F7665720020204D3230382053005213
:1032B00065636F7665723A20533C6C656E6774681F
:1032C0003E20463C756E6974732F6D3E002057009A
:1032D00020204D3230372053005265747261637480
:1032E0003A20533C6C656E6774683E20463C756EB0
:1032F0006974732F6D3E205A3C6C6966743E0020E1
:10330000204D343133205300506F7765722D4C6F50
:103310007373205265636F766572793A0020204D91
:103320003330312050005049442073657474696E05
:1033300067733A0020460020480020204D31343584
:103340002053004D6174657269616C206865617419
:10335000757020706172616D65746572733A0020DA
:103360004A002020473239205720490020204D3480
:1033700032302053004175746F20426564204C65E3
:1033800076656C696E673A0020204D3231382054E2
:103390000020204D323036205800486F6D65206F78
:1033A00066667365743A0020204D32303520420045
:1033B000416476616E6365643A20423C6D696E5F7C
:1033C0007365676D656E745F74696D655F75733E77
:1033D00020533C6D696E5F66656564726174653E1D
:1033E00020543C6D696E5F74726176656C5F6665D2
:1033F0006564726174653E20583C6D61785F785FEA
:103400006A65726B3E20593C6D61785F795F6A65D1
:10341000726B3E205A3C6D61785F7A5F6A65726BB1
:103420003E20453C6D61785F655F6A65726B3E006A
:1034300020204D323034205000416363656C65724A
:103440006174696F6E2028756E6974732F733229E9
:103450003A20503C7072696E745F616363656C3EC4
:1034600020523C726574726163745F616363656C62
:103470003E20543C74726176656C5F616363656C79
:103480003E0020204D3230312058004D6178696D6A
:10349000756D20416363656C65726174696F6E2040
:1034A00028756E6974732F7332293A0020204D32CB
:1034B00030332058004D6178696D756D2066656503
:1034C0006472617465732028756E6974732F732933
:1034D0003A0053746570732070657220756E69745C
:1034E0003A0020204D32303020530020440020206C
:1034F0004D3230302054002044697361626C656441
:103500000A0046696C616D656E7420736574746938
:103510006E67733A0020204D3134392043203B2020
:10352000556E69747320696E2043656C7369757399
:103530000A0020286D6D29002020473231202020EC
:10354000203B20556E69747320696E206D6D0000FC
:1035500000FA430000FA430000A0400000C8420007
:1035600000A0420000A0420000C8430000B042B8E2
:103570000B0000B80B0000640000001027000000E2
:103580000020C2000020C1000000000000484200EE
:10359000004842000080400202040000A0400000F9
:1035A000A0400000004000002044008018440000BB
:1035B0001644FFFFFF5761726E696E673A20486FCD
:1035C0006D696E672042756D702044697669736F0E
:1035D00072203C20310A00206C696D69746564209A
:1035E000746F2000204D6178200043616E6E6F740F
:1035F000206F70656E207375626469722000566575
:103600002D4A65726B00565A2D4A65726B005659E9
:103610002D4A65726B0056582D4A65726B005072C8
:103620006F62652059204F66667365740050726F33
:1036300062652058204F666673657400452070618E
:1036400073736F2F6D6D005A20706173736F2F6DE0
:103650006D005920706173736F2F6D6D005820706D
:103660006173736F2F6D6D004361703A003F5A2094
:103670006F7574206F662072616E67652028003F49
:1036800059206F7574206F662072616E67652028FF
:103690002D003F58206F7574206F662072616E6731
:1036A0006520282D0050726F6265204F6666736535
:1036B00074205800656E7175657565696E672022A6
:1036C000006F6B00526573656E643A2000000E0156
:1036D000900111241FBECFEFD1E2DEBFCDBF00E0CD
:1036E0000CBF13E0A0E0B2E0ECE7F9E702E00BBFAB
:1036F00002C007900D92A233B107D9F725E1A2E3EA
:10370000B3E001C01D92AF34B207E1F71BE1C8E698
:10371000DBE100E006C021970109802FFE010F9434
:10372000133AC736D10780E00807A9F70F94602441
:103730000D94AC3C0C9400002F923F924F925F92FC
:103740006F927F928F929F92AF92BF92CF92DF92B1
:10375000EF92FF920F931F93CF93DF93CDB7DEB716
:10376000A7970FB6F894DEBF0FBECDBF8FA32091F1
:10377000B8132EA311E01093B8138091BE148D34AA
:1037800009F4D7C3843511F40C94F22C873411F06A
:103790000C94132D8091BC149091BD148B31910524
:1037A00009F46AC124F58830910509F43FC04CF44E
:1037B00097FDBBC382309105CCF1049709F417C182
:1037C000B4C38B30910509F451C18531910511F4D1
:1037D0000C94152D0A9709F0A8C360E083E50E94B8
:1037E00009BD682F81E00E94C59A0C94152D8A327C
:1037F000910509F4BAC254F48D31910509F466C1FA
:103800000CF454C14E9709F47FC18FC38B359105D9
:1038100009F4F5C18C35910509F4F6C18A35910595
:1038200009F083C310929D0D0C94152D80914906CB
:10383000813011F00C94152D19821A821B821C8282
:10384000CE0101965C0122EEE22E23E1F22E0EE47F
:1038500012E035EEC32E30E1D32E912C88E5890D90
:103860000E94E1BCF50181935F01882311F10E9460
:103870006CBA2B013C01892D0E94C568882351F048
:10388000F8012081318142815381C301B2010F943B
:10389000243A09C0F6012081318142815381C3015C
:1038A000B2010F94233AF70160837183828393837B
:1038B0000AC0F80180819181A281B381F7018083E0
:1038C0009183A283B3839394F4E0EF0EF11C0C5F19
:1038D0001F4F24E0C20ED11C33E09312BFCF85E40A
:1038E0000E94E1BC8C83882301F10E946CBA6B01B9
:1038F0007C0183E00E94C568882371F020915A0200
:1039000030915B0240915C0250915D02C701B601AB
:103910000F94243A6B017C01C092EE13D092EF1306
:10392000E092F013F092F11310C080915A0290913E
:103930005B02A0915C02B0915D028093EE139093C4
:10394000EF13A093F013B093F11380913A148823EE
:1039500081F080918B1182FF0CC08C81882349F00B
:103960008981811103C08A81882319F080E00E9437
:1039700087F940E050E0BA0186E40E94C54A20E0A1
:1039800030E0A9010F94A73B181684F40E946CBA8A
:1039900020E030E040E752E40F94A73A60934602FB
:1039A00070934702809348029093490280911914C2
:1039B000882311F40C94502D85E40E9447968823A7
:1039C00011F40C94502D88E50E94479681110C94B7
:1039D000502D89E50E94479681110C94502D8AE55F
:1039E0000E94479681110C94502D0C941E2D80E559
:1039F0000E94E1BC882329F00E9473B86B017C010E
:103A000003C0C12CD12C760183E50E94E1BC882340
:103A100061F00E946CBA20E030E04AE754E40F9471
:103A200086330F94203B6B017C010F947E118091B3
:103A30003B0D811105C060E083EE95E00E9404F12A
:103A40000F94BA02C60ED71EE81EF91E0F94BA02D2
:103A5000DC01CB018C199D09AE09BF09B7FD02C07D
:103A60000C94152D80E00E94F934F0CF60E080E0E6
:103A70000E94C59A0C94152D0E9410FD81110C9482
:103A8000152D8CE0E5E8F2E0DE01119601900D9233
:103A90008A95E1F760E070E080E50E949270BE01D7
:103AA0006F5F7F4F0E945FEC0C94152D8091F21395
:103AB0008770873011F00C94822D60E08FE40E94B3
:103AC00009BD81110C94152D0C94822D0F94BA020E
:103AD0006093D00E7093D10E8093D20E9093D30E3C
:103AE0000E9410FD81110C94152D8091A20D882348
:103AF00011F40C94FC2D60E08FE40E9409BD81114B
:103B00000C94152D0C94FC2D2091621330916313AD
:103B1000409164135091651360914E0270914F0271
:103B200080915002909151020F94243AAB01BC0154
:103B300088E50E94C54A69837A838B839C832091A0
:103B40006613309167134091681350916913609127
:103B500052027091530280915402909155020F9439
:103B6000243AAB01BC0189E50E94C54A6D837E837E
:103B70008F839887BE016B5F7F4FCE0101960E94B5
:103B800083B8882311F40C94152D80E00E94919E37
:103B90000E9449C661E085E40E9409BD01E021E080
:103BA000482FBE016B5F7F4FCE0101960E94C8FD7A
:103BB0006B017C019B01AC010F94253C811119C064
:103BC00049815A816B817C818DE490E30E94C134EC
:103BD0004D815E816F81788588E490E30E94C134D5
:103BE000B701A60183E490E30E94C1348AE00E94F9
:103BF0008E320E9430C60E94DDC80C94152D8FE0D5
:103C000080939D0D0C94152D8091BB14882349F150
:103C1000893009F0A6C088E1A82E83E0B82E9EE482
:103C2000E92E92E0F92ED12C00E010E0F50181910F
:103C30005F010E94E1BC882369F00E946CBAF70121
:103C40006083718382839383133011F401E002C097
:103C5000DD24D3941F5FF4E0EF0EF11C143031F734
:103C600075C0B8E12B2EB3E03B2E16EEE12E1DE021
:103C7000F12E2EE432E03DA32CA305EEC02E00E190
:103C8000D02E00E010E0F10181911F010E94E1BC03
:103C9000882309F44AC00E946CBA2B013C011330FE
:103CA00049F0F60120813181428153810F94233AFA
:103CB0002B013C01ECA1FDA1208131814281538186
:103CC000C301B2010F94233A4B015C012DEB37E3A2
:103CD00046E855EB0F94A73B87FD0AC02DEB37E371
:103CE00046E855E3C501B4010F9420331816ECF4EF
:103CF000133051F440925A0250925B0260925C027F
:103D000070925D0201E011C0A5019401F70160818C
:103D10007181828193810F94243AF70160837183CA
:103D200082839383812F0F9436161F5FF4E0EF0E8A
:103D3000F11C2CA13DA12C5F3F4F3DA32CA334E0EF
:103D4000C30ED11C143009F09ECF05C0DD2019F040
:103D50000E94DBC806C0002321F08AE592E00F94A0
:103D60009F140E94DDC80C94152D80914906813066
:103D700011F00C94152D89E40E94E1BCE82E8823F3
:103D800021F00E9468BA082F01C000E08AE40E9476
:103D9000E1BCF82E882321F00E9468BA182F01C0D8
:103DA00010E0EE2011F0043020F4FF2041F0143038
:103DB00030F080EF95E00E9495320C94152D80E153
:103DC000EEE4F2E0A2EEB3E101900D928A95E1F704
:103DD000EE2019F1602F000F770B880B990B0F94D1
:103DE0002733209101143091021440910314509113
:103DF00004140F9486332091560430915704409157
:103E00005804509159040F94243A6093E21370932C
:103E1000E3138093E4139093E513FF2019F1612FCE
:103E2000110F770B880B990B0F94273320910514F2
:103E30003091061440910714509108140F94863362
:103E400020915A0430915B0440915C0450915D04D0
:103E50000F94243A6093E6137093E7138093E8136A
:103E60009093E91360E080E50E9409BD8823C1F1C9
:103E7000EE20D1F0209162133091631340916413CE
:103E8000509165136091E2137091E3138091E413F4
:103E90009091E5130F94233A6093E2137093E31328
:103EA0008093E4139093E513FF20D1F020916613E3
:103EB0003091671340916813509169136091E61334
:103EC0007091E7138091E8139091E9130F94233ACE
:103ED0006093E6137093E7138093E8139093E913CC
:103EE00040E050E0BA0186E40E94C54A6B017C01C3
:103EF00020E030E0A9010F94A73B18164CF420E015
:103F000030E040E752E4C701B6010F94A73A03C07E
:103F100060E070E0CB0169837A838B839C83CE0160
:103F200001960E9468C60C94152D0E94CAFA0C9442
:103F3000152D8091BC149091BD148C38910509F415
:103F400036C60CF083C18235910509F478C60CF0B1
:103F500082C08A31910509F49FC3BCF58431910573
:103F600009F4F2C27CF48131910509F4D9C22CF430
:103F7000029708F49DC20C94EF2C429709F46DC689
:103F80000C94EF2C8731910509F413C394F4853117
:103F9000910509F40AC3469711F00C94EF2C0E9486
:103FA00029D880918B11877F806280938B110C942C
:103FB000152D8831910509F411C3499711F00C941E
:103FC000EF2C0E94826F0C94152D8F31910509F40E
:103FD0000CC47CF48C31910509F4BFC30CF46AC3A2
:103FE0008D31910509F4C1C34E9709F4C5C30C94F2
:103FF000EF2C8C34910509F4A3C46CF48032910544
:1040000009F4CAC38B34910511F00C94EF2C0E9473
:104010001ACA0C94152D8D34910509F495C4813577
:10402000910511F00C94EF2C0E94F0750E9453CA78
:104030000F948F110E944B3268EE73E080E090E0A5
:104040000E94AD310E944E3260E085EE96E00E9403
:1040500004F10C94152D8E36910509F428C574F5DC
:104060008836910509F474C484F48435910509F403
:10407000F4C50CF4EBC58535910509F424C68C35DF
:10408000910509F443C60C94EF2C8B36910509F485
:1040900005C554F48936910509F4ABC48A369105F7
:1040A00009F4BBC40C94EF2C8C36910509F455C56A
:1040B0008D36910509F474C40C94EF2C8537910565
:1040C00009F4C9C60CF0A3C08137910509F44DC5A8
:1040D00094F48F36910509F4FBC48037910511F0F3
:1040E0000C94EF2C41E060E070E080ED96E00E94DF
:1040F000CB320C94152D8237910509F4A5C6833770
:10410000910511F00C94EF2C8DE398E00E9495320C
:1041100060E08DE298E00F94862360E088E198E00B
:104120000F94862361E082E99DE10F94862361E08C
:104130008DE098E00F94862361E08DEF97E00F9477
:10414000862360E084EF97E00F94862361E08AEE97
:1041500097E00F94862361E080EE97E00F9486232A
:1041600061E089ED97E00F94862361E081ED97E0AF
:104170000F94862361E083EC97E00F94862360E040
:1041800085EB97E00F94862360E086EA97E00F9432
:10419000862360E088E997E00F94862360E082E858
:1041A00097E00F94862360E081E797E00F948623E1
:1041B00060E082E697E00F94862361E08BE597E06C
:1041C0000F94862360E086E497E00F94862360E0F6
:1041D00088E397E00F94862360E085E297E00F94F0
:1041E000862360E088E197E00F94862360E083E116
:1041F00097E00F94862361E086E097E00F94862392
:1042000060E082EF96E00F9486230C94152D88379A
:10421000910509F46BC66CF48637910509F42BC639
:104220008737910511F00C94EF2C0E948AC90C94E9
:10423000152D8937910509F461C68D37910511F067
:104240000C94EF2C0E94826F0C94152D8139E1E0C3
:104250009E0711F40C94192B0CF082C0803D91053F
:1042600011F40C9450299CF5893C910509F422C75E
:10427000ACF48B39910509F4BCC434F4813991054F
:1042800009F443C60C94EF2C8E3B910509F4AEC49F
:10429000883C910509F4ADC60C94EF2C8D3C91053A
:1042A00009F499C754F48B3C910509F444C78C3C3C
:1042B000910509F45FC70C94EF2C8E3C910509F42D
:1042C0008DC78F3C910509F4A7C70C94EF2C8D3D49
:1042D000910511F40C94E42904F5893D910511F43C
:1042E0000C94A72974F4813D910511F40C949A293A
:1042F000833D910511F00C94EF2C0E94A5700C9455
:10430000152D8A3D910511F40C94BA298C3D910527
:1043100011F40C94BD290C94EF2C8D3221E09207FE
:1043200011F40C94952A6CF48232E1E09E0711F4AA
:104330000C94392A8C32914011F40C94802A0C94FC
:10434000EF2C8F3221E0920711F40C94162B803958
:10435000914011F00C94EF2C0F947E110C94152DBC
:10436000873FE1E09E0711F40C94022C0CF049C049
:10437000843A21E0920711F40C94292BFCF48A3939
:10438000E1E09E0709F4EEC364F48239914011F034
:104390000C94EF2C80E00E94E4A90E94DDC80C94EC
:1043A000152D8C3931E0930711F40C941F2B8D39A6
:1043B000914011F40C94B72C0C94EF2C843FF1E055
:1043C0009F0711F40C94FC2B6CF4853A31E09307B1
:1043D00011F40C942C2B8C3A914011F40C949F2BDB
:1043E0000C94EF2C853FF1E09F0711F40C94FF2B08
:1043F000863F914011F00C94EF2C0F9497090C9488
:10440000152D8E3B32E0930711F40C94A32C1CF570
:104410008835F2E09F0711F40C94282C6CF4883F47
:1044200031E0930711F40C940A2C8C30924011F473
:104430000C941B2C0C94EF2C8B35F2E09F0711F49D
:104440000C942B2C8D3B924011F00C94EF2C0E947D
:10445000DB6C0C94152D873E33E0930711F40C941C
:10446000A92CCCF48335F3E09F0711F40C94A62C0F
:10447000803A934011F00C94EF2C2091B9143091B4
:10448000BA1490918B11926090938B11C9010E9484
:1044900053D90C94152D883E33E0930711F40C94F6
:1044A000CE2C893E934011F40C94D12C0C94EF2C1B
:1044B00080E50E94E1BC882329F00E9473B86B015B
:1044C0007C0103C0C12CD12C760183E50E94E1BCA4
:1044D000882361F00E946CBA20E030E04AE754E49F
:1044E0000F9486330F94203B6B017C010F947E1157
:1044F0008091B9149091BA14009721F061E00E9464
:104500009CF105C060E089E096E00E9404F140E083
:10451000C701B6010E94793A0E949FFB0C94152DA9
:104520008091BF1484FF02C00C94FF2D8091C114B0
:1045300087FF02C00C94FF2D8091C214837011F08C
:104540000C94FF2D0C941C2E80918B1183FF25C0A1
:1045500089E396E00E94953280918B1183FF17C00A
:104560008AEA91E10E94A1A28BE1EAEAF1E1DE018F
:10457000119601900D928A95E1F760E070E0CE010E
:1045800001960F94451BCE0101960E94AD968AE2DA
:1045900096E00E9495320C94152D0E94C7328AE451
:1045A00096E00E9495320C94152D0E94EFDB0C943E
:1045B000152DE091B914F091BA148081882329F067
:1045C000803209F410823196F8CF60E08091B914FE
:1045D0009091BA140E949BD90C94152D83E50E94EA
:1045E000E1BC882321F00E9434BA0E94A25184E5E4
:1045F0000E94E1BC8823A9F00E9434BA6B017C01BF
:104600000E94FFC9C092EF0BD092F00BE092F10B29
:10461000F092F20BCD28CE28CF2819F081E08093BC
:10462000E1138091900C8823F9F080E090E0A8E4F9
:10463000B2E488A399A3AAA3BBA31C8E1D8E1E8ED1
:104640001F8E19821A821B821C8200E010E020E07B
:10465000AE01405E5F4FBE01645E7F4FCE010196AA
:104660000E9474990C94152D0E942732882381F0A2
:104670000E943AD80E941ACA80E59EE00E94DFD7C5
:104680001092C3141092C4141092C5141092C61440
:104690000E949FFB0C94152D80918B1183FD02C00D
:1046A0000C94152D83E50E94E1BC81110C942B2EF6
:1046B0000C94152D83E40E944796882319F18EE50A
:1046C00096E00E9495328091F112882391F0BE010C
:1046D0006F5F7F4F8EEE92E10E9468A18E010F5FA7
:1046E0001F4FF80181918F01882339F00E948E328B
:1046F000F8CF84E596E00E9495328AE00E948E32DF
:104700000C94152D80918B1182FF21C08DE696E0CF
:104710000E94953260918711709188118091891162
:1047200090918A114AE00E9498338FE20E948E3263
:1047300060918311709184118091851190918611FF
:104740004AE00E9498330E94D2340C94152D8FE7D2
:1047500096E00E9495320C94152D8091B914909199
:10476000BA140E9453D90C94152D80918B118E7F11
:1047700080938B110C94152D80918B1183FD02C0B9
:104780000C94152D0E948EFA8091B9149091BA1450
:104790000E9479DB0C94152D80918B1182FD0F9472
:1047A0007E1180918B1183FD02C00C94152D60E069
:1047B00080E50E9409BD182F682F8091B91490914F
:1047C000BA140E949BD983E50E94E1BC882321F0A2
:1047D0000E9434BA0E94A2510E943AD811110C943E
:1047E000152D0E941ACA0C94152D0E94CBC97B016D
:1047F0008C0120E831E541E050E00F947639C901A1
:104800006DE671E00F94CC394B015C01C801B70132
:1048100020E13EE040E050E00F947639CA01B90152
:1048200028E130E040E050E00F947639762E672E94
:10483000C62ED72EACE32A2E312C412C512CC80188
:10484000B701A20191010F947639F62EE72ECA0125
:10485000B901A20191010F947639CB018E010F5F4E
:104860001F4F8114910499F0EF92FF927F936F9301
:104870006F927F92BF92AF929F928F9280E996E063
:104880009F938F931F930F930F94B83213C0A1146B
:10489000B104B1F0EF92FF927F936F936F927F928A
:1048A000BF92AF9284E996E09F938F931F930F93EB
:1048B0000F94B8320FB6F894DEBF0FBECDBF30C034
:1048C000CD2879F0EF92FF927F936F936F927F9252
:1048D00088E996E09F938F931F930F930F94B832BC
:1048E000E9CF892B69F0EF92FF927F936F938CE968
:1048F00096E09F938F931F930F930F94B832DACF64
:10490000EF92FF9280EA96E09F938F931F930F930D
:104910000F94B8320F900F900F900F900F900F9050
:1049200060E0C8010E949CF10E94C732B80184EA8D
:1049300096E00E94B0328AE00E948E320C94152DCF
:104940000E943ECA0C94152D0E9453CA0C94152D3A
:1049500080919C0D83FF02C00C94152D0E949B68D2
:10496000182F87FF02C00C94152D89E40E94E1BC2A
:10497000882311F40C94302E0E9444BA90E018164B
:10498000190614F481E090E026E0289FF001299FA9
:10499000F00D1124E55CFB4E808191810C943B2E3F
:1049A00080919C0D83FF02C00C94152D0E949B6882
:1049B000182F87FF02C00C94152D89E40E94E1BCDA
:1049C000882311F40C94432E0E9444BA90E01816E8
:1049D000190614F481E090E026E0289FF001299F59
:1049E000F00D1124E55CFB4E8081918100E00C9478
:1049F000542E0E949B68182F87FD0AC081EC96E315
:104A00000E949532812F0E9438738AE00E948E3274
:104A10009EA19093B8130C94F32F60E080E50E9460
:104A2000FDBC81110C94152D81E40E9447968823CA
:104A300049F0E091CB0EF0E0ED55F24F6081062F8A
:104A400010E002C00FEF10E089E40E94E1BC88236F
:104A500099F00E9444BA90E01816190614F481E007
:104A600090E026E0289FF001299FF00D1124E55CDD
:104A7000FB4E0481158108C083E50E94E1BC8823B8
:104A800019F00E9434BA8B01B8010F3F110519F0DB
:104A900010F06FEF70E06093A30DC7C760E080E592
:104AA0000E94FDBC8111C1C71092A30DBEC78EE448
:104AB0000E94E1BC882309F4B8C70E9434BA60930D
:104AC000F3037093F4038093F5039093F603ADC75B
:104AD00083E50E944796882331F060E083E50E94D9
:104AE000FDBC80939C0D0E94C73289EC96E00E9429
:104AF000953280919C0D882369F1FEE2EF2EFAE059
:104B0000FF2E00E010E020E080919C0D90E0A0E0FE
:104B1000B0E0002E04C0B695A795979587950A94A6
:104B2000D2F780FF0EC0DD24D394D20E222319F0D9
:104B30008CE20E948E32F701859194910E94953209
:104B40002D2D0F5F1F4FE2E0EE0EF11C0530110519
:104B5000D9F6D3CD85EC96E0CECD1092B713109256
:104B6000620263C70E94023260C783E50E94E1BC13
:104B7000882371F00E9444BA282F30E02D3331058C
:104B80001CF48093000251C78CE3809300024DC750
:104B90000E94C7324091000250E060E070E08EED6C
:104BA00096E00E9405348AE00E948E323EC78091D2
:104BB0009C0D83FD3AC789E40E94E1BC882311F46F
:104BC0000C94A32E0E9444BA90E01816190614F40F
:104BD00081E090E026E0289FF001299FF00D11244C
:104BE000E55CFB4E628173810C94AD2E0E94AB4F4D
:104BF0001CC783E50E94E1BC882309F416C70E9404
:104C000044BA182F90E0CD970CF01CE310933803B2
:104C10000F94BA026B017C01212F30E0A8EEB3E0C3
:104C20000F94A339C60ED71EE81EF91EC092340396
:104C3000D0923503E0923603F0923703F6C68091A6
:104C40009D0D8F7D806180939D0DEFC680919D0DA0
:104C50008F7E806280939D0DE8C683E50E94E1BC53
:104C60008823E9F00F94BA026093D00E7093D10EAE
:104C70008093D20E9093D30E0E946CBA20E030E065
:104C80004AE754E40F9486330F94203B609301026B
:104C9000709302028093030290930402C6C680912F
:104CA000BF1484FF02C00C94BE2E8091C11487FFF4
:104CB00002C00C94BE2E8091C214837011F00C942B
:104CC000BE2E0C94EF2E83E50E944796882309F4AC
:104CD000ACC60F94BA026093D00E7093D10E80933D
:104CE000D20E9093D30E0E946CBA20E030E04AE7D7
:104CF00054E40F9486330F94203B609339037093F0
:104D00003A0380933B0390933C038FC60E949B68B9
:104D100087FD8BC69091BF1494FD04C09091C1147F
:104D200097FF0AC078E1C72E73E0D72EEFE6EE2E8C
:104D3000E3E1FE2E10E009C09091C214937091F748
:104D4000682F81E00E94947170C6F60181916F0115
:104D50000E94E1BC882309F46DC0133009F063C0E0
:104D60000E946CBA4B015C0120E030E040EA51E463
:104D70000F94203387FF4EC0A501940160918F13DB
:104D80007091901380919113909192130F94A73A80
:104D90002B013C019B01AC01609193147091941420
:104DA00080919514909196140F9486336093931488
:104DB000709394148093951490939614A301920188
:104DC00060919F137091A0138091A1139091A213F1
:104DD0000F94863360939F137093A0138093A11355
:104DE0009093A2136091CB067091CC068091CD0672
:104DF0009091CE060F942533A30192010F94863330
:104E00000F94203B6093CB067093CC068093CD0625
:104E10009093CE0680928F1390929013A09291134C
:104E2000B092921307C00E946CBAF701648B758B25
:104E3000868B978B1F5FF4E0EF0EF11C143009F0A6
:104E400084CF0F945A11F1C50E94C9F48FE391E108
:104E50000E9448CDEAC58091B9149091BA14009788
:104E600009F416CCFC012081222309F411CC60E066
:104E70000E949CF1DAC50091B9141091BA1494E023
:104E8000F12C40E0915029F1F8018081282F2B7FEF
:104E9000213421F421812133E1F408C08035C9F4A3
:104EA000F801818180538A3048F013C0813421F0A9
:104EB000853421F441E002C0FF24F39498012E5F71
:104EC0003F4F89012F5F3F4FF80180818032C9F346
:104ED000D9CF41110E94C732FF2021F085E199E02E
:104EE0000E949532C8010E94D8349FC581E080930A
:104EF0008104809380040E94BCC997C510928104EC
:104F0000109280040E94BCC990C560E070E083E507
:104F10000E94EEBC823038F00E94C33289E199E0F1
:104F20000E94953282C58C01112788E40E94E1BC61
:104F30008823E1F00E9468BA8A3A910544F00E9401
:104F400068BA8530914034F40E9468BA05C08AEA94
:104F500090E002C084E091E026E0209FF001219FD4
:104F6000F00D1124E55CFB4E9183808382E40E9466
:104F7000E1BC8823D9F00E9468BA97FD08C00E945E
:104F800068BA8937910534F40E9468BA05C080E098
:104F900090E002C088E790E026E0209FF001219F8A
:104FA000F00D1124E55CFB4E9383828386E40E941E
:104FB000E1BC882309F439C50E9468BA97FD09C08D
:104FC0000E9468BA8F3F910509F034F40E9468BAD4
:104FD00005C080E090E002C08FEF90E026E0209FC7
:104FE000F001219FF00D1124E55CFB4E9583848335
:104FF0001CC50E949B68182F87FD17C50091E50D01
:1050000084E40E94E1BC882309F4ECC60E946CBAD7
:105010006B017C0120E030E0A9010F94203388234C
:1050200009F442C024E01202F0011124E352F24FCD
:10503000C082D182E282F38220E030E0A901609157
:10504000DD0D7091DE0D8091DF0D9091E00D0F94DC
:10505000203381110CC080E090E0A0EEBFE380938C
:10506000DD0D9093DE0DA093DF0DB093E00D20E0F9
:1050700030E0A9016091E10D7091E20D8091E30DA6
:105080009091E40D0F94203381110CC080E090E0EA
:10509000A0EEBFE38093E10D9093E20DA093E30DAA
:1050A000B093E40D01E09EC680E08093E50D0F947F
:1050B000CB0FBBC40E949B6887FDB7C458E1C52EC7
:1050C00053E0D52E6FE6E62E63E1F62E10E0F601F2
:1050D00081916F010E944796882331F10E946CBA3A
:1050E0006C8F7D8F8E8F9F8F80E1E1E9F2E0DE0192
:1050F000119601900D928A95E1F79E012F5F3F4F27
:105100004AEB5DE1612FCE014C960F9485106C8DBA
:105110007D8D8E8D9F8D0F94203BF7016083718371
:10512000828393830F9413111F5FF4E0EF0EF11C41
:10513000143069F67AC40E949B6887FD76C448E102
:10514000E42E43E0F42E0FE613E1F70181917F0195
:105150000E944796882339F00E946CBAF80164A334
:1051600075A386A397A30C5F1F4FF3E10F371F07AB
:1051700061F75BC48091C01487FD39C68091C1146A
:105180008E7009F034C64091A3135091A41360911E
:10519000A5137091A6138BE399E00E94C13440914E
:1051A000A7135091A8136091A9137091AA1388E9CD
:1051B00091E30E94C1344091AB135091AC136091C4
:1051C000AD137091AE1384EF94E30E94C1348AE072
:1051D0000E948E322AC40E94A3BA27C432EFE32E63
:1051E0003DE0F32E10E088E5810F0E94479688236A
:1051F00051F00E946CBAF7016083718382839383BC
:10520000812F0F9436161F5FF4E0EF0EF11C133060
:1052100051F70E94DDC809C483E50E9447968823A0
:1052200051F00E946CBA60931A1470931B1480930F
:105230001C1490931D1486E40E944796882381F0E5
:105240000E946CBA20E030E040E752E40F94A73AA5
:1052500060931E1470931F14809320149093211454
:105260008AE50E944796882351F00E946CBA6093A9
:10527000221470932314809324149093251487E5AB
:105280000E944796882309F4D0C30E946CBA6093A9
:105290002E1470932F148093301490933114C5C33F
:1052A00083E50E944796882351F00E946CBA609370
:1052B000261470932714809328149093291486E45D
:1052C0000E944796882381F00E946CBA20E030E06B
:1052D00040E752E40F94A73A60932A1470932B147A
:1052E00080932C1490932D1482E50E944796882376
:1052F00081F00E946CBA20E030E040E752E40F9465
:10530000A73A6093361470933714809338149093AF
:10531000391487E50E944796882309F486C30E94C2
:105320006CBA609332147093331480933414909356
:1053300035147BC383E50E944796882309F475C31F
:105340000E9458BA809319140E9496686EC38AE529
:105350000E94E1BC882351F00E946CBA6093AA06B7
:105360007093AB068093AC069093AD0680E00E94EC
:1053700044725BC30E94CF7158C383E50E94E1BCB5
:10538000882331F00E9468BA9093380280933702E4
:105390008091BF149091C014A091C114B091C21417
:1053A000892B8A2B8B2B09F040C3609137027091B7
:1053B00038028BE499E00E943F3485E20E948E32ED
:1053C0008AE00E948E3231C30E949B68F82E87FDCE
:1053D0002CC383E50E94E1BC0F2D0F2C000C110B98
:1053E000882361F10E9468BAF801EE0FFF1FEF57A2
:1053F000FD4F91838083000F111F000F111F980133
:10540000255D3D4F7901BC01990F880B990B0F94D5
:1054100027332AE037ED43E25CE30F948633F8014B
:10542000E956FB4E20813181428153810F948633AE
:10543000F7016083718382839383F7C20E94C7322E
:1054400085E40E948E3280E38F0D0E948E32000F21
:10545000111FF801EF57FD4F608171818FE499E0D2
:105460000E943F3485E20E948E328AE00E948E3292
:10547000DCC28AE50E94E1BC811105C083E50E947F
:10548000E1BC882331F10E946CBA20E030E040E0BA
:1054900050EC0F94203387FDF5C40E946CBA20E0D5
:1054A00030E040E050E40F94A73B18160CF4E5C43C
:1054B0000E946CBA20918B1330918C1340918D1304
:1054C00050918E130F9486330F94193BCB010E9499
:1054D000D5F88091C11487FDDAC48091C21483701D
:1054E00009F0D5C40E94C7326091D40E7091D50ED8
:1054F0008AEC9EE20E943F348AE00E948E3295C27E
:1055000064E071E083E50E9492708C0168EE73E0C4
:1055100080E50E9492708938F3E19F0710F088E8D7
:1055200093E1B8010E94D7F080C260E085E40E9458
:10553000FDBC823008F073C080E50E944796882346
:1055400051F00E946CBA6093BA0D7093BB0D8093BA
:10555000BC0D9093BD0D89E40E944796882381F08D
:105560000E946CBA2CEA35EC47E25EE30F94863376
:105570006093BE0D7093BF0D8093C00D9093C10DCD
:1055800084E40E944796882381F00E946CBA2CEA3A
:1055900035EC47E25EE30F94A73A6093C20D709337
:1055A000C30D8093C40D9093C50D0E94C7324091E6
:1055B000BA0D5091BB0D6091BC0D7091BD0D8FE582
:1055C00099E00E94C1342CEA35EC47E25EE3609139
:1055D000BE0D7091BF0D8091C00D9091C10D0F94C3
:1055E000A73AAB01BC018BE599E00E94C1342CEADB
:1055F00035EC47E25EE36091C20D7091C30D80917E
:10560000C40D9091C50D0F948633AB01BC0187E5A5
:1056100099E00E94C1348AE00E948E3206C20E9444
:10562000C33288E192E20E949532FFC10E94DC4AB7
:10563000FCC181E00E94E4A90E94DDC8F6C180910E
:10564000BF1483FD2AC48091C114867009F025C45B
:1056500049C40E940EBBE9C16FEF7FEF89E40E944D
:10566000EEBC082F6FEF7FEF8AE40E94EEBC182F8C
:105670008AE50E94E1BC811108C081E50E94E1BC7D
:10568000D82E882309F448C401C0D12CC02E81E053
:10569000800F853008F04CC0912E81E0810F85305D
:1056A00008F046C00E946CBA2B013C01F02E07FDA9
:1056B000F12C07FF02C0F3E0CF2E812E17FD812CC5
:1056C00017FF02C0E3E09E2ECF1408F4AEC1E82C11
:1056D00024E0F29E500111249E1440F10E2D10E0A2
:1056E000DD2071F0F501E00FF11FEE0FFF1FEE0F4F
:1056F000FF1FE95BFB4E208131814281538103C052
:1057000020E030E0A9010A0D1B1D000F111F000F42
:10571000111F095B1B4EC301B2010F94243AF8011B
:105720006083718382839383E394D6CFF394CCCF49
:105730000E94C33280EF95E00E94953276C10E94AC
:1057400010FD811172C10FE715E32EE432E03DA395
:105750002CA3CE0101961C0142EBC42E45E3D42EAE
:105760007C01F8016591759185919491ECA1FDA161
:1057700081909190A190B190FDA3ECA3A50194011B
:105780000F94233A2B013C01F701608371838283DC
:10579000938320E030E040EA51EC0F94A73B87FD73
:1057A0000AC020E030E040EA51E4C301B2010F94A6
:1057B000203318162CF4F601849118160CF4B3C398
:1057C000F70181909190A190B1907F0120E030E0AD
:1057D00040EA51ECC501B4010F94A73B87FDADC36E
:1057E00020E030E040EA51E4C501B4010F942033D9
:1057F00018160CF0B6C3A1C30E945A8316C10F94A9
:10580000730B13C161E083E50E9409BD81270F94EA
:10581000890B0BC181E08093FC130E94277D1092BD
:10582000FC13882309F401C10E94C73282EF99E07A
:105830000E949532FAC080918B1182FF04C080646F
:1058400080938B11F2C083FFF0C00E948EFAEDC0EE
:105850000E94226EEAC00E949B68082F87FDE5C067
:1058600085E50E9447968823A9F1E02E002E000CC2
:10587000FF080E946CBA4B015C0120E030E0A901F6
:105880000F94A73B87FF04C0B7FAB094B7F8B09461
:10589000C70123E0880F991F2A95E1F79C01275F34
:1058A0003B4E7901F90180829182A282B38220E08D
:1058B00030E048E453E4C501B4010F94A73B181647
:1058C0004CF480E090E0A8E4B3E4F7018083918396
:1058D000A283B3838CE40E944796882309F4A5C071
:1058E000002E000C110B0E946CBA6B017C0120E0B1
:1058F00030E0A9010F94A73B87FF04C0F7FAF094AA
:10590000F7F8F09483E0000F111F8A95E1F7075F25
:105910001B4EF801C482D582E682F78220E030E097
:1059200048E453E4C701B6010F94A73B18160CF0E6
:105930007CC080E090E0A8E4B3E4F8018483958320
:10594000A683B78372C00E94A66B6FC00F94B92064
:105950006CC081E0809349061092640D60E083E59D
:105960000E9409BD811161C00F9433205EC083E5A0
:105970000E944796882339F00E9458BA80933A14BF
:105980000E949D9652C00E94C7328DEF99E00E94FE
:10599000953280913A140E94A43247C00E94DE687A
:1059A00044C00E94CBC96D3371058105910520F07B
:1059B0008AE29AE00F94D02386E29AE00F94D023F3
:1059C0000E9495960E94E4DB82E19AE00E94953263
:1059D00087EA90E2909386048093850426C00E9413
:1059E000CAFA23C01091BC140F94BA026093D00E6F
:1059F0007093D10E8093D20E9093D30E212F012E4F
:105A0000000C330B8091CB0E90E02817390729F05A
:105A100060E083E50E9409BD01C081E0682F812F0D
:105A20000E94D0A602C00E94CAFAFFA1F11102C0D2
:105A30000F9423202EA12093B813D5C28090EE138B
:105A40009090EF13A090F013B090F11320915A02B0
:105A500030915B0240915C0250915D02C501B4013E
:105A60000F94233A6B017C0120E030E0A9010F94F0
:105A7000A73B87FFABC22DEC3CEC4CEC5DEBC701C8
:105A8000B6010F94203318165CF0C701B601905888
:105A900020E030E040E251E40F94203318161CF46B
:105AA0000E94F5C2C2CF0091CB0E10E00E5C1C4FDD
:105AB0007724739420E030E0A901C701B6010F9468
:105AC000A73B18160CF0712CF80180818711E8CFE4
:105AD00080925A0290925B02A0925C02B0925D02A8
